{
  "_format": "hh-sol-artifact-1",
  "contractName": "Arbitrage",
  "sourceName": "contracts/Arbitrage.sol",
  "abi": [
    {
      "inputs": [
        {
          "internalType": "contract IArbitrageERC20",
          "name": "_USC",
          "type": "address"
        },
        {
          "internalType": "contract IArbitrageERC20",
          "name": "_CHI",
          "type": "address"
        },
        {
          "internalType": "contract IRewardController",
          "name": "_rewardController",
          "type": "address"
        },
        {
          "internalType": "contract IPriceFeedAggregator",
          "name": "_priceFeedAggregator",
          "type": "address"
        },
        {
          "internalType": "contract IReserveHolder",
          "name": "_reserveHolder",
          "type": "address"
        }
      ],
      "stateMutability": "nonpayable",
      "type": "constructor"
    },
    {
      "inputs": [
        {
          "internalType": "uint256",
          "name": "deltaETH",
          "type": "uint256"
        },
        {
          "internalType": "uint256",
          "name": "receivedETH",
          "type": "uint256"
        }
      ],
      "name": "DeltaBiggerThanAmountReceivedETH",
      "type": "error"
    },
    {
      "inputs": [],
      "name": "PriceSlippageTooBig",
      "type": "error"
    },
    {
      "inputs": [],
      "name": "PricesAreNotCompatibile",
      "type": "error"
    },
    {
      "inputs": [
        {
          "internalType": "uint16",
          "name": "_tolerance",
          "type": "uint16"
        }
      ],
      "name": "ToleranceTooBig",
      "type": "error"
    },
    {
      "anonymous": false,
      "inputs": [
        {
          "indexed": true,
          "internalType": "address",
          "name": "account",
          "type": "address"
        },
        {
          "indexed": true,
          "internalType": "uint256",
          "name": "arbNum",
          "type": "uint256"
        },
        {
          "indexed": false,
          "internalType": "uint256",
          "name": "deltaUsd",
          "type": "uint256"
        },
        {
          "indexed": false,
          "internalType": "uint256",
          "name": "reserveDiff",
          "type": "uint256"
        },
        {
          "indexed": false,
          "internalType": "uint256",
          "name": "ethPrice",
          "type": "uint256"
        },
        {
          "indexed": false,
          "internalType": "uint256",
          "name": "rewardValue",
          "type": "uint256"
        }
      ],
      "name": "ExecuteArbitrage",
      "type": "event"
    },
    {
      "anonymous": false,
      "inputs": [
        {
          "indexed": true,
          "internalType": "address",
          "name": "account",
          "type": "address"
        },
        {
          "indexed": true,
          "internalType": "uint256",
          "name": "arbNum",
          "type": "uint256"
        },
        {
          "indexed": false,
          "internalType": "uint256",
          "name": "amount",
          "type": "uint256"
        },
        {
          "indexed": false,
          "internalType": "uint256",
          "name": "ethPrice",
          "type": "uint256"
        }
      ],
      "name": "Mint",
      "type": "event"
    },
    {
      "anonymous": false,
      "inputs": [
        {
          "indexed": true,
          "internalType": "address",
          "name": "previousOwner",
          "type": "address"
        },
        {
          "indexed": true,
          "internalType": "address",
          "name": "newOwner",
          "type": "address"
        }
      ],
      "name": "OwnershipTransferred",
      "type": "event"
    },
    {
      "inputs": [],
      "name": "BASE_PRICE",
      "outputs": [
        {
          "internalType": "uint256",
          "name": "",
          "type": "uint256"
        }
      ],
      "stateMutability": "view",
      "type": "function"
    },
    {
      "inputs": [],
      "name": "CHI",
      "outputs": [
        {
          "internalType": "contract IArbitrageERC20",
          "name": "",
          "type": "address"
        }
      ],
      "stateMutability": "view",
      "type": "function"
    },
    {
      "inputs": [],
      "name": "EQ_PRICE_DELTA",
      "outputs": [
        {
          "internalType": "uint256",
          "name": "",
          "type": "uint256"
        }
      ],
      "stateMutability": "view",
      "type": "function"
    },
    {
      "inputs": [],
      "name": "MAX_FEE",
      "outputs": [
        {
          "internalType": "uint256",
          "name": "",
          "type": "uint256"
        }
      ],
      "stateMutability": "view",
      "type": "function"
    },
    {
      "inputs": [],
      "name": "MAX_PRICE_TOLERANCE",
      "outputs": [
        {
          "internalType": "uint16",
          "name": "",
          "type": "uint16"
        }
      ],
      "stateMutability": "view",
      "type": "function"
    },
    {
      "inputs": [],
      "name": "POOL_FEE",
      "outputs": [
        {
          "internalType": "uint256",
          "name": "",
          "type": "uint256"
        }
      ],
      "stateMutability": "view",
      "type": "function"
    },
    {
      "inputs": [],
      "name": "USC",
      "outputs": [
        {
          "internalType": "contract IArbitrageERC20",
          "name": "",
          "type": "address"
        }
      ],
      "stateMutability": "view",
      "type": "function"
    },
    {
      "inputs": [],
      "name": "USC_TARGET_PRICE",
      "outputs": [
        {
          "internalType": "uint256",
          "name": "",
          "type": "uint256"
        }
      ],
      "stateMutability": "view",
      "type": "function"
    },
    {
      "inputs": [],
      "name": "WETH",
      "outputs": [
        {
          "internalType": "address",
          "name": "",
          "type": "address"
        }
      ],
      "stateMutability": "view",
      "type": "function"
    },
    {
      "inputs": [
        {
          "internalType": "uint256",
          "name": "reserveIn",
          "type": "uint256"
        },
        {
          "internalType": "uint256",
          "name": "priceIn",
          "type": "uint256"
        },
        {
          "internalType": "uint256",
          "name": "reserveOut",
          "type": "uint256"
        },
        {
          "internalType": "uint256",
          "name": "priceOut",
          "type": "uint256"
        }
      ],
      "name": "_calculateDelta",
      "outputs": [
        {
          "internalType": "uint256",
          "name": "",
          "type": "uint256"
        }
      ],
      "stateMutability": "pure",
      "type": "function"
    },
    {
      "inputs": [
        {
          "internalType": "uint256",
          "name": "ethPrice",
          "type": "uint256"
        }
      ],
      "name": "_calculateDeltaETH",
      "outputs": [
        {
          "internalType": "uint256",
          "name": "",
          "type": "uint256"
        }
      ],
      "stateMutability": "view",
      "type": "function"
    },
    {
      "inputs": [
        {
          "internalType": "uint256",
          "name": "ethPrice",
          "type": "uint256"
        }
      ],
      "name": "_calculateDeltaUSC",
      "outputs": [
        {
          "internalType": "uint256",
          "name": "",
          "type": "uint256"
        }
      ],
      "stateMutability": "view",
      "type": "function"
    },
    {
      "inputs": [],
      "name": "_getReservesData",
      "outputs": [
        {
          "internalType": "bool",
          "name": "isExcessOfReserves",
          "type": "bool"
        },
        {
          "internalType": "uint256",
          "name": "reserveDiff",
          "type": "uint256"
        },
        {
          "internalType": "uint256",
          "name": "reserveValue",
          "type": "uint256"
        }
      ],
      "stateMutability": "view",
      "type": "function"
    },
    {
      "inputs": [],
      "name": "executeArbitrage",
      "outputs": [
        {
          "internalType": "uint256",
          "name": "",
          "type": "uint256"
        }
      ],
      "stateMutability": "nonpayable",
      "type": "function"
    },
    {
      "inputs": [],
      "name": "getArbitrageData",
      "outputs": [
        {
          "internalType": "bool",
          "name": "isPriceAboveTarget",
          "type": "bool"
        },
        {
          "internalType": "bool",
          "name": "isExcessOfReserves",
          "type": "bool"
        },
        {
          "internalType": "uint256",
          "name": "reserveDiff",
          "type": "uint256"
        },
        {
          "internalType": "uint256",
          "name": "discount",
          "type": "uint256"
        }
      ],
      "stateMutability": "view",
      "type": "function"
    },
    {
      "inputs": [],
      "name": "maxMintPriceDiff",
      "outputs": [
        {
          "internalType": "uint256",
          "name": "",
          "type": "uint256"
        }
      ],
      "stateMutability": "view",
      "type": "function"
    },
    {
      "inputs": [],
      "name": "mint",
      "outputs": [
        {
          "internalType": "uint256",
          "name": "",
          "type": "uint256"
        }
      ],
      "stateMutability": "payable",
      "type": "function"
    },
    {
      "inputs": [
        {
          "internalType": "uint256",
          "name": "wethAmount",
          "type": "uint256"
        }
      ],
      "name": "mintWithWETH",
      "outputs": [
        {
          "internalType": "uint256",
          "name": "",
          "type": "uint256"
        }
      ],
      "stateMutability": "nonpayable",
      "type": "function"
    },
    {
      "inputs": [],
      "name": "owner",
      "outputs": [
        {
          "internalType": "address",
          "name": "",
          "type": "address"
        }
      ],
      "stateMutability": "view",
      "type": "function"
    },
    {
      "inputs": [],
      "name": "poolFactory",
      "outputs": [
        {
          "internalType": "contract IUniswapV2Factory",
          "name": "",
          "type": "address"
        }
      ],
      "stateMutability": "view",
      "type": "function"
    },
    {
      "inputs": [],
      "name": "priceFeedAggregator",
      "outputs": [
        {
          "internalType": "contract IPriceFeedAggregator",
          "name": "",
          "type": "address"
        }
      ],
      "stateMutability": "view",
      "type": "function"
    },
    {
      "inputs": [],
      "name": "priceTolerance",
      "outputs": [
        {
          "internalType": "uint16",
          "name": "",
          "type": "uint16"
        }
      ],
      "stateMutability": "view",
      "type": "function"
    },
    {
      "inputs": [],
      "name": "renounceOwnership",
      "outputs": [],
      "stateMutability": "nonpayable",
      "type": "function"
    },
    {
      "inputs": [],
      "name": "reserveHolder",
      "outputs": [
        {
          "internalType": "contract IReserveHolder",
          "name": "",
          "type": "address"
        }
      ],
      "stateMutability": "view",
      "type": "function"
    },
    {
      "inputs": [],
      "name": "rewardController",
      "outputs": [
        {
          "internalType": "contract IRewardController",
          "name": "",
          "type": "address"
        }
      ],
      "stateMutability": "view",
      "type": "function"
    },
    {
      "inputs": [
        {
          "internalType": "uint256",
          "name": "_maxMintPriceDiff",
          "type": "uint256"
        }
      ],
      "name": "setMaxMintPriceDiff",
      "outputs": [],
      "stateMutability": "nonpayable",
      "type": "function"
    },
    {
      "inputs": [
        {
          "internalType": "uint16",
          "name": "_priceTolerance",
          "type": "uint16"
        }
      ],
      "name": "setPriceTolerance",
      "outputs": [],
      "stateMutability": "nonpayable",
      "type": "function"
    },
    {
      "inputs": [],
      "name": "swapRouter",
      "outputs": [
        {
          "internalType": "contract IUniswapV2Router02",
          "name": "",
          "type": "address"
        }
      ],
      "stateMutability": "view",
      "type": "function"
    },
    {
      "inputs": [
        {
          "internalType": "address",
          "name": "newOwner",
          "type": "address"
        }
      ],
      "name": "transferOwnership",
      "outputs": [],
      "stateMutability": "nonpayable",
      "type": "function"
    },
    {
      "inputs": [],
      "name": "uscEthPool",
      "outputs": [
        {
          "internalType": "address",
          "name": "",
          "type": "address"
        }
      ],
      "stateMutability": "view",
      "type": "function"
    },
    {
      "stateMutability": "payable",
      "type": "receive"
    }
  ],
  "bytecode": "0x610140604090808252346200036f5760a08162004763803803809162000026828562000374565b8339810103126200036f576200003c81620003ae565b916020916200004d838201620003ae565b81830151909390916001600160a01b039081841684036200036f5760608101519082821682036200036f57608001519682881688036200036f57829160009560018755600154983360018060a01b03198b1617600155885199853391167f8be0079c531659141344cd1fd0a4f28419497f9722a3daafe3b4186f6b6457e08a80a3608084905260a05260c05260e05261010097885263e6a4390560e01b875216600486015273c02aaa39b223fe8d0a0e5c4f27ead9083c756cc260248601528185604481735c69bee701ef814a2b6a3edd4b1652cb9cc5aa6f5afa948515620003225783956200032c575b5061012094855260805160c051855163095ea7b360e01b81529083166004820152600019602482015292918291849160449183918891165af180156200032257620002e1575b505050519061439f9283620003c4843960805183818161094801528181610e6e0152818161156f01528181611d02015281816120020152818161240f015281816130fc0152818161339f01528181613462015281816136950152613774015260a05183818161056b015281816117f8015281816119080152818161195301528181611f2a015281816122530152818161271b01528181612ac501528181612b0601528181612b5f01528181612b8f01528181612bf001528181612c8801528181612ddb01528181612e210152612fd4015260c0518381816104730152818161204901526124be015260e0518381816103a901528181610e010152818161151a015281816128ee01528181612e540152613096015251828181610194015281816106ee015281816109d10152818161177101528181611da301528181611fca0152818161221a015281816126e001528181612d660152613353015251816104080152f35b81813d83116200031a575b620002f8818362000374565b8101031262000316575180151503620003135780806200017e565b80fd5b5080fd5b503d620002ec565b84513d85823e3d90fd5b9094508181813d831162000367575b62000347818362000374565b8101031262000363575184811681036200036357938162000138565b8280fd5b503d6200033b565b600080fd5b601f909101601f19168101906001600160401b038211908210176200039857604052565b634e487b7160e01b600052604160045260246000fd5b51906001600160a01b03821682036200036f5756fe60406080815260049081361015610020575b5050361561001e57600080fd5b005b600090813560e01c9283630e38012a14610a965783631249c58b1461097757836335b43754146109345783633848a49e1461017c5783634219dc401461090657836346d2f011146108e457836359011cd1146108c2578363621200a71461086757836363fb53e8146106b6578363676cfe3f1461059a5783636a5b266d14610557578363715018a6146104f957836371f9f1e1146104da5783638507fdc3146104a25783638cc5ce991461045f5783638da5cb5b14610437578363963dec3b146103f457836397d686bd146103d8578363a20b8b4e14610395578363a53711f914610366578363ad5c46481461033e578363bc063e1a146102d1578363bc7bf6c214610315578363c31c9c07146102ed578363c3f5640c146102d1578363dd1b9c4a146102b6578363f2fde38b146101e457508263f4a2dca2146101c7578263f7bbb2c41461018157505063f86325ed1461017c573880610011565b610ac6565b346101c357816003193601126101c357517f00000000000000000000000000000000000000000000000000000000000000006001600160a01b03168152602090f35b5080fd5b346101c357816003193601126101c3576020906002549051908152f35b90346102b25760203660031901126102b2576001600160a01b038235818116939192908490036102ae57610216610aea565b831561025c575050600154826001600160601b0360a01b821617600155167f8be0079c531659141344cd1fd0a4f28419497f9722a3daafe3b4186f6b6457e0600080a380f35b906020608492519162461bcd60e51b8352820152602660248201527f4f776e61626c653a206e6577206f776e657220697320746865207a65726f206160448201526564647265737360d01b6064820152fd5b8480fd5b8280fd5b50346101c357816003193601126101c35760209051601e8152f35b50346101c357816003193601126101c357602090516127108152f35b50346101c357816003193601126101c3576020905160008051602061430a8339815191528152f35b913461033b57602036600319011261033b57506103346020923561376f565b9051908152f35b80fd5b50346101c357816003193601126101c357602090516000805160206142ea8339815191528152f35b50346101c357816003193601126101c35790602091610383610bf5565b600161038d6114e2565b925551908152f35b50346101c357816003193601126101c357517f00000000000000000000000000000000000000000000000000000000000000006001600160a01b03168152602090f35b50346101c357816003193601126101c357602090516103e88152f35b50346101c357816003193601126101c357517f00000000000000000000000000000000000000000000000000000000000000006001600160a01b03168152602090f35b50346101c357816003193601126101c35760015490516001600160a01b039091168152602090f35b50346101c357816003193601126101c357517f00000000000000000000000000000000000000000000000000000000000000006001600160a01b03168152602090f35b50346101c357816003193601126101c3576080906104be610df4565b9293909181519415158552151560208501528301526060820152f35b913461033b57602036600319011261033b575061033460209235613690565b823461033b578060031936011261033b57610512610aea565b600180546001600160a01b031981169091556000906001600160a01b03167f8be0079c531659141344cd1fd0a4f28419497f9722a3daafe3b4186f6b6457e08280a380f35b50346101c357816003193601126101c357517f00000000000000000000000000000000000000000000000000000000000000006001600160a01b03168152602090f35b913461033b57608036600319011261033b57508135916105b98361121e565b926105c484806112e2565b906105ec6105d282806112e2565b91602435906105e760643591604435906112e2565b61146c565b9060008282111561065d57509161061161060c6106179361061c956131d2565b611288565b906131d2565b61354d565b90633b9aca00918281029281840414901517156106485750610643602093610334926131d2565b6113ef565b601190634e487b7160e01b6000525260246000fd5b9261067461060c6106179361067a959997996131d2565b906131df565b90633b9aca00918281029281840414901517156106a357506020935061033491610643916131d2565b634e487b7160e01b815260118552602490fd5b9250346101c357602092836003193601126102b2578035906106d6610bf5565b82516323b872dd60e01b8682019081523360248301527f00000000000000000000000000000000000000000000000000000000000000006001600160a01b031660448301526064808301859052825260a08201916001600160401b03831181841017610852576000839281926107ba95895261075185610b6b565b8a85527f5361666545524332303a206c6f772d6c6576656c2063616c6c206661696c656460c08201525190826000805160206142ea8339815191525af13d1561084a573d9061079f82610c4b565b916107ac88519384610bbc565b82523d60008a84013e610c66565b805190868215928315610832575b505050156107dc575061038d600191613062565b825162461bcd60e51b8152908101859052602a60248201527f5361666545524332303a204552433230206f7065726174696f6e20646964206e6044820152691bdd081cdd58d8d9595960b21b6064820152608490fd5b6108429350820181019101610bdd565b3886816107c8565b606090610c66565b604184634e487b7160e01b6000525260246000fd5b346102b25760203660031901126102b25780359161ffff83168093036108be5761088f610aea565b61271083116108a957505061ffff19600354161760035580f35b91602492519163dffed50560e01b8352820152fd5b8380fd5b50346101c357816003193601126101c35760209061ffff600354169051908152f35b9050346101c35760203660031901126101c3576108ff610aea565b3560025580f35b50346101c357816003193601126101c35760209051735c69bee701ef814a2b6a3edd4b1652cb9cc5aa6f8152f35b50346101c357816003193601126101c357517f00000000000000000000000000000000000000000000000000000000000000006001600160a01b03168152602090f35b9250816003193601126101c35761098c610bf5565b6000805160206142ea83398151915292833b156102b2578151630d0e30db60e41b81528381838134895af18015610a8957610a71575b50815163a9059cbb60e01b81527f00000000000000000000000000000000000000000000000000000000000000006001600160a01b031691810191825234602083810191909152909490918591908290869082906040015b03925af1928315610a6657602093610a39575b50600161038d34613062565b610a5890843d8111610a5f575b610a508183610bbc565b810190610bdd565b5038610a2d565b503d610a46565b5051903d90823e3d90fd5b60209193610a81610a1a92610b42565b9391506109c2565b50505051903d90823e3d90fd5b50346101c357816003193601126101c357606090610ab2613334565b919290815193151584526020840152820152f35b34610ae5576000366003190112610ae55760206040516305f5e1008152f35b600080fd5b6001546001600160a01b03163303610afe57565b606460405162461bcd60e51b815260206004820152602060248201527f4f776e61626c653a2063616c6c6572206973206e6f7420746865206f776e65726044820152fd5b6001600160401b038111610b5557604052565b634e487b7160e01b600052604160045260246000fd5b604081019081106001600160401b03821117610b5557604052565b606081019081106001600160401b03821117610b5557604052565b608081019081106001600160401b03821117610b5557604052565b90601f801991011681019081106001600160401b03821117610b5557604052565b90816020910312610ae557518015158103610ae55790565b600260005414610c06576002600055565b60405162461bcd60e51b815260206004820152601f60248201527f5265656e7472616e637947756172643a207265656e7472616e742063616c6c006044820152606490fd5b6001600160401b038111610b5557601f01601f191660200190565b90919015610cd65750805115610c795790565b6000805160206142ea8339815191523b15610c915790565b60405162461bcd60e51b815260206004820152601d60248201527f416464726573733a2063616c6c20746f206e6f6e2d636f6e74726163740000006044820152606490fd5b815115610ce65750805190602001fd5b6040519062461bcd60e51b82528160208060048301528251908160248401526000935b828510610d2c575050604492506000838284010152601f80199101168101030190fd5b8481018201518686016044015293810193859350610d09565b91929015610d625750815115610d59575090565b3b15610c915790565b825190915015610d755750805190602001fd5b6040519062461bcd60e51b82528160208060048301528251908160248401526000935b828510610dbb575050604492506000838284010152601f80199101168101030190fd5b8481018201518686016044015293810193859350610d98565b9190826040910312610ae5576020825192015160ff81168103610ae55790565b600060018060a01b0391827f0000000000000000000000000000000000000000000000000000000000000000169160409384805191635677d7d760e11b8084526000805160206142ea833981519152600485015282846024818a5afa938415610fd957600094610fb6575b506024908351978893849283527f00000000000000000000000000000000000000000000000000000000000000001660048301525afa938415610fab57600094610f77575b50610eae9061345d565b936305f5e1009384811180610f6e575b8015610f5b575b610f4a5780861115610f3757610eed610ede82886131d2565b915b61ffff6003541690611004565b10610f275750610efb613334565b906103e8610f0f8296949789101598614015565b1115610f19575050565b610f249293506110a9565b90565b51636d0bc11760e01b8152600490fd5b610eed610f4487836131d2565b91610ee0565b8151637901891760e11b8152600490fd5b508481108015610ec55750848611610ec5565b50848610610ebe565b610eae919450610f9c90863d8811610fa4575b610f948183610bbc565b810190610dd4565b509390610ea4565b503d610f8a565b85513d6000823e3d90fd5b6024919450610fd190843d8611610fa457610f948183610bbc565b509390610e5f565b83513d6000823e3d90fd5b8115610fee570490565b634e487b7160e01b600052601260045260246000fd5b906000198183098183029182808310920391808303921461109e576127109082821115611061577fbc01a36e2eb1c432ca57a786c226809d495182a9930be0ded288ce703afb7e91940990828211900360fc1b910360041c170290565b60405162461bcd60e51b81526020600482015260156024820152744d6174683a206d756c446976206f766572666c6f7760581b6044820152606490fd5b505061271091500490565b906305f5e1009060001982840992828102928380861095039480860395146111255784831115611061578291096001821901821680920460028082600302188083028203028083028203028083028203028083028203028083028203028092029003029360018380600003040190848311900302920304170290565b505090610f249250610fe4565b90670de0b6b3a76400009060001982840992828102928380861095039480860395146111255784831115611061578291096001821901821680920460028082600302188083028203028083028203028083028203028083028203028083028203028092029003029360018380600003040190848311900302920304170290565b9060001981830981830291828083109203918083039214611211576305f5e1009082821115611061577facbe0e98f503f8881186e60dbb7f727bf36b7213ee9f5a78c767074b22e90e21940990828211900360f81b910360081c170290565b50506305f5e10091500490565b671bb6c4eb607480006000198183098183029182808310920391808303921461127757670de0b6b3a764000090828211156110615760008051602061432a833981519152940990828211900360ee1b910360121c170290565b5050670de0b6b3a764000091500490565b67375838dee4420000906000198183098183029182808310920391808303921461127757670de0b6b3a764000090828211156110615760008051602061432a833981519152940990828211900360ee1b910360121c170290565b906000198183098183029182808310920391808303921461127757670de0b6b3a764000090828211156110615760008051602061432a833981519152940990828211900360ee1b910360121c170290565b670de0b6b3a764000060001981830981830291828083109203918083039214611211576305f5e1009082821115611061577facbe0e98f503f8881186e60dbb7f727bf36b7213ee9f5a78c767074b22e90e21940990828211900360f81b910360081c170290565b6305f5e1006000198183098183029182808310920391808303921461127757670de0b6b3a764000090828211156110615760008051602061432a833981519152940990828211900360ee1b910360121c170290565b670de0b6b3a7640000906000198183098183029182808310920391808303921461145b57671bac1c6f722100009082821115611061577ff6984ec4687722b1c0533a776f13ec3af6f68e3f3d5a968cb66d2f02e56891e1940990828211900360f01b910360101c170290565b5050671bac1c6f7221000091500490565b9160001982840992828102928380861095039480860395146111255784831115611061578291096001821901821680920460028082600302188083028203028083028203028083028203028083028203028083028203028092029003029360018380600003040190848311900302920304170290565b6114ea610df4565b60408051635677d7d760e11b81526000805160206142ea83398151915260048201529294600094929091846024817f00000000000000000000000000000000000000000000000000000000000000006001600160a01b03165afa938415611a5e578594613040575b50806126ae575015611eda5715611cf65761156c81613690565b917f00000000000000000000000000000000000000000000000000000000000000006001600160a01b0316803b156101c3576040516340c10f1960e01b815230600482015260248101859052828160448183865af18015611ceb57908391611cd7575b50506000805160206142ea833981519152811415600081611ccf575b5015611c8a576000602060405161160181610ba1565b600381526060368383013783611616826137d7565b526000805160206142ea83398151915261162f826137fa565b526000805160206142ea8339815191526116488261380a565b52925b60446040518094819363095ea7b360e01b835260008051602061430a83398151915260048401528a60248401525af18015611b1757611c6b575b506040516338ed173960e01b81528060a481018660048301526000602483015260a06044830152835180915260c4820190602085019060005b818110611c4957505050908060009230606483015242608483015203818360008051602061430a8339815191525af1908115611b1757600091611bb1575b509051600019810191908211611a6957611720916117199161381a565b519361139a565b9261172b8385611132565b818111611b9457508185851115611b8357506117478386611132565b61175a816117558688611132565b6131d2565b60405163a9059cbb60e01b81526001600160a01b037f000000000000000000000000000000000000000000000000000000000000000016600482015260248101829052909290602081604481886000805160206142ea8339815191525af18015611a5e57611b64575b505b6040516117d181610b86565b6002815260403660208301376000805160206142ea8339815191526117f5826137d7565b527f00000000000000000000000000000000000000000000000000000000000000006001600160a01b0316611829826137fa565b5260405163095ea7b360e01b815260008051602061430a83398151915260048201526024810184905260208160448160006000805160206142ea8339815191525af18015611b1757611b45575b506040516338ed173960e01b81528060a481018560048301526000602483015260a06044830152835180915260c4820190602085019060005b818110611b2357505050908060009230606483015242608483015203818360008051602061430a8339815191525af1908115611b1757600091611a7f575b5090516000198101908111611a69576119059161381a565b517f00000000000000000000000000000000000000000000000000000000000000006001600160a01b03163b156102ae57604051630852cd8d60e31b815260048101919091528481602481837f00000000000000000000000000000000000000000000000000000000000000006001600160a01b03165af18015611a5e57908591611a4a575b505061199b9291611755916131d2565b60405163a9059cbb60e01b8152336004820152602481018290529091602082604481846000805160206142ea8339815191525af1908115611a3e57508360008051602061434a8339815191529360019695936119fc93611a1f575b506112e2565b60408051948552602085019690965294830152606082018490523391608090a390565b611a379060203d602011610a5f57610a508183610bbc565b50386119f6565b604051903d90823e3d90fd5b611a5390610b42565b6108be57833861198b565b6040513d87823e3d90fd5b634e487b7160e01b600052601160045260246000fd5b3d908183823e611a8f8282610bbc565b60208183810103126102b25780516001600160401b0381116108be57828201601f8284010112156108be578082015191611ac8836137c0565b94611ad66040519687610bbc565b83865260208087019460051b8484010101948201851161033b575001602001905b828210611b0757505050386118ed565b8151815260209182019101611af7565b6040513d6000823e3d90fd5b82516001600160a01b03168452859450602093840193909201916001016118af565b611b5d9060203d602011610a5f57610a508183610bbc565b5038611876565b611b7c9060203d602011610a5f57610a508183610bbc565b50386117c3565b90611b8e8486611132565b906117c5565b6044916040519163318bf40560e11b835260048301526024820152fd5b3d908183823e611bc18282610bbc565b60208183810103126102b25780516001600160401b0381116108be57828201601f8284010112156108be578082015191611bfa836137c0565b94611c086040519687610bbc565b83865260208087019460051b8484010101948201851161033b575001602001905b828210611c3957505050386116fc565b8151815260209182019101611c29565b82516001600160a01b03168452859450602093840193909201916001016116be565b611c839060203d602011610a5f57610a508183610bbc565b5038611685565b60006020604051611c9a81610b86565b600281526040368383013783611caf826137d7565b526000805160206142ea833981519152611cc8826137fa565b529261164b565b9050386115eb565b611ce090610b42565b6101c35781386115cf565b6040513d85823e3d90fd5b611cff81613690565b917f00000000000000000000000000000000000000000000000000000000000000006001600160a01b0316803b156101c3576040516340c10f1960e01b815230600482015260248101859052828160448183865af18015611ceb5785918491611ec3575b5050611d7290611d7892613a42565b9361139a565b92611d838385611132565b90808211611ea55760405163a9059cbb60e01b8082526001600160a01b037f000000000000000000000000000000000000000000000000000000000000000016600483015260248201849052602093909290918481604481896000805160206142ea8339815191525af18015611e9a5790611e05939291611e7d575b506131d2565b60405191825233600483015260248201819052928282604481846000805160206142ea8339815191525af1908115611a3e57509360008051602061434a8339815191529381936119fc9360029897611e5f575b50506112e2565b81611e7592903d10610a5f57610a508183610bbc565b503880611e58565b611e9390863d8811610a5f57610a508183610bbc565b5038611dff565b6040513d88823e3d90fd5b604492506040519163318bf40560e11b835260048301526024820152fd5b611ece919250610b42565b6101c357838238611d63565b156121b0578180611eea8361376f565b90611ef584836112e2565b948686111561219e575050611f0a8386611132565b91611f1486611333565b90611f27611f2288886131d2565b611333565b927f00000000000000000000000000000000000000000000000000000000000000006001600160a01b031690611f6890611f629087906131d2565b82613c76565b90803b156102b2576040516340c10f1960e01b815230600482015260248101839052838160448183865af180156121935790849161217f575b505090611fad91613a42565b60405163db006a7560e01b815260048101869052602081602481867f00000000000000000000000000000000000000000000000000000000000000006001600160a01b03165af18015611ceb57612154575b507f00000000000000000000000000000000000000000000000000000000000000006001600160a01b03169461203e91612038916131df565b8561382e565b9082821061214b575b7f00000000000000000000000000000000000000000000000000000000000000006001600160a01b0316803b156101c3578180916024604051809481936316d502d360e21b83528960048401525af1801561212c57908291612137575b5050836120e3575b50926120de6120d560039796946117556119fc9560008051602061434a833981519152986131d2565b809233906131ec565b61139a565b843b1561033b57604051630852cd8d60e31b8152600481018590528181602481838a5af1801561212c57612118575b506120ac565b6121228291610b42565b61033b5780612112565b6040513d84823e3d90fd5b61214090610b42565b61033b5780386120a4565b91508091612047565b602090813d8111612178575b61216a8183610bbc565b81010312610ae55738611fff565b503d612160565b61218890610b42565b6102b2578238611fa1565b6040513d86823e3d90fd5b9091926121aa86611333565b91611fad565b81806121bb8361376f565b916121c684846112e2565b948686111561269d5750506121db8386611132565b916121e586611333565b916121fd846121f7611f228a8a6131d2565b936131d2565b60405163db006a7560e01b815260048101829052602081602481867f00000000000000000000000000000000000000000000000000000000000000006001600160a01b03165af18015611ceb57612672575b505b7f00000000000000000000000000000000000000000000000000000000000000006001600160a01b0316906122868683613c76565b91803b156108be576040516340c10f1960e01b815230600482015260248101849052848160448183865af18015611a5e5790859161265e575b50506000805160206142ea833981519152811415600081612656575b501561261157600060206040516122f181610ba1565b600381526060368383013783612306826137d7565b526000805160206142ea83398151915261231f826137fa565b526000805160206142ea8339815191526123388261380a565b52925b60446040518094819363095ea7b360e01b835260008051602061430a83398151915260048401528960248401525af18015611b17576125f2575b5060405180936338ed173960e01b825260a482019060048301526000602483015260a06044830152825180915260c4820190602084019060005b8181106125d057505050908060009230606483015242608483015203818360008051602061430a8339815191525af1928315611b1757600093612534575b5051600019810191908211611a695761240c6120389261243d9461381a565b507f00000000000000000000000000000000000000000000000000000000000000006001600160a01b0316966131df565b90826124bc575b83612473575b50926120de6120d560049796946117556119fc9560008051602061434a833981519152986131d2565b843b1561033b57604051630852cd8d60e31b8152600481018590528181602481838a5af1801561212c576124a8575b5061244a565b6124b28291610b42565b61033b57806124a2565b7f00000000000000000000000000000000000000000000000000000000000000006001600160a01b0316803b156101c3578180916024604051809481936316d502d360e21b83528960048401525af1801561212c57908291612520575b5050612444565b61252990610b42565b61033b578038612519565b9290923d908183823e6125478282610bbc565b60208183810103126102b25780516001600160401b0381116108be57828201601f8284010112156108be578082015191612580836137c0565b9461258e6040519687610bbc565b83865260208087019460051b8484010101948201851161033b575001602001905b8282106125c05750505091386123ed565b81518152602091820191016125af565b82516001600160a01b03168452879450602093840193909201916001016123af565b61260a9060203d602011610a5f57610a508183610bbc565b5038612375565b6000602060405161262181610b86565b600281526040368383013783612636826137d7565b526000805160206142ea83398151915261264f826137fa565b529261233b565b9050386122db565b61266790610b42565b6108be5783386122bf565b602090813d8111612696575b6126888183610bbc565b81010312610ae5573861224f565b503d61267e565b90916126a886611333565b92612251565b91159050612ab3576126c08285611132565b60405163db006a7560e01b815260048101829052909190602081602481887f00000000000000000000000000000000000000000000000000000000000000006001600160a01b03165af18015611a5e57612a88575b506040517f00000000000000000000000000000000000000000000000000000000000000006001600160a01b03169261274d82610b86565b6002825260403660208401376000805160206142ea833981519152612771836137d7565b528361277c836137fa565b5260405163095ea7b360e01b815260008051602061430a83398151915260048201526024810182905260208160448160006000805160206142ea8339815191525af18015611b1757612a69575b5060405180916338ed173960e01b825260a482019060048301526000602483015260a06044830152835180915260c4820190602085019060005b818110612a4757505050908060009230606483015242608483015203818360008051602061430a8339815191525af1908115611b17576000916129b8575b5090516000198101908111611a69576128606128689161286f9361381a565b5192836111b2565b80926131d2565b823b156102ae5760405190630852cd8d60e31b82526004820152848160248183875af18015611a5e579085916129a4575b505060405163a9059cbb60e01b81523360048201526024810182905260208160448188875af18015611a5e57612985575b5060408051635677d7d760e11b81526004810193909352826024817f00000000000000000000000000000000000000000000000000000000000000006001600160a01b03165afa9182156121935791612935918594936005969261296357506112e2565b936040519283526020830152604082015282606082015260008051602061434a83398151915260803392a390565b61297d91925060403d604011610fa457610f948183610bbc565b5090386119f6565b61299d9060203d602011610a5f57610a508183610bbc565b50386128d1565b6129ad90610b42565b6108be5783386128a0565b3d8083833e6129c78183610bbc565b8101906020818303126102b2578051906001600160401b0382116108be570181601f820112156102b2578051906129fd826137c0565b93612a0b6040519586610bbc565b82855260208086019360051b83010193841161033b5750602001905b828210612a375750505038612841565b8151815260209182019101612a27565b82516001600160a01b0316845285945060209384019390920191600101612803565b612a819060203d602011610a5f57610a508183610bbc565b50386127c9565b602090813d8311612aac575b612a9e8183610bbc565b81010312610ae55738612715565b503d612a94565b612af9612af2612ac38487611132565b7f00000000000000000000000000000000000000000000000000000000000000006001600160a01b0316613c76565b91826111b2565b90612b0482826131df565b7f00000000000000000000000000000000000000000000000000000000000000006001600160a01b03163b156102ae576040516340c10f1960e01b815230600482015260248101919091528481604481836001600160a01b037f0000000000000000000000000000000000000000000000000000000000000000165af18015611a5e5761302d575b507f00000000000000000000000000000000000000000000000000000000000000006001600160a01b03166000805160206142ea8339815191521415600081613025575b5015612fba57604051612be281610ba1565b6003815260603660208301377f00000000000000000000000000000000000000000000000000000000000000006001600160a01b0316612c21826137d7565b526000805160206142ea833981519152612c3a826137fa565b526000805160206142ea833981519152612c538261380a565b52905b60405163095ea7b360e01b815260008051602061430a83398151915260048201526024810182905260208160448160007f00000000000000000000000000000000000000000000000000000000000000006001600160a01b03165af18015611b1757612f9b575b5060405180916338ed173960e01b825260a482019060048301526000602483015260a06044830152835180915260c4820190602085019060005b818110612f7957505050908060009230606483015242608483015203818360008051602061430a8339815191525af1908115611b1757600091612ed1575b5090516000198101908111611a6957612d4d9161381a565b5160405163a9059cbb60e01b8082526001600160a01b037f00000000000000000000000000000000000000000000000000000000000000001660048301526024820192909252602081604481886000805160206142ea8339815191525af18015611a5e57612eb2575b5060405190815233600482015260248101829052602081604481876001600160a01b037f0000000000000000000000000000000000000000000000000000000000000000165af1801561219357612e93575b5060408051635677d7d760e11b81526001600160a01b037f00000000000000000000000000000000000000000000000000000000000000008116600483015290929190839060249082907f0000000000000000000000000000000000000000000000000000000000000000165afa9182156121935791612935918594936006969261296357506112e2565b612eab9060203d602011610a5f57610a508183610bbc565b5038612e08565b612eca9060203d602011610a5f57610a508183610bbc565b5038612db6565b3d8083833e612ee08183610bbc565b81016020828203126102b2578151916001600160401b0383116108be5781601f8483010112156108be578281015192612f18846137c0565b94612f266040519687610bbc565b848652602086019360208660051b84860101011161033b57509190602083820101925b60208560051b82840101018410612f6557505050505038612d35565b602080809486518152019401939250612f49565b82516001600160a01b0316845285945060209384019390920191600101612cf7565b612fb39060203d602011610a5f57610a508183610bbc565b5038612cbd565b604051612fc681610b86565b6002815260403660208301377f00000000000000000000000000000000000000000000000000000000000000006001600160a01b0316613005826137d7565b526000805160206142ea83398151915261301e826137fa565b5290612c56565b905038612bd0565b61303990949194610b42565b9238612b8c565b61305a91945060403d604011610fa457610f948183610bbc565b509238611552565b60408051635677d7d760e11b81526000805160206142ea83398151915260048201526001600160a01b0392919081816024817f000000000000000000000000000000000000000000000000000000000000000088165afa90811561319b57906130ef916000916131b4575b506130d78161345d565b6130e360025491614015565b116131a6575b836112e2565b906130f982611333565b937f000000000000000000000000000000000000000000000000000000000000000016803b15610ae55781516340c10f1960e01b815233600482015260248101869052906000908290604490829084905af1801561319b57907fb4c03061fb5b7fed76389d5af8f2e0ddb09f8c70d1333abbb62582835e10accb929161318c575b5080519285845260208401523392a390565b61319590610b42565b3861317a565b82513d6000823e3d90fd5b6131ae6114e2565b506130e9565b6131cb9150833d8511610fa457610f948183610bbc565b50386130cd565b91908203918211611a6957565b91908201809211611a6957565b60405163a9059cbb60e01b60208083019182526001600160a01b0394909416602483015260448083019590955293815291926132a492916000908190613233606486610bbc565b60018060a01b0316926040519461324986610b6b565b8786527f5361666545524332303a206c6f772d6c6576656c2063616c6c206661696c656488870152519082855af13d1561332c573d9161328883610c4b565b926132966040519485610bbc565b83523d60008785013e610d45565b805190828215928315613314575b505050156132bd5750565b6084906040519062461bcd60e51b82526004820152602a60248201527f5361666545524332303a204552433230206f7065726174696f6e20646964206e6044820152691bdd081cdd58d8d9595960b21b6064820152fd5b6133249350820181019101610bdd565b3882816132b2565b606091610d45565b60405163067f0fc160e51b8152906001600160a01b03602080846004817f000000000000000000000000000000000000000000000000000000000000000086165afa938415611b175760009461342d575b50806004918593604051938480926318160ddd60e01b82527f0000000000000000000000000000000000000000000000000000000000000000165afa908115611b17576000916133fe575b506133db915061139a565b808411156133f2576133ef906001946131d2565b91565b6000936133ef916131d2565b82813d8311613426575b6134128183610bbc565b8101031261033b57506133db9051386133d0565b503d613408565b90938482813d8311613456575b6134448183610bbc565b8101031261033b575051926004613385565b503d61343a565b61348f7f00000000000000000000000000000000000000000000000000000000000000006001600160a01b031661405b565b919082151580613544575b6134a39061428c565b6000908015908115613505575b50156134c957610f24926134c391610fe4565b90611132565b60405162461bcd60e51b815260206004820152601460248201527364732d6d6174682d6d756c2d6f766572666c6f7760601b6044820152606490fd5b9050670de0b6b3a76400009080820292828404820361353057506135299083610fe4565b14386134b0565b634e487b7160e01b81526011600452602490fd5b5080151561349a565b801561368a57613618816000908360801c8061367e575b508060401c80613671575b508060201c80613664575b508060101c80613657575b508060081c8061364a575b508060041c8061363d575b508060021c80613630575b50600191828092811c613629575b1c1b6135c08185610fe4565b01811c6135cd8185610fe4565b01811c6135da8185610fe4565b01811c6135e78185610fe4565b01811c6135f48185610fe4565b01811c6136018185610fe4565b01811c61360e8185610fe4565b01901c8092610fe4565b80821015613624575090565b905090565b01816135b4565b60029150910190386135a6565b600491509101903861359b565b6008915091019038613590565b6010915091019038613585565b602091509101903861357a565b604091509101903861356f565b91505060809038613564565b50600090565b6136c27f00000000000000000000000000000000000000000000000000000000000000006001600160a01b031661405b565b906136f36136cf8261121e565b936136ee6136dd86806112e2565b946136e885806112e2565b946112e2565b6111b2565b9060008282111561373657509161061161060c61061793613713956131d2565b633b9aca0090818102918183041490151715611a6957610f2491610643916131d2565b9261067461060c6106179361374a956131d2565b90633b9aca00918281029281840414901517156135305750610f2491610643916131d2565b6137a17f00000000000000000000000000000000000000000000000000000000000000006001600160a01b031661405b565b6136f36137ad8261121e565b936137bb6136dd86806112e2565b6110a9565b6001600160401b038111610b555760051b60200190565b8051156137e45760200190565b634e487b7160e01b600052603260045260246000fd5b8051600110156137e45760400190565b8051600210156137e45760600190565b80518210156137e45760209160051b010190565b919091604080519061383f82610b86565b60028252602080830195823688376000805160206142ea8339815191529687613867866137d7565b52613871856137fa565b60018060a01b03809716905283519163095ea7b360e01b835260008051602061430a8339815191529283600482015281602482015284816044816000809e5af18015613a3857613a1b575b509091889285519788936338ed173960e01b855260a4850190600486015285602486015260a06044860152885180915260c48501929186905b888383106139fb5750505050508383809230606483015242608483015203925af19384156139f1578694613958575b505050519060001982019182116139445761394092935061381a565b5190565b634e487b7160e01b84526011600452602484fd5b90919293503d8087833e61396c8183610bbc565b81019082818303126139ed578051906001600160401b0382116139e9570181601f820112156139ed578051906139ad6139a4836137c0565b95519586610bbc565b818552838086019260051b8201019283116139e9578301905b8282106139da575050505090388080613924565b815181529083019083016139c6565b8780fd5b8680fd5b82513d88823e3d90fd5b8451821686528e98508c97509485019493909301926001909101906138f5565b613a3190853d8711610a5f57610a508183610bbc565b50386138bc565b86513d8c823e3d90fd5b6001600160a01b03919060009083166000805160206142ea833981519152808214158381613c6e575b508314613c3a5760405190613a7f82610ba1565b60038252606036602084013782613a95836137d7565b5280613aa0836137fa565b52613aaa8261380a565b52935b60405163095ea7b360e01b815260008051602061430a833981519152928360048301528560248301528160448160209788945af18015611b1757613c1d575b506040519384916338ed173960e01b835260a483019160048401526000602484015260a06044840152865180925260c4830191858801916000905b87838310613c005750505050509181600081819530606483015242608483015203925af1918215611b1757600092613b73575b505090516000198101908111611a69576139409161381a565b3d8084833e613b828183610bbc565b81019082818303126108be578051906001600160401b0382116102ae570181601f820112156108be57805190613bb7826137c0565b94613bc56040519687610bbc565b828652848087019360051b83010193841161033b57508301905b828210613bf157505050503880613b5a565b81518152908301908301613bdf565b845182168652899650948501949093019260019190910190613b27565b613c3390843d8611610a5f57610a508183610bbc565b5038613aec565b60405190613c4782610b86565b60028252604036602084013782613c5d836137d7565b52613c67826137fa565b5293613aad565b905038613a6b565b90613c80826141b9565b5090613c8b836141b9565b919092604094855193602094858101916001600160601b031990816060998a1b168452881b16603482015260288152613cc381610b86565b5190209086518581019260ff60f81b8452735c69bee701ef814a2b6a3edd4b1652cb9cc5aa6f60601b602183015260358201527f96e8ac4277198ff8b6f785478aa9a39f403cb768dd02cbee326c3e7da348845f605582015260558152613d2981610ba1565b519091208651630240bc6b60e21b81526004969092916001600160a01b039190819085908a90829086165afa93841561400a576000918295613fb7575b505081906001600160701b0380911694169416911614600014613fb15790915b8015613f5857811591821580613f4f575b613da09061428c565b8181029281840483141715613eb057613db98284610fe4565b03613eff576103e89182810292818404811482151715613f3a57830403613eff57613de490836131d2565b918211613ec5576103e59182810292818404811482151715613eb057830403613e775790613e1191610fe4565b926001840193848111613e62578410613e2a5750505090565b5162461bcd60e51b815291820152601460248201527364732d6d6174682d6164642d6f766572666c6f7760601b604482015260649150fd5b601184634e487b7160e01b6000525260246000fd5b5050606492519162461bcd60e51b8352820152601460248201527364732d6d6174682d6d756c2d6f766572666c6f7760601b6044820152fd5b601186634e487b7160e01b6000525260246000fd5b5050606492519162461bcd60e51b8352820152601560248201527464732d6d6174682d7375622d756e646572666c6f7760581b6044820152fd5b5050925162461bcd60e51b815291820152601460248201527364732d6d6174682d6d756c2d6f766572666c6f7760601b604482015260649150fd5b601187634e487b7160e01b6000525260246000fd5b50831515613d97565b5050925162461bcd60e51b815291820152602c60248201527f556e697377617056324c6962726172793a20494e53554646494349454e545f4f60448201526b155514155517d05353d5539560a21b606482015260849150fd5b91613d86565b90809550813d8311614003575b613fce8183610bbc565b8101031261033b57613fdf84614047565b9089613fec898701614047565b95015163ffffffff81160361033b57508138613d66565b503d613fc4565b89513d6000823e3d90fd5b6305f5e1006000818311156140385750506305f5e0ff198101908111611a695790565b90918203918211613530575090565b51906001600160701b0382168203610ae557565b6004614066826141b9565b5091614071816141b9565b60405160208101916001600160601b03199081606095861b168452841b166034820152602881526140a181610b86565b5190209080604051602081019360ff60f81b8552735c69bee701ef814a2b6a3edd4b1652cb9cc5aa6f60601b602183015260358201527f96e8ac4277198ff8b6f785478aa9a39f403cb768dd02cbee326c3e7da348845f60558201526055815261410a81610ba1565b51909220604051630240bc6b60e21b8152946001600160a01b039391869190829086165afa938415611b17576000918295614164575b505081906001600160701b03809116941694169116146000146141605791565b9091565b90809550813d83116141b2575b61417b8183610bbc565b8101031261033b5761418c84614047565b90604061419b60208701614047565b95015163ffffffff81160361033b57508138614140565b503d614171565b6000805160206142ea833981519152916001600160a01b03918281168481146142395784111561423457925b918316156141ef57565b60405162461bcd60e51b815260206004820152601e60248201527f556e697377617056324c6962726172793a205a45524f5f4144445245535300006044820152606490fd5b6141e5565b60405162461bcd60e51b815260206004820152602560248201527f556e697377617056324c6962726172793a204944454e544943414c5f41444452604482015264455353455360d81b6064820152608490fd5b1561429357565b60405162461bcd60e51b815260206004820152602860248201527f556e697377617056324c6962726172793a20494e53554646494349454e545f4c604482015267495155494449545960c01b6064820152608490fdfe000000000000000000000000c02aaa39b223fe8d0a0e5c4f27ead9083c756cc20000000000000000000000007a250d5630b4cf539739df2c5dacb4c659f2488daccb18165bd6fe31ae1cf318dc5b51eee0e1ba569b88cd74c1773b91fac106699bfff6dfb60cbb64c69905e709aa9b3fa7ceeeff847205dd3caa324ab30f962ea26469706673582212206095f3f9594649c83fbd64fff999aeb5c143a2188640c1926fa24ad21ac800fb64736f6c63430008120033",
  "linkReferences": {},
  "deployedLinkReferences": {}
}