{
  "_format": "hh-sol-artifact-1",
  "contractName": "ChiLocking",
  "sourceName": "contracts/staking/ChiLocking.sol",
  "abi": [
    {
      "inputs": [],
      "name": "NotChiLocker",
      "type": "error"
    },
    {
      "inputs": [],
      "name": "NotRewardController",
      "type": "error"
    },
    {
      "inputs": [
        {
          "internalType": "uint256",
          "name": "amount",
          "type": "uint256"
        }
      ],
      "name": "UnavailableWithdrawAmount",
      "type": "error"
    },
    {
      "anonymous": false,
      "inputs": [
        {
          "indexed": true,
          "internalType": "address",
          "name": "account",
          "type": "address"
        },
        {
          "indexed": false,
          "internalType": "uint256",
          "name": "amount",
          "type": "uint256"
        }
      ],
      "name": "ClaimStETH",
      "type": "event"
    },
    {
      "anonymous": false,
      "inputs": [
        {
          "indexed": false,
          "internalType": "uint8",
          "name": "version",
          "type": "uint8"
        }
      ],
      "name": "Initialized",
      "type": "event"
    },
    {
      "anonymous": false,
      "inputs": [
        {
          "indexed": true,
          "internalType": "address",
          "name": "account",
          "type": "address"
        },
        {
          "indexed": false,
          "internalType": "uint256",
          "name": "amount",
          "type": "uint256"
        },
        {
          "indexed": false,
          "internalType": "uint256",
          "name": "shares",
          "type": "uint256"
        },
        {
          "indexed": false,
          "internalType": "uint256",
          "name": "startEpoch",
          "type": "uint256"
        },
        {
          "indexed": false,
          "internalType": "uint256",
          "name": "endEpoch",
          "type": "uint256"
        }
      ],
      "name": "LockChi",
      "type": "event"
    },
    {
      "anonymous": false,
      "inputs": [
        {
          "indexed": true,
          "internalType": "address",
          "name": "previousOwner",
          "type": "address"
        },
        {
          "indexed": true,
          "internalType": "address",
          "name": "newOwner",
          "type": "address"
        }
      ],
      "name": "OwnershipTransferred",
      "type": "event"
    },
    {
      "anonymous": false,
      "inputs": [
        {
          "indexed": true,
          "internalType": "uint256",
          "name": "epoch",
          "type": "uint256"
        },
        {
          "indexed": false,
          "internalType": "uint256",
          "name": "totalLockedChi",
          "type": "uint256"
        },
        {
          "indexed": false,
          "internalType": "uint256",
          "name": "chiEmissions",
          "type": "uint256"
        },
        {
          "indexed": false,
          "internalType": "uint256",
          "name": "stETHrewards",
          "type": "uint256"
        },
        {
          "indexed": false,
          "internalType": "uint256",
          "name": "stEthPerLockedShare",
          "type": "uint256"
        }
      ],
      "name": "UpdateEpoch",
      "type": "event"
    },
    {
      "anonymous": false,
      "inputs": [
        {
          "indexed": true,
          "internalType": "address",
          "name": "account",
          "type": "address"
        },
        {
          "indexed": false,
          "internalType": "uint256",
          "name": "amount",
          "type": "uint256"
        }
      ],
      "name": "WithdrawChiFromAccount",
      "type": "event"
    },
    {
      "inputs": [],
      "name": "MAX_LOCK_DURATION",
      "outputs": [
        {
          "internalType": "uint256",
          "name": "",
          "type": "uint256"
        }
      ],
      "stateMutability": "view",
      "type": "function"
    },
    {
      "inputs": [],
      "name": "addVotingPowerInEpoch",
      "outputs": [
        {
          "internalType": "uint256",
          "name": "",
          "type": "uint256"
        }
      ],
      "stateMutability": "view",
      "type": "function"
    },
    {
      "inputs": [],
      "name": "addedAmountInEpoch",
      "outputs": [
        {
          "internalType": "uint256",
          "name": "",
          "type": "uint256"
        }
      ],
      "stateMutability": "view",
      "type": "function"
    },
    {
      "inputs": [
        {
          "internalType": "address",
          "name": "account",
          "type": "address"
        }
      ],
      "name": "availableChiWithdraw",
      "outputs": [
        {
          "internalType": "uint256",
          "name": "availableTotal",
          "type": "uint256"
        }
      ],
      "stateMutability": "view",
      "type": "function"
    },
    {
      "inputs": [],
      "name": "chi",
      "outputs": [
        {
          "internalType": "contract IERC20",
          "name": "",
          "type": "address"
        }
      ],
      "stateMutability": "view",
      "type": "function"
    },
    {
      "inputs": [
        {
          "internalType": "address",
          "name": "",
          "type": "address"
        }
      ],
      "name": "chiLockers",
      "outputs": [
        {
          "internalType": "bool",
          "name": "",
          "type": "bool"
        }
      ],
      "stateMutability": "view",
      "type": "function"
    },
    {
      "inputs": [
        {
          "internalType": "address",
          "name": "account",
          "type": "address"
        }
      ],
      "name": "claimStETH",
      "outputs": [
        {
          "internalType": "uint256",
          "name": "amount",
          "type": "uint256"
        }
      ],
      "stateMutability": "nonpayable",
      "type": "function"
    },
    {
      "inputs": [],
      "name": "currentEpoch",
      "outputs": [
        {
          "internalType": "uint256",
          "name": "",
          "type": "uint256"
        }
      ],
      "stateMutability": "view",
      "type": "function"
    },
    {
      "inputs": [
        {
          "internalType": "uint256",
          "name": "",
          "type": "uint256"
        }
      ],
      "name": "epochs",
      "outputs": [
        {
          "internalType": "uint256",
          "name": "lockedSharesInEpoch",
          "type": "uint256"
        },
        {
          "internalType": "uint256",
          "name": "totalLockedChiInEpoch",
          "type": "uint256"
        },
        {
          "internalType": "uint256",
          "name": "sharesToUnlock",
          "type": "uint256"
        },
        {
          "internalType": "uint256",
          "name": "cumulativeStETHPerLockedShare",
          "type": "uint256"
        },
        {
          "internalType": "uint256",
          "name": "cumulativeStETHPerUnlocked",
          "type": "uint256"
        },
        {
          "internalType": "uint256",
          "name": "numberOfEndingPositions",
          "type": "uint256"
        }
      ],
      "stateMutability": "view",
      "type": "function"
    },
    {
      "inputs": [],
      "name": "getLockedChi",
      "outputs": [
        {
          "internalType": "uint256",
          "name": "",
          "type": "uint256"
        }
      ],
      "stateMutability": "view",
      "type": "function"
    },
    {
      "inputs": [
        {
          "internalType": "address",
          "name": "account",
          "type": "address"
        },
        {
          "internalType": "uint256",
          "name": "pos",
          "type": "uint256"
        }
      ],
      "name": "getLockedPosition",
      "outputs": [
        {
          "components": [
            {
              "internalType": "uint256",
              "name": "amount",
              "type": "uint256"
            },
            {
              "internalType": "uint256",
              "name": "startEpoch",
              "type": "uint256"
            },
            {
              "internalType": "uint256",
              "name": "duration",
              "type": "uint256"
            },
            {
              "internalType": "uint256",
              "name": "shares",
              "type": "uint256"
            },
            {
              "internalType": "uint256",
              "name": "withdrawnChiAmount",
              "type": "uint256"
            }
          ],
          "internalType": "struct IChiLocking.LockedPosition",
          "name": "",
          "type": "tuple"
        }
      ],
      "stateMutability": "view",
      "type": "function"
    },
    {
      "inputs": [],
      "name": "getStakedChi",
      "outputs": [
        {
          "internalType": "uint256",
          "name": "",
          "type": "uint256"
        }
      ],
      "stateMutability": "view",
      "type": "function"
    },
    {
      "inputs": [],
      "name": "getTotalVotingPower",
      "outputs": [
        {
          "internalType": "uint256",
          "name": "",
          "type": "uint256"
        }
      ],
      "stateMutability": "view",
      "type": "function"
    },
    {
      "inputs": [
        {
          "internalType": "address",
          "name": "account",
          "type": "address"
        }
      ],
      "name": "getVotingPower",
      "outputs": [
        {
          "internalType": "uint256",
          "name": "",
          "type": "uint256"
        }
      ],
      "stateMutability": "view",
      "type": "function"
    },
    {
      "inputs": [
        {
          "internalType": "contract IERC20",
          "name": "_chi",
          "type": "address"
        },
        {
          "internalType": "address",
          "name": "_chiStaking",
          "type": "address"
        }
      ],
      "name": "initialize",
      "outputs": [],
      "stateMutability": "nonpayable",
      "type": "function"
    },
    {
      "inputs": [
        {
          "internalType": "address",
          "name": "account",
          "type": "address"
        },
        {
          "internalType": "uint256",
          "name": "amount",
          "type": "uint256"
        },
        {
          "internalType": "uint256",
          "name": "duration",
          "type": "uint256"
        }
      ],
      "name": "lockChi",
      "outputs": [],
      "stateMutability": "nonpayable",
      "type": "function"
    },
    {
      "inputs": [
        {
          "internalType": "address",
          "name": "",
          "type": "address"
        }
      ],
      "name": "locks",
      "outputs": [
        {
          "internalType": "uint256",
          "name": "lastUpdatedEpoch",
          "type": "uint256"
        },
        {
          "internalType": "uint256",
          "name": "unclaimedStETH",
          "type": "uint256"
        }
      ],
      "stateMutability": "view",
      "type": "function"
    },
    {
      "inputs": [],
      "name": "numberOfLockedPositions",
      "outputs": [
        {
          "internalType": "uint256",
          "name": "",
          "type": "uint256"
        }
      ],
      "stateMutability": "view",
      "type": "function"
    },
    {
      "inputs": [],
      "name": "owner",
      "outputs": [
        {
          "internalType": "address",
          "name": "",
          "type": "address"
        }
      ],
      "stateMutability": "view",
      "type": "function"
    },
    {
      "inputs": [],
      "name": "renounceOwnership",
      "outputs": [],
      "stateMutability": "nonpayable",
      "type": "function"
    },
    {
      "inputs": [],
      "name": "rewardController",
      "outputs": [
        {
          "internalType": "address",
          "name": "",
          "type": "address"
        }
      ],
      "stateMutability": "view",
      "type": "function"
    },
    {
      "inputs": [
        {
          "internalType": "address",
          "name": "contractAddress",
          "type": "address"
        },
        {
          "internalType": "bool",
          "name": "toSet",
          "type": "bool"
        }
      ],
      "name": "setChiLocker",
      "outputs": [],
      "stateMutability": "nonpayable",
      "type": "function"
    },
    {
      "inputs": [
        {
          "internalType": "address",
          "name": "_rewardController",
          "type": "address"
        }
      ],
      "name": "setRewardController",
      "outputs": [],
      "stateMutability": "nonpayable",
      "type": "function"
    },
    {
      "inputs": [
        {
          "internalType": "address",
          "name": "_uscStaking",
          "type": "address"
        }
      ],
      "name": "setUscStaking",
      "outputs": [],
      "stateMutability": "nonpayable",
      "type": "function"
    },
    {
      "inputs": [],
      "name": "stETH",
      "outputs": [
        {
          "internalType": "contract IERC20",
          "name": "",
          "type": "address"
        }
      ],
      "stateMutability": "view",
      "type": "function"
    },
    {
      "inputs": [],
      "name": "sumOfLockedDurations",
      "outputs": [
        {
          "internalType": "uint256",
          "name": "",
          "type": "uint256"
        }
      ],
      "stateMutability": "view",
      "type": "function"
    },
    {
      "inputs": [],
      "name": "sumShareDurationProduct",
      "outputs": [
        {
          "internalType": "uint256",
          "name": "",
          "type": "uint256"
        }
      ],
      "stateMutability": "view",
      "type": "function"
    },
    {
      "inputs": [],
      "name": "totalLockedChi",
      "outputs": [
        {
          "internalType": "uint256",
          "name": "",
          "type": "uint256"
        }
      ],
      "stateMutability": "view",
      "type": "function"
    },
    {
      "inputs": [],
      "name": "totalLockedShares",
      "outputs": [
        {
          "internalType": "uint256",
          "name": "",
          "type": "uint256"
        }
      ],
      "stateMutability": "view",
      "type": "function"
    },
    {
      "inputs": [],
      "name": "totalUnlockedChi",
      "outputs": [
        {
          "internalType": "uint256",
          "name": "",
          "type": "uint256"
        }
      ],
      "stateMutability": "view",
      "type": "function"
    },
    {
      "inputs": [],
      "name": "totalVotingPower",
      "outputs": [
        {
          "internalType": "uint256",
          "name": "",
          "type": "uint256"
        }
      ],
      "stateMutability": "view",
      "type": "function"
    },
    {
      "inputs": [
        {
          "internalType": "address",
          "name": "newOwner",
          "type": "address"
        }
      ],
      "name": "transferOwnership",
      "outputs": [],
      "stateMutability": "nonpayable",
      "type": "function"
    },
    {
      "inputs": [
        {
          "internalType": "address",
          "name": "account",
          "type": "address"
        }
      ],
      "name": "unclaimedStETHAmount",
      "outputs": [
        {
          "internalType": "uint256",
          "name": "totalAmount",
          "type": "uint256"
        }
      ],
      "stateMutability": "view",
      "type": "function"
    },
    {
      "inputs": [
        {
          "internalType": "uint256",
          "name": "chiEmissions",
          "type": "uint256"
        },
        {
          "internalType": "uint256",
          "name": "stETHrewards",
          "type": "uint256"
        }
      ],
      "name": "updateEpoch",
      "outputs": [],
      "stateMutability": "nonpayable",
      "type": "function"
    },
    {
      "inputs": [
        {
          "internalType": "address",
          "name": "account",
          "type": "address"
        },
        {
          "internalType": "uint256",
          "name": "amount",
          "type": "uint256"
        }
      ],
      "name": "withdrawChiFromAccount",
      "outputs": [],
      "stateMutability": "nonpayable",
      "type": "function"
    }
  ],
  "bytecode": "0x6080806040523461001657611c3a908161001b8239f35b5f80fdfe60406080815260049081361015610014575f80fd5b5f91823560e01c806306fe3cc814610fba57806308e9cb8114610f7257806311acc1a71461097a57806326db209c14610eb15780633dc85ee014610e92578063441b6bfc146109b8578063485cc95514610cf45780634f1bfc9e14610cd857806353fdfab014610a3757806358b8f73a14610a185780635de9a137146109d75780635f2bcdbd146109b85780636222be5c14610999578063671b37931461097a578063715018a61461091257806374fe2370146108d657806376671808146108b75780637c9939611461086857806381c39bec146108495780638cc5ce99146108215780638da5cb5b146107f95780638f846f56146107da578063a631909014610543578063b01d556c14610524578063bb4d4436146104b9578063be596d3a1461042c578063bf230f7f146103b5578063c1fe3e4814610386578063c67039b414610343578063c6b61e4c146102e6578063c89785a3146102c2578063c92aecc41461029a578063e8c3a8081461026d578063f0bb08a91461024a5763f2fde38b1461019f575f80fd5b34610246576020366003190112610246576101b8611012565b916101c161102c565b6001600160a01b038316156101dd57836101da84611084565b80f35b906020608492519162461bcd60e51b8352820152602660248201527f4f776e61626c653a206e6577206f776e657220697320746865207a65726f206160448201527f64647265737300000000000000000000000000000000000000000000000000006064820152fd5b8280fd5b505034610269578160031936011261026957602090606f549051908152f35b5080fd5b5050346102695760203660031901126102695760209061029361028e611012565b6118d2565b9051908152f35b5050346102695781600319360112610269576020906001600160a01b03606554169051908152f35b505034610269578160031936011261026957602090610293606854606954906111a6565b509034610246576020366003190112610246578060c09383358152607360205220805492600182015492600283015490600560038501549385015494015494815196875260208701528501526060840152608083015260a0820152f35b505034610269576020366003190112610269576001600160a01b03610366611012565b61036e61102c565b16825260716020528120805460ff1916600117905580f35b5050346102695781600319360112610269576020905173ae7ab96520de3a18e5e111b5eaab095312d7fe848152f35b505034610269576020366003190112610269576103d0611012565b906001600160a01b03839216835260726020526002818420019283545b8082106103fe576020848451908152f35b90926104206104269161041a6104148789611179565b50611b6a565b906111a6565b936111c7565b906103ed565b5091903461026957602036600319011261026957610448611012565b6001600160a01b0390816066541633036104aa576020945061046981611955565b168083526072845260018284200192835493557fec968375d87c8bc8b1fb440238b4e7bc0babfbbdba5dc249a1e08cb5e2a19f22848351858152a251908152f35b84835163229f674560e21b8152fd5b505034610269576020366003190112610269576104d4611012565b906001600160a01b03839216835260726020526002818420019283545b808210610502576020848451908152f35b909261042061051e9161041a6105188789611179565b50611b02565b906104f1565b5050346102695781600319360112610269576020906069549051908152f35b508290346102695760603660031901126102695761055f611012565b6024918235903385526020926071845260ff8787205416156107cb576105848361193c565b93606754926001600160a01b0361059c6044356111c7565b9316968789526072835260028a8a2001928a516105b881611149565b8781528a8282018881528d830188815260608401918c8352608085019384528854680100000000000000008110156107b8576105fb9060019a8b82018155611179565b9590956107a657518555518885015551600284015551600383015551908401556068546106299088906111a6565b60685561063888606a546111a6565b606a55858a52607381528a8a206106508982546111a6565b9055858a5260738152838b8b20016106698882546111a6565b905561067585876111a6565b8a526073815260028b8b200161068c8982546111a6565b905561069a876070546111a6565b6070555f198501858111610794576106b56106bd91896112d2565b606e546111a6565b606e556106d56106cd868a6112d2565b606f546111a6565b606f55838501808611610794576106ee90606c546111a6565b606c55606d5484810180911161079457606d5560739061070e86886111a6565b8b525260058a8a20019182549384018094116107835750507f4bb50af5f408a0e5f29c38fa94790fef78a68256834c4f581360a6eb481932ae9697989261077d949261075b9255826111a6565b9151948594859094939260609260808301968352602083015260408201520152565b0390a280f35b60118a91634e487b7160e01b835252fd5b828b601186634e487b7160e01b835252fd5b50868f808a634e487b7160e01b825252fd5b50868f60418a634e487b7160e01b835252fd5b508551636a26af9160e11b8152fd5b505034610269578160031936011261026957602090606d549051908152f35b5050346102695781600319360112610269576020906001600160a01b03603354169051908152f35b5050346102695781600319360112610269576020906001600160a01b03606654169051908152f35b505034610269578160031936011261026957602090606a549051908152f35b83346108b45760203660031901126108b4576001600160a01b0361088a611012565b61089261102c565b1673ffffffffffffffffffffffffffffffffffffffff19606654161760665580f35b80fd5b5050346102695781600319360112610269576020906067549051908152f35b5050346102695760203660031901126102695760ff816020936001600160a01b036108ff611012565b1681526071855220541690519015158152f35b83346108b457806003193601126108b45761092b61102c565b806001600160a01b0360335473ffffffffffffffffffffffffffffffffffffffff198116603355167f8be0079c531659141344cd1fd0a4f28419497f9722a3daafe3b4186f6b6457e08280a380f35b505034610269578160031936011261026957602090606b549051908152f35b505034610269578160031936011261026957602090606c549051908152f35b5050346102695781600319360112610269576020906068549051908152f35b5050346102695760203660031901126102695780916001600160a01b036109fc611012565b1681526072602052206001815491015482519182526020820152f35b505034610269578160031936011261026957602090606e549051908152f35b509190346102695780600319360112610269578235602435916001600160a01b03606654163303610cc95760675492838552607360205281852091859260688054610a84606954826111a6565b9081610cb5575b5050610a9785856111d5565b8254899681610ca2575b505f1998808a0191508111610c655789526073602052610ac7866003868c2001546111a6565b6003840155606954899181610c91575b5050606754888101908111610c655790610afd918a5260736020528a858b2001546111a6565b89830155610b5e868254610b2d610b2460d0610b1b607054856111d5565b04606b546111d5565b606e54906111a6565b80606b55606a5490610b4460d08304606f546111d5565b80606f558d6070558d606e5582610c78575b5050506111a6565b81556001820191610b708784546111a6565b80935560675460018101809111610c65576001969594939291610bcc918b526073602052610bbe858c20948c90606a549384610c4c575b5050610bb48186546111d5565b85556069546111a6565b6069556002840154906111d5565b80606a558255549485910155610be36067546111c7565b95866067558601958611610c3957519283526020830193909352604082019290925260608101919091527f0247f0b2d9e24bc21c30f72194dced894d774fadfd33449450fcc3ff7d9f5c8990806080810161077d565b60248760118a634e487b7160e01b835252fd5b610c5e925060028801549054916113aa565b5f80610ba7565b60248a60118d634e487b7160e01b835252fd5b610c869261041a91866113aa565b606b555f8080610b56565b610c9b9250611200565b5f80610ad7565b610cad929750611200565b945f80610aa1565b610cc1929650856113aa565b935f80610a8b565b84905163229f674560e21b8152fd5b5050346102695781600319360112610269576020905160d08152f35b503461024657816003193601126102465780356001600160a01b03808216809203610e8e57602435908116809103610e8e5784549060ff8260081c161593848095610e81575b8015610e6a575b15610e01575060ff1982811660011787559184610df0575b50610d7360ff875460081c16610d6e816110d8565b6110d8565b610d7c33611084565b8552607160205260018486209182541617905573ffffffffffffffffffffffffffffffffffffffff1960655416176065556001606755610dba575080f35b60207f7f26b83ff96e1f2b6a682f133852f6798a09c465da95921460cefb38474024989161ff001984541684555160018152a180f35b61ffff19166101011786555f610d59565b608490602087519162461bcd60e51b8352820152602e60248201527f496e697469616c697a61626c653a20636f6e747261637420697320616c72656160448201527f647920696e697469616c697a65640000000000000000000000000000000000006064820152fd5b50303b158015610d415750600160ff841614610d41565b50600160ff841610610d3a565b8480fd5b5050346102695781600319360112610269576020906070549051908152f35b509034610246578060031936011261024657610f1360a0936001600160a01b03610ed9611012565b8260808651610ee781611149565b828152826020820152828882015282606082015201521681526072602052600283602435922001611179565b50815191610f2083611149565b8154938484526001830154602085019081526080600285015492848701938452600386015495606088019687520154950194855282519586525160208601525190840152516060830152516080820152f35b5034610246578160031936011261024657610f8b611012565b91338452607160205260ff818520541615610fad57836101da6024358561141e565b51636a26af9160e11b8152fd5b505034610269578060031936011261026957610fd4611012565b906024359182151580930361100e576001600160a01b0390610ff461102c565b168352607160205282209060ff8019835416911617905580f35b8380fd5b600435906001600160a01b038216820361102857565b5f80fd5b6001600160a01b0360335416330361104057565b606460405162461bcd60e51b815260206004820152602060248201527f4f776e61626c653a2063616c6c6572206973206e6f7420746865206f776e65726044820152fd5b603354906001600160a01b03809116918273ffffffffffffffffffffffffffffffffffffffff19821617603355167f8be0079c531659141344cd1fd0a4f28419497f9722a3daafe3b4186f6b6457e05f80a3565b156110df57565b608460405162461bcd60e51b815260206004820152602b60248201527f496e697469616c697a61626c653a20636f6e7472616374206973206e6f74206960448201527f6e697469616c697a696e670000000000000000000000000000000000000000006064820152fd5b60a0810190811067ffffffffffffffff82111761116557604052565b634e487b7160e01b5f52604160045260245ffd5b8054821015611192575f52600560205f20910201905f90565b634e487b7160e01b5f52603260045260245ffd5b919082018092116111b357565b634e487b7160e01b5f52601160045260245ffd5b5f1981146111b35760010190565b919082039182116111b357565b81156111ec570490565b634e487b7160e01b5f52601260045260245ffd5b90670de0b6b3a7640000905f1982840992828102928380861095039480860395146112c2578483111561127e5782910960018219018216809204600280826003021880830282030280830282030280830282030280830282030280830282030280920290030293600183805f03040190848311900302920304170290565b606460405162461bcd60e51b815260206004820152601560248201527f4d6174683a206d756c446976206f766572666c6f7700000000000000000000006044820152fd5b5050906112cf92506111e2565b90565b5f198282098282029182808310920391808303921461132d578160d0111561127e577f4ec4ec4ec4ec4ec4ec4ec4ec4ec4ec4ec4ec4ec4ec4ec4ec4ec4ec4ec4ec4ec59360d0910990828211900360fc1b910360041c170290565b505060d091500490565b905f198183098183029182808310920391808303921461139957670de0b6b3a7640000908282111561127e577faccb18165bd6fe31ae1cf318dc5b51eee0e1ba569b88cd74c1773b91fac10669940990828211900360ee1b910360121c170290565b5050670de0b6b3a764000091500490565b915f1982840992828102928380861095039480860395146112c2578483111561127e5782910960018219018216809204600280826003021880830282030280830282030280830282030280830282030280830282030280920290030293600183805f03040190848311900302920304170290565b81156117fd5761142d81611955565b816001600160a01b03809216925f84815260209360728552604092838320908084926002809101915b611652575050505061146a846069546111d5565b60695560655416908251858101907fa9059cbb000000000000000000000000000000000000000000000000000000008252602493888583015286604483015260448252608082019267ffffffffffffffff92808510848611176116305760c081018581108582111761161d5788528985527f5361666545524332303a206c6f772d6c6576656c2063616c6c206661696c656460a082015251859182919082855af1903d15611643573d83811161163057875193601f8201601f19908116603f011685019081118582101761161d578852835261154e939291903d868b85013e611801565b8051918215918783156115f9575b5050509050156115915750519081527f0827e2442212f47eb13e4a057a1a5f77d1cf64d2f16f332818a87569ffc4a4bb9190a2565b602a8491608493519262461bcd60e51b845260048401528201527f5361666545524332303a204552433230206f7065726174696f6e20646964206e60448201527f6f742073756363656564000000000000000000000000000000000000000000006064820152fd5b919381809450010312610269578501519081151582036108b45750805f808761155c565b8787634e487b7160e01b81526041600452fd5b8686634e487b7160e01b81526041600452fd5b9061154e939250606091611801565b81548410156117cd576116658483611179565b5060675460019061167d8284015485850154906111a6565b111561169557505061168f83946111c7565b93611456565b6116a182959395611b6a565b838111156116c457505060046116ba91019182546111a6565b9055849182611456565b6116e29192959360048097016116db8282546111a6565b90556111d5565b9383545f19908181019081116117ba576116fc9086611179565b506117078887611179565b9190916117a857808491830361177c575b5050508454801561176957019161172f8386611179565b9190916117575791818a88959481809555820155828682015582600382015501558355611456565b60248a8085634e487b7160e01b825252fd5b60248a603185634e487b7160e01b835252fd5b8054835585810154868401558681015487840155600380820154908401558101549101555f8281611718565b60248b8086634e487b7160e01b825252fd5b60248a601185634e487b7160e01b835252fd5b6024888851907f97a27f060000000000000000000000000000000000000000000000000000000082526004820152fd5b5050565b919290156118625750815115611815575090565b3b1561181e5790565b606460405162461bcd60e51b815260206004820152601d60248201527f416464726573733a2063616c6c20746f206e6f6e2d636f6e74726163740000006044820152fd5b8251909150156118755750805190602001fd5b6040519062461bcd60e51b82528160208060048301528251908160248401525f935b8285106118b9575050604492505f838284010152601f80199101168101030190fd5b8481018201518686016044015293810193859350611897565b6001600160a01b03165f52607260205260405f2090600182015491805460675481146117fd5760025f9201908154915b82841061190f5750505050565b9091929461192e6119349161041a856119288a87611179565b50611980565b956111c7565b929190611902565b606854801561195157606a546112cf926113aa565b5090565b6001600160a01b03611966826118d2565b91165f52607260205260405f209060018201556067549055565b6067545f93928492828214611a9f5760018101549182811015611a99575081905b815f1993848601958611611a855760028301546119bd916111a6565b848101818111611a715780831115611a31575b5050506119dc90611b6a565b92865260736020526004604087200154918101908111611a1d5761041a92916004604088611a18946112cf999a526073602052200154906111d5565b611337565b602486634e487b7160e01b81526011600452fd5b91949293509190808611611a53575050506112cf9495509061041a9291611aa5565b9561041a6119dc9397611a67939686611aa5565b9491905f806119d0565b60248a634e487b7160e01b81526011600452fd5b602489634e487b7160e01b81526011600452fd5b906119a1565b50505050565b5f9283526073602052604083206003015492939290915f198101908111611aee5760039182604087611ae5946112cf9899526073602052200154906111d5565b91015490611337565b602485634e487b7160e01b81526011600452fd5b60675460018201546002830154611b1981836111a6565b8310801590611b60575b611b5857611b358391611b3a936111a6565b6111d5565b905f1981019081116111b3576112cf92611b5391611bb1565b6112d2565b505050505f90565b5081831115611b23565b611b7d60018201546002830154906111a6565b5f198101919082116111b357816067541115611bab576004611ba2826112cf94611bb1565b910154906111d5565b50505f90565b90611bc560018201546002830154906111a6565b5f198101929083116111b35782816112cf9410611bfc575b505f526073602052600360405f209101549060018101549054916113aa565b90505f611bdd56fea2646970667358221220de6d1e6e8006bbcd0af483abcfa3c8b32dca4c5962d79c6f813a07090fc1bbff64736f6c63430008140033",
  "linkReferences": {},
  "deployedLinkReferences": {}
}