{
  "_format": "hh-sol-artifact-1",
  "contractName": "ChiStaking",
  "sourceName": "contracts/staking/ChiStaking.sol",
  "abi": [
    {
      "inputs": [
        {
          "internalType": "uint256",
          "name": "stakedBalance",
          "type": "uint256"
        },
        {
          "internalType": "uint256",
          "name": "amount",
          "type": "uint256"
        }
      ],
      "name": "AmountBelowStakedBalance",
      "type": "error"
    },
    {
      "inputs": [
        {
          "internalType": "uint256",
          "name": "duration",
          "type": "uint256"
        }
      ],
      "name": "InvalidDuration",
      "type": "error"
    },
    {
      "inputs": [],
      "name": "NotRewardController",
      "type": "error"
    },
    {
      "inputs": [],
      "name": "ZeroAmount",
      "type": "error"
    },
    {
      "anonymous": false,
      "inputs": [
        {
          "indexed": true,
          "internalType": "address",
          "name": "owner",
          "type": "address"
        },
        {
          "indexed": true,
          "internalType": "address",
          "name": "spender",
          "type": "address"
        },
        {
          "indexed": false,
          "internalType": "uint256",
          "name": "value",
          "type": "uint256"
        }
      ],
      "name": "Approval",
      "type": "event"
    },
    {
      "anonymous": false,
      "inputs": [
        {
          "indexed": true,
          "internalType": "address",
          "name": "account",
          "type": "address"
        },
        {
          "indexed": false,
          "internalType": "uint256",
          "name": "amount",
          "type": "uint256"
        }
      ],
      "name": "ClaimStETH",
      "type": "event"
    },
    {
      "anonymous": false,
      "inputs": [
        {
          "indexed": false,
          "internalType": "uint8",
          "name": "version",
          "type": "uint8"
        }
      ],
      "name": "Initialized",
      "type": "event"
    },
    {
      "anonymous": false,
      "inputs": [
        {
          "indexed": true,
          "internalType": "address",
          "name": "account",
          "type": "address"
        },
        {
          "indexed": false,
          "internalType": "uint256",
          "name": "amount",
          "type": "uint256"
        },
        {
          "indexed": false,
          "internalType": "uint256",
          "name": "duration",
          "type": "uint256"
        },
        {
          "indexed": false,
          "internalType": "bool",
          "name": "useStakedTokens",
          "type": "bool"
        }
      ],
      "name": "Lock",
      "type": "event"
    },
    {
      "anonymous": false,
      "inputs": [
        {
          "indexed": true,
          "internalType": "address",
          "name": "previousOwner",
          "type": "address"
        },
        {
          "indexed": true,
          "internalType": "address",
          "name": "newOwner",
          "type": "address"
        }
      ],
      "name": "OwnershipTransferred",
      "type": "event"
    },
    {
      "anonymous": false,
      "inputs": [
        {
          "indexed": true,
          "internalType": "address",
          "name": "account",
          "type": "address"
        },
        {
          "indexed": false,
          "internalType": "uint256",
          "name": "amount",
          "type": "uint256"
        }
      ],
      "name": "Stake",
      "type": "event"
    },
    {
      "anonymous": false,
      "inputs": [
        {
          "indexed": true,
          "internalType": "address",
          "name": "from",
          "type": "address"
        },
        {
          "indexed": true,
          "internalType": "address",
          "name": "to",
          "type": "address"
        },
        {
          "indexed": false,
          "internalType": "uint256",
          "name": "value",
          "type": "uint256"
        }
      ],
      "name": "Transfer",
      "type": "event"
    },
    {
      "anonymous": false,
      "inputs": [
        {
          "indexed": true,
          "internalType": "address",
          "name": "account",
          "type": "address"
        },
        {
          "indexed": false,
          "internalType": "uint256",
          "name": "amount",
          "type": "uint256"
        }
      ],
      "name": "Unstake",
      "type": "event"
    },
    {
      "inputs": [],
      "name": "MAX_LOCK_DURATION",
      "outputs": [
        {
          "internalType": "uint256",
          "name": "",
          "type": "uint256"
        }
      ],
      "stateMutability": "view",
      "type": "function"
    },
    {
      "inputs": [],
      "name": "MIN_LOCK_DURATION",
      "outputs": [
        {
          "internalType": "uint256",
          "name": "",
          "type": "uint256"
        }
      ],
      "stateMutability": "view",
      "type": "function"
    },
    {
      "inputs": [
        {
          "internalType": "address",
          "name": "account",
          "type": "address"
        },
        {
          "internalType": "enum IStakingWithEpochs.RewardToken",
          "name": "token",
          "type": "uint8"
        }
      ],
      "name": "_getCurrentReward",
      "outputs": [
        {
          "internalType": "uint256",
          "name": "",
          "type": "uint256"
        }
      ],
      "stateMutability": "view",
      "type": "function"
    },
    {
      "inputs": [
        {
          "internalType": "address",
          "name": "owner",
          "type": "address"
        },
        {
          "internalType": "address",
          "name": "spender",
          "type": "address"
        }
      ],
      "name": "allowance",
      "outputs": [
        {
          "internalType": "uint256",
          "name": "",
          "type": "uint256"
        }
      ],
      "stateMutability": "view",
      "type": "function"
    },
    {
      "inputs": [
        {
          "internalType": "address",
          "name": "spender",
          "type": "address"
        },
        {
          "internalType": "uint256",
          "name": "amount",
          "type": "uint256"
        }
      ],
      "name": "approve",
      "outputs": [
        {
          "internalType": "bool",
          "name": "",
          "type": "bool"
        }
      ],
      "stateMutability": "nonpayable",
      "type": "function"
    },
    {
      "inputs": [
        {
          "internalType": "address",
          "name": "account",
          "type": "address"
        }
      ],
      "name": "balanceOf",
      "outputs": [
        {
          "internalType": "uint256",
          "name": "",
          "type": "uint256"
        }
      ],
      "stateMutability": "view",
      "type": "function"
    },
    {
      "inputs": [],
      "name": "chiLocking",
      "outputs": [
        {
          "internalType": "contract IChiLocking",
          "name": "",
          "type": "address"
        }
      ],
      "stateMutability": "view",
      "type": "function"
    },
    {
      "inputs": [
        {
          "internalType": "address",
          "name": "account",
          "type": "address"
        }
      ],
      "name": "claimStETH",
      "outputs": [
        {
          "internalType": "uint256",
          "name": "",
          "type": "uint256"
        }
      ],
      "stateMutability": "nonpayable",
      "type": "function"
    },
    {
      "inputs": [],
      "name": "currentEpoch",
      "outputs": [
        {
          "internalType": "uint256",
          "name": "",
          "type": "uint256"
        }
      ],
      "stateMutability": "view",
      "type": "function"
    },
    {
      "inputs": [],
      "name": "decimals",
      "outputs": [
        {
          "internalType": "uint8",
          "name": "",
          "type": "uint8"
        }
      ],
      "stateMutability": "view",
      "type": "function"
    },
    {
      "inputs": [
        {
          "internalType": "address",
          "name": "spender",
          "type": "address"
        },
        {
          "internalType": "uint256",
          "name": "subtractedValue",
          "type": "uint256"
        }
      ],
      "name": "decreaseAllowance",
      "outputs": [
        {
          "internalType": "bool",
          "name": "",
          "type": "bool"
        }
      ],
      "stateMutability": "nonpayable",
      "type": "function"
    },
    {
      "inputs": [
        {
          "internalType": "uint256",
          "name": "",
          "type": "uint256"
        }
      ],
      "name": "epochs",
      "outputs": [
        {
          "internalType": "uint256",
          "name": "shares",
          "type": "uint256"
        }
      ],
      "stateMutability": "view",
      "type": "function"
    },
    {
      "inputs": [
        {
          "internalType": "uint256",
          "name": "epoch",
          "type": "uint256"
        },
        {
          "internalType": "enum IStakingWithEpochs.RewardToken",
          "name": "token",
          "type": "uint8"
        }
      ],
      "name": "getCumulativeRewardsPerShare",
      "outputs": [
        {
          "internalType": "uint256",
          "name": "",
          "type": "uint256"
        }
      ],
      "stateMutability": "view",
      "type": "function"
    },
    {
      "inputs": [],
      "name": "getStakedChi",
      "outputs": [
        {
          "internalType": "uint256",
          "name": "",
          "type": "uint256"
        }
      ],
      "stateMutability": "view",
      "type": "function"
    },
    {
      "inputs": [
        {
          "internalType": "address",
          "name": "account",
          "type": "address"
        },
        {
          "internalType": "enum IStakingWithEpochs.RewardToken",
          "name": "token",
          "type": "uint8"
        }
      ],
      "name": "getUnclaimedRewards",
      "outputs": [
        {
          "internalType": "uint256",
          "name": "",
          "type": "uint256"
        }
      ],
      "stateMutability": "view",
      "type": "function"
    },
    {
      "inputs": [
        {
          "internalType": "address",
          "name": "spender",
          "type": "address"
        },
        {
          "internalType": "uint256",
          "name": "addedValue",
          "type": "uint256"
        }
      ],
      "name": "increaseAllowance",
      "outputs": [
        {
          "internalType": "bool",
          "name": "",
          "type": "bool"
        }
      ],
      "stateMutability": "nonpayable",
      "type": "function"
    },
    {
      "inputs": [
        {
          "internalType": "contract IERC20",
          "name": "_chiAddress",
          "type": "address"
        }
      ],
      "name": "initialize",
      "outputs": [],
      "stateMutability": "nonpayable",
      "type": "function"
    },
    {
      "inputs": [
        {
          "internalType": "uint256",
          "name": "amount",
          "type": "uint256"
        },
        {
          "internalType": "uint256",
          "name": "duration",
          "type": "uint256"
        },
        {
          "internalType": "bool",
          "name": "useStakedTokens",
          "type": "bool"
        }
      ],
      "name": "lock",
      "outputs": [],
      "stateMutability": "nonpayable",
      "type": "function"
    },
    {
      "inputs": [],
      "name": "name",
      "outputs": [
        {
          "internalType": "string",
          "name": "",
          "type": "string"
        }
      ],
      "stateMutability": "view",
      "type": "function"
    },
    {
      "inputs": [],
      "name": "owner",
      "outputs": [
        {
          "internalType": "address",
          "name": "",
          "type": "address"
        }
      ],
      "stateMutability": "view",
      "type": "function"
    },
    {
      "inputs": [],
      "name": "renounceOwnership",
      "outputs": [],
      "stateMutability": "nonpayable",
      "type": "function"
    },
    {
      "inputs": [],
      "name": "rewardController",
      "outputs": [
        {
          "internalType": "address",
          "name": "",
          "type": "address"
        }
      ],
      "stateMutability": "view",
      "type": "function"
    },
    {
      "inputs": [
        {
          "internalType": "contract IChiLocking",
          "name": "_chiLocking",
          "type": "address"
        }
      ],
      "name": "setChiLocking",
      "outputs": [],
      "stateMutability": "nonpayable",
      "type": "function"
    },
    {
      "inputs": [
        {
          "internalType": "address",
          "name": "_rewardController",
          "type": "address"
        }
      ],
      "name": "setRewardController",
      "outputs": [],
      "stateMutability": "nonpayable",
      "type": "function"
    },
    {
      "inputs": [
        {
          "internalType": "uint256",
          "name": "amount",
          "type": "uint256"
        }
      ],
      "name": "stake",
      "outputs": [],
      "stateMutability": "nonpayable",
      "type": "function"
    },
    {
      "inputs": [],
      "name": "stakeToken",
      "outputs": [
        {
          "internalType": "contract IERC20",
          "name": "",
          "type": "address"
        }
      ],
      "stateMutability": "view",
      "type": "function"
    },
    {
      "inputs": [
        {
          "internalType": "address",
          "name": "",
          "type": "address"
        }
      ],
      "name": "stakes",
      "outputs": [
        {
          "internalType": "uint256",
          "name": "lastUpdatedEpoch",
          "type": "uint256"
        },
        {
          "internalType": "uint256",
          "name": "shares",
          "type": "uint256"
        },
        {
          "internalType": "uint256",
          "name": "addSharesNextEpoch",
          "type": "uint256"
        }
      ],
      "stateMutability": "view",
      "type": "function"
    },
    {
      "inputs": [],
      "name": "symbol",
      "outputs": [
        {
          "internalType": "string",
          "name": "",
          "type": "string"
        }
      ],
      "stateMutability": "view",
      "type": "function"
    },
    {
      "inputs": [],
      "name": "totalSupply",
      "outputs": [
        {
          "internalType": "uint256",
          "name": "",
          "type": "uint256"
        }
      ],
      "stateMutability": "view",
      "type": "function"
    },
    {
      "inputs": [
        {
          "internalType": "address",
          "name": "to",
          "type": "address"
        },
        {
          "internalType": "uint256",
          "name": "amount",
          "type": "uint256"
        }
      ],
      "name": "transfer",
      "outputs": [
        {
          "internalType": "bool",
          "name": "",
          "type": "bool"
        }
      ],
      "stateMutability": "nonpayable",
      "type": "function"
    },
    {
      "inputs": [
        {
          "internalType": "address",
          "name": "from",
          "type": "address"
        },
        {
          "internalType": "address",
          "name": "to",
          "type": "address"
        },
        {
          "internalType": "uint256",
          "name": "amount",
          "type": "uint256"
        }
      ],
      "name": "transferFrom",
      "outputs": [
        {
          "internalType": "bool",
          "name": "",
          "type": "bool"
        }
      ],
      "stateMutability": "nonpayable",
      "type": "function"
    },
    {
      "inputs": [
        {
          "internalType": "address",
          "name": "newOwner",
          "type": "address"
        }
      ],
      "name": "transferOwnership",
      "outputs": [],
      "stateMutability": "nonpayable",
      "type": "function"
    },
    {
      "inputs": [
        {
          "internalType": "address",
          "name": "account",
          "type": "address"
        }
      ],
      "name": "unclaimedStETHAmount",
      "outputs": [
        {
          "internalType": "uint256",
          "name": "",
          "type": "uint256"
        }
      ],
      "stateMutability": "view",
      "type": "function"
    },
    {
      "inputs": [
        {
          "internalType": "uint256",
          "name": "amount",
          "type": "uint256"
        }
      ],
      "name": "unstake",
      "outputs": [],
      "stateMutability": "nonpayable",
      "type": "function"
    },
    {
      "inputs": [
        {
          "internalType": "uint256",
          "name": "stETHrewards",
          "type": "uint256"
        }
      ],
      "name": "updateEpoch",
      "outputs": [],
      "stateMutability": "nonpayable",
      "type": "function"
    }
  ],
  "bytecode": "0x6080806040523461001657612687908161001c8239f35b600080fdfe608060408181526004918236101561001657600080fd5b600092833560e01c91826306fdde03146112fb57508163095ea7b3146112d157816315ca0dc0146111fc57816316934fc4146111af57816318160ddd1461119057816323b872dd146110c55781632e17de78146110a85781632f8ed06b14611070578163313ce5671461105457816339509351146110055781634f1bfc9e14610fe957816351ed6a3014610fc157816370a0823114610f8a578163715018a614610f2f5781637667180814610f1057816378b4330f14610ef35781637c99396114610eb45781638cc5ce9914610e8c5781638da5cb5b14610e645781638f0cbf8a14610e2c57816395d89b4114610d4b578163a457c2d714610c8a578163a694fc3a14610b2b578163a9059cbb14610afa578163b4ae83ca14610ab9578163be596d3a14610a12578163c4d66de814610562578163c6b61e4c1461053a578163c89785a314610512578163da12ffc514610311578163dd62ed3e146102c5578163e8c3a8081461029f578163f2fde38b146101f257508063faa6edb4146101cb5763fb5cdc2a146101a657600080fd5b346101c7576020906101c06101ba3661141d565b90612527565b9051908152f35b5080fd5b50346101c757816003193601126101c7576020906001600160a01b03609c54169051908152f35b90503461029b57602036600319011261029b5761020d6113ec565b9161021661144c565b6001600160a01b03831615610232578361022f846114a4565b80f35b906020608492519162461bcd60e51b8352820152602660248201527f4f776e61626c653a206e6577206f776e657220697320746865207a65726f206160448201527f64647265737300000000000000000000000000000000000000000000000000006064820152fd5b8280fd5b5050346101c75760203660031901126101c7576020906101c06102c06113ec565b6123d4565b5050346101c757806003193601126101c7576020916102e26113ec565b826102eb611407565b926001600160a01b03809316815260668652209116600052825280600020549051908152f35b90503461029b57606036600319011261029b57803591602435604435928315801580950361050e578183108015610504575b6104d55786919015610411576001600160a01b0361036d87826097541683609c5416903390611da8565b609c5416803b1561029b578451630a63190960e41b8152339281019283526020830188905260408301859052918391839182908490829060600103925af18015610407576103ef575b50505b815193845260208401528201527f0e3e83034aeba169cf17460a2d4805fb31461e9bca1359fea63726b6ef7ea10560603392a280f35b6103f890611526565b6104035784386103b6565b8480fd5b84513d84823e3d90fd5b905061041c85611919565b6001600160a01b0361043a86826097541683609c5416903390611da8565b609c541660018301908184116104c257908188923b1561029b57878361049095885196879586948593630a63190960e41b8552339085016040919493926001600160a01b03606083019616825260208201520152565b03925af180156104b8576104a5575b506103b9565b6104b190959195611526565b933861049f565b83513d88823e3d90fd5b602488601185634e487b7160e01b835252fd5b509060249251917f4ede0ebc000000000000000000000000000000000000000000000000000000008352820152fd5b5060d08311610343565b8680fd5b5050346101c757816003193601126101c757806020926099548152609b845220549051908152f35b90503461029b57602036600319011261029b576020928291358152609b845220549051908152f35b90503461029b5760209081600319360112610a0e578035906001600160a01b0382168092036104035784549160ff8360081c161591828093610a01575b80156109ea575b1561098257600193838560ff198316178955610971575b506105d760ff885460081c166105d28161189b565b61189b565b6105e0336114a4565b85516105eb81611550565b600a81527f5374616b6564204348490000000000000000000000000000000000000000000086820152865161061f81611550565b600581527f73744348490000000000000000000000000000000000000000000000000000008782015261066560ff8a5460081c1661065c8161189b565b6105d28161189b565b81519267ffffffffffffffff9384811161095e57806106856068546114ec565b94601f958681116108ee575b508a908d87841160011461086d5792610862575b5050600019600383901b1c191690881b176068555b815193841161084f57509082916106d26069546114ec565b8281116107e0575b5087918311600114610761578992610756575b5050600019600383901b1c191690841b176069555b6001600160a01b031960975416176097558160995561071f578380f35b7f7f26b83ff96e1f2b6a682f133852f6798a09c465da95921460cefb38474024989261ff0019855416855551908152a13880808380f35b0151905038806106ed565b60698a528693507f7fb4302e8e91f9110a6554c2c0a24601252c2a42c2220ca988efcfe3999143089190601f1984168b5b8a8282106107ca57505084116107b1575b505050811b01606955610702565b015160001960f88460031b161c191690553880806107a3565b8385015186558a97909501949384019301610792565b9091925060698a527f7fb4302e8e91f9110a6554c2c0a24601252c2a42c2220ca988efcfe3999143088380860160051c8201928a8710610846575b9186958a929594930160051c01915b8281106108385750506106da565b8c815586955089910161082a565b9250819261081b565b896041602492634e487b7160e01b835252fd5b0151905038806106a5565b606881528b94507fa2153420d844928b4421650203c77babc8b33d7f2e7b450e2966db0c22097753929190601f198516908e5b8282106108d757505084116108be575b505050811b016068556106ba565b015160001960f88460031b161c191690553880806108b0565b8385015186558e979095019493840193018e6108a0565b90915060688d527fa2153420d844928b4421650203c77babc8b33d7f2e7b450e2966db0c220977538680850160051c8201928d8610610955575b859493910160051c909101908b908f5b83821061094757505050610691565b81558594508c91018f610938565b92508192610928565b60248b604184634e487b7160e01b835252fd5b61ffff1916610101178755386105bd565b6084908587519162461bcd60e51b8352820152602e60248201527f496e697469616c697a61626c653a20636f6e747261637420697320616c72656160448201527f647920696e697469616c697a65640000000000000000000000000000000000006064820152fd5b50303b1580156105a65750600160ff8516146105a6565b50600160ff85161061059f565b8380fd5b8383346101c7576020928360031936011261029b57610a2f6113ec565b6001600160a01b039182609854163303610aab5750610a4d81612033565b16808352609a84526003828420016002845284528183205492818152609a8552600383822001600282528552828120557fec968375d87c8bc8b1fb440238b4e7bc0babfbbdba5dc249a1e08cb5e2a19f22848351858152a251908152f35b835163229f674560e21b8152fd5b8390346101c75760203660031901126101c757356001600160a01b0381168091036101c757610ae661144c565b6001600160a01b0319609c541617609c5580f35b5050346101c757806003193601126101c757602090610b24610b1a6113ec565b60243590336115b1565b5160018152f35b9190503461029b5760209081600319360112610a0e578235928315610c7c57610b63846001600160a01b036097541630903390611da8565b610b6c33612033565b338552609a8352600282862001610b8485825461158e565b905560995460018101809111610c69578552609b8352818520610ba885825461158e565b90553315610c285750907febedb8b3c678666e7f36970bc8f57abf6d8fa2e828c0da91ea5b75bf68ed101a91610be08460675461158e565b606755338552606582528085208481540190558051848152857fddf252ad1be2c89b69c2b068fc378daa952ba7f163c4a11628f55a4df523b3ef843393a3519283523392a280f35b82606492519162461bcd60e51b8352820152601f60248201527f45524332303a206d696e7420746f20746865207a65726f2061646472657373006044820152fd5b602486601184634e487b7160e01b835252fd5b9051631f2a200560e01b8152fd5b90508234610d485782600319360112610d4857610ca56113ec565b91836024359233815260666020528181206001600160a01b0386168252602052205490828210610cdf57602085610b248585038733611767565b608490602086519162461bcd60e51b8352820152602560248201527f45524332303a2064656372656173656420616c6c6f77616e63652062656c6f7760448201527f207a65726f0000000000000000000000000000000000000000000000000000006064820152fd5b80fd5b5050346101c757816003193601126101c75780519082606954610d6d816114ec565b80855291600191808316908115610e045750600114610da7575b505050610d9982610da394038361156c565b51918291826113a3565b0390f35b9450606985527f7fb4302e8e91f9110a6554c2c0a24601252c2a42c2220ca988efcfe3999143085b828610610dec57505050610d99826020610da39582010194610d87565b80546020878701810191909152909501948101610dcf565b610da3975086935060209250610d9994915060ff191682840152151560051b82010194610d87565b5050346101c757610e5c6001600160a01b03600383602095610e4d3661141d565b94168152609a87522001612005565b549051908152f35b5050346101c757816003193601126101c7576020906001600160a01b03603354169051908152f35b5050346101c757816003193601126101c7576020906001600160a01b03609854169051908152f35b8334610d48576020366003190112610d48576001600160a01b03610ed66113ec565b610ede61144c565b166001600160a01b0319609854161760985580f35b9190503461029b578260031936011261029b576020925051908152f35b5050346101c757816003193601126101c7576020906099549051908152f35b8334610d485780600319360112610d4857610f4861144c565b806001600160a01b036033546001600160a01b03198116603355167f8be0079c531659141344cd1fd0a4f28419497f9722a3daafe3b4186f6b6457e08280a380f35b5050346101c75760203660031901126101c757806020926001600160a01b03610fb16113ec565b1681526065845220549051908152f35b5050346101c757816003193601126101c7576020906001600160a01b03609754169051908152f35b5050346101c757816003193601126101c7576020905160d08152f35b5050346101c757806003193601126101c757610b2460209261104d6110286113ec565b91338152606686528481206001600160a01b038416825286528460243591205461158e565b9033611767565b5050346101c757816003193601126101c7576020905160128152f35b90503461029b578160031936011261029b57602435906003821015610a0e5790600183602095610e5c94358152609b87522001612005565b8390346101c75760203660031901126101c75761022f9035611919565b839150346101c75760603660031901126101c7576110e16113ec565b6110e9611407565b9184604435946001600160a01b038416815260666020528181203382526020522054906000198203611124575b602086610b248787876115b1565b84821061114d575091839161114260209695610b2495033383611767565b919394819350611116565b606490602087519162461bcd60e51b8352820152601d60248201527f45524332303a20696e73756666696369656e7420616c6c6f77616e63650000006044820152fd5b5050346101c757816003193601126101c7576020906067549051908152f35b5050346101c75760203660031901126101c757806060926001600160a01b036111d66113ec565b168152609a60205220805491600260018301549201549181519384526020840152820152f35b8383346101c75760203660031901126101c7576001600160a01b036098541633036112c257609954808352609b60205281832060001992918381019081116112af578452609b602052818420611255918635919061237f565b60995490818452609b6020528084205491600181018091116112af5790611287918552609b602052842091825461158e565b905560995490811461129c5760010160995580f35b506011602492634e487b7160e01b835252fd5b602485601188634e487b7160e01b835252fd5b90505163229f674560e21b8152fd5b5050346101c757806003193601126101c757602090610b246112f16113ec565b6024359033611767565b8490843461029b578260031936011261029b578260685461131b816114ec565b80855291600191808316908115610e04575060011461134657505050610d9982610da394038361156c565b9450606885527fa2153420d844928b4421650203c77babc8b33d7f2e7b450e2966db0c220977535b82861061138b57505050610d99826020610da39582010194610d87565b8054602087870181019190915290950194810161136e565b6020808252825181830181905290939260005b8281106113d857505060409293506000838284010152601f8019910116010190565b8181018601518482016040015285016113b6565b600435906001600160a01b038216820361140257565b600080fd5b602435906001600160a01b038216820361140257565b6040906003190112611402576004356001600160a01b0381168103611402579060243560038110156114025790565b6001600160a01b0360335416330361146057565b606460405162461bcd60e51b815260206004820152602060248201527f4f776e61626c653a2063616c6c6572206973206e6f7420746865206f776e65726044820152fd5b603354906001600160a01b0380911691826001600160a01b0319821617603355167f8be0079c531659141344cd1fd0a4f28419497f9722a3daafe3b4186f6b6457e0600080a3565b90600182811c9216801561151c575b602083101461150657565b634e487b7160e01b600052602260045260246000fd5b91607f16916114fb565b67ffffffffffffffff811161153a57604052565b634e487b7160e01b600052604160045260246000fd5b6040810190811067ffffffffffffffff82111761153a57604052565b90601f8019910116810190811067ffffffffffffffff82111761153a57604052565b9190820180921161159b57565b634e487b7160e01b600052601160045260246000fd5b6001600160a01b038091169182156116fd5716918215611693576000828152606560205260408120549180831061162957604082827fddf252ad1be2c89b69c2b068fc378daa952ba7f163c4a11628f55a4df523b3ef95876020965260658652038282205586815220818154019055604051908152a3565b608460405162461bcd60e51b815260206004820152602660248201527f45524332303a207472616e7366657220616d6f756e742065786365656473206260448201527f616c616e636500000000000000000000000000000000000000000000000000006064820152fd5b608460405162461bcd60e51b815260206004820152602360248201527f45524332303a207472616e7366657220746f20746865207a65726f206164647260448201527f65737300000000000000000000000000000000000000000000000000000000006064820152fd5b608460405162461bcd60e51b815260206004820152602560248201527f45524332303a207472616e736665722066726f6d20746865207a65726f20616460448201527f64726573730000000000000000000000000000000000000000000000000000006064820152fd5b6001600160a01b0380911691821561183257169182156117c85760207f8c5be1e5ebec7d5bd14f71427d1e84f3dd0314c0f7b2291e5b200ac8c7c3b925918360005260668252604060002085600052825280604060002055604051908152a3565b608460405162461bcd60e51b815260206004820152602260248201527f45524332303a20617070726f766520746f20746865207a65726f20616464726560448201527f73730000000000000000000000000000000000000000000000000000000000006064820152fd5b608460405162461bcd60e51b8152602060048201526024808201527f45524332303a20617070726f76652066726f6d20746865207a65726f2061646460448201527f72657373000000000000000000000000000000000000000000000000000000006064820152fd5b156118a257565b608460405162461bcd60e51b815260206004820152602b60248201527f496e697469616c697a61626c653a20636f6e7472616374206973206e6f74206960448201527f6e697469616c697a696e670000000000000000000000000000000000000000006064820152fd5b9190820391821161159b57565b609c546000916001600160a01b038092166040928351917fbf230f7f000000000000000000000000000000000000000000000000000000008352600492338482015260209060249282828581845afa918215611d9e578992611d6b575b508187116119e75750505050609c541690813b156104035783516308e9cb8160e01b81523391810191825260208201939093529192918491849182908490829060400103925af19081156119de57506119cd575050565b6119d78291611526565b610d485750565b513d84823e3d90fd5b8099989497959399969192963b156104035784865180926308e9cb8160e01b8252818381611a2e89338c8401602090939291936001600160a01b0360408201951681520152565b03925af18015611d6157611d4a575b5090611a489161190c565b948515611d3b57338352609a8552838320600181016002815492019182549089611a72838361158e565b10611cfd575050611a8233612033565b815488811115611c86575050611a9987825461190c565b905560995460018101809111611c745790611b1f918452609b8652848420611ac288825461190c565b90555b60975485517fa9059cbb0000000000000000000000000000000000000000000000000000000088820152338b8201908152602081018a9052909290911690611b1a90839060400103601f19810184528361156c565b611e19565b3315611c0d57338252606584528282205496858810611ba6575050837f85082129d87b2fe11527cb1b3b7a520aeb5aa6913f88a3d8757fe40d1db02fdd949596338352606585520382822055846067540360675581518581527fddf252ad1be2c89b69c2b068fc378daa952ba7f163c4a11628f55a4df523b3ef843392a3519283523392a2565b9060226084928686519362461bcd60e51b85528401528201527f45524332303a206275726e20616d6f756e7420657863656564732062616c616e60448201527f63650000000000000000000000000000000000000000000000000000000000006064820152fd5b6084906021888686519362461bcd60e51b85528401528201527f45524332303a206275726e2066726f6d20746865207a65726f2061646472657360448201527f73000000000000000000000000000000000000000000000000000000000000006064820152fd5b8884601185634e487b7160e01b835252fd5b611c90908961190c565b90611c9c82825461190c565b90556099548552609b8752611cb586862091825461190c565b9055805460995460018101809111611ceb57918591611b1f94938352609b8952611ce388842091825461190c565b905555611ac5565b8a86601187634e487b7160e01b835252fd5b898c89611d0d6044958a9561158e565b9051937f52b9352d000000000000000000000000000000000000000000000000000000008552840152820152fd5b508251631f2a200560e01b8152fd5b93611d59611a48939295611526565b939091611a3d565b86513d87823e3d90fd5b9091508281813d8311611d97575b611d83818361156c565b81010312611d9357519038611976565b8880fd5b503d611d79565b88513d8b823e3d90fd5b9290604051927f23b872dd0000000000000000000000000000000000000000000000000000000060208501526001600160a01b03809216602485015216604483015260648201526064815260a081019181831067ffffffffffffffff84111761153a57611e1792604052611e19565b565b6001600160a01b031690604051611e2f81611550565b6020928382527f5361666545524332303a206c6f772d6c6576656c2063616c6c206661696c6564848301526000808486829651910182855af13d15611f67573d9167ffffffffffffffff8311611f535790611eaa93929160405192611e9d88601f19601f840116018561156c565b83523d868885013e611f71565b805191821591848315611f2f575b505050905015611ec55750565b6084906040519062461bcd60e51b82526004820152602a60248201527f5361666545524332303a204552433230206f7065726174696f6e20646964206e60448201527f6f742073756363656564000000000000000000000000000000000000000000006064820152fd5b9193818094500103126101c757820151908115158203610d48575080388084611eb8565b602485634e487b7160e01b81526041600452fd5b90611eaa92916060915b91929015611fd25750815115611f85575090565b3b15611f8e5790565b606460405162461bcd60e51b815260206004820152601d60248201527f416464726573733a2063616c6c20746f206e6f6e2d636f6e74726163740000006044820152fd5b825190915015611fe55750805190602001fd5b6120019060405191829162461bcd60e51b8352600483016113a3565b0390fd5b90600381101561201d57600052602052604060002090565b634e487b7160e01b600052602160045260246000fd5b6001600160a01b03600091168152609a6020526040812090609954825480821461215b578015612154576000198101908111612140575b8252609b602052604082206000199180830190811161212c578352609b6020526120a06040842091600186019283549187612161565b600284019182549081151580612120575b6120c2575b50505050506099549055565b85548552609b602052604085209060995490810190811161210c578552609b602052604085206120f3929187612161565b6120ff8254825461158e565b90555538808080806120b6565b602486634e487b7160e01b81526011600452fd5b506099548654106120b1565b602484634e487b7160e01b81526011600452fd5b602483634e487b7160e01b81526011600452fd5b508161206a565b50505050565b91929092600093845b600360ff8216818110156121eb5761218181612351565b61219c575b505060ff80911690811461210c5760010161216a565b6121da816121d2886121cd896121c6856121bd6121e2996001809501612005565b54928c01612005565b549061190c565b6121f5565b938901612005565b91825461158e565b90553880612186565b5050505050505050565b906000198183098183029182808310920391808303921461229c57670de0b6b3a76400009082821115612258577faccb18165bd6fe31ae1cf318dc5b51eee0e1ba569b88cd74c1773b91fac10669940990828211900360ee1b910360121c170290565b606460405162461bcd60e51b815260206004820152601560248201527f4d6174683a206d756c446976206f766572666c6f7700000000000000000000006044820152fd5b5050670de0b6b3a764000091500490565b90670de0b6b3a764000090600019828409928281029283808610950394808603951461232d5784831115612258578291096001821901821680920460028082600302188083028203028083028203028083028203028083028203028083028203028092029003029360018380600003040190848311900302920304170290565b50508092501561233b570490565b634e487b7160e01b600052601260045260246000fd5b600381101561201d57801561237957600181146123795760021461237457600090565b600190565b50600090565b91825490811561215b576123a96123af9260018095600260005201602052604060002054926122ad565b9061158e565b91600260005201602052604060002055565b8181029291811591840414171561159b57565b6001600160a01b036000911681526020609a81526040918281209260029182815260038501845281812054926099549486549485871461251c57600019908782019088821161210c57818652609b8452600192838888200186885285528787205490890189811161250857916123a98c8661246a612473958c8c8f8590609b8f849d86525283200191528b528d8d20549061190c565b910154906123c1565b9901549788151590816124e1575b50612492575b505050505050505090565b926124d49897959285926123a998956124cf9752609b82528085852001838552825284842054958452609b8252848420019183525220549061190c565b6123c1565b3880808080808080612487565b88840191508189116124f4571138612481565b602487634e487b7160e01b81526011600452fd5b602488634e487b7160e01b81526011600452fd5b965050505050505090565b906001600160a01b03600092168252609a602052604082209161254d8260038501612005565b54916099549284549283851461264857600019918583019086821161214057818352609b60205260019361258686866040872001612005565b5490870187811161263457916123a96125b56125bf936002958852609b6020526121c68a8a60408b2001612005565b878c0154906123c1565b970154958615159081612621575b506125dc575b50505050505090565b6126169695936124cf936040846121c6946123a9999652609b602052612606848484842001612005565b54958152609b6020522001612005565b3880808080806125d3565b868501915081871161212c5711386125cd565b602485634e487b7160e01b81526011600452fd5b5093505050509056fea26469706673582212205e4caee3d3885d38eea1e1c9a7ff16dc9bde5b325973460f43f5e1c3f4bf993f64736f6c63430008120033",
  "linkReferences": {},
  "deployedLinkReferences": {}
}