{
  "_format": "hh-sol-artifact-1",
  "contractName": "ChiVesting",
  "sourceName": "contracts/staking/ChiVesting.sol",
  "abi": [
    {
      "inputs": [],
      "name": "CliffPassed",
      "type": "error"
    },
    {
      "inputs": [],
      "name": "NotChiVester",
      "type": "error"
    },
    {
      "inputs": [],
      "name": "NotRewardController",
      "type": "error"
    },
    {
      "inputs": [
        {
          "internalType": "uint256",
          "name": "amount",
          "type": "uint256"
        }
      ],
      "name": "UnavailableWithdrawAmount",
      "type": "error"
    },
    {
      "anonymous": false,
      "inputs": [
        {
          "indexed": true,
          "internalType": "address",
          "name": "account",
          "type": "address"
        },
        {
          "indexed": false,
          "internalType": "uint256",
          "name": "amount",
          "type": "uint256"
        },
        {
          "indexed": false,
          "internalType": "uint256",
          "name": "shares",
          "type": "uint256"
        }
      ],
      "name": "AddVesting",
      "type": "event"
    },
    {
      "anonymous": false,
      "inputs": [
        {
          "indexed": true,
          "internalType": "address",
          "name": "account",
          "type": "address"
        },
        {
          "indexed": false,
          "internalType": "uint256",
          "name": "amount",
          "type": "uint256"
        }
      ],
      "name": "ClaimStETH",
      "type": "event"
    },
    {
      "anonymous": false,
      "inputs": [
        {
          "indexed": false,
          "internalType": "uint8",
          "name": "version",
          "type": "uint8"
        }
      ],
      "name": "Initialized",
      "type": "event"
    },
    {
      "anonymous": false,
      "inputs": [
        {
          "indexed": true,
          "internalType": "address",
          "name": "previousOwner",
          "type": "address"
        },
        {
          "indexed": true,
          "internalType": "address",
          "name": "newOwner",
          "type": "address"
        }
      ],
      "name": "OwnershipTransferred",
      "type": "event"
    },
    {
      "anonymous": false,
      "inputs": [
        {
          "indexed": true,
          "internalType": "uint256",
          "name": "epoch",
          "type": "uint256"
        },
        {
          "indexed": false,
          "internalType": "uint256",
          "name": "stETHrewards",
          "type": "uint256"
        },
        {
          "indexed": false,
          "internalType": "uint256",
          "name": "totalLockedChi",
          "type": "uint256"
        }
      ],
      "name": "UpdateEpoch",
      "type": "event"
    },
    {
      "anonymous": false,
      "inputs": [
        {
          "indexed": true,
          "internalType": "address",
          "name": "account",
          "type": "address"
        },
        {
          "indexed": false,
          "internalType": "uint256",
          "name": "amount",
          "type": "uint256"
        }
      ],
      "name": "WithdrawChi",
      "type": "event"
    },
    {
      "inputs": [],
      "name": "MAX_LOCK_DURATION",
      "outputs": [
        {
          "internalType": "uint256",
          "name": "",
          "type": "uint256"
        }
      ],
      "stateMutability": "view",
      "type": "function"
    },
    {
      "inputs": [
        {
          "internalType": "address",
          "name": "account",
          "type": "address"
        },
        {
          "internalType": "uint256",
          "name": "chiAmount",
          "type": "uint256"
        }
      ],
      "name": "addVesting",
      "outputs": [],
      "stateMutability": "nonpayable",
      "type": "function"
    },
    {
      "inputs": [
        {
          "internalType": "address",
          "name": "account",
          "type": "address"
        }
      ],
      "name": "availableChiWithdraw",
      "outputs": [
        {
          "internalType": "uint256",
          "name": "",
          "type": "uint256"
        }
      ],
      "stateMutability": "view",
      "type": "function"
    },
    {
      "inputs": [],
      "name": "chi",
      "outputs": [
        {
          "internalType": "contract IERC20",
          "name": "",
          "type": "address"
        }
      ],
      "stateMutability": "view",
      "type": "function"
    },
    {
      "inputs": [
        {
          "internalType": "address",
          "name": "",
          "type": "address"
        }
      ],
      "name": "chiVesters",
      "outputs": [
        {
          "internalType": "bool",
          "name": "",
          "type": "bool"
        }
      ],
      "stateMutability": "view",
      "type": "function"
    },
    {
      "inputs": [
        {
          "internalType": "address",
          "name": "account",
          "type": "address"
        }
      ],
      "name": "claimStETH",
      "outputs": [
        {
          "internalType": "uint256",
          "name": "",
          "type": "uint256"
        }
      ],
      "stateMutability": "nonpayable",
      "type": "function"
    },
    {
      "inputs": [],
      "name": "cliffDuration",
      "outputs": [
        {
          "internalType": "uint256",
          "name": "",
          "type": "uint256"
        }
      ],
      "stateMutability": "view",
      "type": "function"
    },
    {
      "inputs": [],
      "name": "currentEpoch",
      "outputs": [
        {
          "internalType": "uint256",
          "name": "",
          "type": "uint256"
        }
      ],
      "stateMutability": "view",
      "type": "function"
    },
    {
      "inputs": [
        {
          "internalType": "uint256",
          "name": "",
          "type": "uint256"
        }
      ],
      "name": "epochs",
      "outputs": [
        {
          "internalType": "uint256",
          "name": "cumulativeStETHRewardPerShare",
          "type": "uint256"
        },
        {
          "internalType": "uint256",
          "name": "cumulativeUnlockedPerShare",
          "type": "uint256"
        }
      ],
      "stateMutability": "view",
      "type": "function"
    },
    {
      "inputs": [],
      "name": "getLockedChi",
      "outputs": [
        {
          "internalType": "uint256",
          "name": "",
          "type": "uint256"
        }
      ],
      "stateMutability": "view",
      "type": "function"
    },
    {
      "inputs": [],
      "name": "getTotalVotingPower",
      "outputs": [
        {
          "internalType": "uint256",
          "name": "",
          "type": "uint256"
        }
      ],
      "stateMutability": "view",
      "type": "function"
    },
    {
      "inputs": [
        {
          "internalType": "address",
          "name": "account",
          "type": "address"
        }
      ],
      "name": "getVotingPower",
      "outputs": [
        {
          "internalType": "uint256",
          "name": "",
          "type": "uint256"
        }
      ],
      "stateMutability": "view",
      "type": "function"
    },
    {
      "inputs": [
        {
          "internalType": "contract IERC20",
          "name": "_chi",
          "type": "address"
        },
        {
          "internalType": "uint256",
          "name": "_cliffDuration",
          "type": "uint256"
        },
        {
          "internalType": "uint256",
          "name": "_vestingDuration",
          "type": "uint256"
        }
      ],
      "name": "initialize",
      "outputs": [],
      "stateMutability": "nonpayable",
      "type": "function"
    },
    {
      "inputs": [],
      "name": "owner",
      "outputs": [
        {
          "internalType": "address",
          "name": "",
          "type": "address"
        }
      ],
      "stateMutability": "view",
      "type": "function"
    },
    {
      "inputs": [],
      "name": "renounceOwnership",
      "outputs": [],
      "stateMutability": "nonpayable",
      "type": "function"
    },
    {
      "inputs": [],
      "name": "rewardController",
      "outputs": [
        {
          "internalType": "address",
          "name": "",
          "type": "address"
        }
      ],
      "stateMutability": "view",
      "type": "function"
    },
    {
      "inputs": [
        {
          "internalType": "address",
          "name": "contractAddress",
          "type": "address"
        },
        {
          "internalType": "bool",
          "name": "toSet",
          "type": "bool"
        }
      ],
      "name": "setChiVester",
      "outputs": [],
      "stateMutability": "nonpayable",
      "type": "function"
    },
    {
      "inputs": [
        {
          "internalType": "address",
          "name": "_rewardController",
          "type": "address"
        }
      ],
      "name": "setRewardController",
      "outputs": [],
      "stateMutability": "nonpayable",
      "type": "function"
    },
    {
      "inputs": [],
      "name": "totalLockedChi",
      "outputs": [
        {
          "internalType": "uint256",
          "name": "",
          "type": "uint256"
        }
      ],
      "stateMutability": "view",
      "type": "function"
    },
    {
      "inputs": [],
      "name": "totalShares",
      "outputs": [
        {
          "internalType": "uint256",
          "name": "",
          "type": "uint256"
        }
      ],
      "stateMutability": "view",
      "type": "function"
    },
    {
      "inputs": [],
      "name": "totalUnlockedChi",
      "outputs": [
        {
          "internalType": "uint256",
          "name": "",
          "type": "uint256"
        }
      ],
      "stateMutability": "view",
      "type": "function"
    },
    {
      "inputs": [],
      "name": "totalVotingPower",
      "outputs": [
        {
          "internalType": "uint256",
          "name": "",
          "type": "uint256"
        }
      ],
      "stateMutability": "view",
      "type": "function"
    },
    {
      "inputs": [
        {
          "internalType": "address",
          "name": "newOwner",
          "type": "address"
        }
      ],
      "name": "transferOwnership",
      "outputs": [],
      "stateMutability": "nonpayable",
      "type": "function"
    },
    {
      "inputs": [
        {
          "internalType": "address",
          "name": "account",
          "type": "address"
        }
      ],
      "name": "unclaimedStETHAmount",
      "outputs": [
        {
          "internalType": "uint256",
          "name": "",
          "type": "uint256"
        }
      ],
      "stateMutability": "view",
      "type": "function"
    },
    {
      "inputs": [
        {
          "internalType": "uint256",
          "name": "chiEmissions",
          "type": "uint256"
        },
        {
          "internalType": "uint256",
          "name": "stETHrewards",
          "type": "uint256"
        }
      ],
      "name": "updateEpoch",
      "outputs": [],
      "stateMutability": "nonpayable",
      "type": "function"
    },
    {
      "inputs": [
        {
          "internalType": "address",
          "name": "",
          "type": "address"
        }
      ],
      "name": "vestingData",
      "outputs": [
        {
          "internalType": "uint256",
          "name": "startAmount",
          "type": "uint256"
        },
        {
          "internalType": "uint256",
          "name": "shares",
          "type": "uint256"
        },
        {
          "internalType": "uint256",
          "name": "unlockedChi",
          "type": "uint256"
        },
        {
          "internalType": "uint256",
          "name": "lastWithdrawnEpoch",
          "type": "uint256"
        },
        {
          "internalType": "uint256",
          "name": "unclaimedStETH",
          "type": "uint256"
        },
        {
          "internalType": "uint256",
          "name": "lastClaimedEpoch",
          "type": "uint256"
        }
      ],
      "stateMutability": "view",
      "type": "function"
    },
    {
      "inputs": [],
      "name": "vestingDuration",
      "outputs": [
        {
          "internalType": "uint256",
          "name": "",
          "type": "uint256"
        }
      ],
      "stateMutability": "view",
      "type": "function"
    },
    {
      "inputs": [
        {
          "internalType": "uint256",
          "name": "amount",
          "type": "uint256"
        }
      ],
      "name": "withdrawChi",
      "outputs": [],
      "stateMutability": "nonpayable",
      "type": "function"
    }
  ],
  "bytecode": "0x60808060405234610016576114e8908161001b8239f35b5f80fdfe6080604081815260049182361015610015575f80fd5b5f92833560e01c91826311acc1a714610e31575081631514617e14610e125781633a98ef3914610df3578163441b6bfc14610ae857816344ae44ae14610d865781634f1bfc9e14610d6a57816353fdfab014610b075781635f2bcdbd14610ae8578163671b379314610ac9578163715018a614610a615781637667180814610a425781637a1ac61e146108be5781637c9939611461086f5781638cc5ce99146108475781638da5cb5b1461081f57816395fcb00d146106dd578163a1cbb5de14610689578163b01d556c1461066a578163bb4d443614610644578163be596d3a146105ba578163bf230f7f14610594578163c5138abd146102e7578163c6b61e4c146102b5578163c92aecc41461028d578163d85349f71461026e578163e8c3a80814610241578163f2fde38b14610194575063f4a751d414610156575f80fd5b346101905760203660031901126101905760ff816020936001600160a01b0361017d610e4d565b168152606e855220541690519015158152f35b5080fd5b90503461023d57602036600319011261023d576101af610e4d565b916101b8610e67565b6001600160a01b038316156101d457836101d184610ebf565b80f35b906020608492519162461bcd60e51b8352820152602660248201527f4f776e61626c653a206e6577206f776e657220697320746865207a65726f206160448201527f64647265737300000000000000000000000000000000000000000000000000006064820152fd5b8280fd5b50503461019057602036600319011261019057602090610267610262610e4d565b6112bf565b9051908152f35b5050346101905781600319360112610190576020906066549051908152f35b5050346101905781600319360112610190576020906001600160a01b03606554169051908152f35b90503461023d57602036600319011261023d579181923581526070602052206001815491015482519182526020820152f35b9190503461023d576020908160031936011261059057823592338552606f83528185206103133361137d565b338752606f855283872060020155606b545f19810190811161057d57338752606f855283872060030155600201805480861161054e5785610353916111e1565b9055610361846069546111e1565b6069556001600160a01b03606554168251848101907fa9059cbb000000000000000000000000000000000000000000000000000000008252602492338483015287604483015260448252608082019267ffffffffffffffff928085108486111761052d5760c081018581108582111761051b5788528885527f5361666545524332303a206c6f772d6c6576656c2063616c6c206661696c656460a0820152518a9182919082855af1903d1561053f573d83811161052d57875193601f8201601f19908116603f011685019081118582101761051b578852835261044c939291903d8b8a85013e6111ee565b80518581159182156104f7575b5050905015610491575050907fe707f6e3f1669da32a4c64ab315bc4b65032fb9dcd95a27d29727a8d250bd86f91519283523392a280f35b608493602a9293519362461bcd60e51b85528401528201527f5361666545524332303a204552433230206f7065726174696f6e20646964206e60448201527f6f742073756363656564000000000000000000000000000000000000000000006064820152fd5b83809293500103126105175784015180151581036105175780855f610459565b8680fd5b868c60418a634e487b7160e01b835252fd5b858b604189634e487b7160e01b835252fd5b9061044c9392506060916111ee565b602483878651917f97a27f06000000000000000000000000000000000000000000000000000000008352820152fd5b602487601185634e487b7160e01b835252fd5b8380fd5b505034610190576020366003190112610190576020906102676105b5610e4d565b61137d565b838334610190576020366003190112610190576105d5610e4d565b926001600160a01b0380606d5416330361063557846105f560209661140f565b1690818452606f85528284200192835493557fec968375d87c8bc8b1fb440238b4e7bc0babfbbdba5dc249a1e08cb5e2a19f22848351858152a251908152f35b50905163229f674560e21b8152fd5b50503461019057602036600319011261019057602090610267610665610e4d565b611339565b5050346101905781600319360112610190576020906069549051908152f35b5050346101905780600319360112610190576106a3610e4d565b9060243591821515809303610590576001600160a01b03906106c3610e67565b168352606e60205282209060ff8019835416911617905580f35b9190503461023d578060031936011261023d576106f8610e4d565b9160243590338552606e60205260ff8386205416156107f857606b54606654106107d15750907fc6c8ef2a4f1a473f8774c45ca63e2fd2ba1ba5889364b0998a68678f633a363b916107498461140f565b6001600160a01b0361075a826113f6565b941693848652606f60205282862060018101610777838254610f84565b9055610784838254610f84565b905561079282606854610f84565b6068556107a181606a54610f84565b606a556107c06107b86107b2611469565b84611095565b606c54610f84565b606c5582519182526020820152a280f35b82517f3dcc851d000000000000000000000000000000000000000000000000000000008152fd5b82517f066f7ea5000000000000000000000000000000000000000000000000000000008152fd5b5050346101905781600319360112610190576020906001600160a01b03603354169051908152f35b5050346101905781600319360112610190576020906001600160a01b03606d54169051908152f35b83346108bb5760203660031901126108bb576001600160a01b03610891610e4d565b610899610e67565b1673ffffffffffffffffffffffffffffffffffffffff19606d541617606d5580f35b80fd5b90503461023d57606036600319011261023d5780356001600160a01b03811680910361059057835460ff8160081c161592838094610a35575b8015610a1e575b156109b5575060ff1981166001178555826109a4575b5061092e60ff855460081c1661092981610f13565b610f13565b61093733610ebf565b73ffffffffffffffffffffffffffffffffffffffff1960655416176065556024356066556044356067556001606b5561096e575080f35b60207f7f26b83ff96e1f2b6a682f133852f6798a09c465da95921460cefb38474024989161ff001984541684555160018152a180f35b61ffff19166101011784555f610914565b608490602086519162461bcd60e51b8352820152602e60248201527f496e697469616c697a61626c653a20636f6e747261637420697320616c72656160448201527f647920696e697469616c697a65640000000000000000000000000000000000006064820152fd5b50303b1580156108fe5750600160ff8316146108fe565b50600160ff8316106108f7565b505034610190578160031936011261019057602090606b549051908152f35b83346108bb57806003193601126108bb57610a7a610e67565b806001600160a01b0360335473ffffffffffffffffffffffffffffffffffffffff198116603355167f8be0079c531659141344cd1fd0a4f28419497f9722a3daafe3b4186f6b6457e08280a380f35b505034610190578160031936011261019057602090606c549051908152f35b5050346101905781600319360112610190576020906068549051908152f35b8383346101905780600319360112610190578235906024938435906001600160a01b03606d54163303610d5c57606b5493848652607060205283862086606a5480610d4b575b505f1996808801908111610d395790610b70918952607060205286892054610f84565b8155610b7a611469565b91610b8781606854610f84565b91826068558315159182610d1b575b50889280151580610d0e575b80610d07575b610cec575b5088606a5480610cdb575b50606b54898101908111610cc957600191610bdf918c526070602052828a8d200154610f84565b910155610bee826068546111e1565b606855610bfd82606954610f84565b606955610c66575b5050606b54938414610c54576001840180606b558411610c545750907f81fd6bca37e58d91273f72fc2387697efca0b1e4e4ad10eabfc19b502a004ea69160685482519182526020820152a280f35b8460118792634e487b7160e01b835252fd5b81610c7091611095565b606c549081811115610cb857505085606c555b606c5485820190828211610ca65790610c9c929161116d565b606c558680610c05565b8888601186634e487b7160e01b835252fd5b610cc1916111e1565b606c55610c83565b8b8b601189634e487b7160e01b835252fd5b610ce6915084610fc3565b8b610bb8565b610d00919350610cfa611469565b90610fa5565b918a610bad565b5082610ba8565b50606b5460665410610ba2565b6107b8610d3091610d2a611469565b90611095565b606c558a610b96565b8989601187634e487b7160e01b835252fd5b610d56915085610fc3565b89610b4d565b825163229f674560e21b8152fd5b5050346101905781600319360112610190576020905160d08152f35b9190503461023d57602036600319011261023d578060c0936001600160a01b03610dae610e4d565b168152606f60205220805492600182015492600283015490600560038501549385015494015494815196875260208701528501526060840152608083015260a0820152f35b505034610190578160031936011261019057602090606a549051908152f35b5050346101905781600319360112610190576020906067549051908152f35b849034610190578160031936011261019057602090606c548152f35b600435906001600160a01b0382168203610e6357565b5f80fd5b6001600160a01b03603354163303610e7b57565b606460405162461bcd60e51b815260206004820152602060248201527f4f776e61626c653a2063616c6c6572206973206e6f7420746865206f776e65726044820152fd5b603354906001600160a01b03809116918273ffffffffffffffffffffffffffffffffffffffff19821617603355167f8be0079c531659141344cd1fd0a4f28419497f9722a3daafe3b4186f6b6457e05f80a3565b15610f1a57565b608460405162461bcd60e51b815260206004820152602b60248201527f496e697469616c697a61626c653a20636f6e7472616374206973206e6f74206960448201527f6e697469616c697a696e670000000000000000000000000000000000000000006064820152fd5b91908201809211610f9157565b634e487b7160e01b5f52601160045260245ffd5b8115610faf570490565b634e487b7160e01b5f52601260045260245ffd5b90670de0b6b3a7640000905f19828409928281029283808610950394808603951461108557848311156110415782910960018219018216809204600280826003021880830282030280830282030280830282030280830282030280830282030280920290030293600183805f03040190848311900302920304170290565b606460405162461bcd60e51b815260206004820152601560248201527f4d6174683a206d756c446976206f766572666c6f7700000000000000000000006044820152fd5b5050906110929250610fa5565b90565b5f19828209828202918280831092039180830392146110f0578160d01115611041577f4ec4ec4ec4ec4ec4ec4ec4ec4ec4ec4ec4ec4ec4ec4ec4ec4ec4ec4ec4ec4ec59360d0910990828211900360fc1b910360041c170290565b505060d091500490565b905f198183098183029182808310920391808303921461115c57670de0b6b3a76400009082821115611041577faccb18165bd6fe31ae1cf318dc5b51eee0e1ba569b88cd74c1773b91fac10669940990828211900360ee1b910360121c170290565b5050670de0b6b3a764000091500490565b915f19828409928281029283808610950394808603951461108557848311156110415782910960018219018216809204600280826003021880830282030280830282030280830282030280830282030280830282030280920290030293600183805f03040190848311900302920304170290565b91908203918211610f9157565b9192901561124f5750815115611202575090565b3b1561120b5790565b606460405162461bcd60e51b815260206004820152601d60248201527f416464726573733a2063616c6c20746f206e6f6e2d636f6e74726163740000006044820152fd5b8251909150156112625750805190602001fd5b6040519062461bcd60e51b82528160208060048301528251908160248401525f935b8285106112a6575050604492505f838284010152601f80199101168101030190fd5b8481018201518686016044015293810193859350611284565b906001600160a01b035f92168252606f60205260408220600481015490606b545f198101908111611325579060016113168661131f94611092979852607060205260408082205491600586015481522054906111e1565b910154906110fa565b90610f84565b602485634e487b7160e01b81526011600452fd5b606b5461134b60665460675490610f84565b10611378576001600160a01b03165f52606f60205261109260405f206001606c54910154606a549161116d565b505f90565b906001600160a01b035f92168252606f602052604082206002810154906003810154606b54915f1983019283116113e25761131f9291600160406110929798826113dd9501549581526070602052828282200154938152200154906111e1565b6110fa565b602486634e487b7160e01b81526011600452fd5b606854801561140b57606a546110929261116d565b5090565b6001600160a01b03611420826112bf565b9116905f90828252606f6020526004604083200155606b54915f198301928311611455578152606f6020526040902060050155565b602482634e487b7160e01b81526011600452fd5b606b5460665460675461147c8183610f84565b60018101809111610f915783116114ab5761149691610f84565b9060018201809211610f9157611092916111e1565b5050505f9056fea2646970667358221220b46b148e8524158448b872d9669111af03c7c55ecaa0ab44d7cc490db80f0c2a64736f6c63430008140033",
  "linkReferences": {},
  "deployedLinkReferences": {}
}