{
  "abi": [
    {
      "inputs": [
        {
          "internalType": "contract IStabilanCore",
          "name": "core",
          "type": "address"
        },
        {
          "internalType": "address",
          "name": "account",
          "type": "address"
        }
      ],
      "name": "getUserTokens",
      "outputs": [
        {
          "components": [
            {
              "internalType": "enum DataProvider.TokenType",
              "name": "tokenType",
              "type": "uint8"
            },
            {
              "internalType": "address",
              "name": "tokenAddress",
              "type": "address"
            },
            {
              "internalType": "uint256",
              "name": "endEpoch",
              "type": "uint256"
            },
            {
              "internalType": "uint256",
              "name": "balance",
              "type": "uint256"
            }
          ],
          "internalType": "struct DataProvider.UserToken[]",
          "name": "",
          "type": "tuple[]"
        }
      ],
      "stateMutability": "view",
      "type": "function"
    }
  ],
  "bytecode": {
    "object": "0x608060405234801561001057600080fd5b5061082a806100206000396000f3fe608060405234801561001057600080fd5b506004361061002b5760003560e01c8063ad4a0b3714610030575b600080fd5b61004361003e366004610536565b610059565b604051610050919061056f565b60405180910390f35b604080516064808252610ca0820190925260609160009190816020015b6040805160808101825260008082526020808301829052928201819052606082015282526000199092019101816100765790505090506000606080866001600160a01b03166228b6ef6040518163ffffffff1660e01b8152600401600060405180830381865afa1580156100ee573d6000803e3d6000fd5b505050506040513d6000823e601f3d908101601f1916820160405261011691908101906106d9565b909250905060005b82518110156102b357600083828151811061013b5761013b61079e565b60209081029190910101516040516370a0823160e01b81526001600160a01b038a81166004830152909116906370a0823190602401602060405180830381865afa15801561018d573d6000803e3d6000fd5b505050506040513d601f19601f820116820180604052508101906101b191906107b4565b905080156102a057604080516080810190915280600081526020018584815181106101de576101de61079e565b60200260200101516001600160a01b031681526020018584815181106102065761020661079e565b60200260200101516001600160a01b0316630b9663db6040518163ffffffff1660e01b8152600401602060405180830381865afa15801561024b573d6000803e3d6000fd5b505050506040513d601f19601f8201168201806040525081019061026f91906107b4565b81526020018290528686610282816107cd565b9750815181106102945761029461079e565b60200260200101819052505b50806102ab816107cd565b91505061011e565b5060005b815181101561044c5760008282815181106102d4576102d461079e565b60209081029190910101516040516370a0823160e01b81526001600160a01b038a81166004830152909116906370a0823190602401602060405180830381865afa158015610326573d6000803e3d6000fd5b505050506040513d601f19601f8201168201806040525081019061034a91906107b4565b9050801561043957604080516080810190915280600181526020018484815181106103775761037761079e565b60200260200101516001600160a01b0316815260200184848151811061039f5761039f61079e565b60200260200101516001600160a01b0316630b9663db6040518163ffffffff1660e01b8152600401602060405180830381865afa1580156103e4573d6000803e3d6000fd5b505050506040513d601f19601f8201168201806040525081019061040891906107b4565b8152602001829052868661041b816107cd565b97508151811061042d5761042d61079e565b60200260200101819052505b5080610444816107cd565b9150506102b7565b5060008367ffffffffffffffff811115610468576104686105fa565b6040519080825280602002602001820160405280156104ba57816020015b6040805160808101825260008082526020808301829052928201819052606082015282526000199092019101816104865790505b50905060005b84811015610512578581815181106104da576104da61079e565b60200260200101518282815181106104f4576104f461079e565b6020026020010181905250808061050a906107cd565b9150506104c0565b50979650505050505050565b6001600160a01b038116811461053357600080fd5b50565b6000806040838503121561054957600080fd5b82356105548161051e565b915060208301356105648161051e565b809150509250929050565b60208082528251828201819052600091906040908185019086840185805b838110156105ec5782518051600281106105b557634e487b7160e01b84526021600452602484fd5b8652808801516001600160a01b0316888701528681015187870152606090810151908601526080909401939186019160010161058d565b509298975050505050505050565b634e487b7160e01b600052604160045260246000fd5b604051601f8201601f1916810167ffffffffffffffff81118282101715610639576106396105fa565b604052919050565b600067ffffffffffffffff82111561065b5761065b6105fa565b5060051b60200190565b600082601f83011261067657600080fd5b8151602061068b61068683610641565b610610565b82815260059290921b840181019181810190868411156106aa57600080fd5b8286015b848110156106ce5780516106c18161051e565b83529183019183016106ae565b509695505050505050565b600080604083850312156106ec57600080fd5b825167ffffffffffffffff8082111561070457600080fd5b818501915085601f83011261071857600080fd5b8151602061072861068683610641565b82815260059290921b8401810191818101908984111561074757600080fd5b948201945b8386101561076e57855161075f8161051e565b8252948201949082019061074c565b9188015191965090935050508082111561078757600080fd5b5061079485828601610665565b9150509250929050565b634e487b7160e01b600052603260045260246000fd5b6000602082840312156107c657600080fd5b5051919050565b6000600182016107ed57634e487b7160e01b600052601160045260246000fd5b506001019056fea2646970667358221220dec48a4232fff92e2f8cfc74b801e8486f25878de8ce14b2f0eae93b4fcbd8c364736f6c63430008150033",
    "linkReferences": {}
  },
  "methodIdentifiers": {
    "getUserTokens(address,address)": "ad4a0b37"
  },
  "id": 5
}