{
  "abi": [
    {
      "inputs": [
        {
          "internalType": "contract IStabilanCore",
          "name": "core",
          "type": "address"
        },
        {
          "internalType": "address",
          "name": "account",
          "type": "address"
        }
      ],
      "name": "getUserTokens",
      "outputs": [
        {
          "components": [
            {
              "internalType": "enum DataProvider.TokenType",
              "name": "tokenType",
              "type": "uint8"
            },
            {
              "internalType": "address",
              "name": "stabilanTokenAddress",
              "type": "address"
            },
            {
              "internalType": "address",
              "name": "undelyingAssetAddress",
              "type": "address"
            },
            {
              "internalType": "address",
              "name": "backedAsset",
              "type": "address"
            },
            {
              "internalType": "uint256",
              "name": "endEpoch",
              "type": "uint256"
            },
            {
              "internalType": "uint256",
              "name": "balance",
              "type": "uint256"
            }
          ],
          "internalType": "struct DataProvider.UserToken[]",
          "name": "",
          "type": "tuple[]"
        }
      ],
      "stateMutability": "view",
      "type": "function"
    }
  ],
  "bytecode": {
    "object": "0x608060405234801561001057600080fd5b50610a3e806100206000396000f3fe608060405234801561001057600080fd5b506004361061002b5760003560e01c8063ad4a0b3714610030575b600080fd5b61004361003e3660046106fd565b610059565b6040516100509190610736565b60405180910390f35b604080516064808252610ca0820190925260609160009190816020015b6040805160c08101825260008082526020808301829052928201819052606082018190526080820181905260a082015282526000199092019101816100765790505090506000606080866001600160a01b03166228b6ef6040518163ffffffff1660e01b8152600401600060405180830381865afa1580156100fc573d6000803e3d6000fd5b505050506040513d6000823e601f3d908101601f1916820160405261012491908101906108c9565b909250905060005b825181101561035a5760008382815181106101495761014961098e565b60209081029190910101516040516370a0823160e01b81526001600160a01b038a81166004830152909116906370a0823190602401602060405180830381865afa15801561019b573d6000803e3d6000fd5b505050506040513d601f19601f820116820180604052508101906101bf91906109a4565b90508015610347576040805160c0810190915280600081526020018584815181106101ec576101ec61098e565b60200260200101516001600160a01b031681526020018584815181106102145761021461098e565b60200260200101516001600160a01b0316636f307dc36040518163ffffffff1660e01b8152600401602060405180830381865afa158015610259573d6000803e3d6000fd5b505050506040513d601f19601f8201168201806040525081019061027d91906109bd565b6001600160a01b0316815260200160006001600160a01b031681526020018584815181106102ad576102ad61098e565b60200260200101516001600160a01b0316630b9663db6040518163ffffffff1660e01b8152600401602060405180830381865afa1580156102f2573d6000803e3d6000fd5b505050506040513d601f19601f8201168201806040525081019061031691906109a4565b81526020018290528686610329816109e1565b97508151811061033b5761033b61098e565b60200260200101819052505b5080610352816109e1565b91505061012c565b5060005b815181101561060557600082828151811061037b5761037b61098e565b60209081029190910101516040516370a0823160e01b81526001600160a01b038a81166004830152909116906370a0823190602401602060405180830381865afa1580156103cd573d6000803e3d6000fd5b505050506040513d601f19601f820116820180604052508101906103f191906109a4565b905080156105f2576040805160c08101909152806001815260200184848151811061041e5761041e61098e565b60200260200101516001600160a01b031681526020018484815181106104465761044661098e565b60200260200101516001600160a01b0316636f307dc36040518163ffffffff1660e01b8152600401602060405180830381865afa15801561048b573d6000803e3d6000fd5b505050506040513d601f19601f820116820180604052508101906104af91906109bd565b6001600160a01b031681526020018484815181106104cf576104cf61098e565b60200260200101516001600160a01b031663a52e7d706040518163ffffffff1660e01b8152600401602060405180830381865afa158015610514573d6000803e3d6000fd5b505050506040513d601f19601f8201168201806040525081019061053891906109bd565b6001600160a01b031681526020018484815181106105585761055861098e565b60200260200101516001600160a01b0316630b9663db6040518163ffffffff1660e01b8152600401602060405180830381865afa15801561059d573d6000803e3d6000fd5b505050506040513d601f19601f820116820180604052508101906105c191906109a4565b815260200182905286866105d4816109e1565b9750815181106105e6576105e661098e565b60200260200101819052505b50806105fd816109e1565b91505061035e565b5060008367ffffffffffffffff811115610621576106216107ea565b60405190808252806020026020018201604052801561068157816020015b6040805160c08101825260008082526020808301829052928201819052606082018190526080820181905260a0820152825260001990920191018161063f5790505b50905060005b848110156106d9578581815181106106a1576106a161098e565b60200260200101518282815181106106bb576106bb61098e565b602002602001018190525080806106d1906109e1565b915050610687565b50979650505050505050565b6001600160a01b03811681146106fa57600080fd5b50565b6000806040838503121561071057600080fd5b823561071b816106e5565b9150602083013561072b816106e5565b809150509250929050565b60208082528251828201819052600091906040908185019086840185805b838110156107dc57825180516002811061077c57634e487b7160e01b84526021600452602484fd5b8652808801516001600160a01b03908116898801528782015116878701526060808201516107b4828901826001600160a01b03169052565b50506080818101519087015260a0908101519086015260c09094019391860191600101610754565b509298975050505050505050565b634e487b7160e01b600052604160045260246000fd5b604051601f8201601f1916810167ffffffffffffffff81118282101715610829576108296107ea565b604052919050565b600067ffffffffffffffff82111561084b5761084b6107ea565b5060051b60200190565b600082601f83011261086657600080fd5b8151602061087b61087683610831565b610800565b82815260059290921b8401810191818101908684111561089a57600080fd5b8286015b848110156108be5780516108b1816106e5565b835291830191830161089e565b509695505050505050565b600080604083850312156108dc57600080fd5b825167ffffffffffffffff808211156108f457600080fd5b818501915085601f83011261090857600080fd5b8151602061091861087683610831565b82815260059290921b8401810191818101908984111561093757600080fd5b948201945b8386101561095e57855161094f816106e5565b8252948201949082019061093c565b9188015191965090935050508082111561097757600080fd5b5061098485828601610855565b9150509250929050565b634e487b7160e01b600052603260045260246000fd5b6000602082840312156109b657600080fd5b5051919050565b6000602082840312156109cf57600080fd5b81516109da816106e5565b9392505050565b600060018201610a0157634e487b7160e01b600052601160045260246000fd5b506001019056fea2646970667358221220b47bc00fccf9fbf4e30d5c133cbff39f9099d3b155f12d58d17c6b569631be7764736f6c63430008150033",
    "linkReferences": {}
  },
  "methodIdentifiers": {
    "getUserTokens(address,address)": "ad4a0b37"
  },
  "id": 24
}