{
  "_format": "hh-sol-artifact-1",
  "contractName": "PriceFeedAggregator",
  "sourceName": "contracts/oracles/PriceFeedAggregator.sol",
  "abi": [
    {
      "inputs": [],
      "name": "ZeroAddress",
      "type": "error"
    },
    {
      "anonymous": false,
      "inputs": [
        {
          "indexed": true,
          "internalType": "address",
          "name": "previousOwner",
          "type": "address"
        },
        {
          "indexed": true,
          "internalType": "address",
          "name": "newOwner",
          "type": "address"
        }
      ],
      "name": "OwnershipTransferred",
      "type": "event"
    },
    {
      "anonymous": false,
      "inputs": [
        {
          "indexed": true,
          "internalType": "address",
          "name": "base",
          "type": "address"
        },
        {
          "indexed": true,
          "internalType": "address",
          "name": "feed",
          "type": "address"
        }
      ],
      "name": "SetPriceFeed",
      "type": "event"
    },
    {
      "inputs": [],
      "name": "owner",
      "outputs": [
        {
          "internalType": "address",
          "name": "",
          "type": "address"
        }
      ],
      "stateMutability": "view",
      "type": "function"
    },
    {
      "inputs": [
        {
          "internalType": "address",
          "name": "base",
          "type": "address"
        }
      ],
      "name": "peek",
      "outputs": [
        {
          "internalType": "uint256",
          "name": "price",
          "type": "uint256"
        },
        {
          "internalType": "uint8",
          "name": "decimals",
          "type": "uint8"
        }
      ],
      "stateMutability": "view",
      "type": "function"
    },
    {
      "inputs": [
        {
          "internalType": "address",
          "name": "",
          "type": "address"
        }
      ],
      "name": "priceFeeds",
      "outputs": [
        {
          "internalType": "contract IOracle",
          "name": "",
          "type": "address"
        }
      ],
      "stateMutability": "view",
      "type": "function"
    },
    {
      "inputs": [],
      "name": "renounceOwnership",
      "outputs": [],
      "stateMutability": "nonpayable",
      "type": "function"
    },
    {
      "inputs": [
        {
          "internalType": "address",
          "name": "base",
          "type": "address"
        },
        {
          "internalType": "address",
          "name": "feed",
          "type": "address"
        }
      ],
      "name": "setPriceFeed",
      "outputs": [],
      "stateMutability": "nonpayable",
      "type": "function"
    },
    {
      "inputs": [
        {
          "internalType": "address",
          "name": "newOwner",
          "type": "address"
        }
      ],
      "name": "transferOwnership",
      "outputs": [],
      "stateMutability": "nonpayable",
      "type": "function"
    }
  ],
  "bytecode": "0x6080806040523461005b5760008054336001600160a01b0319821681178355916001600160a01b03909116907f8be0079c531659141344cd1fd0a4f28419497f9722a3daafe3b4186f6b6457e09080a36104ae90816100618239f35b600080fdfe6040608081526004908136101561001557600080fd5b600091823560e01c8063715018a61461037357806376e11286146102cf5780638da5cb5b146102a75780639dcb511a1461026c578063acefafae146101285763f2fde38b1461006357600080fd5b346101245760203660031901126101245761007c6103cd565b906100856103e8565b6001600160a01b039182169283156100d257505082546001600160a01b0319811683178455167f8be0079c531659141344cd1fd0a4f28419497f9722a3daafe3b4186f6b6457e08380a380f35b906020608492519162461bcd60e51b8352820152602660248201527f4f776e61626c653a206e6577206f776e657220697320746865207a65726f206160448201526564647265737360d01b6064820152fd5b8280fd5b5082346102075760209081600319360112610207576001600160a01b038061014e6103cd565b16808352600184528186842054161561025c5790818592845260018552848288862054168851978880926359e02dd760e01b82525afa95861561025257849661021f575b5083526001845285832054865163313ce56760e01b815292859284928391165afa9081156102155782916101d2575b5060ff915084519384521690820152f35b90508281813d831161020e575b6101e98183610440565b8101031261020a57519060ff82168203610207575060ff90856101c1565b80fd5b5080fd5b503d6101df565b85513d84823e3d90fd5b9095508481813d831161024b575b6102378183610440565b8101031261024757519484610192565b8380fd5b503d61022d565b87513d86823e3d90fd5b855163d92e233d60e01b81528590fd5b50503461020a57602036600319011261020a576020916001600160a01b03908290826102966103cd565b168152600185522054169051908152f35b50503461020a578160031936011261020a57905490516001600160a01b039091168152602090f35b50346101245781600319360112610124576102e86103cd565b6001600160a01b0360243581811694929085900361036f576103086103e8565b169182158015610367575b61035957508184526001602052832080546001600160a01b031916831790557fc02f01e22efc017c1c952d0eef1a8fc038571f14ea5a285d79d1d7ba87d8b0018380a380f35b905163d92e233d60e01b8152fd5b508315610313565b8580fd5b833461020757806003193601126102075761038c6103e8565b80546001600160a01b03198116825581906001600160a01b03167f8be0079c531659141344cd1fd0a4f28419497f9722a3daafe3b4186f6b6457e08280a380f35b600435906001600160a01b03821682036103e357565b600080fd5b6000546001600160a01b031633036103fc57565b606460405162461bcd60e51b815260206004820152602060248201527f4f776e61626c653a2063616c6c6572206973206e6f7420746865206f776e65726044820152fd5b90601f8019910116810190811067ffffffffffffffff82111761046257604052565b634e487b7160e01b600052604160045260246000fdfea2646970667358221220a430e3b24040253d26f3024c0a5df23ed682fa6f172429c994183c828fd7851764736f6c63430008120033",
  "linkReferences": {},
  "deployedLinkReferences": {}
}