{
  "_format": "hh-sol-artifact-1",
  "contractName": "ReserveHolder",
  "sourceName": "contracts/ReserveHolder.sol",
  "abi": [
    {
      "inputs": [
        {
          "internalType": "address",
          "name": "_account",
          "type": "address"
        },
        {
          "internalType": "uint256",
          "name": "_amount",
          "type": "uint256"
        }
      ],
      "name": "EtherSendFailed",
      "type": "error"
    },
    {
      "inputs": [
        {
          "internalType": "address",
          "name": "_account",
          "type": "address"
        }
      ],
      "name": "NotArbitrager",
      "type": "error"
    },
    {
      "inputs": [
        {
          "internalType": "address",
          "name": "_account",
          "type": "address"
        }
      ],
      "name": "NotClaimer",
      "type": "error"
    },
    {
      "inputs": [
        {
          "internalType": "uint256",
          "name": "_threshold",
          "type": "uint256"
        }
      ],
      "name": "ThresholdTooHigh",
      "type": "error"
    },
    {
      "anonymous": false,
      "inputs": [
        {
          "indexed": true,
          "internalType": "address",
          "name": "account",
          "type": "address"
        },
        {
          "indexed": false,
          "internalType": "uint256",
          "name": "amount",
          "type": "uint256"
        }
      ],
      "name": "ClaimRewards",
      "type": "event"
    },
    {
      "anonymous": false,
      "inputs": [
        {
          "indexed": true,
          "internalType": "address",
          "name": "account",
          "type": "address"
        },
        {
          "indexed": false,
          "internalType": "uint256",
          "name": "amount",
          "type": "uint256"
        }
      ],
      "name": "Deposit",
      "type": "event"
    },
    {
      "anonymous": false,
      "inputs": [
        {
          "indexed": false,
          "internalType": "uint8",
          "name": "version",
          "type": "uint8"
        }
      ],
      "name": "Initialized",
      "type": "event"
    },
    {
      "anonymous": false,
      "inputs": [
        {
          "indexed": true,
          "internalType": "address",
          "name": "previousOwner",
          "type": "address"
        },
        {
          "indexed": true,
          "internalType": "address",
          "name": "newOwner",
          "type": "address"
        }
      ],
      "name": "OwnershipTransferred",
      "type": "event"
    },
    {
      "anonymous": false,
      "inputs": [
        {
          "indexed": false,
          "internalType": "uint256",
          "name": "ethAmount",
          "type": "uint256"
        },
        {
          "indexed": false,
          "internalType": "uint256",
          "name": "stEthAmount",
          "type": "uint256"
        }
      ],
      "name": "Rebalance",
      "type": "event"
    },
    {
      "anonymous": false,
      "inputs": [
        {
          "indexed": true,
          "internalType": "address",
          "name": "account",
          "type": "address"
        },
        {
          "indexed": false,
          "internalType": "uint256",
          "name": "amount",
          "type": "uint256"
        }
      ],
      "name": "Receive",
      "type": "event"
    },
    {
      "anonymous": false,
      "inputs": [
        {
          "indexed": true,
          "internalType": "address",
          "name": "account",
          "type": "address"
        },
        {
          "indexed": false,
          "internalType": "uint256",
          "name": "amount",
          "type": "uint256"
        }
      ],
      "name": "Redeem",
      "type": "event"
    },
    {
      "anonymous": false,
      "inputs": [
        {
          "indexed": false,
          "internalType": "uint256",
          "name": "ethAmount",
          "type": "uint256"
        },
        {
          "indexed": false,
          "internalType": "uint256",
          "name": "stEthAmount",
          "type": "uint256"
        }
      ],
      "name": "RedeemSwap",
      "type": "event"
    },
    {
      "inputs": [],
      "name": "BASE_PRICE",
      "outputs": [
        {
          "internalType": "uint256",
          "name": "",
          "type": "uint256"
        }
      ],
      "stateMutability": "view",
      "type": "function"
    },
    {
      "inputs": [],
      "name": "MAX_PERCENTAGE",
      "outputs": [
        {
          "internalType": "uint256",
          "name": "",
          "type": "uint256"
        }
      ],
      "stateMutability": "view",
      "type": "function"
    },
    {
      "inputs": [],
      "name": "WETH",
      "outputs": [
        {
          "internalType": "contract IWETH",
          "name": "",
          "type": "address"
        }
      ],
      "stateMutability": "view",
      "type": "function"
    },
    {
      "inputs": [
        {
          "internalType": "address",
          "name": "account",
          "type": "address"
        },
        {
          "internalType": "uint256",
          "name": "amount",
          "type": "uint256"
        }
      ],
      "name": "claimRewards",
      "outputs": [],
      "stateMutability": "nonpayable",
      "type": "function"
    },
    {
      "inputs": [],
      "name": "claimer",
      "outputs": [
        {
          "internalType": "address",
          "name": "",
          "type": "address"
        }
      ],
      "stateMutability": "view",
      "type": "function"
    },
    {
      "inputs": [
        {
          "internalType": "uint256",
          "name": "amount",
          "type": "uint256"
        }
      ],
      "name": "deposit",
      "outputs": [],
      "stateMutability": "nonpayable",
      "type": "function"
    },
    {
      "inputs": [],
      "name": "ethThreshold",
      "outputs": [
        {
          "internalType": "uint256",
          "name": "",
          "type": "uint256"
        }
      ],
      "stateMutability": "view",
      "type": "function"
    },
    {
      "inputs": [],
      "name": "getCumulativeRewards",
      "outputs": [
        {
          "internalType": "uint256",
          "name": "",
          "type": "uint256"
        }
      ],
      "stateMutability": "view",
      "type": "function"
    },
    {
      "inputs": [],
      "name": "getCurrentRewards",
      "outputs": [
        {
          "internalType": "uint256",
          "name": "",
          "type": "uint256"
        }
      ],
      "stateMutability": "view",
      "type": "function"
    },
    {
      "inputs": [],
      "name": "getReserveValue",
      "outputs": [
        {
          "internalType": "uint256",
          "name": "",
          "type": "uint256"
        }
      ],
      "stateMutability": "view",
      "type": "function"
    },
    {
      "inputs": [],
      "name": "getWETH",
      "outputs": [],
      "stateMutability": "nonpayable",
      "type": "function"
    },
    {
      "inputs": [
        {
          "internalType": "contract IPriceFeedAggregator",
          "name": "_priceFeedAggregator",
          "type": "address"
        },
        {
          "internalType": "address",
          "name": "_claimer",
          "type": "address"
        },
        {
          "internalType": "uint256",
          "name": "_ethThreshold",
          "type": "uint256"
        }
      ],
      "name": "initialize",
      "outputs": [],
      "stateMutability": "nonpayable",
      "type": "function"
    },
    {
      "inputs": [
        {
          "internalType": "address",
          "name": "",
          "type": "address"
        }
      ],
      "name": "isArbitrager",
      "outputs": [
        {
          "internalType": "bool",
          "name": "",
          "type": "bool"
        }
      ],
      "stateMutability": "view",
      "type": "function"
    },
    {
      "inputs": [],
      "name": "owner",
      "outputs": [
        {
          "internalType": "address",
          "name": "",
          "type": "address"
        }
      ],
      "stateMutability": "view",
      "type": "function"
    },
    {
      "inputs": [],
      "name": "priceFeedAggregator",
      "outputs": [
        {
          "internalType": "contract IPriceFeedAggregator",
          "name": "",
          "type": "address"
        }
      ],
      "stateMutability": "view",
      "type": "function"
    },
    {
      "inputs": [],
      "name": "rebalance",
      "outputs": [],
      "stateMutability": "nonpayable",
      "type": "function"
    },
    {
      "inputs": [
        {
          "internalType": "uint256",
          "name": "amount",
          "type": "uint256"
        }
      ],
      "name": "redeem",
      "outputs": [
        {
          "internalType": "uint256",
          "name": "",
          "type": "uint256"
        }
      ],
      "stateMutability": "nonpayable",
      "type": "function"
    },
    {
      "inputs": [],
      "name": "renounceOwnership",
      "outputs": [],
      "stateMutability": "nonpayable",
      "type": "function"
    },
    {
      "inputs": [
        {
          "internalType": "address",
          "name": "arbitrager",
          "type": "address"
        },
        {
          "internalType": "bool",
          "name": "status",
          "type": "bool"
        }
      ],
      "name": "setArbitrager",
      "outputs": [],
      "stateMutability": "nonpayable",
      "type": "function"
    },
    {
      "inputs": [
        {
          "internalType": "address",
          "name": "_claimer",
          "type": "address"
        }
      ],
      "name": "setClaimer",
      "outputs": [],
      "stateMutability": "nonpayable",
      "type": "function"
    },
    {
      "inputs": [
        {
          "internalType": "uint256",
          "name": "_ethThreshold",
          "type": "uint256"
        }
      ],
      "name": "setEthThreshold",
      "outputs": [],
      "stateMutability": "nonpayable",
      "type": "function"
    },
    {
      "inputs": [
        {
          "internalType": "uint256",
          "name": "_swapEthTolerance",
          "type": "uint256"
        }
      ],
      "name": "setSwapEthTolerance",
      "outputs": [],
      "stateMutability": "nonpayable",
      "type": "function"
    },
    {
      "inputs": [],
      "name": "stETH",
      "outputs": [
        {
          "internalType": "contract ISTETH",
          "name": "",
          "type": "address"
        }
      ],
      "stateMutability": "view",
      "type": "function"
    },
    {
      "inputs": [],
      "name": "swapEthTolerance",
      "outputs": [
        {
          "internalType": "uint256",
          "name": "",
          "type": "uint256"
        }
      ],
      "stateMutability": "view",
      "type": "function"
    },
    {
      "inputs": [],
      "name": "totalClaimed",
      "outputs": [
        {
          "internalType": "uint256",
          "name": "",
          "type": "uint256"
        }
      ],
      "stateMutability": "view",
      "type": "function"
    },
    {
      "inputs": [],
      "name": "totalStEthDeposited",
      "outputs": [
        {
          "internalType": "uint256",
          "name": "",
          "type": "uint256"
        }
      ],
      "stateMutability": "view",
      "type": "function"
    },
    {
      "inputs": [
        {
          "internalType": "address",
          "name": "newOwner",
          "type": "address"
        }
      ],
      "name": "transferOwnership",
      "outputs": [],
      "stateMutability": "nonpayable",
      "type": "function"
    },
    {
      "inputs": [],
      "name": "uniswapPair",
      "outputs": [
        {
          "internalType": "contract IUniswapV2Pair",
          "name": "",
          "type": "address"
        }
      ],
      "stateMutability": "view",
      "type": "function"
    },
    {
      "inputs": [],
      "name": "uniswapRouter",
      "outputs": [
        {
          "internalType": "contract IUniswapV2Router02",
          "name": "",
          "type": "address"
        }
      ],
      "stateMutability": "view",
      "type": "function"
    },
    {
      "stateMutability": "payable",
      "type": "receive"
    }
  ],
  "bytecode": "0x6080806040523461001657612178908161001c8239f35b600080fdfe60806040908082526004908136101561004c575b5050361561002057600080fd5b513481527fd6717f327e0cb88b4a97a7f67a453e9258252c34937ccbdd86de7cb840e7def360203392a2005b600091823560e01c9182631794bb3c14611903575081631e618dab146118e45781633efe1ff9146118515781634c255c9714611834578163715018a6146117e9578163735de9f7146117ba57816377106e4a146117985781637d31596c146117535781637d7c2a1c1461118e5781638da5cb5b1461116557816390e975aa146111465781639a99b4f014610fb2578163a20b8b4e14610f89578163a6d9b34d14610edd578163ad5c464814610eae578163b6b55f2514610c57578163c1fe3e4814610c2e578163c816841b14610bff578163cae5f11e14610b89578163cdfb583214610b44578163cfe1f820146109ad578163d379be2314610984578163d54ad2a114610965578163dae19cdf14610927578163db006a75146102c9578163db7629a314610273578163e60a5c4714610254578163f2fde38b146101bd575063f86325ed1461019b5780610013565b90346101b957816003193601126101b957602090516305f5e1008152f35b5080fd5b83915034610250576020366003190112610250576101d9611aaa565b916101e2611ac0565b6001600160a01b038316156101fe57836101fb84611b18565b80f35b906020608492519162461bcd60e51b8352820152602660248201527f4f776e61626c653a206e6577206f776e657220697320746865207a65726f206160448201526564647265737360d01b6064820152fd5b8280fd5b8284346101b957816003193601126101b957602090606a549051908152f35b8284346101b957806003193601126101b95761028d611aaa565b90602435918215158093036102c5576102a4611ac0565b60018060a01b03168352606b60205282209060ff8019835416911617905580f35b8380fd5b8391503461025057602091826003193601126102c557813591338552606b8452600160ff83872054161515036109115781516370a0823160e01b808252308383015273c02aaa39b223fe8d0a0e5c4f27ead9083c756cc2918681602481865afa9081156109075788916108da575b5080861161047a575b505082939495506000806103d19394519288840163a9059cbb60e01b815261037e856103708b3360248401612003565b03601f198101875286611c0e565b8288519561038b87611bf3565b8b87526000805160206120a38339815191528c88015251925af13d15610472573d906103b682611cb4565b916103c387519384611c0e565b82523d60008984013e611dc6565b80519085821592831561045a575b50505015610418575080518281527f222838db2794d11532d940e8dec38ae307ed0b63cd97c233322e221f998767a6843392a251908152f35b83608492519162461bcd60e51b8352820152602a60248201526000805160206120e38339815191526044820152691bdd081cdd58d8d9595960b21b6064820152fd5b61046a9350820181019101611ccf565b8585816103df565b606090611dc6565b84518281523085820152600080516020612103833981519152908881602481855afa908115610702578a916108ad575b506104b58389611ca7565b938751630240bc6b60e21b81526060818981734028daac072e492d34a3afdbef0ba7e35d8b55c45afa9081156108a3578c908d92610846575b506001600160701b03918216911686156107ee57801515806107e5575b15610791578661051a91611c74565b906103e89182810292818404149015171561077e578661053991611ca7565b906103e59182810292818404149015171561077e579061055891611c87565b94600186019586811161077e57600b0180961161076b578b908b8a519161057e83611bd8565b600283528b3683850137866105928461201e565b528961059d84612041565b528b5163095ea7b360e01b8152737a250d5630b4cf539739df2c5dacb4c659f2488d92838d8301528a602483015281604481888c5af1801561076157908f91610733575b5050813b156102c557839189838d8f61061f905197889687958694635c11d79560e01b8652850152602484015260a0604484015260a4830190612051565b30606483015242608483015203925af1801561072957908c93929161070c575b505060248951809581938252308b8301525afa918215610702578798999a979697926106c5575b506103d195926106a661069e7f9fc819c2eb07cd862e21659bb750b88c60949628db56a35bcd9696fc1a395b7b96946106af94611ca7565b606a54611ca7565b606a5589611ca7565b90825191825289820152a1859493929187610340565b9550919290508885813d81116106fb575b6106e08183611c0e565b810103126106f6579351869492916103d1610666565b600080fd5b503d6106d6565b87513d8c823e3d90fd5b61071891929350611baf565b6107255789908b8d61063f565b8a80fd5b8a513d84823e3d90fd5b8161075292903d1061075a575b61074a8183611c0e565b810190611ccf565b508d386105e1565b503d610740565b8d513d87823e3d90fd5b634e487b7160e01b8c526011885260248cfd5b634e487b7160e01b8d526011895260248dfd5b895162461bcd60e51b8152808a018d9052602860248201527f556e697377617056324c6962726172793a20494e53554646494349454e545f4c604482015267495155494449545960c01b6064820152608490fd5b5081151561050b565b895162461bcd60e51b8152808a018d9052602c60248201527f556e697377617056324c6962726172793a20494e53554646494349454e545f4f60448201526b155514155517d05353d5539560a21b6064820152608490fd5b9150506060813d821161089b575b8161086160609383611c0e565b81010312610897576108728161208e565b8961087e8d840161208e565b92015163ffffffff811603610893578d6104ee565b8c80fd5b8b80fd5b3d9150610854565b89513d8e823e3d90fd5b90508881813d83116108d3575b6108c48183611c0e565b810103126106f657518a6104aa565b503d6108ba565b90508681813d8311610900575b6108f18183611c0e565b810103126106f6575188610337565b503d6108e7565b85513d8a823e3d90fd5b6024915190639ce9e4d160e01b82523390820152fd5b8284346101b95760203660031901126101b95760209160ff9082906001600160a01b03610952611aaa565b168152606b855220541690519015158152f35b8284346101b957816003193601126101b9576020906067549051908152f35b8284346101b957816003193601126101b95760665490516001600160a01b039091168152602090f35b838334610b415780600319360112610b41576065548251635677d7d760e11b8082526000805160206121038339815191528683015290949092916001600160a01b03168486602481845afa958615610b17578396610b21575b508451938452848460248173c02aaa39b223fe8d0a0e5c4f27ead9083c756cc29485878301525afa938415610b17578394610ae7575b506020479260248751809481936370a0823160e01b835230908301525afa928315610adc5792610aa5575b5093610a97670de0b6b3a764000093610a91610a88610a9d95602099611c51565b93606a54611c74565b92611c74565b90611c51565b049051908152f35b949091506020853d8211610ad4575b81610ac160209383611c0e565b810103126106f657935190610a97610a67565b3d9150610ab4565b8551903d90823e3d90fd5b610b08919450853d8711610b10575b610b008183611c0e565b810190611c31565b509286610a3c565b503d610af6565b85513d85823e3d90fd5b610b39919650853d8711610b1057610b008183611c0e565b509486610a06565b80fd5b8234610b41576020366003190112610b4157610b5e611aaa565b610b66611ac0565b606680546001600160a01b0319166001600160a01b039290921691909117905580f35b9050819234610bfb5782600319360112610bfb57479173c02aaa39b223fe8d0a0e5c4f27ead9083c756cc2803b15610bf7578491835180958193630d0e30db60e41b83525af1908115610bee5750610bde5750f35b610be790611baf565b610b415780f35b513d84823e3d90fd5b8480fd5b5050fd5b8284346101b957816003193601126101b95760209051734028daac072e492d34a3afdbef0ba7e35d8b55c48152f35b8284346101b957816003193601126101b957602090516000805160206121038339815191528152f35b83915034610250576020806003193601126102c55781359280516370a0823160e01b938482523081830152600080516020612103833981519152948483602481895afa928315610ea4578893610e75575b5083516323b872dd60e01b86820190815233602483015230604483015260648083018a9052825260a08201916001600160401b03831181841017610e6057600083928192610d44958a52610cfb85611bf3565b8a85526000805160206120a383398151915260c08201525190828c5af13d15610e58573d90610d2982611cb4565b91610d3689519384611c0e565b82523d60008a84013e611ce7565b805190868215928315610e40575b50505015610dfc57906024859285519788938492835230908301525afa938415610df2578694610dc1575b50610dac610db4917fe1fffcc4923d04b559f4d29a8bfc6cda04eb5b0d3c460751c2402c5c5cc9109c95611ca7565b606a54611c51565b606a55519283523392a280f35b93508284813d8311610deb575b610dd88183611c0e565b810103126106f657925192610dac610d7d565b503d610dce565b82513d88823e3d90fd5b835162461bcd60e51b8152808301869052602a60248201526000805160206120e38339815191526044820152691bdd081cdd58d8d9595960b21b6064820152608490fd5b610e509350820181019101611ccf565b898681610d52565b606090611ce7565b604185634e487b7160e01b6000525260246000fd5b9092508481813d8311610e9d575b610e8d8183611c0e565b810103126106f657519188610ca8565b503d610e83565b84513d8a823e3d90fd5b8284346101b957816003193601126101b9576020905173c02aaa39b223fe8d0a0e5c4f27ead9083c756cc28152f35b839150346102505782600319360112610250578151906370a0823160e01b825230908201526020816024816000805160206121038339815191525afa928315610f7e5792610f49575b50610f42610f39602093606a5490611ca7565b60675490611c51565b9051908152f35b91506020823d8211610f76575b81610f6360209383611c0e565b810103126106f657905190610f42610f26565b3d9150610f56565b8251903d90823e3d90fd5b8284346101b957816003193601126101b95760655490516001600160a01b039091168152602090f35b9050346101b957826003193601126101b957610fcc611aaa565b60665460243592916001600160a01b03918216330361113057610ff184606754611c51565b60675585519261108f60209460008087830163a9059cbb60e01b815261102d8461101f8c8a60248401612003565b03601f198101865285611c0e565b8b519361103985611bf3565b8985526000805160206120a38339815191528a8601525190826000805160206121038339815191525af13d15610e58573d9061107482611cb4565b916110818c519384611c0e565b82523d60008984013e611ce7565b805190858215928315611118575b505050156110d457507f1f89f96333d3133000ee447473151fa9606543368f02271c9d95ae14f13bcc67939495519485521692a280f35b865162461bcd60e51b8152908101849052602a60248201526000805160206120e38339815191526044820152691bdd081cdd58d8d9595960b21b6064820152608490fd5b6111289350820181019101611ccf565b38858161109d565b8551630583d9a760e51b81523381850152602490fd5b8284346101b957816003193601126101b9576020906069549051908152f35b8284346101b957816003193601126101b95760335490516001600160a01b039091168152602090f35b905082346102505782600319360112610250576065548151635677d7d760e11b80825273c02aaa39b223fe8d0a0e5c4f27ead9083c756cc28583018190526001600160a01b03909316949092906024858482818a5afa938415611729578894611733575b508551948552858582816000805160206121038339815191529a8b878301525afa948515611729578895611709575b508551946370a0823160e01b94858752308488015260209687818581895afa80156116ff5782908c906116ce575b6112599250611e66565b908a84898c8c51928380928d8252308c8301525afa9081156116c4579085918391611691575b5061129061129f9261129692611e66565b85611c51565b60695490611f0f565b91838311156114c15750506112bd92916112b891611ca7565b611f77565b93888751948286523085870152878685818d5afa958615611456578a888b8b93869a611487575b5091604489949284889551976112f989611bd8565b600289528136878b01378461130d8a61201e565b5261131789612041565b5251948593849263095ea7b360e01b8452737a250d5630b4cf539739df2c5dacb4c659f2488d80998501528c8401525af1801561147d57611460575b50803b156102505761138f91839189838d51809681958294635c11d79560e01b84528d840152838c84015260a0604484015260a4830190612051565b30606483015242608483015203925af180156114565790889594939291611439575b505087519889938492835230908301525afa94851561142f5786956113fe575b5061069e600080516020612123833981519152956113ee92611ca7565b606a55825191858352820152a180f35b94508285813d8311611428575b6114158183611c0e565b810103126106f65793519361069e6113d1565b503d61140b565b84513d88823e3d90fd5b61144591929550611baf565b611452578592898b6113b1565b8880fd5b89513d84823e3d90fd5b611476908a3d8c1161075a5761074a8183611c0e565b508c611353565b8b513d86823e3d90fd5b955050505090955081813d83116114ba575b6114a38183611c0e565b810103126106f65751938990878a888b60446112e4565b503d611499565b919092809b979998945081106114e0575b505050505050505050505080f35b89519a848c5230878d0152888c87818b5afa9b8c1561147d57849c61165a575b5061150f92916112b891611ca7565b96803b156101b9578190848a5180948193632e1a7d4d60e01b83528c8a8401525af1801561165057611635575b50865163a1903eab60e01b8152308185015289959493929190858184818b895af1801561162b576115f9575b509084929188519485938492835230908301525afa908115610b175783916115c4575b50610dac600080516020612123833981519152966115a892611ca7565b606a558351928352820152a181808080808080808881806114d2565b809350828092503d83116115f2575b6115dd8183611c0e565b810103126106f6579051859190610dac61158b565b503d6115d3565b858092949397503d8311611624575b6116128183611c0e565b810103126106f657909388948a611568565b503d611608565b89513d89823e3d90fd5b6116459099919594939299611baf565b97909192938961153c565b88513d8c823e3d90fd5b909b508881819493943d831161168a575b6116758183611c0e565b810103126102c557519a90919061150f611500565b503d61166b565b8092508b8092503d83116116bd575b6116aa8183611c0e565b810103126101b95751849061129061127f565b503d6116a0565b8b513d84823e3d90fd5b50508781813d83116116f8575b6116e58183611c0e565b810103126107255781611259915161124f565b503d6116db565b89513d8d823e3d90fd5b611721919550863d8811610b1057610b008183611c0e565b509388611221565b86513d8a823e3d90fd5b61174b919450863d8811610b1057610b008183611c0e565b5092886111f2565b8391503461025057602036600319011261025057803591611772611ac0565b612710831161178357505060695580f35b91602492519163046119b760e01b8352820152fd5b9050346101b95760203660031901126101b9576117b3611ac0565b3560685580f35b8284346101b957816003193601126101b95760209051737a250d5630b4cf539739df2c5dacb4c659f2488d8152f35b8234610b415780600319360112610b4157611802611ac0565b603380546001600160a01b0319811690915581906001600160a01b03166000805160206120c38339815191528280a380f35b8284346101b957816003193601126101b957602090516127108152f35b839150346102505782600319360112610250578151906370a0823160e01b825230908201526020816024816000805160206121038339815191525afa928315610f7e5780936118ab575b602083610f4286606a5490611ca7565b9092506020833d82116118dc575b816118c660209383611c0e565b81010312610b415750610f42602092519261189b565b3d91506118b9565b8284346101b957816003193601126101b9576020906068549051908152f35b90849250346102c55760603660031901126102c55780356001600160a01b0381811691829003611aa657602435908116809103611aa65760443592865460ff8160081c161595868097611a99575b8015611a82575b15611a2a575060ff198116600117885585611a19575b506127108411611a02575061199260ff875460081c1661198d81611b4f565b611b4f565b61199b33611b18565b60018060a01b031990816066541617606655606554161760655560695567016345785d8a00006068556119cc575080f35b60207f7f26b83ff96e1f2b6a682f133852f6798a09c465da95921460cefb38474024989161ff001984541684555160018152a180f35b855163046119b760e01b8152908101849052602490fd5b61ffff19166101011787558761196e565b62461bcd60e51b8152602083820152602e60248201527f496e697469616c697a61626c653a20636f6e747261637420697320616c72656160448201526d191e481a5b9a5d1a585b1a5e995960921b6064820152608490fd5b50303b1580156119585750600160ff831614611958565b50600160ff831610611951565b8580fd5b600435906001600160a01b03821682036106f657565b6033546001600160a01b03163303611ad457565b606460405162461bcd60e51b815260206004820152602060248201527f4f776e61626c653a2063616c6c6572206973206e6f7420746865206f776e65726044820152fd5b603380546001600160a01b039283166001600160a01b0319821681179092559091166000805160206120c3833981519152600080a3565b15611b5657565b60405162461bcd60e51b815260206004820152602b60248201527f496e697469616c697a61626c653a20636f6e7472616374206973206e6f74206960448201526a6e697469616c697a696e6760a81b6064820152608490fd5b6001600160401b038111611bc257604052565b634e487b7160e01b600052604160045260246000fd5b606081019081106001600160401b03821117611bc257604052565b604081019081106001600160401b03821117611bc257604052565b601f909101601f19168101906001600160401b03821190821017611bc257604052565b91908260409103126106f6576020825192015160ff811681036106f65790565b91908201809211611c5e57565b634e487b7160e01b600052601160045260246000fd5b81810292918115918404141715611c5e57565b8115611c91570490565b634e487b7160e01b600052601260045260246000fd5b91908203918211611c5e57565b6001600160401b038111611bc257601f01601f191660200190565b908160209103126106f6575180151581036106f65790565b90919015611d575750805115611cfa5790565b6000805160206121038339815191523b15611d125790565b60405162461bcd60e51b815260206004820152601d60248201527f416464726573733a2063616c6c20746f206e6f6e2d636f6e74726163740000006044820152606490fd5b815115611d675750805190602001fd5b6040519062461bcd60e51b82528160208060048301528251908160248401526000935b828510611dad575050604492506000838284010152601f80199101168101030190fd5b8481018201518686016044015293810193859350611d8a565b90919015611df75750805115611dd95790565b73c02aaa39b223fe8d0a0e5c4f27ead9083c756cc23b15611d125790565b815115611e075750805190602001fd5b6040519062461bcd60e51b82528160208060048301528251908160248401526000935b828510611e4d575050604492506000838284010152601f80199101168101030190fd5b8481018201518686016044015293810193859350611e2a565b9060001981830981830291828083109203918083039214611f02576305f5e1009082821115611ec5577facbe0e98f503f8881186e60dbb7f727bf36b7213ee9f5a78c767074b22e90e21940990828211900360f81b910360081c170290565b60405162461bcd60e51b81526020600482015260156024820152744d6174683a206d756c446976206f766572666c6f7760581b6044820152606490fd5b50506305f5e10091500490565b9060001981830981830291828083109203918083039214611f6c576127109082821115611ec5577fbc01a36e2eb1c432ca57a786c226809d495182a9930be0ded288ce703afb7e91940990828211900360fc1b910360041c170290565b505061271091500490565b906305f5e100906000198284099282810292838086109503948086039514611ff35784831115611ec5578291096001821901821680920460028082600302188083028203028083028203028083028203028083028203028083028203028092029003029360018380600003040190848311900302920304170290565b5050906120009250611c87565b90565b6001600160a01b039091168152602081019190915260400190565b80511561202b5760200190565b634e487b7160e01b600052603260045260246000fd5b80516001101561202b5760400190565b90815180825260208080930193019160005b828110612071575050505090565b83516001600160a01b031685529381019392810192600101612063565b51906001600160701b03821682036106f65756fe5361666545524332303a206c6f772d6c6576656c2063616c6c206661696c65648be0079c531659141344cd1fd0a4f28419497f9722a3daafe3b4186f6b6457e05361666545524332303a204552433230206f7065726174696f6e20646964206e000000000000000000000000ae7ab96520de3a18e5e111b5eaab095312d7fe840b33d39bbef101ecc4f5ef04e6d3a125c9fb745a418dac380e2a9460f8200dc8a264697066735822122026561065e9db6452ece640ebd1259f5a81bc9dd49cedda343e41eb60e6a610db64736f6c63430008120033",
  "linkReferences": {},
  "deployedLinkReferences": {}
}