{
  "_format": "hh-sol-artifact-1",
  "contractName": "RewardController",
  "sourceName": "contracts/staking/RewardController.sol",
  "abi": [
    {
      "inputs": [],
      "name": "EpochNotFinished",
      "type": "error"
    },
    {
      "inputs": [],
      "name": "NotArbitrager",
      "type": "error"
    },
    {
      "inputs": [],
      "name": "ZeroAmount",
      "type": "error"
    },
    {
      "anonymous": false,
      "inputs": [
        {
          "indexed": true,
          "internalType": "address",
          "name": "account",
          "type": "address"
        },
        {
          "indexed": false,
          "internalType": "uint256",
          "name": "amount",
          "type": "uint256"
        }
      ],
      "name": "ClaimStEth",
      "type": "event"
    },
    {
      "anonymous": false,
      "inputs": [
        {
          "indexed": false,
          "internalType": "uint8",
          "name": "version",
          "type": "uint8"
        }
      ],
      "name": "Initialized",
      "type": "event"
    },
    {
      "anonymous": false,
      "inputs": [
        {
          "indexed": true,
          "internalType": "address",
          "name": "previousOwner",
          "type": "address"
        },
        {
          "indexed": true,
          "internalType": "address",
          "name": "newOwner",
          "type": "address"
        }
      ],
      "name": "OwnershipTransferred",
      "type": "event"
    },
    {
      "anonymous": false,
      "inputs": [
        {
          "indexed": true,
          "internalType": "address",
          "name": "account",
          "type": "address"
        },
        {
          "indexed": false,
          "internalType": "uint256",
          "name": "amount",
          "type": "uint256"
        }
      ],
      "name": "RewardUSC",
      "type": "event"
    },
    {
      "anonymous": false,
      "inputs": [
        {
          "indexed": true,
          "internalType": "uint256",
          "name": "epoch",
          "type": "uint256"
        },
        {
          "indexed": false,
          "internalType": "uint256",
          "name": "totalStEthReward",
          "type": "uint256"
        },
        {
          "indexed": false,
          "internalType": "uint256",
          "name": "totalChiIncentives",
          "type": "uint256"
        }
      ],
      "name": "UpdateEpoch",
      "type": "event"
    },
    {
      "inputs": [],
      "name": "EPOCH_DURATION",
      "outputs": [
        {
          "internalType": "uint256",
          "name": "",
          "type": "uint256"
        }
      ],
      "stateMutability": "view",
      "type": "function"
    },
    {
      "inputs": [],
      "name": "arbitrager",
      "outputs": [
        {
          "internalType": "contract IArbitrage",
          "name": "",
          "type": "address"
        }
      ],
      "stateMutability": "view",
      "type": "function"
    },
    {
      "inputs": [],
      "name": "chi",
      "outputs": [
        {
          "internalType": "contract IERC20",
          "name": "",
          "type": "address"
        }
      ],
      "stateMutability": "view",
      "type": "function"
    },
    {
      "inputs": [],
      "name": "chiIncentivesPerEpoch",
      "outputs": [
        {
          "internalType": "uint256",
          "name": "",
          "type": "uint256"
        }
      ],
      "stateMutability": "view",
      "type": "function"
    },
    {
      "inputs": [],
      "name": "chiLocking",
      "outputs": [
        {
          "internalType": "contract IChiLocking",
          "name": "",
          "type": "address"
        }
      ],
      "stateMutability": "view",
      "type": "function"
    },
    {
      "inputs": [],
      "name": "chiStaking",
      "outputs": [
        {
          "internalType": "contract IChiStaking",
          "name": "",
          "type": "address"
        }
      ],
      "stateMutability": "view",
      "type": "function"
    },
    {
      "inputs": [],
      "name": "chiVesting",
      "outputs": [
        {
          "internalType": "contract IChiVesting",
          "name": "",
          "type": "address"
        }
      ],
      "stateMutability": "view",
      "type": "function"
    },
    {
      "inputs": [],
      "name": "claimStEth",
      "outputs": [],
      "stateMutability": "nonpayable",
      "type": "function"
    },
    {
      "inputs": [],
      "name": "currentEpoch",
      "outputs": [
        {
          "internalType": "uint256",
          "name": "",
          "type": "uint256"
        }
      ],
      "stateMutability": "view",
      "type": "function"
    },
    {
      "inputs": [
        {
          "internalType": "uint256",
          "name": "",
          "type": "uint256"
        }
      ],
      "name": "epochs",
      "outputs": [
        {
          "internalType": "uint256",
          "name": "totalUscReward",
          "type": "uint256"
        },
        {
          "internalType": "uint256",
          "name": "reserveHolderTotalRewards",
          "type": "uint256"
        }
      ],
      "stateMutability": "view",
      "type": "function"
    },
    {
      "inputs": [],
      "name": "firstEpochTimestamp",
      "outputs": [
        {
          "internalType": "uint256",
          "name": "",
          "type": "uint256"
        }
      ],
      "stateMutability": "view",
      "type": "function"
    },
    {
      "inputs": [
        {
          "internalType": "contract IERC20",
          "name": "_chi",
          "type": "address"
        },
        {
          "internalType": "contract IERC20",
          "name": "_usc",
          "type": "address"
        },
        {
          "internalType": "contract IReserveHolder",
          "name": "_reserveHolder",
          "type": "address"
        },
        {
          "internalType": "contract IUSCStaking",
          "name": "_uscStaking",
          "type": "address"
        },
        {
          "internalType": "contract IChiStaking",
          "name": "_chiStaking",
          "type": "address"
        },
        {
          "internalType": "contract IChiLocking",
          "name": "_chiLocking",
          "type": "address"
        },
        {
          "internalType": "contract IChiVesting",
          "name": "_chiVesting",
          "type": "address"
        },
        {
          "internalType": "uint256",
          "name": "_firstEpochTimestamp",
          "type": "uint256"
        }
      ],
      "name": "initialize",
      "outputs": [],
      "stateMutability": "nonpayable",
      "type": "function"
    },
    {
      "inputs": [],
      "name": "owner",
      "outputs": [
        {
          "internalType": "address",
          "name": "",
          "type": "address"
        }
      ],
      "stateMutability": "view",
      "type": "function"
    },
    {
      "inputs": [],
      "name": "renounceOwnership",
      "outputs": [],
      "stateMutability": "nonpayable",
      "type": "function"
    },
    {
      "inputs": [],
      "name": "reserveHolder",
      "outputs": [
        {
          "internalType": "contract IReserveHolder",
          "name": "",
          "type": "address"
        }
      ],
      "stateMutability": "view",
      "type": "function"
    },
    {
      "inputs": [
        {
          "internalType": "uint256",
          "name": "amount",
          "type": "uint256"
        }
      ],
      "name": "rewardUSC",
      "outputs": [],
      "stateMutability": "nonpayable",
      "type": "function"
    },
    {
      "inputs": [
        {
          "internalType": "contract IArbitrage",
          "name": "_arbitrager",
          "type": "address"
        }
      ],
      "name": "setArbitrager",
      "outputs": [],
      "stateMutability": "nonpayable",
      "type": "function"
    },
    {
      "inputs": [
        {
          "internalType": "uint256",
          "name": "_chiIncentivesPerEpoch",
          "type": "uint256"
        }
      ],
      "name": "setChiIncentivesPerEpoch",
      "outputs": [],
      "stateMutability": "nonpayable",
      "type": "function"
    },
    {
      "inputs": [
        {
          "internalType": "address",
          "name": "newOwner",
          "type": "address"
        }
      ],
      "name": "transferOwnership",
      "outputs": [],
      "stateMutability": "nonpayable",
      "type": "function"
    },
    {
      "inputs": [
        {
          "internalType": "address",
          "name": "account",
          "type": "address"
        }
      ],
      "name": "unclaimedStETHAmount",
      "outputs": [
        {
          "internalType": "uint256",
          "name": "",
          "type": "uint256"
        }
      ],
      "stateMutability": "view",
      "type": "function"
    },
    {
      "inputs": [],
      "name": "updateEpoch",
      "outputs": [],
      "stateMutability": "nonpayable",
      "type": "function"
    },
    {
      "inputs": [],
      "name": "usc",
      "outputs": [
        {
          "internalType": "contract IERC20",
          "name": "",
          "type": "address"
        }
      ],
      "stateMutability": "view",
      "type": "function"
    },
    {
      "inputs": [],
      "name": "uscStaking",
      "outputs": [
        {
          "internalType": "contract IUSCStaking",
          "name": "",
          "type": "address"
        }
      ],
      "stateMutability": "view",
      "type": "function"
    }
  ],
  "bytecode": "0x60808060405234610016576119c8908161001b8239f35b5f80fdfe6080806040526004361015610012575f80fd5b5f90813560e01c90816305c3e8e9146114605750806313f09e3714611439578063235f1540146114125780633011d3d5146113eb57806336f4fb0214610c075780633aefa66014610be05780636fcacbca14610bbd578063715018a614610b555780637667180814610b375780637bae6f8614610b1057806386e912c614610893578063883019111461066c5780638da5cb5b146106455780639a4fc494146104fe578063a70b9f0c146104e0578063a7dc1a39146104c2578063c6b61e4c1461048e578063c92aecc414610467578063e771ee7214610418578063e8c3a80814610218578063f2fde38b1461016b578063f7bbb2c4146101445763faa6edb41461011b575f80fd5b3461014157806003193601126101415760206001600160a01b03606b5416604051908152f35b80fd5b503461014157806003193601126101415760206001600160a01b0360675416604051908152f35b5034610141576020366003190112610141576004356001600160a01b0381168082036102145761019961147c565b156101aa576101a7906114d4565b80f35b608460405162461bcd60e51b815260206004820152602660248201527f4f776e61626c653a206e6577206f776e657220697320746865207a65726f206160448201527f64647265737300000000000000000000000000000000000000000000000000006064820152fd5b8280fd5b5034610141576020908160031936011261014157600435906001600160a01b038083168093036104145780606954169260405185816024817fe8c3a80800000000000000000000000000000000000000000000000000000000988982528660048301525afa9081156104095784916103dc575b5060248684606a5416604051928380928a82528760048301525afa9081156103a35785916103ae575b506102c190602492611599565b8684606b5416604051938480928a82528760048301525afa9182156103a35790879392918692610370575b506024916102f991611599565b93606c5416956040519687938492835260048301525afa918215610364579161032f575b6103279250611599565b604051908152f35b90508282813d831161035d575b6103468183611606565b810103126103595761032791519061031d565b5f80fd5b503d61033c565b604051903d90823e3d90fd5b8481959293503d831161039c575b6103888183611606565b8101031261035957915186926102f96102ec565b503d61037e565b6040513d87823e3d90fd5b90508681813d83116103d5575b6103c58183611606565b81010312610359575160246102b4565b503d6103bb565b90508581813d8311610402575b6103f38183611606565b8101031261035957515f61028b565b503d6103e9565b6040513d86823e3d90fd5b5080fd5b5034610141576020366003190112610141576004356001600160a01b0381168091036104145761044661147c565b73ffffffffffffffffffffffffffffffffffffffff19606854161760685580f35b503461014157806003193601126101415760206001600160a01b0360655416604051908152f35b5034610141576020366003190112610141576040809160043581526070602052206001815491015482519182526020820152f35b50346101415780600319360112610141576020606e54604051908152f35b5034610141578060031936011261014157602060405162093a808152f35b5034610141576020366003190112610141576004356001600160a01b038060685416330361061b5781156105f157606654166040517f23b872dd0000000000000000000000000000000000000000000000000000000060208201523360248201523060448201528260648201526064815260a081019181831067ffffffffffffffff8411176105dd5761059392604052611628565b606d5482526070602052604082206105ac828254611599565b90556040519081527fee24fd5727d4041f24b0bc9105c68e1822c459f3b6f97361386960c4e698491a60203392a280f35b634e487b7160e01b5f52604160045260245ffd5b60046040517f1f2a2005000000000000000000000000000000000000000000000000000000008152fd5b60046040517fb4feba56000000000000000000000000000000000000000000000000000000008152fd5b503461014157806003193601126101415760206001600160a01b0360335416604051908152f35b503461014157610100366003190112610141576004356001600160a01b0380821680920361035957602435918183168093036103595760443582811680910361088f5760643583811680910361088b57608435908482168092036108875760a435928584168094036108835760c4359586168096036108835787549660ff8860081c161597888099610876575b801561085f575b156107f55760ff1981166001178a55886107e4575b5061072f60ff8a5460081c1661072a81611528565b611528565b610738336114d4565b73ffffffffffffffffffffffffffffffffffffffff199586606554161760655585606654161760665584606754161760675583606954161760695582606a541617606a5581606b541617606b55606c541617606c5560e435606e556001606d55690824f998cce37ad40000606f556107ad5780f35b61ff001981541681557f7f26b83ff96e1f2b6a682f133852f6798a09c465da95921460cefb3847402498602060405160018152a180f35b61ffff19166101011789555f610715565b608460405162461bcd60e51b815260206004820152602e60248201527f496e697469616c697a61626c653a20636f6e747261637420697320616c72656160448201527f647920696e697469616c697a65640000000000000000000000000000000000006064820152fd5b50303b1580156107005750600160ff821614610700565b50600160ff8216106106f9565b8780fd5b8680fd5b8580fd5b8480fd5b50346101415780600319360112610141576001600160a01b03818160695416816040517fbe596d3a00000000000000000000000000000000000000000000000000000000928382523360048301528160248160209788945af1908115610a34578291610adf575b508385606a54166024604051809581938883523360048401525af1908115610ad4578691610aa3575b61092d9250611599565b84808486606b54166024604051809481938983523360048401525af18015610a345785918391610a72575b50610964908394611599565b93602487606c541691604051948593849283523360048401525af1908115610a34578291610a3f575b506109989192611599565b9260675416803b15610414576040517f9a99b4f0000000000000000000000000000000000000000000000000000000008152336004820152602481018590529082908290604490829084905af18015610a3457610a20575b50507fb6c3418c7c3f00d4d5a61a328b0a94c498d99d1be8cbf20cf25a31b5b7e02b6f906040519283523392a280f35b610a29906115f2565b61021457825f6109f0565b6040513d84823e3d90fd5b809250848092503d8311610a6b575b610a588183611606565b810103126103595751849061099861098d565b503d610a4e565b92505081813d8311610a9c575b610a898183611606565b8101031261035957518590849082610958565b503d610a7f565b90508382813d8311610acd575b610aba8183611606565b810103126103595761092d915190610923565b503d610ab0565b6040513d88823e3d90fd5b809250848092503d8311610b09575b610af88183611606565b81010312610359578490515f6108fa565b503d610aee565b503461014157806003193601126101415760206001600160a01b03606c5416604051908152f35b50346101415780600319360112610141576020606d54604051908152f35b5034610141578060031936011261014157610b6e61147c565b5f6001600160a01b0360335473ffffffffffffffffffffffffffffffffffffffff198116603355167f8be0079c531659141344cd1fd0a4f28419497f9722a3daafe3b4186f6b6457e08280a380f35b503461014157602036600319011261014157610bd761147c565b600435606f5580f35b503461014157806003193601126101415760206001600160a01b0360685416604051908152f35b5034610141578060031936011261014157606e54606d549062093a80908183029183830414831517156111405790610c3e91611599565b42106113c157600490826060604051610c56816115ba565b828152826020820152826040820152015260206001600160a01b0360675416604051938480927fa6d9b34d0000000000000000000000000000000000000000000000000000000082525afa9182156113b6578392611382575b50825260706020526001604083200155606d548082526001604083200154905f19810181811161114057835260706020526001604084200154820391821161136e576001600160a01b0360695416604051917fc89785a300000000000000000000000000000000000000000000000000000000808452602084600481865afa8015610ad457869061133b575b6004945060206001600160a01b03606a5416604051968780928682525afa9485156111fe578795611307575b506001600160a01b03606b541694604051928352602083600481895afa9283156112fc5788936112c8575b506001600160a01b03606c54169260405197635f2bcdbd60e01b8952602089600481885afa9889156112bd578a99611285575b50610ddd89610dd884610dd88789611599565b611599565b988a998b938c958d978361123e575b50505050505090600493929160405198610e058a6115ba565b89526020890152604088015260608701528660408051610e24816115d6565b82815282602082015201526020606f5460011c9560405193848092635f2bcdbd60e01b82525afa9182156111fe578792611209575b50602060049160405192838092635f2bcdbd60e01b82525afa9081156111fe5787916111cc575b50610e8b8183611599565b908791868994826111a7575b5050505060405194610ea8866115d6565b85526020850152604084015284526070602052836040812054835192855193813b15611168578360649260405196879586947f3a5861120000000000000000000000000000000000000000000000000000000086526004860152602485015260448401525af1801561040957611194575b50826001600160a01b03606a54166020840151813b156102145782916024839260405194859384927f15ca0dc000000000000000000000000000000000000000000000000000000000845260048401525af18015610a3457611180575b506001600160a01b03606b541660208301516040850151823b15611168576044849283604051958694859363053fdfab60e41b8552600485015260248401525af18015610a345761116c575b506001600160a01b03606c541660408301516060850151823b15611168576044849283604051958694859363053fdfab60e41b8552600485015260248401525af18015610a3457611154575b50506110406001600160a01b03606654166001600160a01b0360695416606d548652607060205260408620549161185c565b6110636001600160a01b03606554166001600160a01b036069541683519161185c565b6110896001600160a01b03606554166001600160a01b03606b541660208401519161185c565b6110af6001600160a01b03606554166001600160a01b03606c541660408401519161185c565b606d54915f198314611140576111066110f3600185019283606d5560606110ea6110df8351602085015190611599565b604084015190611599565b91015190611599565b9260406110ea8251602084015190611599565b908311611140577f81fd6bca37e58d91273f72fc2387697efca0b1e4e4ad10eabfc19b502a004ea69160409182519182526020820152a280f35b602484634e487b7160e01b81526011600452fd5b61115d906115f2565b61021457825f61100e565b8380fd5b611175906115f2565b61021457825f610fc2565b611189906115f2565b61021457825f610f76565b6111a0909391936115f2565b915f610f19565b829395506111c2945091816111bc92936118b8565b936118b8565b905f808681610e97565b90506020813d6020116111f6575b816111e760209383611606565b8101031261088757515f610e80565b3d91506111da565b6040513d89823e3d90fd5b9091506020813d602011611236575b8161122560209383611606565b810103126108875751906020610e59565b3d9150611218565b859d508599985085975083809681939496985061125a926118b8565b9c611264926118b8565b9661126e926118b8565b92611278926118b8565b91925f8080808080610dec565b9098506020813d6020116112b5575b816112a160209383611606565b810103126112b15751975f610dc5565b8980fd5b3d9150611294565b6040513d8c823e3d90fd5b9092506020813d6020116112f4575b816112e460209383611606565b810103126108835751915f610d92565b3d91506112d7565b6040513d8a823e3d90fd5b9094506020813d602011611333575b8161132360209383611606565b810103126108875751935f610d67565b3d9150611316565b506020843d602011611366575b8161135560209383611606565b8101031261088b5760049351610d3b565b3d9150611348565b602483634e487b7160e01b81526011600452fd5b9091506020813d6020116113ae575b8161139e60209383611606565b810103126102145751905f610caf565b3d9150611391565b6040513d85823e3d90fd5b60046040517fec766557000000000000000000000000000000000000000000000000000000008152fd5b503461014157806003193601126101415760206001600160a01b0360665416604051908152f35b503461014157806003193601126101415760206001600160a01b0360695416604051908152f35b503461014157806003193601126101415760206001600160a01b03606a5416604051908152f35b905034610414578160031936011261041457602090606f548152f35b6001600160a01b0360335416330361149057565b606460405162461bcd60e51b815260206004820152602060248201527f4f776e61626c653a2063616c6c6572206973206e6f7420746865206f776e65726044820152fd5b603354906001600160a01b03809116918273ffffffffffffffffffffffffffffffffffffffff19821617603355167f8be0079c531659141344cd1fd0a4f28419497f9722a3daafe3b4186f6b6457e05f80a3565b1561152f57565b608460405162461bcd60e51b815260206004820152602b60248201527f496e697469616c697a61626c653a20636f6e7472616374206973206e6f74206960448201527f6e697469616c697a696e670000000000000000000000000000000000000000006064820152fd5b919082018092116115a657565b634e487b7160e01b5f52601160045260245ffd5b6080810190811067ffffffffffffffff8211176105dd57604052565b6060810190811067ffffffffffffffff8211176105dd57604052565b67ffffffffffffffff81116105dd57604052565b90601f8019910116810190811067ffffffffffffffff8211176105dd57604052565b6001600160a01b0316906040516040810167ffffffffffffffff90828110828211176105dd576040526020938483527f5361666545524332303a206c6f772d6c6576656c2063616c6c206661696c6564858401525f808587829751910182855af1903d15611780573d92831161176c57906116c3939291604051926116b688601f19601f8401160185611606565b83523d868885013e61178b565b805191821591848315611748575b5050509050156116de5750565b6084906040519062461bcd60e51b82526004820152602a60248201527f5361666545524332303a204552433230206f7065726174696f6e20646964206e60448201527f6f742073756363656564000000000000000000000000000000000000000000006064820152fd5b919381809450010312610414578201519081151582036101415750805f80846116d1565b602485634e487b7160e01b81526041600452fd5b906116c39392506060915b919290156117ec575081511561179f575090565b3b156117a85790565b606460405162461bcd60e51b815260206004820152601d60248201527f416464726573733a2063616c6c20746f206e6f6e2d636f6e74726163740000006044820152fd5b8251909150156117ff5750805190602001fd5b6040519062461bcd60e51b82528160208060048301528251908160248401525f935b828510611843575050604492505f838284010152601f80199101168101030190fd5b8481018201518686016044015293810193859350611821565b6040517fa9059cbb0000000000000000000000000000000000000000000000000000000060208201526001600160a01b039290921660248301526044808301939093529181526118b6916118b1606483611606565b611628565b565b915f198284099282810292838086109503948086039514611970578483111561192c5782910960018219018216809204600280826003021880830282030280830282030280830282030280830282030280830282030280920290030293600183805f03040190848311900302920304170290565b606460405162461bcd60e51b815260206004820152601560248201527f4d6174683a206d756c446976206f766572666c6f7700000000000000000000006044820152fd5b50508092501561197e570490565b634e487b7160e01b5f52601260045260245ffdfea264697066735822122040f10bbf0e1cc014a844074a04aa9399d9fdc310950c9b294d744989e866eb2864736f6c63430008140033",
  "linkReferences": {},
  "deployedLinkReferences": {}
}