{
  "abi": [
    {
      "inputs": [
        {
          "internalType": "contract ITokenFactory",
          "name": "_tokenFactory",
          "type": "address"
        },
        {
          "internalType": "address",
          "name": "_owner",
          "type": "address"
        },
        {
          "internalType": "contract IPriceFeedAggregator",
          "name": "_priceFeedAggregator",
          "type": "address"
        }
      ],
      "stateMutability": "nonpayable",
      "type": "constructor"
    },
    {
      "inputs": [],
      "name": "CannotExecute",
      "type": "error"
    },
    {
      "inputs": [],
      "name": "MathOverflowedMulDiv",
      "type": "error"
    },
    {
      "inputs": [],
      "name": "NotEnoughBacking",
      "type": "error"
    },
    {
      "inputs": [
        {
          "internalType": "address",
          "name": "owner",
          "type": "address"
        }
      ],
      "name": "OwnableInvalidOwner",
      "type": "error"
    },
    {
      "inputs": [
        {
          "internalType": "address",
          "name": "account",
          "type": "address"
        }
      ],
      "name": "OwnableUnauthorizedAccount",
      "type": "error"
    },
    {
      "anonymous": false,
      "inputs": [
        {
          "indexed": true,
          "internalType": "address",
          "name": "previousOwner",
          "type": "address"
        },
        {
          "indexed": true,
          "internalType": "address",
          "name": "newOwner",
          "type": "address"
        }
      ],
      "name": "OwnershipTransferred",
      "type": "event"
    },
    {
      "inputs": [],
      "name": "MAX_EPOCH_DURATION",
      "outputs": [
        {
          "internalType": "uint256",
          "name": "",
          "type": "uint256"
        }
      ],
      "stateMutability": "view",
      "type": "function"
    },
    {
      "inputs": [
        {
          "internalType": "uint256",
          "name": "",
          "type": "uint256"
        }
      ],
      "name": "allBackingTokens",
      "outputs": [
        {
          "internalType": "contract IBackingToken",
          "name": "",
          "type": "address"
        }
      ],
      "stateMutability": "view",
      "type": "function"
    },
    {
      "inputs": [
        {
          "internalType": "uint256",
          "name": "",
          "type": "uint256"
        }
      ],
      "name": "allOptionTokens",
      "outputs": [
        {
          "internalType": "contract IOptionToken",
          "name": "",
          "type": "address"
        }
      ],
      "stateMutability": "view",
      "type": "function"
    },
    {
      "inputs": [],
      "name": "allStabilanTokens",
      "outputs": [
        {
          "internalType": "contract IOptionToken[]",
          "name": "",
          "type": "address[]"
        },
        {
          "internalType": "contract IBackingToken[]",
          "name": "",
          "type": "address[]"
        }
      ],
      "stateMutability": "view",
      "type": "function"
    },
    {
      "inputs": [
        {
          "internalType": "address",
          "name": "",
          "type": "address"
        }
      ],
      "name": "assetsConfig",
      "outputs": [
        {
          "internalType": "uint256",
          "name": "collateralRatio",
          "type": "uint256"
        },
        {
          "internalType": "uint256",
          "name": "strikePricePercent",
          "type": "uint256"
        },
        {
          "internalType": "uint256",
          "name": "expectedApy",
          "type": "uint256"
        }
      ],
      "stateMutability": "view",
      "type": "function"
    },
    {
      "inputs": [
        {
          "internalType": "address",
          "name": "assetAddress",
          "type": "address"
        },
        {
          "internalType": "uint256",
          "name": "amount",
          "type": "uint256"
        },
        {
          "internalType": "uint256",
          "name": "durationEpochs",
          "type": "uint256"
        }
      ],
      "name": "backing",
      "outputs": [],
      "stateMutability": "payable",
      "type": "function"
    },
    {
      "inputs": [
        {
          "internalType": "address",
          "name": "assetAddress",
          "type": "address"
        },
        {
          "internalType": "uint256",
          "name": "amount",
          "type": "uint256"
        },
        {
          "internalType": "uint256",
          "name": "durationEpochs",
          "type": "uint256"
        }
      ],
      "name": "buyOptions",
      "outputs": [],
      "stateMutability": "payable",
      "type": "function"
    },
    {
      "inputs": [
        {
          "internalType": "address",
          "name": "backingToken",
          "type": "address"
        }
      ],
      "name": "claimBackingRewards",
      "outputs": [],
      "stateMutability": "nonpayable",
      "type": "function"
    },
    {
      "inputs": [],
      "name": "currentEpoch",
      "outputs": [
        {
          "internalType": "uint256",
          "name": "",
          "type": "uint256"
        }
      ],
      "stateMutability": "view",
      "type": "function"
    },
    {
      "inputs": [
        {
          "internalType": "contract IOptionToken",
          "name": "option",
          "type": "address"
        },
        {
          "internalType": "uint256",
          "name": "amount",
          "type": "uint256"
        }
      ],
      "name": "executeOptions",
      "outputs": [],
      "stateMutability": "nonpayable",
      "type": "function"
    },
    {
      "inputs": [
        {
          "internalType": "address",
          "name": "assetAddress",
          "type": "address"
        },
        {
          "internalType": "uint256",
          "name": "amount",
          "type": "uint256"
        },
        {
          "internalType": "uint256",
          "name": "durationEpochs",
          "type": "uint256"
        },
        {
          "internalType": "uint256",
          "name": "payingToken",
          "type": "uint256"
        }
      ],
      "name": "getOptionsPrice",
      "outputs": [
        {
          "internalType": "uint256",
          "name": "",
          "type": "uint256"
        }
      ],
      "stateMutability": "view",
      "type": "function"
    },
    {
      "inputs": [
        {
          "internalType": "address",
          "name": "assetAddress",
          "type": "address"
        },
        {
          "internalType": "uint256",
          "name": "amount",
          "type": "uint256"
        },
        {
          "internalType": "uint256",
          "name": "durationEpochs",
          "type": "uint256"
        },
        {
          "internalType": "uint256",
          "name": "payingToken",
          "type": "uint256"
        }
      ],
      "name": "getYearlyCost",
      "outputs": [
        {
          "internalType": "uint256",
          "name": "",
          "type": "uint256"
        }
      ],
      "stateMutability": "view",
      "type": "function"
    },
    {
      "inputs": [],
      "name": "owner",
      "outputs": [
        {
          "internalType": "address",
          "name": "",
          "type": "address"
        }
      ],
      "stateMutability": "view",
      "type": "function"
    },
    {
      "inputs": [],
      "name": "priceFeedAggregator",
      "outputs": [
        {
          "internalType": "contract IPriceFeedAggregator",
          "name": "",
          "type": "address"
        }
      ],
      "stateMutability": "view",
      "type": "function"
    },
    {
      "inputs": [],
      "name": "renounceOwnership",
      "outputs": [],
      "stateMutability": "nonpayable",
      "type": "function"
    },
    {
      "inputs": [
        {
          "internalType": "address",
          "name": "assetAddress",
          "type": "address"
        },
        {
          "internalType": "uint256",
          "name": "expectedApy",
          "type": "uint256"
        }
      ],
      "name": "setupAsset",
      "outputs": [],
      "stateMutability": "nonpayable",
      "type": "function"
    },
    {
      "inputs": [
        {
          "internalType": "uint256",
          "name": "",
          "type": "uint256"
        }
      ],
      "name": "supportedAssets",
      "outputs": [
        {
          "internalType": "address",
          "name": "",
          "type": "address"
        }
      ],
      "stateMutability": "view",
      "type": "function"
    },
    {
      "inputs": [],
      "name": "tokenFactory",
      "outputs": [
        {
          "internalType": "contract ITokenFactory",
          "name": "",
          "type": "address"
        }
      ],
      "stateMutability": "view",
      "type": "function"
    },
    {
      "inputs": [
        {
          "internalType": "address",
          "name": "newOwner",
          "type": "address"
        }
      ],
      "name": "transferOwnership",
      "outputs": [],
      "stateMutability": "nonpayable",
      "type": "function"
    },
    {
      "inputs": [],
      "name": "updateEpoch",
      "outputs": [],
      "stateMutability": "nonpayable",
      "type": "function"
    }
  ],
  "bytecode": {
    "object": "0x60806040523480156200001157600080fd5b50604051620018ec380380620018ec833981016040819052620000349162000111565b816001600160a01b0381166200006457604051631e4fbdf760e01b81526000600482015260240160405180910390fd5b6200006f81620000a8565b50600280546001600160a01b039485166001600160a01b0319918216179091556001805560038054929094169116179091555062000165565b600080546001600160a01b038381166001600160a01b0319831681178455604051919092169283917f8be0079c531659141344cd1fd0a4f28419497f9722a3daafe3b4186f6b6457e09190a35050565b6001600160a01b03811681146200010e57600080fd5b50565b6000806000606084860312156200012757600080fd5b83516200013481620000f8565b60208501519093506200014781620000f8565b60408501519092506200015a81620000f8565b809150509250925092565b61177780620001756000396000f3fe60806040526004361061011e5760003560e01c8063715018a6116100a0578063a20b8b4e11610064578063a20b8b4e14610325578063a4dedb9e14610345578063c68dbb3714610365578063e77772fe14610385578063f2fde38b146103a557600080fd5b8063715018a61461029e57806376671808146102b35780637aeb5dd8146102c95780638da5cb5b146102e95780638e7370ff1461030757600080fd5b806336f4fb02116100e757806336f4fb02146102095780634ce931ae1461021e5780634e44b4bf146102565780634f17a2fa14610269578063615572201461027e57600080fd5b806228b6ef146101235780630cc50a571461014f578063107fa8a5146101a65780631a9b6e7b146101bb5780632b0f9a16146101e9575b600080fd5b34801561012f57600080fd5b506101386103c5565b6040516101469291906114b5565b60405180910390f35b34801561015b57600080fd5b5061018b61016a366004611557565b60056020526000908152604090208054600182015460029092015490919083565b60408051938452602084019290925290820152606001610146565b6101b96101b4366004611574565b61048c565b005b3480156101c757600080fd5b506101db6101d63660046115a9565b6105b1565b604051908152602001610146565b3480156101f557600080fd5b506101b96102043660046115e4565b6107b1565b34801561021557600080fd5b506101b9610ba1565b34801561022a57600080fd5b5061023e610239366004611610565b610f59565b6040516001600160a01b039091168152602001610146565b6101b9610264366004611574565b610f83565b34801561027557600080fd5b506101db600681565b34801561028a57600080fd5b506101db6102993660046115a9565b611233565b3480156102aa57600080fd5b506101b9611268565b3480156102bf57600080fd5b506101db60015481565b3480156102d557600080fd5b506101b96102e43660046115e4565b61127c565b3480156102f557600080fd5b506000546001600160a01b031661023e565b34801561031357600080fd5b506101b9610322366004611557565b50565b34801561033157600080fd5b5060035461023e906001600160a01b031681565b34801561035157600080fd5b5061023e610360366004611610565b611288565b34801561037157600080fd5b5061023e610380366004611610565b611298565b34801561039157600080fd5b5060025461023e906001600160a01b031681565b3480156103b157600080fd5b506101b96103c0366004611557565b6112a8565b606080600760088180548060200260200160405190810160405280929190818152602001828054801561042157602002820191906000526020600020905b81546001600160a01b03168152600190910190602001808311610403575b505050505091508080548060200260200160405190810160405280929190818152602001828054801561047d57602002820191906000526020600020905b81546001600160a01b0316815260019091019060200180831161045f575b50505050509050915091509091565b60005b818110156104fd576001600160a01b038416600090815260046020526040812060015482906104bf90859061163f565b81526020019081526020016000209050838160010160008282546104e3919061163f565b909155508291506104f5905081611658565b91505061048f565b506001600160a01b03831660009081526004602052604081206001805483919061052890869061163f565b6105329190611671565b8152602081019190915260409081016000206005015490516340c10f1960e01b8152336004820152602481018590526001600160a01b03909116915081906340c10f1990604401600060405180830381600087803b15801561059357600080fd5b505af11580156105a7573d6000803e3d6000fd5b5050505050505050565b6001600160a01b0380851660009081526005602081815260408084206004808452828620600154875284528286208054600354968201548551636f307dc360e01b8152955198999498929791968a96928616956316345f1895921693636f307dc39380840193908290030181865afa158015610631573d6000803e3d6000fd5b505050506040513d601f19601f820116820180604052508101906106559190611684565b6040516001600160e01b031960e084901b1681526001600160a01b039091166004820152602401602060405180830381865afa158015610699573d6000803e3d6000fd5b505050506040513d601f19601f820116820180604052508101906106bd91906116a1565b90506000805b88811015610778576001600160a01b038b16600090815260046020526040812060015482906106f390859061163f565b81526020019081526020016000209050600061071c610711876112e8565b600284015490611304565b9050600061073761072c876112e8565b600185015490611304565b89549091506000906107539061074d858561133c565b9061133c565b905061075f818761163f565b955050505050808061077090611658565b9150506106c3565b5061078388826116d0565b905060006107a2866002015483600261079c91906116f2565b90611304565b9b9a5050505050505050505050565b6000826001600160a01b0316636f307dc36040518163ffffffff1660e01b8152600401602060405180830381865afa1580156107f1573d6000803e3d6000fd5b505050506040513d601f19601f820116820180604052508101906108159190611684565b6003546040516302c68be360e31b81526001600160a01b038084166004830152929350600092909116906316345f1890602401602060405180830381865afa158015610865573d6000803e3d6000fd5b505050506040513d601f19601f8201168201806040525081019061088991906116a1565b6001600160a01b0383166000908152600460209081526040808320600154845290915290208054919250908210156108d4576040516377672d9360e11b815260040160405180910390fd5b600581015460408051636f307dc360e01b815290516000926001600160a01b031691636f307dc39160048083019260209291908290030181865afa158015610920573d6000803e3d6000fd5b505050506040513d601f19601f820116820180604052508101906109449190611684565b6003546040516302c68be360e31b81526001600160a01b038084166004830152929350600092909116906316345f1890602401602060405180830381865afa158015610994573d6000803e3d6000fd5b505050506040513d601f19601f820116820180604052508101906109b891906116a1565b905060006109cb87856000015484611373565b6001549091505b886001600160a01b0316630b9663db6040518163ffffffff1660e01b8152600401602060405180830381865afa158015610a10573d6000803e3d6000fd5b505050506040513d601f19601f82011682018060405250810190610a3491906116a1565b811015610ac4576001600160a01b0387166000908152600460209081526040808320848452909152812060020180548a9290610a71908490611671565b90915550506001600160a01b038716600090815260046020908152604080832084845290915281206001018054849290610aac908490611671565b90915550819050610abc81611658565b9150506109d2565b50604051632770a7eb60e21b8152336004820152602481018890526001600160a01b03891690639dc29fac90604401600060405180830381600087803b158015610b0d57600080fd5b505af1158015610b21573d6000803e3d6000fd5b505060405163a9059cbb60e01b8152336004820152602481018490526001600160a01b038616925063a9059cbb91506044016020604051808303816000875af1158015610b72573d6000803e3d6000fd5b505050506040513d601f19601f82011682018060405250810190610b969190611709565b505050505050505050565b60018054906000610bb183611658565b919050555060005b60065481101561032257600060068281548110610bd857610bd861172b565b60009182526020808320909101546001600160a01b031680835260058252604080842060049093528320600154919450919291908290610c1a9060069061163f565b815260208101919091526040016000206002546001549192506001600160a01b031690633400987c908590610c519060069061163f565b60405160e084811b6001600160e01b031916825260a06004830152600660a48301526527b83a34b7b760d11b60c48301526024820152600360e48201526213d41560ea1b6101048201526001600160a01b039290921660448301526064820152306084820152610124016020604051808303816000875af1158015610cda573d6000803e3d6000fd5b505050506040513d601f19601f82011682018060405250810190610cfe9190611684565b6004820180546001600160a01b0319166001600160a01b03928316179055600254600154911690637b81b6b4908590610d399060069061163f565b60405160e084811b6001600160e01b031916825260a06004830152600760a4830152664261636b696e6760c81b60c48301526024820152600360e48201526242434b60e81b6101048201526001600160a01b039290921660448301526064820152306084820152610124016020604051808303816000875af1158015610dc3573d6000803e3d6000fd5b505050506040513d601f19601f82011682018060405250810190610de79190611684565b6005820180546001600160a01b039283166001600160a01b03199182161782556004808501546007805460018181019092557fa66cc928b5edb82af9bd49922954155ab7b0942694bea4ce44661d9a8736c688018054851692871692909217909155925460088054948501815560009081527ff3f7a9fe364faab93b216da50a3214154f22a0a2b415b23a84c8169e8b636ee39094018054909316908516179091556003546040516302c68be360e31b8152929316916316345f1891610ebe918891016001600160a01b0391909116815260200190565b602060405180830381865afa158015610edb573d6000803e3d6000fd5b505050506040513d601f19601f82011682018060405250810190610eff91906116a1565b9050610f18818460010154670de0b6b3a7640000611373565b6001600160a01b039094166000908152600460209081526040808320600154845290915290209390935550829150610f51905081611658565b915050610bb9565b60078181548110610f6957600080fd5b6000918252602090912001546001600160a01b0316905081565b6001600160a01b038316600090815260046020526040812060018054839190610fad90869061163f565b610fb79190611671565b8152602080820192909252604090810160009081206001600160a01b0380891683526005808652848420600354918401548651636f307dc360e01b8152965194985090969495918316946316345f18949190931692636f307dc392600480820193918290030181865afa158015611032573d6000803e3d6000fd5b505050506040513d601f19601f820116820180604052508101906110569190611684565b6040516001600160e01b031960e084901b1681526001600160a01b039091166004820152602401602060405180830381865afa15801561109a573d6000803e3d6000fd5b505050506040513d601f19601f820116820180604052508101906110be91906116a1565b905060006110dd84600101548460000154670de0b6b3a7640000611373565b905060006110f48284670de0b6b3a7640000611373565b6001600160a01b038916600090815260046020908152604080832060015484529091528120549192506111308983670de0b6b3a7640000611373565b9050828111156111535760405163297226a560e01b815260040160405180910390fd5b60005b888110156111bf576001600160a01b038b1660009081526004602052604081206001548c929061118790859061163f565b815260200190815260200160002060020160008282546111a7919061163f565b909155508190506111b781611658565b915050611156565b506004878101546040516340c10f1960e01b81523392810192909252602482018b90526001600160a01b0316906340c10f1990604401600060405180830381600087803b15801561120f57600080fd5b505af1158015611223573d6000803e3d6000fd5b5050505050505050505050505050565b600080611242868686866105b1565b90506000600c61125286846116f2565b61125c91906116d0565b90505050949350505050565b611270611438565b61127a6000611465565b565b611284611438565b5050565b60088181548110610f6957600080fd5b60068181548110610f6957600080fd5b6112b0611438565b6001600160a01b0381166112df57604051631e4fbdf760e01b8152600060048201526024015b60405180910390fd5b61032281611465565b6402540be40081810290810482146112ff57600080fd5b919050565b600081156706f05b59d3b20000198390048411151761132257600080fd5b50670de0b6b3a764000091026706f05b59d3b20000010490565b60008115670de0b6b3a76400006002840419048411171561135c57600080fd5b50670de0b6b3a76400009190910260028204010490565b60008383028160001985870982811083820303915050806000036113aa578382816113a0576113a06116ba565b0492505050611431565b8084116113ca5760405163227bc15360e01b815260040160405180910390fd5b6000848688096000868103871696879004966002600389028118808a02820302808a02820302808a02820302808a02820302808a02820302808a02909103029181900381900460010186841190950394909402919094039290920491909117919091029150505b9392505050565b6000546001600160a01b0316331461127a5760405163118cdaa760e01b81523360048201526024016112d6565b600080546001600160a01b038381166001600160a01b0319831681178455604051919092169283917f8be0079c531659141344cd1fd0a4f28419497f9722a3daafe3b4186f6b6457e09190a35050565b604080825283519082018190526000906020906060840190828701845b828110156114f75781516001600160a01b0316845292840192908401906001016114d2565b5050508381038285015284518082528583019183019060005b818110156115355783516001600160a01b031683529284019291840191600101611510565b5090979650505050505050565b6001600160a01b038116811461032257600080fd5b60006020828403121561156957600080fd5b813561143181611542565b60008060006060848603121561158957600080fd5b833561159481611542565b95602085013595506040909401359392505050565b600080600080608085870312156115bf57600080fd5b84356115ca81611542565b966020860135965060408601359560600135945092505050565b600080604083850312156115f757600080fd5b823561160281611542565b946020939093013593505050565b60006020828403121561162257600080fd5b5035919050565b634e487b7160e01b600052601160045260246000fd5b8082018082111561165257611652611629565b92915050565b60006001820161166a5761166a611629565b5060010190565b8181038181111561165257611652611629565b60006020828403121561169657600080fd5b815161143181611542565b6000602082840312156116b357600080fd5b5051919050565b634e487b7160e01b600052601260045260246000fd5b6000826116ed57634e487b7160e01b600052601260045260246000fd5b500490565b808202811582820484141761165257611652611629565b60006020828403121561171b57600080fd5b8151801515811461143157600080fd5b634e487b7160e01b600052603260045260246000fdfea264697066735822122034392c8f58a198fabde3c21b0189adab121ca0f284d3b396017444466f3db38764736f6c63430008150033",
    "linkReferences": {}
  },
  "methodIdentifiers": {
    "MAX_EPOCH_DURATION()": "4f17a2fa",
    "allBackingTokens(uint256)": "a4dedb9e",
    "allOptionTokens(uint256)": "4ce931ae",
    "allStabilanTokens()": "0028b6ef",
    "assetsConfig(address)": "0cc50a57",
    "backing(address,uint256,uint256)": "107fa8a5",
    "buyOptions(address,uint256,uint256)": "4e44b4bf",
    "claimBackingRewards(address)": "8e7370ff",
    "currentEpoch()": "76671808",
    "executeOptions(address,uint256)": "2b0f9a16",
    "getOptionsPrice(address,uint256,uint256,uint256)": "61557220",
    "getYearlyCost(address,uint256,uint256,uint256)": "1a9b6e7b",
    "owner()": "8da5cb5b",
    "priceFeedAggregator()": "a20b8b4e",
    "renounceOwnership()": "715018a6",
    "setupAsset(address,uint256)": "7aeb5dd8",
    "supportedAssets(uint256)": "c68dbb37",
    "tokenFactory()": "e77772fe",
    "transferOwnership(address)": "f2fde38b",
    "updateEpoch()": "36f4fb02"
  },
  "id": 5
}