{
  "abi": [
    {
      "inputs": [
        {
          "internalType": "contract ITokenFactory",
          "name": "_tokenFactory",
          "type": "address"
        },
        {
          "internalType": "contract IPriceFeedAggregator",
          "name": "_priceFeedAggregator",
          "type": "address"
        },
        {
          "internalType": "address",
          "name": "_owner",
          "type": "address"
        }
      ],
      "stateMutability": "nonpayable",
      "type": "constructor"
    },
    {
      "inputs": [],
      "name": "CannotExecute",
      "type": "error"
    },
    {
      "inputs": [],
      "name": "MathOverflowedMulDiv",
      "type": "error"
    },
    {
      "inputs": [
        {
          "internalType": "uint256",
          "name": "inEpochId",
          "type": "uint256"
        },
        {
          "internalType": "uint256",
          "name": "insuringAssetValue",
          "type": "uint256"
        },
        {
          "internalType": "uint256",
          "name": "totalAvailableCollateralUSD",
          "type": "uint256"
        }
      ],
      "name": "NotEnoughBacking",
      "type": "error"
    },
    {
      "inputs": [
        {
          "internalType": "uint256",
          "name": "msgValue",
          "type": "uint256"
        },
        {
          "internalType": "uint256",
          "name": "optionsPrice",
          "type": "uint256"
        }
      ],
      "name": "NotEnoughETHSent",
      "type": "error"
    },
    {
      "inputs": [
        {
          "internalType": "address",
          "name": "owner",
          "type": "address"
        }
      ],
      "name": "OwnableInvalidOwner",
      "type": "error"
    },
    {
      "inputs": [
        {
          "internalType": "address",
          "name": "account",
          "type": "address"
        }
      ],
      "name": "OwnableUnauthorizedAccount",
      "type": "error"
    },
    {
      "anonymous": false,
      "inputs": [
        {
          "indexed": true,
          "internalType": "address",
          "name": "previousOwner",
          "type": "address"
        },
        {
          "indexed": true,
          "internalType": "address",
          "name": "newOwner",
          "type": "address"
        }
      ],
      "name": "OwnershipTransferred",
      "type": "event"
    },
    {
      "inputs": [],
      "name": "MAX_EPOCH_DURATION",
      "outputs": [
        {
          "internalType": "uint256",
          "name": "",
          "type": "uint256"
        }
      ],
      "stateMutability": "view",
      "type": "function"
    },
    {
      "inputs": [
        {
          "internalType": "uint256",
          "name": "",
          "type": "uint256"
        }
      ],
      "name": "allBackingTokens",
      "outputs": [
        {
          "internalType": "contract IBackingToken",
          "name": "",
          "type": "address"
        }
      ],
      "stateMutability": "view",
      "type": "function"
    },
    {
      "inputs": [
        {
          "internalType": "uint256",
          "name": "",
          "type": "uint256"
        }
      ],
      "name": "allOptionTokens",
      "outputs": [
        {
          "internalType": "contract IOptionToken",
          "name": "",
          "type": "address"
        }
      ],
      "stateMutability": "view",
      "type": "function"
    },
    {
      "inputs": [],
      "name": "allStabilanTokens",
      "outputs": [
        {
          "internalType": "contract IOptionToken[]",
          "name": "",
          "type": "address[]"
        },
        {
          "internalType": "contract IBackingToken[]",
          "name": "",
          "type": "address[]"
        }
      ],
      "stateMutability": "view",
      "type": "function"
    },
    {
      "inputs": [
        {
          "internalType": "address",
          "name": "",
          "type": "address"
        }
      ],
      "name": "assetsConfig",
      "outputs": [
        {
          "internalType": "address",
          "name": "collateralAsset",
          "type": "address"
        },
        {
          "internalType": "uint256",
          "name": "collateralRatio",
          "type": "uint256"
        },
        {
          "internalType": "uint256",
          "name": "strikePricePercent",
          "type": "uint256"
        },
        {
          "internalType": "uint256",
          "name": "expectedApy",
          "type": "uint256"
        }
      ],
      "stateMutability": "view",
      "type": "function"
    },
    {
      "inputs": [
        {
          "internalType": "address",
          "name": "assetAddress",
          "type": "address"
        },
        {
          "internalType": "uint256",
          "name": "amount",
          "type": "uint256"
        },
        {
          "internalType": "uint256",
          "name": "durationEpochs",
          "type": "uint256"
        }
      ],
      "name": "backing",
      "outputs": [],
      "stateMutability": "payable",
      "type": "function"
    },
    {
      "inputs": [
        {
          "internalType": "address",
          "name": "assetAddress",
          "type": "address"
        },
        {
          "internalType": "uint256",
          "name": "amount",
          "type": "uint256"
        },
        {
          "internalType": "uint256",
          "name": "durationEpochs",
          "type": "uint256"
        }
      ],
      "name": "buyOptions",
      "outputs": [],
      "stateMutability": "payable",
      "type": "function"
    },
    {
      "inputs": [
        {
          "internalType": "address",
          "name": "backingToken",
          "type": "address"
        }
      ],
      "name": "claimBackingRewards",
      "outputs": [],
      "stateMutability": "nonpayable",
      "type": "function"
    },
    {
      "inputs": [],
      "name": "currentEpoch",
      "outputs": [
        {
          "internalType": "uint256",
          "name": "",
          "type": "uint256"
        }
      ],
      "stateMutability": "view",
      "type": "function"
    },
    {
      "inputs": [
        {
          "internalType": "contract IOptionToken",
          "name": "option",
          "type": "address"
        },
        {
          "internalType": "uint256",
          "name": "amount",
          "type": "uint256"
        }
      ],
      "name": "executeOptions",
      "outputs": [],
      "stateMutability": "nonpayable",
      "type": "function"
    },
    {
      "inputs": [
        {
          "internalType": "address",
          "name": "assetAddress",
          "type": "address"
        }
      ],
      "name": "getAssetAPY",
      "outputs": [
        {
          "internalType": "uint256",
          "name": "",
          "type": "uint256"
        }
      ],
      "stateMutability": "view",
      "type": "function"
    },
    {
      "inputs": [
        {
          "internalType": "address",
          "name": "assetAddress",
          "type": "address"
        },
        {
          "internalType": "uint256",
          "name": "amount",
          "type": "uint256"
        },
        {
          "internalType": "uint256",
          "name": "durationEpochs",
          "type": "uint256"
        },
        {
          "internalType": "address",
          "name": "payingToken",
          "type": "address"
        }
      ],
      "name": "getOptionsPrice",
      "outputs": [
        {
          "internalType": "uint256",
          "name": "",
          "type": "uint256"
        }
      ],
      "stateMutability": "view",
      "type": "function"
    },
    {
      "inputs": [
        {
          "internalType": "address",
          "name": "assetAddress",
          "type": "address"
        },
        {
          "internalType": "uint256",
          "name": "amount",
          "type": "uint256"
        },
        {
          "internalType": "uint256",
          "name": "durationEpochs",
          "type": "uint256"
        },
        {
          "internalType": "address",
          "name": "payingToken",
          "type": "address"
        }
      ],
      "name": "getYearlyCost",
      "outputs": [
        {
          "internalType": "uint256",
          "name": "",
          "type": "uint256"
        }
      ],
      "stateMutability": "view",
      "type": "function"
    },
    {
      "inputs": [],
      "name": "owner",
      "outputs": [
        {
          "internalType": "address",
          "name": "",
          "type": "address"
        }
      ],
      "stateMutability": "view",
      "type": "function"
    },
    {
      "inputs": [],
      "name": "priceFeedAggregator",
      "outputs": [
        {
          "internalType": "contract IPriceFeedAggregator",
          "name": "",
          "type": "address"
        }
      ],
      "stateMutability": "view",
      "type": "function"
    },
    {
      "inputs": [],
      "name": "renounceOwnership",
      "outputs": [],
      "stateMutability": "nonpayable",
      "type": "function"
    },
    {
      "inputs": [
        {
          "internalType": "address",
          "name": "assetAddress",
          "type": "address"
        },
        {
          "internalType": "uint256",
          "name": "collateralRatio",
          "type": "uint256"
        },
        {
          "internalType": "uint256",
          "name": "strikePricePercent",
          "type": "uint256"
        },
        {
          "internalType": "uint256",
          "name": "expectedApy",
          "type": "uint256"
        },
        {
          "internalType": "address",
          "name": "collateralAddress",
          "type": "address"
        }
      ],
      "name": "setupAsset",
      "outputs": [],
      "stateMutability": "nonpayable",
      "type": "function"
    },
    {
      "inputs": [
        {
          "internalType": "uint256",
          "name": "",
          "type": "uint256"
        }
      ],
      "name": "supportedAssets",
      "outputs": [
        {
          "internalType": "address",
          "name": "",
          "type": "address"
        }
      ],
      "stateMutability": "view",
      "type": "function"
    },
    {
      "inputs": [],
      "name": "tokenFactory",
      "outputs": [
        {
          "internalType": "contract ITokenFactory",
          "name": "",
          "type": "address"
        }
      ],
      "stateMutability": "view",
      "type": "function"
    },
    {
      "inputs": [
        {
          "internalType": "address",
          "name": "newOwner",
          "type": "address"
        }
      ],
      "name": "transferOwnership",
      "outputs": [],
      "stateMutability": "nonpayable",
      "type": "function"
    },
    {
      "inputs": [],
      "name": "updateEpoch",
      "outputs": [],
      "stateMutability": "nonpayable",
      "type": "function"
    }
  ],
  "bytecode": {
    "object": "0x60806040523480156200001157600080fd5b506040516200257638038062002576833981016040819052620000349162000110565b806001600160a01b0381166200006457604051631e4fbdf760e01b81526000600482015260240160405180910390fd5b6200006f81620000a7565b5050600280546001600160a01b039384166001600160a01b031991821617909155600380549290931691161790556001805562000164565b600080546001600160a01b038381166001600160a01b0319831681178455604051919092169283917f8be0079c531659141344cd1fd0a4f28419497f9722a3daafe3b4186f6b6457e09190a35050565b6001600160a01b03811681146200010d57600080fd5b50565b6000806000606084860312156200012657600080fd5b83516200013381620000f7565b60208501519093506200014681620000f7565b60408501519092506200015981620000f7565b809150509250925092565b61240280620001746000396000f3fe6080604052600436106101295760003560e01c8063715018a6116100ab578063a4dedb9e1161006f578063a4dedb9e1461034f578063aefa7e4c1461036f578063bca9e918146103a8578063c68dbb37146103c8578063e77772fe146103e8578063f2fde38b1461040857600080fd5b8063715018a6146102c857806376671808146102dd5780638da5cb5b146102f35780638e7370ff14610311578063a20b8b4e1461032f57600080fd5b80633ad6da80116100f25780633ad6da801461021a5780633f1deebb146102485780634ce931ae146102685780634e44b4bf146102a05780634f17a2fa146102b357600080fd5b806228b6ef1461012e5780630cc50a571461015a578063107fa8a5146101d05780632b0f9a16146101e557806336f4fb0214610205575b600080fd5b34801561013a57600080fd5b50610143610428565b604051610151929190611d6c565b60405180910390f35b34801561016657600080fd5b506101a6610175366004611e0e565b60056020526000908152604090208054600182015460028301546003909301546001600160a01b0390921692909184565b604080516001600160a01b0390951685526020850193909352918301526060820152608001610151565b6101e36101de366004611e2b565b6104ef565b005b3480156101f157600080fd5b506101e3610200366004611e60565b610614565b34801561021157600080fd5b506101e3610a04565b34801561022657600080fd5b5061023a610235366004611e8c565b610b58565b604051908152602001610151565b34801561025457600080fd5b5061023a610263366004611e8c565b610d61565b34801561027457600080fd5b50610288610283366004611ed6565b610e4e565b6040516001600160a01b039091168152602001610151565b6101e36102ae366004611e2b565b610e78565b3480156102bf57600080fd5b5061023a600681565b3480156102d457600080fd5b506101e3611208565b3480156102e957600080fd5b5061023a60015481565b3480156102ff57600080fd5b506000546001600160a01b0316610288565b34801561031d57600080fd5b506101e361032c366004611e0e565b50565b34801561033b57600080fd5b50600354610288906001600160a01b031681565b34801561035b57600080fd5b5061028861036a366004611ed6565b61121c565b34801561037b57600080fd5b5061023a61038a366004611e0e565b6001600160a01b031660009081526005602052604090206003015490565b3480156103b457600080fd5b506101e36103c3366004611eef565b61122c565b3480156103d457600080fd5b506102886103e3366004611ed6565b61137a565b3480156103f457600080fd5b50600254610288906001600160a01b031681565b34801561041457600080fd5b506101e3610423366004611e0e565b61138a565b606080600760088180548060200260200160405190810160405280929190818152602001828054801561048457602002820191906000526020600020905b81546001600160a01b03168152600190910190602001808311610466575b50505050509150808054806020026020016040519081016040528092919081815260200182805480156104e057602002820191906000526020600020905b81546001600160a01b031681526001909101906020018083116104c2575b50505050509050915091509091565b60005b81811015610560576001600160a01b03841660009081526004602052604081206001548290610522908590611f5b565b81526020019081526020016000209050838160010160008282546105469190611f5b565b90915550829150610558905081611f6e565b9150506104f2565b506001600160a01b03831660009081526004602052604081206001805483919061058b908690611f5b565b6105959190611f87565b8152602081019190915260409081016000206005015490516340c10f1960e01b8152336004820152602481018590526001600160a01b03909116915081906340c10f1990604401600060405180830381600087803b1580156105f657600080fd5b505af115801561060a573d6000803e3d6000fd5b5050505050505050565b6000826001600160a01b0316636f307dc36040518163ffffffff1660e01b8152600401602060405180830381865afa158015610654573d6000803e3d6000fd5b505050506040513d601f19601f820116820180604052508101906106789190611f9a565b6003546040516302c68be360e31b81526001600160a01b038084166004830152929350600092909116906316345f1890602401602060405180830381865afa1580156106c8573d6000803e3d6000fd5b505050506040513d601f19601f820116820180604052508101906106ec9190611fb7565b6001600160a01b038316600090815260046020908152604080832060015484529091529020805491925090821015610737576040516377672d9360e11b815260040160405180910390fd5b600581015460408051636f307dc360e01b815290516000926001600160a01b031691636f307dc39160048083019260209291908290030181865afa158015610783573d6000803e3d6000fd5b505050506040513d601f19601f820116820180604052508101906107a79190611f9a565b6003546040516302c68be360e31b81526001600160a01b038084166004830152929350600092909116906316345f1890602401602060405180830381865afa1580156107f7573d6000803e3d6000fd5b505050506040513d601f19601f8201168201806040525081019061081b9190611fb7565b9050600061082e878560000154846113c5565b6001549091505b886001600160a01b0316630b9663db6040518163ffffffff1660e01b8152600401602060405180830381865afa158015610873573d6000803e3d6000fd5b505050506040513d601f19601f820116820180604052508101906108979190611fb7565b811015610927576001600160a01b0387166000908152600460209081526040808320848452909152812060020180548a92906108d4908490611f87565b90915550506001600160a01b03871660009081526004602090815260408083208484529091528120600101805484929061090f908490611f87565b9091555081905061091f81611f6e565b915050610835565b50604051632770a7eb60e21b8152336004820152602481018890526001600160a01b03891690639dc29fac90604401600060405180830381600087803b15801561097057600080fd5b505af1158015610984573d6000803e3d6000fd5b505060405163a9059cbb60e01b8152336004820152602481018490526001600160a01b038616925063a9059cbb91506044016020604051808303816000875af11580156109d5573d6000803e3d6000fd5b505050506040513d601f19601f820116820180604052508101906109f99190611fd0565b505050505050505050565b60018054906000610a1483611f6e565b919050555060005b60065481101561032c57600060068281548110610a3b57610a3b611ff2565b60009182526020808320909101546001600160a01b0390811680845260059092526040832080546001549395509093928392610a87928792911690610a8290600690611f5b565b61148a565b6003546040516302c68be360e31b81526001600160a01b03888116600483015293955091935060009216906316345f1890602401602060405180830381865afa158015610ad8573d6000803e3d6000fd5b505050506040513d601f19601f82011682018060405250810190610afc9190611fb7565b9050610b158460020154826119c490919063ffffffff16565b6001600160a01b039095166000908152600460209081526040808320600154845290915290209490945550839250610b509150829050611f6e565b915050610a1c565b6001600160a01b0380851660009081526005602081815260408084206004808452828620600154875284528286208054600354968201548551636f307dc360e01b8152955198999498929791968a96928616956316345f1895921693636f307dc39380840193908290030181865afa158015610bd8573d6000803e3d6000fd5b505050506040513d601f19601f82011682018060405250810190610bfc9190611f9a565b6040516001600160e01b031960e084901b1681526001600160a01b039091166004820152602401602060405180830381865afa158015610c40573d6000803e3d6000fd5b505050506040513d601f19601f82011682018060405250810190610c649190611fb7565b90506000805b88811015610d28576001600160a01b038b1660009081526004602052604081206001548290610c9a908590611f5b565b815260200190815260200160002090506000610cc38683600201546119c490919063ffffffff16565b90506000610cde8684600101546119c490919063ffffffff16565b90506000610d038a60010154610cfd84866119fc90919063ffffffff16565b906119fc565b9050610d0f8187611f5b565b9550505050508080610d2090611f6e565b915050610c6a565b50610d33888261201e565b90506000610d528660030154836002610d4c9190612032565b906119c4565b9b9a5050505050505050505050565b6001600160a01b03841660009081526004602090815260408083206001548452909152812081610d9387878787610b58565b90506000600c610da38784612032565b610dad919061201e565b90506000610dcc82610d4c86600001548b6119c490919063ffffffff16565b6003546040516302c68be360e31b81526001600160a01b038981166004830152929350600092909116906316345f1890602401602060405180830381865afa158015610e1c573d6000803e3d6000fd5b505050506040513d601f19601f82011682018060405250810190610e409190611fb7565b90506000610d528a836119fc565b60078181548110610e5e57600080fd5b6000918252602090912001546001600160a01b0316905081565b6001600160a01b038316600090815260046020526040812060018054839190610ea2908690611f5b565b610eac9190611f87565b81526020019081526020016000209050600060056000866001600160a01b03166001600160a01b0316815260200190815260200160002090506000610f668686868660050160009054906101000a90046001600160a01b03166001600160a01b0316636f307dc36040518163ffffffff1660e01b8152600401602060405180830381865afa158015610f42573d6000803e3d6000fd5b505050506040513d601f19601f820116820180604052508101906102639190611f9a565b905080341015610f97576040516375dfba6b60e01b8152346004820152602481018290526044015b60405180910390fd5b600354600584015460408051636f307dc360e01b815290516000936001600160a01b03908116936316345f1893911691636f307dc3916004808201926020929091908290030181865afa158015610ff2573d6000803e3d6000fd5b505050506040513d601f19601f820116820180604052508101906110169190611f9a565b6040516001600160e01b031960e084901b1681526001600160a01b039091166004820152602401602060405180830381865afa15801561105a573d6000803e3d6000fd5b505050506040513d601f19601f8201168201806040525081019061107e9190611fb7565b6001600160a01b038816600090815260046020908152604080832060015484529091528120549192506110b188836119c4565b905060005b87811015611195576001600160a01b038a16600090815260046020526040812060015482906110e6908590611f5b565b815260200190815260200160002090506000611113886001015483600101546119fc90919063ffffffff16565b9050600061112182886119c4565b90508085111561116457836001546111399190611f5b565b6040516315439c2760e11b815260048101919091526024810186905260448101829052606401610f8e565b8b8360020160008282546111789190611f5b565b92505081905550505050808061118d90611f6e565b9150506110b6565b506004868101546040516340c10f1960e01b81523392810192909252602482018a90526001600160a01b0316906340c10f1990604401600060405180830381600087803b1580156111e557600080fd5b505af11580156111f9573d6000803e3d6000fd5b50505050505050505050505050565b611210611a33565b61121a6000611a60565b565b60088181548110610e5e57600080fd5b611234611a33565b6001600160a01b03858116600081815260056020908152604080832060018082018b9055600282018a905560038083018a905582546001600160a01b03199081168a8a16178455600680548085019091557ff652222313e28459528d920b65115c16c04f3efc82aaedc97be59f3f377c0d3f0180549091168817905560048086528487209254875291909452828520935492516302c68be360e31b8152908101959095529491939116906316345f1890602401602060405180830381865afa158015611304573d6000803e3d6000fd5b505050506040513d601f19601f820116820180604052508101906113289190611fb7565b905061133d8187670de0b6b3a76400006113c5565b825560005b60068110156109f9576000806113618b8885600154610a829190611f5b565b915091505050808061137290611f6e565b915050611342565b60068181548110610e5e57600080fd5b611392611a33565b6001600160a01b0381166113bc57604051631e4fbdf760e01b815260006004820152602401610f8e565b61032c81611a60565b60008383028160001985870982811083820303915050806000036113fc578382816113f2576113f2612008565b0492505050611483565b80841161141c5760405163227bc15360e01b815260040160405180910390fd5b6000848688096000868103871696879004966002600389028118808a02820302808a02820302808a02820302808a02820302808a02820302808a02909103029181900381900460010186841190950394909402919094039290920491909117919091029150505b9392505050565b600080806114ad600c61149e86600a611f5b565b6114a89190612049565b611ab0565b6114cc600c6114bd87600a611f5b565b6114c7919061201e565b611c24565b6040516020016114dd929190612081565b60405160208183030381529060405290506000600260009054906101000a90046001600160a01b03166001600160a01b0316633400987c886001600160a01b03166306fdde036040518163ffffffff1660e01b8152600401600060405180830381865afa158015611552573d6000803e3d6000fd5b505050506040513d6000823e601f3d908101601f1916820160405261157a91908101906120e0565b8460405160200161158c92919061218d565b604051602081830303815290604052896001600160a01b03166395d89b416040518163ffffffff1660e01b8152600401600060405180830381865afa1580156115d9573d6000803e3d6000fd5b505050506040513d6000823e601f3d908101601f1916820160405261160191908101906120e0565b856040516020016116139291906121d2565b6040516020818303038152906040528a89306040518663ffffffff1660e01b8152600401611645959493929190612240565b6020604051808303816000875af1158015611664573d6000803e3d6000fd5b505050506040513d601f19601f820116820180604052508101906116889190611f9a565b90506000600260009054906101000a90046001600160a01b03166001600160a01b031663bc571566896001600160a01b03166306fdde036040518163ffffffff1660e01b8152600401600060405180830381865afa1580156116ee573d6000803e3d6000fd5b505050506040513d6000823e601f3d908101601f1916820160405261171691908101906120e0565b896001600160a01b03166306fdde036040518163ffffffff1660e01b8152600401600060405180830381865afa158015611754573d6000803e3d6000fd5b505050506040513d6000823e601f3d908101601f1916820160405261177c91908101906120e0565b8660405160200161178f93929190612290565b6040516020818303038152906040528a6001600160a01b03166395d89b416040518163ffffffff1660e01b8152600401600060405180830381865afa1580156117dc573d6000803e3d6000fd5b505050506040513d6000823e601f3d908101601f1916820160405261180491908101906120e0565b8a6001600160a01b03166395d89b416040518163ffffffff1660e01b8152600401600060405180830381865afa158015611842573d6000803e3d6000fd5b505050506040513d6000823e601f3d908101601f1916820160405261186a91908101906120e0565b8760405160200161187d939291906122f7565b6040516020818303038152906040528a8a308e6040518763ffffffff1660e01b81526004016118b19695949392919061235a565b6020604051808303816000875af11580156118d0573d6000803e3d6000fd5b505050506040513d601f19601f820116820180604052508101906118f49190611f9a565b6001600160a01b03808a1660009081526004602081815260408084208c8552909152822090810180548785166001600160a01b03199182168117909255600590920180548587169084161781556007805460018181019092557fa66cc928b5edb82af9bd49922954155ab7b0942694bea4ce44661d9a8736c6880180548516909317909255546008805492830181559093527ff3f7a9fe364faab93b216da50a3214154f22a0a2b415b23a84c8169e8b636ee3018054909116919092161790559194509092505050935093915050565b600081156706f05b59d3b2000019839004841115176119e257600080fd5b50670de0b6b3a764000091026706f05b59d3b20000010490565b60008115670de0b6b3a764000060028404190484111715611a1c57600080fd5b50670de0b6b3a76400009190910260028204010490565b6000546001600160a01b0316331461121a5760405163118cdaa760e01b8152336004820152602401610f8e565b600080546001600160a01b038381166001600160a01b0319831681178455604051919092169283917f8be0079c531659141344cd1fd0a4f28419497f9722a3daafe3b4186f6b6457e09190a35050565b604080516101c08101825260036101808201818152622520a760e91b6101a0840152825282518084018452818152622322a160e91b60208281019190915280840191909152835180850185528281526226a0a960e91b8183015283850152835180850185528281526220a82960e91b8183015260608481019190915284518086018652838152624d415960e81b8184015260808501528451808601865283815262252aa760e91b8184015260a0850152845180860186528381526212955360ea1b8184015260c0850152845180860186528381526241554760e81b8184015260e085015284518086018652600481526314d1541560e21b81840152610100850152845180860186528381526213d0d560ea1b8184015261012085015284518086018652838152622727ab60e91b8184015261014085015284518086019095529184526244454360e81b908401526101608201929092528083600c8110611c1857611c18611ff2565b60200201519392505050565b6060611c3a611c35836107e7611f5b565b611c40565b92915050565b606081600003611c675750506040805180820190915260018152600360fc1b602082015290565b8160005b8115611c915780611c7b81611f6e565b9150611c8a9050600a8361201e565b9150611c6b565b60008167ffffffffffffffff811115611cac57611cac6120ca565b6040519080825280601f01601f191660200182016040528015611cd6576020820181803683370190505b509050815b8515611d6357611cec600182611f87565b90506000611cfb600a8861201e565b611d0690600a612032565b611d109088611f87565b611d1b9060306123b3565b905060008160f81b905080848481518110611d3857611d38611ff2565b60200101906001600160f81b031916908160001a905350611d5a600a8961201e565b97505050611cdb565b50949350505050565b604080825283519082018190526000906020906060840190828701845b82811015611dae5781516001600160a01b031684529284019290840190600101611d89565b5050508381038285015284518082528583019183019060005b81811015611dec5783516001600160a01b031683529284019291840191600101611dc7565b5090979650505050505050565b6001600160a01b038116811461032c57600080fd5b600060208284031215611e2057600080fd5b813561148381611df9565b600080600060608486031215611e4057600080fd5b8335611e4b81611df9565b95602085013595506040909401359392505050565b60008060408385031215611e7357600080fd5b8235611e7e81611df9565b946020939093013593505050565b60008060008060808587031215611ea257600080fd5b8435611ead81611df9565b935060208501359250604085013591506060850135611ecb81611df9565b939692955090935050565b600060208284031215611ee857600080fd5b5035919050565b600080600080600060a08688031215611f0757600080fd5b8535611f1281611df9565b94506020860135935060408601359250606086013591506080860135611f3781611df9565b809150509295509295909350565b634e487b7160e01b600052601160045260246000fd5b80820180821115611c3a57611c3a611f45565b600060018201611f8057611f80611f45565b5060010190565b81810381811115611c3a57611c3a611f45565b600060208284031215611fac57600080fd5b815161148381611df9565b600060208284031215611fc957600080fd5b5051919050565b600060208284031215611fe257600080fd5b8151801515811461148357600080fd5b634e487b7160e01b600052603260045260246000fd5b634e487b7160e01b600052601260045260246000fd5b60008261202d5761202d612008565b500490565b8082028115828204841417611c3a57611c3a611f45565b60008261205857612058612008565b500690565b60005b83811015612078578181015183820152602001612060565b50506000910152565b6000600160fd1b808352845161209e81600186016020890161205d565b8084019050816001820152845191506120be82600283016020880161205d565b01600201949350505050565b634e487b7160e01b600052604160045260246000fd5b6000602082840312156120f257600080fd5b815167ffffffffffffffff8082111561210a57600080fd5b818401915084601f83011261211e57600080fd5b815181811115612130576121306120ca565b604051601f8201601f19908116603f01168101908382118183101715612158576121586120ca565b8160405282815287602084870101111561217157600080fd5b61218283602083016020880161205d565b979650505050505050565b66027b83a34b7b7160cd1b8152600083516121af81600785016020880161205d565b8351908301906121c681600784016020880161205d565b01600701949350505050565b63027a82a160e51b8152600083516121f181600485016020880161205d565b83519083019061220881600484016020880161205d565b01600401949350505050565b6000815180845261222c81602086016020860161205d565b601f01601f19169290920160200192915050565b60a08152600061225360a0830188612214565b82810360208401526122658188612214565b6001600160a01b03968716604085015260608401959095525050921660809092019190915292915050565b6702130b1b5b4b733960c51b8152600084516122b381600885016020890161205d565b602d60f81b60089184019182015284516122d481600984016020890161205d565b84519101906122ea81600984016020880161205d565b0160090195945050505050565b6302121a5960e51b81526000845161231681600485016020890161205d565b602d60f81b600491840191820152845161233781600584016020890161205d565b845191019061234d81600584016020880161205d565b0160050195945050505050565b60c08152600061236d60c0830189612214565b828103602084015261237f8189612214565b6001600160a01b03978816604085015260608401969096525050918416608083015290921660a09092019190915292915050565b60ff8181168382160190811115611c3a57611c3a611f4556fea26469706673582212205e0e7e2763edf6e0e259d6d1dd1bb5eb28b491c15484343f003671dd277e380664736f6c63430008150033",
    "linkReferences": {}
  },
  "methodIdentifiers": {
    "MAX_EPOCH_DURATION()": "4f17a2fa",
    "allBackingTokens(uint256)": "a4dedb9e",
    "allOptionTokens(uint256)": "4ce931ae",
    "allStabilanTokens()": "0028b6ef",
    "assetsConfig(address)": "0cc50a57",
    "backing(address,uint256,uint256)": "107fa8a5",
    "buyOptions(address,uint256,uint256)": "4e44b4bf",
    "claimBackingRewards(address)": "8e7370ff",
    "currentEpoch()": "76671808",
    "executeOptions(address,uint256)": "2b0f9a16",
    "getAssetAPY(address)": "aefa7e4c",
    "getOptionsPrice(address,uint256,uint256,address)": "3f1deebb",
    "getYearlyCost(address,uint256,uint256,address)": "3ad6da80",
    "owner()": "8da5cb5b",
    "priceFeedAggregator()": "a20b8b4e",
    "renounceOwnership()": "715018a6",
    "setupAsset(address,uint256,uint256,uint256,address)": "bca9e918",
    "supportedAssets(uint256)": "c68dbb37",
    "tokenFactory()": "e77772fe",
    "transferOwnership(address)": "f2fde38b",
    "updateEpoch()": "36f4fb02"
  },
  "id": 26
}