{
  "abi": [
    {
      "inputs": [
        {
          "internalType": "contract ITokenFactory",
          "name": "_tokenFactory",
          "type": "address"
        },
        {
          "internalType": "contract IPriceFeedAggregator",
          "name": "_priceFeedAggregator",
          "type": "address"
        },
        {
          "internalType": "address",
          "name": "_owner",
          "type": "address"
        }
      ],
      "stateMutability": "nonpayable",
      "type": "constructor"
    },
    {
      "inputs": [],
      "name": "CannotExecute",
      "type": "error"
    },
    {
      "inputs": [],
      "name": "MathOverflowedMulDiv",
      "type": "error"
    },
    {
      "inputs": [
        {
          "internalType": "uint256",
          "name": "inEpochId",
          "type": "uint256"
        },
        {
          "internalType": "uint256",
          "name": "insuringAssetValue",
          "type": "uint256"
        },
        {
          "internalType": "uint256",
          "name": "totalAvailableCollateralUSD",
          "type": "uint256"
        }
      ],
      "name": "NotEnoughBacking",
      "type": "error"
    },
    {
      "inputs": [
        {
          "internalType": "uint256",
          "name": "msgValue",
          "type": "uint256"
        },
        {
          "internalType": "uint256",
          "name": "optionsPrice",
          "type": "uint256"
        }
      ],
      "name": "NotEnoughETHSent",
      "type": "error"
    },
    {
      "inputs": [
        {
          "internalType": "address",
          "name": "owner",
          "type": "address"
        }
      ],
      "name": "OwnableInvalidOwner",
      "type": "error"
    },
    {
      "inputs": [
        {
          "internalType": "address",
          "name": "account",
          "type": "address"
        }
      ],
      "name": "OwnableUnauthorizedAccount",
      "type": "error"
    },
    {
      "anonymous": false,
      "inputs": [
        {
          "indexed": true,
          "internalType": "address",
          "name": "previousOwner",
          "type": "address"
        },
        {
          "indexed": true,
          "internalType": "address",
          "name": "newOwner",
          "type": "address"
        }
      ],
      "name": "OwnershipTransferred",
      "type": "event"
    },
    {
      "inputs": [],
      "name": "MAX_EPOCH_DURATION",
      "outputs": [
        {
          "internalType": "uint256",
          "name": "",
          "type": "uint256"
        }
      ],
      "stateMutability": "view",
      "type": "function"
    },
    {
      "inputs": [
        {
          "internalType": "uint256",
          "name": "",
          "type": "uint256"
        }
      ],
      "name": "allBackingTokens",
      "outputs": [
        {
          "internalType": "contract IBackingToken",
          "name": "",
          "type": "address"
        }
      ],
      "stateMutability": "view",
      "type": "function"
    },
    {
      "inputs": [
        {
          "internalType": "uint256",
          "name": "",
          "type": "uint256"
        }
      ],
      "name": "allOptionTokens",
      "outputs": [
        {
          "internalType": "contract IOptionToken",
          "name": "",
          "type": "address"
        }
      ],
      "stateMutability": "view",
      "type": "function"
    },
    {
      "inputs": [],
      "name": "allStabilanTokens",
      "outputs": [
        {
          "internalType": "contract IOptionToken[]",
          "name": "",
          "type": "address[]"
        },
        {
          "internalType": "contract IBackingToken[]",
          "name": "",
          "type": "address[]"
        }
      ],
      "stateMutability": "view",
      "type": "function"
    },
    {
      "inputs": [
        {
          "internalType": "address",
          "name": "",
          "type": "address"
        }
      ],
      "name": "assetsConfig",
      "outputs": [
        {
          "internalType": "address",
          "name": "collateralAsset",
          "type": "address"
        },
        {
          "internalType": "uint256",
          "name": "collateralRatio",
          "type": "uint256"
        },
        {
          "internalType": "uint256",
          "name": "strikePricePercent",
          "type": "uint256"
        },
        {
          "internalType": "uint256",
          "name": "expectedApy",
          "type": "uint256"
        }
      ],
      "stateMutability": "view",
      "type": "function"
    },
    {
      "inputs": [
        {
          "internalType": "address",
          "name": "assetAddress",
          "type": "address"
        },
        {
          "internalType": "uint256",
          "name": "amount",
          "type": "uint256"
        },
        {
          "internalType": "uint256",
          "name": "durationEpochs",
          "type": "uint256"
        }
      ],
      "name": "backing",
      "outputs": [],
      "stateMutability": "nonpayable",
      "type": "function"
    },
    {
      "inputs": [
        {
          "internalType": "address",
          "name": "assetAddress",
          "type": "address"
        },
        {
          "internalType": "uint256",
          "name": "amount",
          "type": "uint256"
        },
        {
          "internalType": "uint256",
          "name": "durationEpochs",
          "type": "uint256"
        }
      ],
      "name": "buyOptions",
      "outputs": [],
      "stateMutability": "nonpayable",
      "type": "function"
    },
    {
      "inputs": [
        {
          "internalType": "address",
          "name": "backingToken",
          "type": "address"
        }
      ],
      "name": "claimBackingRewards",
      "outputs": [],
      "stateMutability": "nonpayable",
      "type": "function"
    },
    {
      "inputs": [],
      "name": "currentEpoch",
      "outputs": [
        {
          "internalType": "uint256",
          "name": "",
          "type": "uint256"
        }
      ],
      "stateMutability": "view",
      "type": "function"
    },
    {
      "inputs": [
        {
          "internalType": "contract IOptionToken",
          "name": "option",
          "type": "address"
        },
        {
          "internalType": "uint256",
          "name": "amount",
          "type": "uint256"
        }
      ],
      "name": "executeOptions",
      "outputs": [],
      "stateMutability": "nonpayable",
      "type": "function"
    },
    {
      "inputs": [
        {
          "internalType": "address",
          "name": "assetAddress",
          "type": "address"
        }
      ],
      "name": "getAssetAPY",
      "outputs": [
        {
          "internalType": "uint256",
          "name": "",
          "type": "uint256"
        }
      ],
      "stateMutability": "view",
      "type": "function"
    },
    {
      "inputs": [
        {
          "internalType": "address",
          "name": "assetAddress",
          "type": "address"
        },
        {
          "internalType": "uint256",
          "name": "amount",
          "type": "uint256"
        },
        {
          "internalType": "uint256",
          "name": "durationEpochs",
          "type": "uint256"
        },
        {
          "internalType": "address",
          "name": "payingToken",
          "type": "address"
        }
      ],
      "name": "getOptionsPrice",
      "outputs": [
        {
          "internalType": "uint256",
          "name": "totalCost",
          "type": "uint256"
        },
        {
          "internalType": "uint256[]",
          "name": "epochCosts",
          "type": "uint256[]"
        }
      ],
      "stateMutability": "view",
      "type": "function"
    },
    {
      "inputs": [],
      "name": "owner",
      "outputs": [
        {
          "internalType": "address",
          "name": "",
          "type": "address"
        }
      ],
      "stateMutability": "view",
      "type": "function"
    },
    {
      "inputs": [],
      "name": "priceFeedAggregator",
      "outputs": [
        {
          "internalType": "contract IPriceFeedAggregator",
          "name": "",
          "type": "address"
        }
      ],
      "stateMutability": "view",
      "type": "function"
    },
    {
      "inputs": [],
      "name": "renounceOwnership",
      "outputs": [],
      "stateMutability": "nonpayable",
      "type": "function"
    },
    {
      "inputs": [
        {
          "internalType": "address",
          "name": "assetAddress",
          "type": "address"
        },
        {
          "internalType": "uint256",
          "name": "collateralRatio",
          "type": "uint256"
        },
        {
          "internalType": "uint256",
          "name": "strikePricePercent",
          "type": "uint256"
        },
        {
          "internalType": "uint256",
          "name": "expectedApy",
          "type": "uint256"
        },
        {
          "internalType": "address",
          "name": "collateralAddress",
          "type": "address"
        }
      ],
      "name": "setupAsset",
      "outputs": [],
      "stateMutability": "nonpayable",
      "type": "function"
    },
    {
      "inputs": [
        {
          "internalType": "uint256",
          "name": "",
          "type": "uint256"
        }
      ],
      "name": "supportedAssets",
      "outputs": [
        {
          "internalType": "address",
          "name": "",
          "type": "address"
        }
      ],
      "stateMutability": "view",
      "type": "function"
    },
    {
      "inputs": [],
      "name": "tokenFactory",
      "outputs": [
        {
          "internalType": "contract ITokenFactory",
          "name": "",
          "type": "address"
        }
      ],
      "stateMutability": "view",
      "type": "function"
    },
    {
      "inputs": [
        {
          "internalType": "address",
          "name": "newOwner",
          "type": "address"
        }
      ],
      "name": "transferOwnership",
      "outputs": [],
      "stateMutability": "nonpayable",
      "type": "function"
    },
    {
      "inputs": [],
      "name": "updateEpoch",
      "outputs": [],
      "stateMutability": "nonpayable",
      "type": "function"
    }
  ],
  "bytecode": {
    "object": "0x60806040523480156200001157600080fd5b506040516200254e3803806200254e833981016040819052620000349162000110565b806001600160a01b0381166200006457604051631e4fbdf760e01b81526000600482015260240160405180910390fd5b6200006f81620000a7565b5050600280546001600160a01b039384166001600160a01b031991821617909155600380549290931691161790556001805562000164565b600080546001600160a01b038381166001600160a01b0319831681178455604051919092169283917f8be0079c531659141344cd1fd0a4f28419497f9722a3daafe3b4186f6b6457e09190a35050565b6001600160a01b03811681146200010d57600080fd5b50565b6000806000606084860312156200012657600080fd5b83516200013381620000f7565b60208501519093506200014681620000f7565b60408501519092506200015981620000f7565b809150509250925092565b6123da80620001746000396000f3fe608060405234801561001057600080fd5b506004361061012b5760003560e01c806376671808116100ad578063aefa7e4c11610071578063aefa7e4c146102b6578063bca9e918146102e2578063c68dbb37146102f5578063e77772fe14610308578063f2fde38b1461031b57600080fd5b806376671808146102655780638da5cb5b1461026e5780638e7370ff1461027f578063a20b8b4e14610290578063a4dedb9e146102a357600080fd5b80633f1deebb116100f45780633f1deebb146101e85780634ce931ae146102095780634e44b4bf146102345780634f17a2fa14610247578063715018a61461025d57600080fd5b806228b6ef146101305780630cc50a571461014f578063107fa8a5146101b85780632b0f9a16146101cd57806336f4fb02146101e0575b600080fd5b61013861032e565b604051610146929190611d03565b60405180910390f35b61018e61015d366004611da5565b60056020526000908152604090208054600182015460028301546003909301546001600160a01b0390921692909184565b604080516001600160a01b0390951685526020850193909352918301526060820152608001610146565b6101cb6101c6366004611dc2565b6103f5565b005b6101cb6101db366004611df7565b6105ab565b6101cb610990565b6101fb6101f6366004611e23565b610ae4565b604051610146929190611e6d565b61021c610217366004611eae565b610d48565b6040516001600160a01b039091168152602001610146565b6101cb610242366004611dc2565b610d72565b61024f600681565b604051908152602001610146565b6101cb61119e565b61024f60015481565b6000546001600160a01b031661021c565b6101cb61028d366004611da5565b50565b60035461021c906001600160a01b031681565b61021c6102b1366004611eae565b6111b2565b61024f6102c4366004611da5565b6001600160a01b031660009081526005602052604090206003015490565b6101cb6102f0366004611ec7565b6111c2565b61021c610303366004611eae565b611310565b60025461021c906001600160a01b031681565b6101cb610329366004611da5565b611320565b606080600760088180548060200260200160405190810160405280929190818152602001828054801561038a57602002820191906000526020600020905b81546001600160a01b0316815260019091019060200180831161036c575b50505050509150808054806020026020016040519081016040528092919081815260200182805480156103e657602002820191906000526020600020905b81546001600160a01b031681526001909101906020018083116103c8575b50505050509050915091509091565b6001600160a01b0383811660009081526005602052604090819020805491516323b872dd60e01b815233600482015230602482015260448101869052909291909116906323b872dd906064016020604051808303816000875af1158015610460573d6000803e3d6000fd5b505050506040513d601f19601f820116820180604052508101906104849190611f1d565b5060005b828110156104f6576001600160a01b038516600090815260046020526040812060015482906104b8908590611f55565b81526020019081526020016000209050848160010160008282546104dc9190611f55565b909155508291506104ee905081611f68565b915050610488565b506001600160a01b038416600090815260046020526040812060018054839190610521908790611f55565b61052b9190611f81565b8152602081019190915260409081016000206006015490516340c10f1960e01b8152336004820152602481018690526001600160a01b03909116915081906340c10f1990604401600060405180830381600087803b15801561058c57600080fd5b505af11580156105a0573d6000803e3d6000fd5b505050505050505050565b6000826001600160a01b0316636f307dc36040518163ffffffff1660e01b8152600401602060405180830381865afa1580156105eb573d6000803e3d6000fd5b505050506040513d601f19601f8201168201806040525081019061060f9190611f94565b6003546040516302c68be360e31b81526001600160a01b038084166004830152929350600092909116906316345f1890602401602060405180830381865afa15801561065f573d6000803e3d6000fd5b505050506040513d601f19601f820116820180604052508101906106839190611fb1565b6001600160a01b0383166000908152600460209081526040808320600154845290915290208054919250908210156106ce576040516377672d9360e11b815260040160405180910390fd5b600681015460408051636f307dc360e01b815290516000926001600160a01b031691636f307dc39160048083019260209291908290030181865afa15801561071a573d6000803e3d6000fd5b505050506040513d601f19601f8201168201806040525081019061073e9190611f94565b6003546040516302c68be360e31b81526001600160a01b038084166004830152929350600092909116906316345f1890602401602060405180830381865afa15801561078e573d6000803e3d6000fd5b505050506040513d601f19601f820116820180604052508101906107b29190611fb1565b905060006107c58785600001548461135b565b6001549091505b886001600160a01b0316630b9663db6040518163ffffffff1660e01b8152600401602060405180830381865afa15801561080a573d6000803e3d6000fd5b505050506040513d601f19601f8201168201806040525081019061082e9190611fb1565b8110156108be576001600160a01b0387166000908152600460209081526040808320848452909152812060020180548a929061086b908490611f81565b90915550506001600160a01b0387166000908152600460209081526040808320848452909152812060010180548492906108a6908490611f81565b909155508190506108b681611f68565b9150506107cc565b50604051632770a7eb60e21b8152336004820152602481018890526001600160a01b03891690639dc29fac90604401600060405180830381600087803b15801561090757600080fd5b505af115801561091b573d6000803e3d6000fd5b505060405163a9059cbb60e01b8152336004820152602481018490526001600160a01b038616925063a9059cbb91506044016020604051808303816000875af115801561096c573d6000803e3d6000fd5b505050506040513d601f19601f820116820180604052508101906105a09190611f1d565b600180549060006109a083611f68565b919050555060005b60065481101561028d576000600682815481106109c7576109c7611fca565b60009182526020808320909101546001600160a01b0390811680845260059092526040832080546001549395509093928392610a13928792911690610a0e90600690611f55565b611420565b6003546040516302c68be360e31b81526001600160a01b03888116600483015293955091935060009216906316345f1890602401602060405180830381865afa158015610a64573d6000803e3d6000fd5b505050506040513d601f19601f82011682018060405250810190610a889190611fb1565b9050610aa184600201548261195b90919063ffffffff16565b6001600160a01b039095166000908152600460209081526040808320600154845290915290209490945550839250610adc9150829050611f68565b9150506109a8565b6001600160a01b03808516600090815260056020908152604080832060048084528285206001548652845282852060035460068201548551636f307dc360e01b815295519798606098959793968a96938216956316345f18959390921693636f307dc3938284019390928290030181865afa158015610b67573d6000803e3d6000fd5b505050506040513d601f19601f82011682018060405250810190610b8b9190611f94565b6040516001600160e01b031960e084901b1681526001600160a01b039091166004820152602401602060405180830381865afa158015610bcf573d6000803e3d6000fd5b505050506040513d601f19601f82011682018060405250810190610bf39190611fb1565b905060005b87811015610d3b576001600160a01b038a1660009081526004602052604081206001548290610c28908590611f55565b815260200190815260200160002090506000610c5885600001548c8460020154610c529190611f55565b9061195b565b90506000610c7385846001015461195b90919063ffffffff16565b90506000610c988860010154610c92848661199390919063ffffffff16565b90611993565b90506000600c610cb78f610c528c60030154866002610c529190611fe0565b610cc1919061200d565b9050610cde87610c928a600001548461195b90919063ffffffff16565b8a8781518110610cf057610cf0611fca565b602002602001018181525050898681518110610d0e57610d0e611fca565b60200260200101518b610d219190611f55565b9a5050505050508080610d3390611f68565b915050610bf8565b5050505094509492505050565b60078181548110610d5857600080fd5b6000918252602090912001546001600160a01b0316905081565b6001600160a01b038316600090815260046020526040812060018054839190610d9c908690611f55565b610da69190611f81565b8152602080820192909252604090810160009081206001600160a01b0380891683526005855283832060068301548551636f307dc360e01b81529551939750909593948594610e41948c948c948c94911692636f307dc3926004808401938290030181865afa158015610e1d573d6000803e3d6000fd5b505050506040513d601f19601f820116820180604052508101906101f69190611f94565b84546040516323b872dd60e01b8152336004820152306024820152604481018490529294509092506001600160a01b0316906323b872dd906064016020604051808303816000875af1158015610e9b573d6000803e3d6000fd5b505050506040513d601f19601f82011682018060405250810190610ebf9190611f1d565b50600354600685015460408051636f307dc360e01b815290516000936001600160a01b03908116936316345f1893911691636f307dc3916004808201926020929091908290030181865afa158015610f1b573d6000803e3d6000fd5b505050506040513d601f19601f82011682018060405250810190610f3f9190611f94565b6040516001600160e01b031960e084901b1681526001600160a01b039091166004820152602401602060405180830381865afa158015610f83573d6000803e3d6000fd5b505050506040513d601f19601f82011682018060405250810190610fa79190611fb1565b6001600160a01b03891660009081526004602090815260408083206001548452909152812054919250610fda898361195b565b905060005b8881101561112b576001600160a01b038b166000908152600460205260408120600154829061100f908590611f55565b81526020019081526020016000209050600061103c8960010154836001015461199390919063ffffffff16565b9050600061104a828861195b565b90508085111561109257836001546110629190611f55565b6040516315439c2760e11b8152600481019190915260248101869052604481018290526064015b60405180910390fd5b8c8360020160008282546110a69190611f55565b925050819055508784815181106110bf576110bf611fca565b60200260200101518360040160008282546110da9190611f55565b925050819055508784815181106110f3576110f3611fca565b602002602001015183600101600082825461110e9190611f55565b92505081905550505050808061112390611f68565b915050610fdf565b5060058701546040516340c10f1960e01b8152336004820152602481018b90526001600160a01b03909116906340c10f1990604401600060405180830381600087803b15801561117a57600080fd5b505af115801561118e573d6000803e3d6000fd5b5050505050505050505050505050565b6111a66119ca565b6111b060006119f7565b565b60088181548110610d5857600080fd5b6111ca6119ca565b6001600160a01b03858116600081815260056020908152604080832060018082018b9055600282018a905560038083018a905582546001600160a01b03199081168a8a16178455600680548085019091557ff652222313e28459528d920b65115c16c04f3efc82aaedc97be59f3f377c0d3f0180549091168817905560048086528487209254875291909452828520935492516302c68be360e31b8152908101959095529491939116906316345f1890602401602060405180830381865afa15801561129a573d6000803e3d6000fd5b505050506040513d601f19601f820116820180604052508101906112be9190611fb1565b90506112d38187670de0b6b3a764000061135b565b825560005b60068110156105a0576000806112f78b8885600154610a0e9190611f55565b915091505050808061130890611f68565b9150506112d8565b60068181548110610d5857600080fd5b6113286119ca565b6001600160a01b03811661135257604051631e4fbdf760e01b815260006004820152602401611089565b61028d816119f7565b60008383028160001985870982811083820303915050806000036113925783828161138857611388611ff7565b0492505050611419565b8084116113b25760405163227bc15360e01b815260040160405180910390fd5b6000848688096000868103871696879004966002600389028118808a02820302808a02820302808a02820302808a02820302808a02820302808a02909103029181900381900460010186841190950394909402919094039290920491909117919091029150505b9392505050565b60008080611443600c61143486600a611f55565b61143e9190612021565b611a47565b611462600c61145387600a611f55565b61145d919061200d565b611bbb565b604051602001611473929190612059565b60405160208183030381529060405290506000600260009054906101000a90046001600160a01b03166001600160a01b0316633400987c886001600160a01b03166306fdde036040518163ffffffff1660e01b8152600401600060405180830381865afa1580156114e8573d6000803e3d6000fd5b505050506040513d6000823e601f3d908101601f1916820160405261151091908101906120b8565b84604051602001611522929190612165565b604051602081830303815290604052896001600160a01b03166395d89b416040518163ffffffff1660e01b8152600401600060405180830381865afa15801561156f573d6000803e3d6000fd5b505050506040513d6000823e601f3d908101601f1916820160405261159791908101906120b8565b856040516020016115a99291906121aa565b6040516020818303038152906040528a89306040518663ffffffff1660e01b81526004016115db959493929190612218565b6020604051808303816000875af11580156115fa573d6000803e3d6000fd5b505050506040513d601f19601f8201168201806040525081019061161e9190611f94565b90506000600260009054906101000a90046001600160a01b03166001600160a01b031663bc571566896001600160a01b03166306fdde036040518163ffffffff1660e01b8152600401600060405180830381865afa158015611684573d6000803e3d6000fd5b505050506040513d6000823e601f3d908101601f191682016040526116ac91908101906120b8565b896001600160a01b03166306fdde036040518163ffffffff1660e01b8152600401600060405180830381865afa1580156116ea573d6000803e3d6000fd5b505050506040513d6000823e601f3d908101601f1916820160405261171291908101906120b8565b8660405160200161172593929190612268565b6040516020818303038152906040528a6001600160a01b03166395d89b416040518163ffffffff1660e01b8152600401600060405180830381865afa158015611772573d6000803e3d6000fd5b505050506040513d6000823e601f3d908101601f1916820160405261179a91908101906120b8565b8a6001600160a01b03166395d89b416040518163ffffffff1660e01b8152600401600060405180830381865afa1580156117d8573d6000803e3d6000fd5b505050506040513d6000823e601f3d908101601f1916820160405261180091908101906120b8565b87604051602001611813939291906122cf565b6040516020818303038152906040528a8a308e6040518763ffffffff1660e01b815260040161184796959493929190612332565b6020604051808303816000875af1158015611866573d6000803e3d6000fd5b505050506040513d601f19601f8201168201806040525081019061188a9190611f94565b6001600160a01b03808a1660009081526004602090815260408083208b845290915281206005810180548785166001600160a01b03199182168117909255600690920180548587169084161781556007805460018181019092557fa66cc928b5edb82af9bd49922954155ab7b0942694bea4ce44661d9a8736c6880180548516909317909255546008805492830181559093527ff3f7a9fe364faab93b216da50a3214154f22a0a2b415b23a84c8169e8b636ee3018054909116919092161790559194509092505050935093915050565b600081156706f05b59d3b20000198390048411151761197957600080fd5b50670de0b6b3a764000091026706f05b59d3b20000010490565b60008115670de0b6b3a7640000600284041904841117156119b357600080fd5b50670de0b6b3a76400009190910260028204010490565b6000546001600160a01b031633146111b05760405163118cdaa760e01b8152336004820152602401611089565b600080546001600160a01b038381166001600160a01b0319831681178455604051919092169283917f8be0079c531659141344cd1fd0a4f28419497f9722a3daafe3b4186f6b6457e09190a35050565b604080516101c08101825260036101808201818152622520a760e91b6101a0840152825282518084018452818152622322a160e91b60208281019190915280840191909152835180850185528281526226a0a960e91b8183015283850152835180850185528281526220a82960e91b8183015260608481019190915284518086018652838152624d415960e81b8184015260808501528451808601865283815262252aa760e91b8184015260a0850152845180860186528381526212955360ea1b8184015260c0850152845180860186528381526241554760e81b8184015260e085015284518086018652600481526314d1541560e21b81840152610100850152845180860186528381526213d0d560ea1b8184015261012085015284518086018652838152622727ab60e91b8184015261014085015284518086019095529184526244454360e81b908401526101608201929092528083600c8110611baf57611baf611fca565b60200201519392505050565b6060611bd1611bcc836107e7611f55565b611bd7565b92915050565b606081600003611bfe5750506040805180820190915260018152600360fc1b602082015290565b8160005b8115611c285780611c1281611f68565b9150611c219050600a8361200d565b9150611c02565b60008167ffffffffffffffff811115611c4357611c436120a2565b6040519080825280601f01601f191660200182016040528015611c6d576020820181803683370190505b509050815b8515611cfa57611c83600182611f81565b90506000611c92600a8861200d565b611c9d90600a611fe0565b611ca79088611f81565b611cb290603061238b565b905060008160f81b905080848481518110611ccf57611ccf611fca565b60200101906001600160f81b031916908160001a905350611cf1600a8961200d565b97505050611c72565b50949350505050565b604080825283519082018190526000906020906060840190828701845b82811015611d455781516001600160a01b031684529284019290840190600101611d20565b5050508381038285015284518082528583019183019060005b81811015611d835783516001600160a01b031683529284019291840191600101611d5e565b5090979650505050505050565b6001600160a01b038116811461028d57600080fd5b600060208284031215611db757600080fd5b813561141981611d90565b600080600060608486031215611dd757600080fd5b8335611de281611d90565b95602085013595506040909401359392505050565b60008060408385031215611e0a57600080fd5b8235611e1581611d90565b946020939093013593505050565b60008060008060808587031215611e3957600080fd5b8435611e4481611d90565b935060208501359250604085013591506060850135611e6281611d90565b939692955090935050565b6000604082018483526020604081850152818551808452606086019150828701935060005b81811015611d8357845183529383019391830191600101611e92565b600060208284031215611ec057600080fd5b5035919050565b600080600080600060a08688031215611edf57600080fd5b8535611eea81611d90565b94506020860135935060408601359250606086013591506080860135611f0f81611d90565b809150509295509295909350565b600060208284031215611f2f57600080fd5b8151801515811461141957600080fd5b634e487b7160e01b600052601160045260246000fd5b80820180821115611bd157611bd1611f3f565b600060018201611f7a57611f7a611f3f565b5060010190565b81810381811115611bd157611bd1611f3f565b600060208284031215611fa657600080fd5b815161141981611d90565b600060208284031215611fc357600080fd5b5051919050565b634e487b7160e01b600052603260045260246000fd5b8082028115828204841417611bd157611bd1611f3f565b634e487b7160e01b600052601260045260246000fd5b60008261201c5761201c611ff7565b500490565b60008261203057612030611ff7565b500690565b60005b83811015612050578181015183820152602001612038565b50506000910152565b6000600160fd1b8083528451612076816001860160208901612035565b808401905081600182015284519150612096826002830160208801612035565b01600201949350505050565b634e487b7160e01b600052604160045260246000fd5b6000602082840312156120ca57600080fd5b815167ffffffffffffffff808211156120e257600080fd5b818401915084601f8301126120f657600080fd5b815181811115612108576121086120a2565b604051601f8201601f19908116603f01168101908382118183101715612130576121306120a2565b8160405282815287602084870101111561214957600080fd5b61215a836020830160208801612035565b979650505050505050565b66027b83a34b7b7160cd1b815260008351612187816007850160208801612035565b83519083019061219e816007840160208801612035565b01600701949350505050565b63027a82a160e51b8152600083516121c9816004850160208801612035565b8351908301906121e0816004840160208801612035565b01600401949350505050565b60008151808452612204816020860160208601612035565b601f01601f19169290920160200192915050565b60a08152600061222b60a08301886121ec565b828103602084015261223d81886121ec565b6001600160a01b03968716604085015260608401959095525050921660809092019190915292915050565b6702130b1b5b4b733960c51b81526000845161228b816008850160208901612035565b602d60f81b60089184019182015284516122ac816009840160208901612035565b84519101906122c2816009840160208801612035565b0160090195945050505050565b6302121a5960e51b8152600084516122ee816004850160208901612035565b602d60f81b600491840191820152845161230f816005840160208901612035565b8451910190612325816005840160208801612035565b0160050195945050505050565b60c08152600061234560c08301896121ec565b828103602084015261235781896121ec565b6001600160a01b03978816604085015260608401969096525050918416608083015290921660a09092019190915292915050565b60ff8181168382160190811115611bd157611bd1611f3f56fea26469706673582212209b70d8cd99d62dea902ee2b03b1206fa26369472ac827b5a4723eacf2ad288e464736f6c63430008150033",
    "linkReferences": {}
  },
  "methodIdentifiers": {
    "MAX_EPOCH_DURATION()": "4f17a2fa",
    "allBackingTokens(uint256)": "a4dedb9e",
    "allOptionTokens(uint256)": "4ce931ae",
    "allStabilanTokens()": "0028b6ef",
    "assetsConfig(address)": "0cc50a57",
    "backing(address,uint256,uint256)": "107fa8a5",
    "buyOptions(address,uint256,uint256)": "4e44b4bf",
    "claimBackingRewards(address)": "8e7370ff",
    "currentEpoch()": "76671808",
    "executeOptions(address,uint256)": "2b0f9a16",
    "getAssetAPY(address)": "aefa7e4c",
    "getOptionsPrice(address,uint256,uint256,address)": "3f1deebb",
    "owner()": "8da5cb5b",
    "priceFeedAggregator()": "a20b8b4e",
    "renounceOwnership()": "715018a6",
    "setupAsset(address,uint256,uint256,uint256,address)": "bca9e918",
    "supportedAssets(uint256)": "c68dbb37",
    "tokenFactory()": "e77772fe",
    "transferOwnership(address)": "f2fde38b",
    "updateEpoch()": "36f4fb02"
  },
  "id": 27
}