{
  "abi": [
    {
      "inputs": [
        {
          "internalType": "contract ITokenFactory",
          "name": "_tokenFactory",
          "type": "address"
        },
        {
          "internalType": "contract IPriceFeedAggregator",
          "name": "_priceFeedAggregator",
          "type": "address"
        },
        {
          "internalType": "address",
          "name": "_owner",
          "type": "address"
        }
      ],
      "stateMutability": "nonpayable",
      "type": "constructor"
    },
    {
      "inputs": [],
      "name": "CannotExecute",
      "type": "error"
    },
    {
      "inputs": [],
      "name": "MathOverflowedMulDiv",
      "type": "error"
    },
    {
      "inputs": [
        {
          "internalType": "uint256",
          "name": "inEpochId",
          "type": "uint256"
        },
        {
          "internalType": "uint256",
          "name": "insuringAssetValue",
          "type": "uint256"
        },
        {
          "internalType": "uint256",
          "name": "totalAvailableCollateralUSD",
          "type": "uint256"
        }
      ],
      "name": "NotEnoughBacking",
      "type": "error"
    },
    {
      "inputs": [
        {
          "internalType": "uint256",
          "name": "msgValue",
          "type": "uint256"
        },
        {
          "internalType": "uint256",
          "name": "optionsPrice",
          "type": "uint256"
        }
      ],
      "name": "NotEnoughETHSent",
      "type": "error"
    },
    {
      "inputs": [
        {
          "internalType": "address",
          "name": "owner",
          "type": "address"
        }
      ],
      "name": "OwnableInvalidOwner",
      "type": "error"
    },
    {
      "inputs": [
        {
          "internalType": "address",
          "name": "account",
          "type": "address"
        }
      ],
      "name": "OwnableUnauthorizedAccount",
      "type": "error"
    },
    {
      "anonymous": false,
      "inputs": [
        {
          "indexed": true,
          "internalType": "address",
          "name": "previousOwner",
          "type": "address"
        },
        {
          "indexed": true,
          "internalType": "address",
          "name": "newOwner",
          "type": "address"
        }
      ],
      "name": "OwnershipTransferred",
      "type": "event"
    },
    {
      "inputs": [],
      "name": "MAX_EPOCH_DURATION",
      "outputs": [
        {
          "internalType": "uint256",
          "name": "",
          "type": "uint256"
        }
      ],
      "stateMutability": "view",
      "type": "function"
    },
    {
      "inputs": [
        {
          "internalType": "uint256",
          "name": "",
          "type": "uint256"
        }
      ],
      "name": "allBackingTokens",
      "outputs": [
        {
          "internalType": "contract IBackingToken",
          "name": "",
          "type": "address"
        }
      ],
      "stateMutability": "view",
      "type": "function"
    },
    {
      "inputs": [
        {
          "internalType": "uint256",
          "name": "",
          "type": "uint256"
        }
      ],
      "name": "allOptionTokens",
      "outputs": [
        {
          "internalType": "contract IOptionToken",
          "name": "",
          "type": "address"
        }
      ],
      "stateMutability": "view",
      "type": "function"
    },
    {
      "inputs": [],
      "name": "allStabilanTokens",
      "outputs": [
        {
          "internalType": "contract IOptionToken[]",
          "name": "",
          "type": "address[]"
        },
        {
          "internalType": "contract IBackingToken[]",
          "name": "",
          "type": "address[]"
        }
      ],
      "stateMutability": "view",
      "type": "function"
    },
    {
      "inputs": [
        {
          "internalType": "address",
          "name": "",
          "type": "address"
        }
      ],
      "name": "assetsConfig",
      "outputs": [
        {
          "internalType": "address",
          "name": "collateralAsset",
          "type": "address"
        },
        {
          "internalType": "uint256",
          "name": "collateralRatio",
          "type": "uint256"
        },
        {
          "internalType": "uint256",
          "name": "strikePricePercent",
          "type": "uint256"
        },
        {
          "internalType": "uint256",
          "name": "expectedApy",
          "type": "uint256"
        }
      ],
      "stateMutability": "view",
      "type": "function"
    },
    {
      "inputs": [
        {
          "internalType": "address",
          "name": "",
          "type": "address"
        },
        {
          "internalType": "uint256",
          "name": "",
          "type": "uint256"
        }
      ],
      "name": "assetsData",
      "outputs": [
        {
          "internalType": "uint256",
          "name": "strikePrice",
          "type": "uint256"
        },
        {
          "internalType": "uint256",
          "name": "collateralAmount",
          "type": "uint256"
        },
        {
          "internalType": "uint256",
          "name": "reservedAmount",
          "type": "uint256"
        },
        {
          "internalType": "uint256",
          "name": "activeUntilTimestamp",
          "type": "uint256"
        },
        {
          "internalType": "uint256",
          "name": "totalPremium",
          "type": "uint256"
        },
        {
          "internalType": "contract IOptionToken",
          "name": "optionToken",
          "type": "address"
        },
        {
          "internalType": "contract IBackingToken",
          "name": "backingToken",
          "type": "address"
        }
      ],
      "stateMutability": "view",
      "type": "function"
    },
    {
      "inputs": [
        {
          "internalType": "address",
          "name": "assetAddress",
          "type": "address"
        },
        {
          "internalType": "uint256",
          "name": "amount",
          "type": "uint256"
        },
        {
          "internalType": "uint256",
          "name": "durationEpochs",
          "type": "uint256"
        }
      ],
      "name": "backing",
      "outputs": [],
      "stateMutability": "nonpayable",
      "type": "function"
    },
    {
      "inputs": [
        {
          "internalType": "address",
          "name": "assetAddress",
          "type": "address"
        },
        {
          "internalType": "uint256",
          "name": "amount",
          "type": "uint256"
        },
        {
          "internalType": "uint256",
          "name": "durationEpochs",
          "type": "uint256"
        }
      ],
      "name": "buyOptions",
      "outputs": [],
      "stateMutability": "nonpayable",
      "type": "function"
    },
    {
      "inputs": [
        {
          "internalType": "address",
          "name": "backingToken",
          "type": "address"
        }
      ],
      "name": "claimBackingRewards",
      "outputs": [],
      "stateMutability": "nonpayable",
      "type": "function"
    },
    {
      "inputs": [],
      "name": "currentEpoch",
      "outputs": [
        {
          "internalType": "uint256",
          "name": "",
          "type": "uint256"
        }
      ],
      "stateMutability": "view",
      "type": "function"
    },
    {
      "inputs": [
        {
          "internalType": "contract IOptionToken",
          "name": "option",
          "type": "address"
        },
        {
          "internalType": "uint256",
          "name": "amount",
          "type": "uint256"
        }
      ],
      "name": "executeOptions",
      "outputs": [],
      "stateMutability": "nonpayable",
      "type": "function"
    },
    {
      "inputs": [
        {
          "internalType": "address",
          "name": "assetAddress",
          "type": "address"
        }
      ],
      "name": "getAssetAPY",
      "outputs": [
        {
          "internalType": "uint256",
          "name": "",
          "type": "uint256"
        }
      ],
      "stateMutability": "view",
      "type": "function"
    },
    {
      "inputs": [
        {
          "internalType": "address",
          "name": "assetAddress",
          "type": "address"
        },
        {
          "internalType": "uint256",
          "name": "durationEpochs",
          "type": "uint256"
        }
      ],
      "name": "getMaxOptionAmount",
      "outputs": [
        {
          "internalType": "uint256",
          "name": "",
          "type": "uint256"
        }
      ],
      "stateMutability": "view",
      "type": "function"
    },
    {
      "inputs": [
        {
          "internalType": "address",
          "name": "assetAddress",
          "type": "address"
        },
        {
          "internalType": "uint256",
          "name": "amount",
          "type": "uint256"
        },
        {
          "internalType": "uint256",
          "name": "durationEpochs",
          "type": "uint256"
        },
        {
          "internalType": "address",
          "name": "payingToken",
          "type": "address"
        }
      ],
      "name": "getOptionsPrice",
      "outputs": [
        {
          "internalType": "uint256",
          "name": "totalCost",
          "type": "uint256"
        },
        {
          "internalType": "uint256[]",
          "name": "epochCosts",
          "type": "uint256[]"
        }
      ],
      "stateMutability": "view",
      "type": "function"
    },
    {
      "inputs": [],
      "name": "owner",
      "outputs": [
        {
          "internalType": "address",
          "name": "",
          "type": "address"
        }
      ],
      "stateMutability": "view",
      "type": "function"
    },
    {
      "inputs": [],
      "name": "priceFeedAggregator",
      "outputs": [
        {
          "internalType": "contract IPriceFeedAggregator",
          "name": "",
          "type": "address"
        }
      ],
      "stateMutability": "view",
      "type": "function"
    },
    {
      "inputs": [],
      "name": "renounceOwnership",
      "outputs": [],
      "stateMutability": "nonpayable",
      "type": "function"
    },
    {
      "inputs": [
        {
          "internalType": "address",
          "name": "assetAddress",
          "type": "address"
        },
        {
          "internalType": "uint256",
          "name": "collateralRatio",
          "type": "uint256"
        },
        {
          "internalType": "uint256",
          "name": "strikePricePercent",
          "type": "uint256"
        },
        {
          "internalType": "uint256",
          "name": "expectedApy",
          "type": "uint256"
        },
        {
          "internalType": "address",
          "name": "collateralAddress",
          "type": "address"
        }
      ],
      "name": "setupAsset",
      "outputs": [],
      "stateMutability": "nonpayable",
      "type": "function"
    },
    {
      "inputs": [
        {
          "internalType": "uint256",
          "name": "",
          "type": "uint256"
        }
      ],
      "name": "supportedAssets",
      "outputs": [
        {
          "internalType": "address",
          "name": "",
          "type": "address"
        }
      ],
      "stateMutability": "view",
      "type": "function"
    },
    {
      "inputs": [],
      "name": "tokenFactory",
      "outputs": [
        {
          "internalType": "contract ITokenFactory",
          "name": "",
          "type": "address"
        }
      ],
      "stateMutability": "view",
      "type": "function"
    },
    {
      "inputs": [
        {
          "internalType": "address",
          "name": "newOwner",
          "type": "address"
        }
      ],
      "name": "transferOwnership",
      "outputs": [],
      "stateMutability": "nonpayable",
      "type": "function"
    },
    {
      "inputs": [
        {
          "internalType": "address",
          "name": "assetAddress",
          "type": "address"
        },
        {
          "internalType": "uint256",
          "name": "collateralRatio",
          "type": "uint256"
        },
        {
          "internalType": "uint256",
          "name": "strikePricePercent",
          "type": "uint256"
        },
        {
          "internalType": "uint256",
          "name": "expectedApy",
          "type": "uint256"
        }
      ],
      "name": "updateAssetConfig",
      "outputs": [],
      "stateMutability": "nonpayable",
      "type": "function"
    },
    {
      "inputs": [],
      "name": "updateEpoch",
      "outputs": [],
      "stateMutability": "nonpayable",
      "type": "function"
    }
  ],
  "bytecode": {
    "object": "0x60806040523480156200001157600080fd5b506040516200297338038062002973833981016040819052620000349162000110565b806001600160a01b0381166200006457604051631e4fbdf760e01b81526000600482015260240160405180910390fd5b6200006f81620000a7565b5050600280546001600160a01b039384166001600160a01b031991821617909155600380549290931691161790556001805562000164565b600080546001600160a01b038381166001600160a01b0319831681178455604051919092169283917f8be0079c531659141344cd1fd0a4f28419497f9722a3daafe3b4186f6b6457e09190a35050565b6001600160a01b03811681146200010d57600080fd5b50565b6000806000606084860312156200012657600080fd5b83516200013381620000f7565b60208501519093506200014681620000f7565b60408501519092506200015981620000f7565b809150509250925092565b6127ff80620001746000396000f3fe608060405234801561001057600080fd5b506004361061014c5760003560e01c8063715018a6116100c3578063aefa7e4c1161007c578063aefa7e4c1461038a578063b7679456146103b6578063bca9e918146103c9578063c68dbb37146103dc578063e77772fe146103ef578063f2fde38b1461040257600080fd5b8063715018a61461033157806376671808146103395780638da5cb5b146103425780638e7370ff14610353578063a20b8b4e14610364578063a4dedb9e1461037757600080fd5b806336f4fb021161011557806336f4fb02146102a15780633f1deebb146102a95780634ce931ae146102ca5780634e44b4bf146102f55780634f17a2fa14610308578063686bdb251461031e57600080fd5b806228b6ef146101515780630cc50a5714610170578063107fa8a5146101d95780632b0f9a16146101ee5780632c2bb51914610201575b600080fd5b610159610415565b6040516101679291906120ed565b60405180910390f35b6101af61017e36600461218f565b60056020526000908152604090208054600182015460028301546003909301546001600160a01b0390921692909184565b604080516001600160a01b0390951685526020850193909352918301526060820152608001610167565b6101ec6101e73660046121ac565b6104dc565b005b6101ec6101fc3660046121e1565b610692565b61026061020f3660046121e1565b60046020818152600093845260408085209091529183529120805460018201546002830154600384015494840154600585015460069095015493959294919390916001600160a01b03908116911687565b60408051978852602088019690965294860193909352606085019190915260808401526001600160a01b0390811660a08401521660c082015260e001610167565b6101ec610a77565b6102bc6102b736600461220d565b610bcb565b604051610167929190612257565b6102dd6102d8366004612298565b610ea8565b6040516001600160a01b039091168152602001610167565b6101ec6103033660046121ac565b610ed2565b610310600681565b604051908152602001610167565b61031061032c3660046121e1565b6112fe565b6101ec611568565b61031060015481565b6000546001600160a01b03166102dd565b6101ec61036136600461218f565b50565b6003546102dd906001600160a01b031681565b6102dd610385366004612298565b61157c565b61031061039836600461218f565b6001600160a01b031660009081526005602052604090206003015490565b6101ec6103c43660046122b1565b61158c565b6101ec6103d73660046122ec565b6115c0565b6102dd6103ea366004612298565b611705565b6002546102dd906001600160a01b031681565b6101ec61041036600461218f565b611715565b606080600760088180548060200260200160405190810160405280929190818152602001828054801561047157602002820191906000526020600020905b81546001600160a01b03168152600190910190602001808311610453575b50505050509150808054806020026020016040519081016040528092919081815260200182805480156104cd57602002820191906000526020600020905b81546001600160a01b031681526001909101906020018083116104af575b50505050509050915091509091565b6001600160a01b0383811660009081526005602052604090819020805491516323b872dd60e01b815233600482015230602482015260448101869052909291909116906323b872dd906064016020604051808303816000875af1158015610547573d6000803e3d6000fd5b505050506040513d601f19601f8201168201806040525081019061056b9190612342565b5060005b828110156105dd576001600160a01b0385166000908152600460205260408120600154829061059f90859061237a565b81526020019081526020016000209050848160010160008282546105c3919061237a565b909155508291506105d590508161238d565b91505061056f565b506001600160a01b03841660009081526004602052604081206001805483919061060890879061237a565b61061291906123a6565b8152602081019190915260409081016000206006015490516340c10f1960e01b8152336004820152602481018690526001600160a01b03909116915081906340c10f1990604401600060405180830381600087803b15801561067357600080fd5b505af1158015610687573d6000803e3d6000fd5b505050505050505050565b6000826001600160a01b0316636f307dc36040518163ffffffff1660e01b8152600401602060405180830381865afa1580156106d2573d6000803e3d6000fd5b505050506040513d601f19601f820116820180604052508101906106f691906123b9565b6003546040516302c68be360e31b81526001600160a01b038084166004830152929350600092909116906316345f1890602401602060405180830381865afa158015610746573d6000803e3d6000fd5b505050506040513d601f19601f8201168201806040525081019061076a91906123d6565b6001600160a01b0383166000908152600460209081526040808320600154845290915290208054919250908210156107b5576040516377672d9360e11b815260040160405180910390fd5b600681015460408051636f307dc360e01b815290516000926001600160a01b031691636f307dc39160048083019260209291908290030181865afa158015610801573d6000803e3d6000fd5b505050506040513d601f19601f8201168201806040525081019061082591906123b9565b6003546040516302c68be360e31b81526001600160a01b038084166004830152929350600092909116906316345f1890602401602060405180830381865afa158015610875573d6000803e3d6000fd5b505050506040513d601f19601f8201168201806040525081019061089991906123d6565b905060006108ac87856000015484611750565b6001549091505b886001600160a01b0316630b9663db6040518163ffffffff1660e01b8152600401602060405180830381865afa1580156108f1573d6000803e3d6000fd5b505050506040513d601f19601f8201168201806040525081019061091591906123d6565b8110156109a5576001600160a01b0387166000908152600460209081526040808320848452909152812060020180548a92906109529084906123a6565b90915550506001600160a01b03871660009081526004602090815260408083208484529091528120600101805484929061098d9084906123a6565b9091555081905061099d8161238d565b9150506108b3565b50604051632770a7eb60e21b8152336004820152602481018890526001600160a01b03891690639dc29fac90604401600060405180830381600087803b1580156109ee57600080fd5b505af1158015610a02573d6000803e3d6000fd5b505060405163a9059cbb60e01b8152336004820152602481018490526001600160a01b038616925063a9059cbb91506044016020604051808303816000875af1158015610a53573d6000803e3d6000fd5b505050506040513d601f19601f820116820180604052508101906106879190612342565b60018054906000610a878361238d565b919050555060005b60065481101561036157600060068281548110610aae57610aae6123ef565b60009182526020808320909101546001600160a01b0390811680845260059092526040832080546001549395509093928392610afa928792911690610af59060069061237a565b611815565b6003546040516302c68be360e31b81526001600160a01b03888116600483015293955091935060009216906316345f1890602401602060405180830381865afa158015610b4b573d6000803e3d6000fd5b505050506040513d601f19601f82011682018060405250810190610b6f91906123d6565b9050610b88846002015482611d5090919063ffffffff16565b6001600160a01b039095166000908152600460209081526040808320600154845290915290209490945550839250610bc3915082905061238d565b915050610a8f565b6001600160a01b03808516600090815260056020908152604080832060048084528285206001548652845282852060035460068201548551636f307dc360e01b815295519798606098959793968a96938216956316345f18959390921693636f307dc3938284019390928290030181865afa158015610c4e573d6000803e3d6000fd5b505050506040513d601f19601f82011682018060405250810190610c7291906123b9565b6040516001600160e01b031960e084901b1681526001600160a01b039091166004820152602401602060405180830381865afa158015610cb6573d6000803e3d6000fd5b505050506040513d601f19601f82011682018060405250810190610cda91906123d6565b6003546040516302c68be360e31b81526001600160a01b038c81166004830152929350600092909116906316345f1890602401602060405180830381865afa158015610d2a573d6000803e3d6000fd5b505050506040513d601f19601f82011682018060405250810190610d4e91906123d6565b905060005b88811015610e9a576001600160a01b038b1660009081526004602052604081206001548c9291908290610d8790869061237a565b815260200190815260200160002090506000610dc38760000154600285610dae919061241b565b8460020154610dbd919061237a565b90611d50565b90506000610dde878460010154611d5090919063ffffffff16565b90506000610e038a60010154610dfd8486611d8890919063ffffffff16565b90611d88565b90506000600c610e2287610dbd8e60030154866002610dbd919061242f565b610e2c919061241b565b9050610e3c89610dfd838b611d50565b8c8881518110610e4e57610e4e6123ef565b6020026020010181815250508b8781518110610e6c57610e6c6123ef565b60200260200101518d610e7f919061237a565b9c505050505050508080610e929061238d565b915050610d53565b505050505094509492505050565b60078181548110610eb857600080fd5b6000918252602090912001546001600160a01b0316905081565b6001600160a01b038316600090815260046020526040812060018054839190610efc90869061237a565b610f0691906123a6565b8152602080820192909252604090810160009081206001600160a01b0380891683526005855283832060068301548551636f307dc360e01b81529551939750909593948594610fa1948c948c948c94911692636f307dc3926004808401938290030181865afa158015610f7d573d6000803e3d6000fd5b505050506040513d601f19601f820116820180604052508101906102b791906123b9565b84546040516323b872dd60e01b8152336004820152306024820152604481018490529294509092506001600160a01b0316906323b872dd906064016020604051808303816000875af1158015610ffb573d6000803e3d6000fd5b505050506040513d601f19601f8201168201806040525081019061101f9190612342565b50600354600685015460408051636f307dc360e01b815290516000936001600160a01b03908116936316345f1893911691636f307dc3916004808201926020929091908290030181865afa15801561107b573d6000803e3d6000fd5b505050506040513d601f19601f8201168201806040525081019061109f91906123b9565b6040516001600160e01b031960e084901b1681526001600160a01b039091166004820152602401602060405180830381865afa1580156110e3573d6000803e3d6000fd5b505050506040513d601f19601f8201168201806040525081019061110791906123d6565b6001600160a01b0389166000908152600460209081526040808320600154845290915281205491925061113a8983611d50565b905060005b8881101561128b576001600160a01b038b166000908152600460205260408120600154829061116f90859061237a565b81526020019081526020016000209050600061119c89600101548360010154611d8890919063ffffffff16565b905060006111aa8288611d50565b9050808511156111f257836001546111c2919061237a565b6040516315439c2760e11b8152600481019190915260248101869052604481018290526064015b60405180910390fd5b8c836002016000828254611206919061237a565b9250508190555087848151811061121f5761121f6123ef565b602002602001015183600401600082825461123a919061237a565b92505081905550878481518110611253576112536123ef565b602002602001015183600101600082825461126e919061237a565b9250508190555050505080806112839061238d565b91505061113f565b5060058701546040516340c10f1960e01b8152336004820152602481018b90526001600160a01b03909116906340c10f1990604401600060405180830381600087803b1580156112da57600080fd5b505af11580156112ee573d6000803e3d6000fd5b5050505050505050505050505050565b6001600160a01b03808316600090815260056020908152604080832060048084528285206001548652845282852060035460068201548551636f307dc360e01b815295519798949792968996928616956316345f1895921693636f307dc39380840193908290030181865afa15801561137b573d6000803e3d6000fd5b505050506040513d601f19601f8201168201806040525081019061139f91906123b9565b6040516001600160e01b031960e084901b1681526001600160a01b039091166004820152602401602060405180830381865afa1580156113e3573d6000803e3d6000fd5b505050506040513d601f19601f8201168201806040525081019061140791906123d6565b6003546040516302c68be360e31b81526001600160a01b038981166004830152929350600092909116906316345f1890602401602060405180830381865afa158015611457573d6000803e3d6000fd5b505050506040513d601f19601f8201168201806040525081019061147b91906123d6565b905060001960005b8781101561155a576001600160a01b038916600090815260046020526040812060015482906114b390859061237a565b8152602001908152602001600020905060006114e087600001548360020154611d5090919063ffffffff16565b905060006114fb878460010154611d5090919063ffffffff16565b90506000826115178b6001015484611d5090919063ffffffff16565b61152191906123a6565b8954909150600090611534908390611d88565b905086811015611542578096505b505050505080806115529061238d565b915050611483565b509450505050505b92915050565b611570611dbf565b61157a6000611dec565b565b60088181548110610eb857600080fd5b611594611dbf565b6001600160a01b0390931660009081526005602052604090206001810192909255600282015560030155565b6115c8611dbf565b6001600160a01b03858116600081815260056020908152604080832060018082018b9055600282018a905560038083018a905582546001600160a01b03199081168a8a16178455600680548085019091557ff652222313e28459528d920b65115c16c04f3efc82aaedc97be59f3f377c0d3f0180549091168817905560048086528487209254875291909452828520935492516302c68be360e31b8152908101959095529491939116906316345f1890602401602060405180830381865afa158015611698573d6000803e3d6000fd5b505050506040513d601f19601f820116820180604052508101906116bc91906123d6565b90506116c88187611d50565b825560005b6006811015610687576000806116ec8b8885600154610af5919061237a565b91509150505080806116fd9061238d565b9150506116cd565b60068181548110610eb857600080fd5b61171d611dbf565b6001600160a01b03811661174757604051631e4fbdf760e01b8152600060048201526024016111e9565b61036181611dec565b60008383028160001985870982811083820303915050806000036117875783828161177d5761177d612405565b049250505061180e565b8084116117a75760405163227bc15360e01b815260040160405180910390fd5b6000848688096000868103871696879004966002600389028118808a02820302808a02820302808a02820302808a02820302808a02820302808a02909103029181900381900460010186841190950394909402919094039290920491909117919091029150505b9392505050565b60008080611838600c61182986600a61237a565b6118339190612446565b611e3c565b611857600c61184887600a61237a565b611852919061241b565b611fb0565b60405160200161186892919061247e565b60405160208183030381529060405290506000600260009054906101000a90046001600160a01b03166001600160a01b0316633400987c886001600160a01b03166306fdde036040518163ffffffff1660e01b8152600401600060405180830381865afa1580156118dd573d6000803e3d6000fd5b505050506040513d6000823e601f3d908101601f1916820160405261190591908101906124dd565b8460405160200161191792919061258a565b604051602081830303815290604052896001600160a01b03166395d89b416040518163ffffffff1660e01b8152600401600060405180830381865afa158015611964573d6000803e3d6000fd5b505050506040513d6000823e601f3d908101601f1916820160405261198c91908101906124dd565b8560405160200161199e9291906125cf565b6040516020818303038152906040528a89306040518663ffffffff1660e01b81526004016119d095949392919061263d565b6020604051808303816000875af11580156119ef573d6000803e3d6000fd5b505050506040513d601f19601f82011682018060405250810190611a1391906123b9565b90506000600260009054906101000a90046001600160a01b03166001600160a01b031663bc571566896001600160a01b03166306fdde036040518163ffffffff1660e01b8152600401600060405180830381865afa158015611a79573d6000803e3d6000fd5b505050506040513d6000823e601f3d908101601f19168201604052611aa191908101906124dd565b896001600160a01b03166306fdde036040518163ffffffff1660e01b8152600401600060405180830381865afa158015611adf573d6000803e3d6000fd5b505050506040513d6000823e601f3d908101601f19168201604052611b0791908101906124dd565b86604051602001611b1a9392919061268d565b6040516020818303038152906040528a6001600160a01b03166395d89b416040518163ffffffff1660e01b8152600401600060405180830381865afa158015611b67573d6000803e3d6000fd5b505050506040513d6000823e601f3d908101601f19168201604052611b8f91908101906124dd565b8a6001600160a01b03166395d89b416040518163ffffffff1660e01b8152600401600060405180830381865afa158015611bcd573d6000803e3d6000fd5b505050506040513d6000823e601f3d908101601f19168201604052611bf591908101906124dd565b87604051602001611c08939291906126f4565b6040516020818303038152906040528a8a308e6040518763ffffffff1660e01b8152600401611c3c96959493929190612757565b6020604051808303816000875af1158015611c5b573d6000803e3d6000fd5b505050506040513d601f19601f82011682018060405250810190611c7f91906123b9565b6001600160a01b03808a1660009081526004602090815260408083208b845290915281206005810180548785166001600160a01b03199182168117909255600690920180548587169084161781556007805460018181019092557fa66cc928b5edb82af9bd49922954155ab7b0942694bea4ce44661d9a8736c6880180548516909317909255546008805492830181559093527ff3f7a9fe364faab93b216da50a3214154f22a0a2b415b23a84c8169e8b636ee3018054909116919092161790559194509092505050935093915050565b600081156706f05b59d3b200001983900484111517611d6e57600080fd5b50670de0b6b3a764000091026706f05b59d3b20000010490565b60008115670de0b6b3a764000060028404190484111715611da857600080fd5b50670de0b6b3a76400009190910260028204010490565b6000546001600160a01b0316331461157a5760405163118cdaa760e01b81523360048201526024016111e9565b600080546001600160a01b038381166001600160a01b0319831681178455604051919092169283917f8be0079c531659141344cd1fd0a4f28419497f9722a3daafe3b4186f6b6457e09190a35050565b604080516101c08101825260036101808201818152622520a760e91b6101a0840152825282518084018452818152622322a160e91b60208281019190915280840191909152835180850185528281526226a0a960e91b8183015283850152835180850185528281526220a82960e91b8183015260608481019190915284518086018652838152624d415960e81b8184015260808501528451808601865283815262252aa760e91b8184015260a0850152845180860186528381526212955360ea1b8184015260c0850152845180860186528381526241554760e81b8184015260e085015284518086018652600481526314d1541560e21b81840152610100850152845180860186528381526213d0d560ea1b8184015261012085015284518086018652838152622727ab60e91b8184015261014085015284518086019095529184526244454360e81b908401526101608201929092528083600c8110611fa457611fa46123ef565b60200201519392505050565b6060611562611fc1836107e761237a565b606081600003611fe85750506040805180820190915260018152600360fc1b602082015290565b8160005b81156120125780611ffc8161238d565b915061200b9050600a8361241b565b9150611fec565b60008167ffffffffffffffff81111561202d5761202d6124c7565b6040519080825280601f01601f191660200182016040528015612057576020820181803683370190505b509050815b85156120e45761206d6001826123a6565b9050600061207c600a8861241b565b61208790600a61242f565b61209190886123a6565b61209c9060306127b0565b905060008160f81b9050808484815181106120b9576120b96123ef565b60200101906001600160f81b031916908160001a9053506120db600a8961241b565b9750505061205c565b50949350505050565b604080825283519082018190526000906020906060840190828701845b8281101561212f5781516001600160a01b03168452928401929084019060010161210a565b5050508381038285015284518082528583019183019060005b8181101561216d5783516001600160a01b031683529284019291840191600101612148565b5090979650505050505050565b6001600160a01b038116811461036157600080fd5b6000602082840312156121a157600080fd5b813561180e8161217a565b6000806000606084860312156121c157600080fd5b83356121cc8161217a565b95602085013595506040909401359392505050565b600080604083850312156121f457600080fd5b82356121ff8161217a565b946020939093013593505050565b6000806000806080858703121561222357600080fd5b843561222e8161217a565b93506020850135925060408501359150606085013561224c8161217a565b939692955090935050565b6000604082018483526020604081850152818551808452606086019150828701935060005b8181101561216d5784518352938301939183019160010161227c565b6000602082840312156122aa57600080fd5b5035919050565b600080600080608085870312156122c757600080fd5b84356122d28161217a565b966020860135965060408601359560600135945092505050565b600080600080600060a0868803121561230457600080fd5b853561230f8161217a565b945060208601359350604086013592506060860135915060808601356123348161217a565b809150509295509295909350565b60006020828403121561235457600080fd5b8151801515811461180e57600080fd5b634e487b7160e01b600052601160045260246000fd5b8082018082111561156257611562612364565b60006001820161239f5761239f612364565b5060010190565b8181038181111561156257611562612364565b6000602082840312156123cb57600080fd5b815161180e8161217a565b6000602082840312156123e857600080fd5b5051919050565b634e487b7160e01b600052603260045260246000fd5b634e487b7160e01b600052601260045260246000fd5b60008261242a5761242a612405565b500490565b808202811582820484141761156257611562612364565b60008261245557612455612405565b500690565b60005b8381101561247557818101518382015260200161245d565b50506000910152565b6000600160fd1b808352845161249b81600186016020890161245a565b8084019050816001820152845191506124bb82600283016020880161245a565b01600201949350505050565b634e487b7160e01b600052604160045260246000fd5b6000602082840312156124ef57600080fd5b815167ffffffffffffffff8082111561250757600080fd5b818401915084601f83011261251b57600080fd5b81518181111561252d5761252d6124c7565b604051601f8201601f19908116603f01168101908382118183101715612555576125556124c7565b8160405282815287602084870101111561256e57600080fd5b61257f83602083016020880161245a565b979650505050505050565b66027b83a34b7b7160cd1b8152600083516125ac81600785016020880161245a565b8351908301906125c381600784016020880161245a565b01600701949350505050565b63027a82a160e51b8152600083516125ee81600485016020880161245a565b83519083019061260581600484016020880161245a565b01600401949350505050565b6000815180845261262981602086016020860161245a565b601f01601f19169290920160200192915050565b60a08152600061265060a0830188612611565b82810360208401526126628188612611565b6001600160a01b03968716604085015260608401959095525050921660809092019190915292915050565b6702130b1b5b4b733960c51b8152600084516126b081600885016020890161245a565b602d60f81b60089184019182015284516126d181600984016020890161245a565b84519101906126e781600984016020880161245a565b0160090195945050505050565b6302121a5960e51b81526000845161271381600485016020890161245a565b602d60f81b600491840191820152845161273481600584016020890161245a565b845191019061274a81600584016020880161245a565b0160050195945050505050565b60c08152600061276a60c0830189612611565b828103602084015261277c8189612611565b6001600160a01b03978816604085015260608401969096525050918416608083015290921660a09092019190915292915050565b60ff81811683821601908111156115625761156261236456fea264697066735822122075227cbbfdbf370853beb4d3b7d920465b6c50b9813c6434fe18d826c56ee68764736f6c63430008150033",
    "linkReferences": {}
  },
  "methodIdentifiers": {
    "MAX_EPOCH_DURATION()": "4f17a2fa",
    "allBackingTokens(uint256)": "a4dedb9e",
    "allOptionTokens(uint256)": "4ce931ae",
    "allStabilanTokens()": "0028b6ef",
    "assetsConfig(address)": "0cc50a57",
    "assetsData(address,uint256)": "2c2bb519",
    "backing(address,uint256,uint256)": "107fa8a5",
    "buyOptions(address,uint256,uint256)": "4e44b4bf",
    "claimBackingRewards(address)": "8e7370ff",
    "currentEpoch()": "76671808",
    "executeOptions(address,uint256)": "2b0f9a16",
    "getAssetAPY(address)": "aefa7e4c",
    "getMaxOptionAmount(address,uint256)": "686bdb25",
    "getOptionsPrice(address,uint256,uint256,address)": "3f1deebb",
    "owner()": "8da5cb5b",
    "priceFeedAggregator()": "a20b8b4e",
    "renounceOwnership()": "715018a6",
    "setupAsset(address,uint256,uint256,uint256,address)": "bca9e918",
    "supportedAssets(uint256)": "c68dbb37",
    "tokenFactory()": "e77772fe",
    "transferOwnership(address)": "f2fde38b",
    "updateAssetConfig(address,uint256,uint256,uint256)": "b7679456",
    "updateEpoch()": "36f4fb02"
  },
  "id": 26
}