{
  "_format": "hh-sol-artifact-1",
  "contractName": "TimeWeightedBonding",
  "sourceName": "contracts/sale/TimeWeightedBonding.sol",
  "abi": [
    {
      "inputs": [
        {
          "internalType": "contract IERC20",
          "name": "_chi",
          "type": "address"
        },
        {
          "internalType": "contract IPriceFeedAggregator",
          "name": "_priceFeedAggregator",
          "type": "address"
        },
        {
          "internalType": "contract IChiVesting",
          "name": "_chiVesting",
          "type": "address"
        },
        {
          "internalType": "uint256",
          "name": "_cliffTimestampEnd",
          "type": "uint256"
        },
        {
          "internalType": "address",
          "name": "_treasury",
          "type": "address"
        }
      ],
      "stateMutability": "nonpayable",
      "type": "constructor"
    },
    {
      "inputs": [
        {
          "internalType": "address",
          "name": "to",
          "type": "address"
        },
        {
          "internalType": "uint256",
          "name": "value",
          "type": "uint256"
        }
      ],
      "name": "EtherSendFailed",
      "type": "error"
    },
    {
      "anonymous": false,
      "inputs": [
        {
          "indexed": true,
          "internalType": "address",
          "name": "account",
          "type": "address"
        },
        {
          "indexed": false,
          "internalType": "uint256",
          "name": "amount",
          "type": "uint256"
        },
        {
          "indexed": false,
          "internalType": "uint256",
          "name": "ethCost",
          "type": "uint256"
        }
      ],
      "name": "Buy",
      "type": "event"
    },
    {
      "anonymous": false,
      "inputs": [
        {
          "indexed": true,
          "internalType": "address",
          "name": "previousOwner",
          "type": "address"
        },
        {
          "indexed": true,
          "internalType": "address",
          "name": "newOwner",
          "type": "address"
        }
      ],
      "name": "OwnershipTransferred",
      "type": "event"
    },
    {
      "anonymous": false,
      "inputs": [
        {
          "indexed": true,
          "internalType": "address",
          "name": "account",
          "type": "address"
        },
        {
          "indexed": false,
          "internalType": "uint256",
          "name": "amount",
          "type": "uint256"
        }
      ],
      "name": "RecoverChi",
      "type": "event"
    },
    {
      "anonymous": false,
      "inputs": [
        {
          "indexed": true,
          "internalType": "address",
          "name": "account",
          "type": "address"
        },
        {
          "indexed": false,
          "internalType": "uint256",
          "name": "amount",
          "type": "uint256"
        }
      ],
      "name": "Vest",
      "type": "event"
    },
    {
      "inputs": [],
      "name": "BASE_PRICE",
      "outputs": [
        {
          "internalType": "uint256",
          "name": "",
          "type": "uint256"
        }
      ],
      "stateMutability": "view",
      "type": "function"
    },
    {
      "inputs": [],
      "name": "EPOCH_DURATION",
      "outputs": [
        {
          "internalType": "uint256",
          "name": "",
          "type": "uint256"
        }
      ],
      "stateMutability": "view",
      "type": "function"
    },
    {
      "inputs": [],
      "name": "MAX_LOCK_PERIOD",
      "outputs": [
        {
          "internalType": "uint256",
          "name": "",
          "type": "uint256"
        }
      ],
      "stateMutability": "view",
      "type": "function"
    },
    {
      "inputs": [],
      "name": "WETH",
      "outputs": [
        {
          "internalType": "address",
          "name": "",
          "type": "address"
        }
      ],
      "stateMutability": "view",
      "type": "function"
    },
    {
      "inputs": [
        {
          "internalType": "uint256",
          "name": "amount",
          "type": "uint256"
        }
      ],
      "name": "buy",
      "outputs": [],
      "stateMutability": "payable",
      "type": "function"
    },
    {
      "inputs": [],
      "name": "chi",
      "outputs": [
        {
          "internalType": "contract IERC20",
          "name": "",
          "type": "address"
        }
      ],
      "stateMutability": "view",
      "type": "function"
    },
    {
      "inputs": [],
      "name": "chiVesting",
      "outputs": [
        {
          "internalType": "contract IChiVesting",
          "name": "",
          "type": "address"
        }
      ],
      "stateMutability": "view",
      "type": "function"
    },
    {
      "inputs": [],
      "name": "cliffTimestampEnd",
      "outputs": [
        {
          "internalType": "uint256",
          "name": "",
          "type": "uint256"
        }
      ],
      "stateMutability": "view",
      "type": "function"
    },
    {
      "inputs": [],
      "name": "owner",
      "outputs": [
        {
          "internalType": "address",
          "name": "",
          "type": "address"
        }
      ],
      "stateMutability": "view",
      "type": "function"
    },
    {
      "inputs": [],
      "name": "priceFeedAggregator",
      "outputs": [
        {
          "internalType": "contract IPriceFeedAggregator",
          "name": "",
          "type": "address"
        }
      ],
      "stateMutability": "view",
      "type": "function"
    },
    {
      "inputs": [
        {
          "internalType": "uint256",
          "name": "amount",
          "type": "uint256"
        }
      ],
      "name": "recoverChi",
      "outputs": [],
      "stateMutability": "nonpayable",
      "type": "function"
    },
    {
      "inputs": [],
      "name": "renounceOwnership",
      "outputs": [],
      "stateMutability": "nonpayable",
      "type": "function"
    },
    {
      "inputs": [
        {
          "internalType": "uint256",
          "name": "_cliffTimestampEnd",
          "type": "uint256"
        }
      ],
      "name": "setCliffTimestampEnd",
      "outputs": [],
      "stateMutability": "nonpayable",
      "type": "function"
    },
    {
      "inputs": [
        {
          "internalType": "address",
          "name": "newOwner",
          "type": "address"
        }
      ],
      "name": "transferOwnership",
      "outputs": [],
      "stateMutability": "nonpayable",
      "type": "function"
    },
    {
      "inputs": [],
      "name": "treasury",
      "outputs": [
        {
          "internalType": "address",
          "name": "",
          "type": "address"
        }
      ],
      "stateMutability": "view",
      "type": "function"
    },
    {
      "inputs": [
        {
          "internalType": "address",
          "name": "user",
          "type": "address"
        },
        {
          "internalType": "uint256",
          "name": "amount",
          "type": "uint256"
        }
      ],
      "name": "vest",
      "outputs": [],
      "stateMutability": "nonpayable",
      "type": "function"
    }
  ],
  "bytecode": "0x6101003461012f57601f61100e38819003918201601f19168301916001600160401b038311848410176101335780849260a09460405283398101031261012f5780516001600160a01b0391828216820361012f576020810151838116810361012f57604082015190848216820361012f576080606084015193015193858516850361012f575f543360018060a01b03198216175f55604051963391167f8be0079c531659141344cd1fd0a4f28419497f9722a3daafe3b4186f6b6457e05f80a360a05260e05260c052600155608052610ec69081610148823960805181818161041e0152610712015260a05181818161021d015281816103200152818161054b01526107e9015260c05181818161038f015281816106680152610768015260e05181818161028b01526105dc0152f35b5f80fd5b634e487b7160e01b5f52604160045260245ffdfe6080604081815260049182361015610015575f80fd5b5f92833560e01c91826314097352146108d9575081632797c6c81461073657816361d027b3146106f2578163715018a61461068c5781637bae6f86146106485781637f30cc08146106265781638da5cb5b14610600578163a20b8b4e146105bc578163a70b9f0c1461059e578163ad5c46481461056f578163c92aecc41461052b578163d96a094a1461026e578163ee40b6f6146101f9578163f2fde38b1461010e57508063f5540162146100f35763f86325ed146100d2575f80fd5b346100ef57816003193601126100ef57602090516305f5e1008152f35b5080fd5b50346100ef57816003193601126100ef576020905160d08152f35b9050346101f55760203660031901126101f5576101296108f5565b9061013261090f565b6001600160a01b0380921692831561018c5750505f548273ffffffffffffffffffffffffffffffffffffffff198216175f55167f8be0079c531659141344cd1fd0a4f28419497f9722a3daafe3b4186f6b6457e05f80a380f35b906020608492519162461bcd60e51b8352820152602660248201527f4f776e61626c653a206e6577206f776e657220697320746865207a65726f206160448201527f64647265737300000000000000000000000000000000000000000000000000006064820152fd5b8280fd5b9050346101f55760203660031901126101f557359061021661090f565b61024182337f00000000000000000000000000000000000000000000000000000000000000006109b0565b519081527f3ddc4d8accea69721519634320e2fbaef873c4b5abe58775c513eccc34386b0060203392a280f35b905060203660031901126101f5578035916001600160a01b0391827f00000000000000000000000000000000000000000000000000000000000000001682517facefafae000000000000000000000000000000000000000000000000000000009182825273c02aaa39b223fe8d0a0e5c4f27ead9083c756cc2848301528482602481845afa918215610521575f926104e3575b5061031c62093a806103166001544290610c37565b04610c58565b90857f000000000000000000000000000000000000000000000000000000000000000094602482518094819382528b89168a8301525afa9081156104d9575f9161049a575b506305f5e1009182039182116104875761038c899594936103866103b6948b94610d07565b83610d72565b967f00000000000000000000000000000000000000000000000000000000000000001680936109b0565b803b156101f55783516395fcb00d60e01b81523392810192835260208301879052918391839182908490829060400103925af1801561047d57610465575b5050816104427f1cbc5ab135991bd2b6a4b034a04aa2aa086dac1371cb9b16b8b5e2ed6b036bed937f0000000000000000000000000000000000000000000000000000000000000000610e08565b61045561044f8234610c37565b33610e08565b815193845260208401523392a280f35b61046e90610966565b61047957835f6103f4565b8380fd5b83513d84823e3d90fd5b602489601187634e487b7160e01b835252fd5b908682813d83116104d2575b6104b0818361098e565b810103126104cf576020825192015160ff8116036104cf57505f610361565b80fd5b503d6104a6565b86513d5f823e3d90fd5b90918582813d831161051a575b6104fa818361098e565b810103126104cf576020825192015160ff8116036104cf5750905f610301565b503d6104f0565b85513d5f823e3d90fd5b5050346100ef57816003193601126100ef57602090516001600160a01b037f0000000000000000000000000000000000000000000000000000000000000000168152f35b5050346100ef57816003193601126100ef576020905173c02aaa39b223fe8d0a0e5c4f27ead9083c756cc28152f35b5050346100ef57816003193601126100ef576020905162093a808152f35b5050346100ef57816003193601126100ef57602090516001600160a01b037f0000000000000000000000000000000000000000000000000000000000000000168152f35b5050346100ef57816003193601126100ef576001600160a01b0360209254169051908152f35b8390346100ef5760203660031901126100ef5761064161090f565b3560015580f35b5050346100ef57816003193601126100ef57602090516001600160a01b037f0000000000000000000000000000000000000000000000000000000000000000168152f35b83346104cf57806003193601126104cf576106a561090f565b5f6001600160a01b03815473ffffffffffffffffffffffffffffffffffffffff1981168355167f8be0079c531659141344cd1fd0a4f28419497f9722a3daafe3b4186f6b6457e08280a380f35b5050346100ef57816003193601126100ef57602090516001600160a01b037f0000000000000000000000000000000000000000000000000000000000000000168152f35b9050346101f557816003193601126101f5576107506108f5565b6024359261075c61090f565b6001600160a01b0392837f0000000000000000000000000000000000000000000000000000000000000000169082517f23b872dd0000000000000000000000000000000000000000000000000000000060208201523360248201528260448201528660648201526064815260a0810181811067ffffffffffffffff8211176108c65788929161080d9186527f0000000000000000000000000000000000000000000000000000000000000000610a0c565b823b156100ef5783516395fcb00d60e01b81526001600160a01b0386169181019182526020820188905292839182908490829060400103925af180156108bc57610882575b505192835216907fd4a50953e9ae2104f507446be8391c79b33e1e86e626473e34bb79eb5fea1f3e90602090a280f35b917fd4a50953e9ae2104f507446be8391c79b33e1e86e626473e34bb79eb5fea1f3e9391956108b2602094610966565b9591935091610852565b82513d88823e3d90fd5b602489604185634e487b7160e01b835252fd5b8490346100ef57816003193601126100ef576020906001548152f35b600435906001600160a01b038216820361090b57565b5f80fd5b6001600160a01b035f5416330361092257565b606460405162461bcd60e51b815260206004820152602060248201527f4f776e61626c653a2063616c6c6572206973206e6f7420746865206f776e65726044820152fd5b67ffffffffffffffff811161097a57604052565b634e487b7160e01b5f52604160045260245ffd5b90601f8019910116810190811067ffffffffffffffff82111761097a57604052565b6040517fa9059cbb0000000000000000000000000000000000000000000000000000000060208201526001600160a01b03929092166024830152604480830193909352918152610a0a91610a0560648361098e565b610a0c565b565b6001600160a01b031690604051604081019080821067ffffffffffffffff83111761097a57610a7e916040526020938482527f5361666545524332303a206c6f772d6c6576656c2063616c6c206661696c6564858301525f808587829751910182855af1610a78610b27565b91610b66565b805191821591848315610b03575b505050905015610a995750565b6084906040519062461bcd60e51b82526004820152602a60248201527f5361666545524332303a204552433230206f7065726174696f6e20646964206e60448201527f6f742073756363656564000000000000000000000000000000000000000000006064820152fd5b9193818094500103126100ef578201519081151582036104cf5750805f8084610a8c565b3d15610b61573d9067ffffffffffffffff821161097a5760405191610b56601f8201601f19166020018461098e565b82523d5f602084013e565b606090565b91929015610bc75750815115610b7a575090565b3b15610b835790565b606460405162461bcd60e51b815260206004820152601d60248201527f416464726573733a2063616c6c20746f206e6f6e2d636f6e74726163740000006044820152fd5b825190915015610bda5750805190602001fd5b6040519062461bcd60e51b82528160208060048301528251908160248401525f935b828510610c1e575050604492505f838284010152601f80199101168101030190fd5b8481018201518686016044015293810193859350610bfc565b91908203918211610c4457565b634e487b7160e01b5f52601160045260245ffd5b6305f5e100905f1982820982820291828083109203918083039214610cfd578160d01115610cb9577f4ec4ec4ec4ec4ec4ec4ec4ec4ec4ec4ec4ec4ec4ec4ec4ec4ec4ec4ec4ec4ec59360d0910990828211900360fc1b910360041c170290565b606460405162461bcd60e51b815260206004820152601560248201527f4d6174683a206d756c446976206f766572666c6f7700000000000000000000006044820152fd5b505060d091500490565b905f1981830981830291828083109203918083039214610d65576305f5e1009082821115610cb9577facbe0e98f503f8881186e60dbb7f727bf36b7213ee9f5a78c767074b22e90e21940990828211900360f81b910360081c170290565b50506305f5e10091500490565b915f198284099282810292838086109503948086039514610de65784831115610cb95782910960018219018216809204600280826003021880830282030280830282030280830282030280830282030280830282030280920290030293600183805f03040190848311900302920304170290565b505080925015610df4570490565b634e487b7160e01b5f52601260045260245ffd5b81610e11575050565b604051602081019080821067ffffffffffffffff83111761097a575f91604052525f80808085855af1610e42610b27565b5015610e4c575050565b6040517f529c2b590000000000000000000000000000000000000000000000000000000081526001600160a01b039190911660048201526024810191909152604490fdfea264697066735822122018a0a5ab36b436948591105a3e8bf6d13b64db3fe7047823fef84d92aa4829ab64736f6c63430008140033",
  "linkReferences": {},
  "deployedLinkReferences": {}
}