{
  "_format": "hh-sol-artifact-1",
  "contractName": "USC",
  "sourceName": "contracts/tokens/USC.sol",
  "abi": [
    {
      "inputs": [],
      "stateMutability": "nonpayable",
      "type": "constructor"
    },
    {
      "inputs": [
        {
          "internalType": "address",
          "name": "_caller",
          "type": "address"
        }
      ],
      "name": "NotMinter",
      "type": "error"
    },
    {
      "inputs": [],
      "name": "ZeroAddress",
      "type": "error"
    },
    {
      "anonymous": false,
      "inputs": [
        {
          "indexed": true,
          "internalType": "address",
          "name": "owner",
          "type": "address"
        },
        {
          "indexed": true,
          "internalType": "address",
          "name": "spender",
          "type": "address"
        },
        {
          "indexed": false,
          "internalType": "uint256",
          "name": "value",
          "type": "uint256"
        }
      ],
      "name": "Approval",
      "type": "event"
    },
    {
      "anonymous": false,
      "inputs": [
        {
          "indexed": true,
          "internalType": "address",
          "name": "previousOwner",
          "type": "address"
        },
        {
          "indexed": true,
          "internalType": "address",
          "name": "newOwner",
          "type": "address"
        }
      ],
      "name": "OwnershipTransferred",
      "type": "event"
    },
    {
      "anonymous": false,
      "inputs": [
        {
          "indexed": true,
          "internalType": "address",
          "name": "from",
          "type": "address"
        },
        {
          "indexed": true,
          "internalType": "address",
          "name": "to",
          "type": "address"
        },
        {
          "indexed": false,
          "internalType": "uint256",
          "name": "value",
          "type": "uint256"
        }
      ],
      "name": "Transfer",
      "type": "event"
    },
    {
      "anonymous": false,
      "inputs": [
        {
          "indexed": true,
          "internalType": "address",
          "name": "_account",
          "type": "address"
        },
        {
          "indexed": true,
          "internalType": "bool",
          "name": "_status",
          "type": "bool"
        }
      ],
      "name": "UpdateMinter",
      "type": "event"
    },
    {
      "inputs": [
        {
          "internalType": "address",
          "name": "owner",
          "type": "address"
        },
        {
          "internalType": "address",
          "name": "spender",
          "type": "address"
        }
      ],
      "name": "allowance",
      "outputs": [
        {
          "internalType": "uint256",
          "name": "",
          "type": "uint256"
        }
      ],
      "stateMutability": "view",
      "type": "function"
    },
    {
      "inputs": [
        {
          "internalType": "address",
          "name": "spender",
          "type": "address"
        },
        {
          "internalType": "uint256",
          "name": "amount",
          "type": "uint256"
        }
      ],
      "name": "approve",
      "outputs": [
        {
          "internalType": "bool",
          "name": "",
          "type": "bool"
        }
      ],
      "stateMutability": "nonpayable",
      "type": "function"
    },
    {
      "inputs": [
        {
          "internalType": "address",
          "name": "account",
          "type": "address"
        }
      ],
      "name": "balanceOf",
      "outputs": [
        {
          "internalType": "uint256",
          "name": "",
          "type": "uint256"
        }
      ],
      "stateMutability": "view",
      "type": "function"
    },
    {
      "inputs": [
        {
          "internalType": "uint256",
          "name": "amount",
          "type": "uint256"
        }
      ],
      "name": "burn",
      "outputs": [],
      "stateMutability": "nonpayable",
      "type": "function"
    },
    {
      "inputs": [
        {
          "internalType": "address",
          "name": "account",
          "type": "address"
        },
        {
          "internalType": "uint256",
          "name": "amount",
          "type": "uint256"
        }
      ],
      "name": "burnFrom",
      "outputs": [],
      "stateMutability": "nonpayable",
      "type": "function"
    },
    {
      "inputs": [],
      "name": "decimals",
      "outputs": [
        {
          "internalType": "uint8",
          "name": "",
          "type": "uint8"
        }
      ],
      "stateMutability": "view",
      "type": "function"
    },
    {
      "inputs": [
        {
          "internalType": "address",
          "name": "spender",
          "type": "address"
        },
        {
          "internalType": "uint256",
          "name": "subtractedValue",
          "type": "uint256"
        }
      ],
      "name": "decreaseAllowance",
      "outputs": [
        {
          "internalType": "bool",
          "name": "",
          "type": "bool"
        }
      ],
      "stateMutability": "nonpayable",
      "type": "function"
    },
    {
      "inputs": [
        {
          "internalType": "address",
          "name": "spender",
          "type": "address"
        },
        {
          "internalType": "uint256",
          "name": "addedValue",
          "type": "uint256"
        }
      ],
      "name": "increaseAllowance",
      "outputs": [
        {
          "internalType": "bool",
          "name": "",
          "type": "bool"
        }
      ],
      "stateMutability": "nonpayable",
      "type": "function"
    },
    {
      "inputs": [
        {
          "internalType": "address",
          "name": "",
          "type": "address"
        }
      ],
      "name": "isMinter",
      "outputs": [
        {
          "internalType": "bool",
          "name": "",
          "type": "bool"
        }
      ],
      "stateMutability": "view",
      "type": "function"
    },
    {
      "inputs": [
        {
          "internalType": "address",
          "name": "account",
          "type": "address"
        },
        {
          "internalType": "uint256",
          "name": "amount",
          "type": "uint256"
        }
      ],
      "name": "mint",
      "outputs": [],
      "stateMutability": "nonpayable",
      "type": "function"
    },
    {
      "inputs": [],
      "name": "name",
      "outputs": [
        {
          "internalType": "string",
          "name": "",
          "type": "string"
        }
      ],
      "stateMutability": "view",
      "type": "function"
    },
    {
      "inputs": [],
      "name": "owner",
      "outputs": [
        {
          "internalType": "address",
          "name": "",
          "type": "address"
        }
      ],
      "stateMutability": "view",
      "type": "function"
    },
    {
      "inputs": [],
      "name": "renounceOwnership",
      "outputs": [],
      "stateMutability": "nonpayable",
      "type": "function"
    },
    {
      "inputs": [],
      "name": "symbol",
      "outputs": [
        {
          "internalType": "string",
          "name": "",
          "type": "string"
        }
      ],
      "stateMutability": "view",
      "type": "function"
    },
    {
      "inputs": [],
      "name": "totalSupply",
      "outputs": [
        {
          "internalType": "uint256",
          "name": "",
          "type": "uint256"
        }
      ],
      "stateMutability": "view",
      "type": "function"
    },
    {
      "inputs": [
        {
          "internalType": "address",
          "name": "to",
          "type": "address"
        },
        {
          "internalType": "uint256",
          "name": "amount",
          "type": "uint256"
        }
      ],
      "name": "transfer",
      "outputs": [
        {
          "internalType": "bool",
          "name": "",
          "type": "bool"
        }
      ],
      "stateMutability": "nonpayable",
      "type": "function"
    },
    {
      "inputs": [
        {
          "internalType": "address",
          "name": "from",
          "type": "address"
        },
        {
          "internalType": "address",
          "name": "to",
          "type": "address"
        },
        {
          "internalType": "uint256",
          "name": "amount",
          "type": "uint256"
        }
      ],
      "name": "transferFrom",
      "outputs": [
        {
          "internalType": "bool",
          "name": "",
          "type": "bool"
        }
      ],
      "stateMutability": "nonpayable",
      "type": "function"
    },
    {
      "inputs": [
        {
          "internalType": "address",
          "name": "newOwner",
          "type": "address"
        }
      ],
      "name": "transferOwnership",
      "outputs": [],
      "stateMutability": "nonpayable",
      "type": "function"
    },
    {
      "inputs": [
        {
          "internalType": "address",
          "name": "account",
          "type": "address"
        },
        {
          "internalType": "bool",
          "name": "status",
          "type": "bool"
        }
      ],
      "name": "updateMinter",
      "outputs": [],
      "stateMutability": "nonpayable",
      "type": "function"
    }
  ],
  "bytecode": "0x60806040523462000323576200001462000328565b6200001e62000328565b8151906001600160401b039081831162000223576003908154906001948583811c931696871562000318575b6020978885101462000302578190601f94858111620002ac575b508890858311600114620002455760009262000239575b505060001982861b1c191690861b1783555b8051938411620002235760049586548681811c9116801562000218575b828210146200020357838111620001b8575b50809285116001146200014a57509383949184926000956200013e575b50501b92600019911b1c19161790555b60058054336001600160a01b03198216811790925560405191906001600160a01b03167f8be0079c531659141344cd1fd0a4f28419497f9722a3daafe3b4186f6b6457e0600080a3610ded9081620003598239f35b015193503880620000d9565b92919084601f1981168860005285600020956000905b898383106200019d575050501062000182575b50505050811b019055620000e9565b01519060f884600019921b161c191690553880808062000173565b85870151895590970196948501948893509081019062000160565b87600052816000208480880160051c820192848910620001f9575b0160051c019087905b828110620001ec575050620000bc565b60008155018790620001dc565b92508192620001d3565b602288634e487b7160e01b6000525260246000fd5b90607f1690620000aa565b634e487b7160e01b600052604160045260246000fd5b0151905038806200007b565b90889350601f19831691876000528a6000209260005b8c8282106200029557505084116200027c575b505050811b0183556200008d565b015160001983881b60f8161c191690553880806200026e565b8385015186558c979095019493840193016200025b565b90915085600052886000208580850160051c8201928b8610620002f8575b918a91869594930160051c01915b828110620002e857505062000064565b600081558594508a9101620002d8565b92508192620002ca565b634e487b7160e01b600052602260045260246000fd5b92607f16926200004a565b600080fd5b60408051919082016001600160401b038111838210176200022357604052600382526255534360e81b602083015256fe6080604081815260048036101561001557600080fd5b600092833560e01c90816306fdde03146107c057508063095ea7b31461079657806318160ddd1461077757806323b872dd1461073a578063313ce5671461071e57806339509351146106ce57806340c10f19146105f857806342966c68146105ae57806343620e711461051d57806370a08231146104e6578063715018a61461049b57806379cc6790146104385780638da5cb5b1461040f57806395d89b411461030d578063a457c2d714610266578063a9059cbb14610235578063aa271e1a146101f7578063dd62ed3e146101aa5763f2fde38b146100f457600080fd5b346101a65760203660031901126101a65761010d6108e0565b90610116610911565b6001600160a01b03918216928315610154575050600580546001600160a01b03198116841790915516600080516020610d788339815191528380a380f35b906020608492519162461bcd60e51b8352820152602660248201527f4f776e61626c653a206e6577206f776e657220697320746865207a65726f206160448201526564647265737360d01b6064820152fd5b8280fd5b5050346101f357806003193601126101f357806020926101c86108e0565b6101d06108fb565b6001600160a01b0391821683526001865283832091168252845220549051908152f35b5080fd5b5050346101f35760203660031901126101f35760209160ff9082906001600160a01b036102226108e0565b1681526006855220541690519015158152f35b5050346101f357806003193601126101f35760209061025f6102556108e0565b602435903361098c565b5160018152f35b50823461030a578260031936011261030a576102806108e0565b918360243592338152600160205281812060018060a01b03861682526020522054908282106102b95760208561025f8585038733610ae8565b608490602086519162461bcd60e51b8352820152602560248201527f45524332303a2064656372656173656420616c6c6f77616e63652062656c6f77604482015264207a65726f60d81b6064820152fd5b80fd5b509190346101f357816003193601126101f357805190828454600181811c90808316928315610405575b60209384841081146103f2578388529081156103d6575060011461039e575b505050829003601f01601f19168201926001600160401b0384118385101761038b5750829182610387925282610897565b0390f35b634e487b7160e01b815260418552602490fd5b919250868652828620918387935b8385106103c25750505050830101388080610356565b8054888601830152930192849082016103ac565b60ff1916878501525050151560051b8401019050388080610356565b634e487b7160e01b895260228a52602489fd5b91607f1691610337565b5050346101f357816003193601126101f35760055490516001600160a01b039091168152602090f35b508290346101f357826003193601126101f3576104536108e0565b60243591338452600660205260ff8585205416156104845750906104819161047c823383610bea565b610c82565b80f35b602490855190631b0e18f960e11b82523390820152fd5b833461030a578060031936011261030a576104b4610911565b600580546001600160a01b0319811690915581906001600160a01b0316600080516020610d788339815191528280a380f35b5050346101f35760203660031901126101f35760209181906001600160a01b0361050e6108e0565b16815280845220549051908152f35b50346101a657816003193601126101a6576105366108e0565b91602435928315158094036105aa5761054d610911565b6001600160a01b031691821561059c57508184526006602052832060ff1981541660ff84161790557fc6a23a0a2412457bc174b0b04538a04d162131389a2e6bafcb3c90d104004e168380a380f35b905163d92e233d60e01b8152fd5b8480fd5b5090346101a65760203660031901126101a657338352600660205260ff8184205416156105e15750610481903533610c82565b602492505190631b0e18f960e11b82523390820152fd5b5090346101a657806003193601126101a6576106126108e0565b9060243591338552600660205260ff8286205416156106b8576001600160a01b03169283156106765750602082600080516020610d988339815191529261065c8795600254610969565b60025585855284835280852082815401905551908152a380f35b6020606492519162461bcd60e51b8352820152601f60248201527f45524332303a206d696e7420746f20746865207a65726f2061646472657373006044820152fd5b8151631b0e18f960e11b81523381860152602490fd5b5050346101f357806003193601126101f35761025f6020926107176106f16108e0565b338352600186528483206001600160a01b03821684528652918490205460243590610969565b9033610ae8565b5050346101f357816003193601126101f3576020905160128152f35b5050346101f35760603660031901126101f35760209061025f61075b6108e0565b6107636108fb565b60443591610772833383610bea565b61098c565b5050346101f357816003193601126101f3576020906002549051908152f35b5050346101f357806003193601126101f35760209061025f6107b66108e0565b6024359033610ae8565b84915083346101a657826003193601126101a65782600354600181811c9080831692831561088d575b60209384841081146103f257838852908115610871575060011461083857505050829003601f01601f19168201926001600160401b0384118385101761038b5750829182610387925282610897565b91925060038652828620918387935b83851061085d5750505050830101858080610356565b805488860183015293019284908201610847565b60ff1916878501525050151560051b8401019050858080610356565b91607f16916107e9565b6020808252825181830181905290939260005b8281106108cc57505060409293506000838284010152601f8019910116010190565b8181018601518482016040015285016108aa565b600435906001600160a01b03821682036108f657565b600080fd5b602435906001600160a01b03821682036108f657565b6005546001600160a01b0316330361092557565b606460405162461bcd60e51b815260206004820152602060248201527f4f776e61626c653a2063616c6c6572206973206e6f7420746865206f776e65726044820152fd5b9190820180921161097657565b634e487b7160e01b600052601160045260246000fd5b6001600160a01b03908116918215610a955716918215610a44576000828152806020526040812054918083106109f05760408282600080516020610d98833981519152958760209652828652038282205586815220818154019055604051908152a3565b60405162461bcd60e51b815260206004820152602660248201527f45524332303a207472616e7366657220616d6f756e7420657863656564732062604482015265616c616e636560d01b6064820152608490fd5b60405162461bcd60e51b815260206004820152602360248201527f45524332303a207472616e7366657220746f20746865207a65726f206164647260448201526265737360e81b6064820152608490fd5b60405162461bcd60e51b815260206004820152602560248201527f45524332303a207472616e736665722066726f6d20746865207a65726f206164604482015264647265737360d81b6064820152608490fd5b6001600160a01b03908116918215610b995716918215610b495760207f8c5be1e5ebec7d5bd14f71427d1e84f3dd0314c0f7b2291e5b200ac8c7c3b925918360005260018252604060002085600052825280604060002055604051908152a3565b60405162461bcd60e51b815260206004820152602260248201527f45524332303a20617070726f766520746f20746865207a65726f206164647265604482015261737360f01b6064820152608490fd5b60405162461bcd60e51b8152602060048201526024808201527f45524332303a20617070726f76652066726f6d20746865207a65726f206164646044820152637265737360e01b6064820152608490fd5b9060018060a01b0380831660005260016020526040600020908216600052602052604060002054926000198403610c22575b50505050565b808410610c3d57610c34930391610ae8565b38808080610c1c565b60405162461bcd60e51b815260206004820152601d60248201527f45524332303a20696e73756666696369656e7420616c6c6f77616e63650000006044820152606490fd5b6001600160a01b03168015610d2857600091818352826020526040832054818110610cd85781600080516020610d98833981519152926020928587528684520360408620558060025403600255604051908152a3565b60405162461bcd60e51b815260206004820152602260248201527f45524332303a206275726e20616d6f756e7420657863656564732062616c616e604482015261636560f01b6064820152608490fd5b60405162461bcd60e51b815260206004820152602160248201527f45524332303a206275726e2066726f6d20746865207a65726f206164647265736044820152607360f81b6064820152608490fdfe8be0079c531659141344cd1fd0a4f28419497f9722a3daafe3b4186f6b6457e0ddf252ad1be2c89b69c2b068fc378daa952ba7f163c4a11628f55a4df523b3efa2646970667358221220862813804ecda1cf9f0899ec5367994a56e205d976dd094b4233366a0d4b34c464736f6c63430008120033",
  "linkReferences": {},
  "deployedLinkReferences": {}
}