{
  "_format": "hh-sol-artifact-1",
  "contractName": "USCStaking",
  "sourceName": "contracts/staking/USCStaking.sol",
  "abi": [
    {
      "inputs": [
        {
          "internalType": "uint256",
          "name": "stakedBalance",
          "type": "uint256"
        },
        {
          "internalType": "uint256",
          "name": "amount",
          "type": "uint256"
        }
      ],
      "name": "AmountBelowStakedBalance",
      "type": "error"
    },
    {
      "inputs": [
        {
          "internalType": "uint256",
          "name": "duration",
          "type": "uint256"
        }
      ],
      "name": "InvalidDuration",
      "type": "error"
    },
    {
      "inputs": [],
      "name": "NotClaimable",
      "type": "error"
    },
    {
      "inputs": [],
      "name": "NotRewardController",
      "type": "error"
    },
    {
      "inputs": [],
      "name": "ZeroAmount",
      "type": "error"
    },
    {
      "anonymous": false,
      "inputs": [
        {
          "indexed": true,
          "internalType": "address",
          "name": "owner",
          "type": "address"
        },
        {
          "indexed": true,
          "internalType": "address",
          "name": "spender",
          "type": "address"
        },
        {
          "indexed": false,
          "internalType": "uint256",
          "name": "value",
          "type": "uint256"
        }
      ],
      "name": "Approval",
      "type": "event"
    },
    {
      "anonymous": false,
      "inputs": [
        {
          "indexed": true,
          "internalType": "address",
          "name": "account",
          "type": "address"
        },
        {
          "indexed": false,
          "internalType": "uint256",
          "name": "amount",
          "type": "uint256"
        }
      ],
      "name": "ClaimStETH",
      "type": "event"
    },
    {
      "anonymous": false,
      "inputs": [
        {
          "indexed": true,
          "internalType": "address",
          "name": "account",
          "type": "address"
        },
        {
          "indexed": false,
          "internalType": "uint256",
          "name": "amount",
          "type": "uint256"
        }
      ],
      "name": "ClaimUSCRewards",
      "type": "event"
    },
    {
      "anonymous": false,
      "inputs": [
        {
          "indexed": false,
          "internalType": "uint8",
          "name": "version",
          "type": "uint8"
        }
      ],
      "name": "Initialized",
      "type": "event"
    },
    {
      "anonymous": false,
      "inputs": [
        {
          "indexed": true,
          "internalType": "address",
          "name": "account",
          "type": "address"
        },
        {
          "indexed": false,
          "internalType": "uint256",
          "name": "amount",
          "type": "uint256"
        },
        {
          "indexed": false,
          "internalType": "uint256",
          "name": "duration",
          "type": "uint256"
        }
      ],
      "name": "LockChi",
      "type": "event"
    },
    {
      "anonymous": false,
      "inputs": [
        {
          "indexed": true,
          "internalType": "address",
          "name": "previousOwner",
          "type": "address"
        },
        {
          "indexed": true,
          "internalType": "address",
          "name": "newOwner",
          "type": "address"
        }
      ],
      "name": "OwnershipTransferred",
      "type": "event"
    },
    {
      "anonymous": false,
      "inputs": [
        {
          "indexed": true,
          "internalType": "address",
          "name": "account",
          "type": "address"
        },
        {
          "indexed": false,
          "internalType": "uint256",
          "name": "amount",
          "type": "uint256"
        }
      ],
      "name": "Stake",
      "type": "event"
    },
    {
      "anonymous": false,
      "inputs": [
        {
          "indexed": true,
          "internalType": "address",
          "name": "from",
          "type": "address"
        },
        {
          "indexed": true,
          "internalType": "address",
          "name": "to",
          "type": "address"
        },
        {
          "indexed": false,
          "internalType": "uint256",
          "name": "value",
          "type": "uint256"
        }
      ],
      "name": "Transfer",
      "type": "event"
    },
    {
      "anonymous": false,
      "inputs": [
        {
          "indexed": true,
          "internalType": "address",
          "name": "account",
          "type": "address"
        },
        {
          "indexed": false,
          "internalType": "uint256",
          "name": "amount",
          "type": "uint256"
        }
      ],
      "name": "Unstake",
      "type": "event"
    },
    {
      "anonymous": false,
      "inputs": [
        {
          "indexed": true,
          "internalType": "uint256",
          "name": "epoch",
          "type": "uint256"
        },
        {
          "indexed": false,
          "internalType": "uint256",
          "name": "chiEmissions",
          "type": "uint256"
        },
        {
          "indexed": false,
          "internalType": "uint256",
          "name": "uscRewards",
          "type": "uint256"
        },
        {
          "indexed": false,
          "internalType": "uint256",
          "name": "stETHrewards",
          "type": "uint256"
        }
      ],
      "name": "UpdateEpoch",
      "type": "event"
    },
    {
      "inputs": [],
      "name": "MAX_LOCK_DURATION",
      "outputs": [
        {
          "internalType": "uint256",
          "name": "",
          "type": "uint256"
        }
      ],
      "stateMutability": "view",
      "type": "function"
    },
    {
      "inputs": [],
      "name": "MIN_LOCK_DURATION",
      "outputs": [
        {
          "internalType": "uint256",
          "name": "",
          "type": "uint256"
        }
      ],
      "stateMutability": "view",
      "type": "function"
    },
    {
      "inputs": [
        {
          "internalType": "address",
          "name": "account",
          "type": "address"
        },
        {
          "internalType": "enum IStakingWithEpochs.RewardToken",
          "name": "token",
          "type": "uint8"
        }
      ],
      "name": "_getCurrentReward",
      "outputs": [
        {
          "internalType": "uint256",
          "name": "",
          "type": "uint256"
        }
      ],
      "stateMutability": "view",
      "type": "function"
    },
    {
      "inputs": [
        {
          "internalType": "address",
          "name": "owner",
          "type": "address"
        },
        {
          "internalType": "address",
          "name": "spender",
          "type": "address"
        }
      ],
      "name": "allowance",
      "outputs": [
        {
          "internalType": "uint256",
          "name": "",
          "type": "uint256"
        }
      ],
      "stateMutability": "view",
      "type": "function"
    },
    {
      "inputs": [
        {
          "internalType": "address",
          "name": "spender",
          "type": "address"
        },
        {
          "internalType": "uint256",
          "name": "amount",
          "type": "uint256"
        }
      ],
      "name": "approve",
      "outputs": [
        {
          "internalType": "bool",
          "name": "",
          "type": "bool"
        }
      ],
      "stateMutability": "nonpayable",
      "type": "function"
    },
    {
      "inputs": [
        {
          "internalType": "address",
          "name": "account",
          "type": "address"
        }
      ],
      "name": "balanceOf",
      "outputs": [
        {
          "internalType": "uint256",
          "name": "",
          "type": "uint256"
        }
      ],
      "stateMutability": "view",
      "type": "function"
    },
    {
      "inputs": [],
      "name": "chi",
      "outputs": [
        {
          "internalType": "contract IERC20",
          "name": "",
          "type": "address"
        }
      ],
      "stateMutability": "view",
      "type": "function"
    },
    {
      "inputs": [],
      "name": "chiAmountFromEmissions",
      "outputs": [
        {
          "internalType": "uint256",
          "name": "",
          "type": "uint256"
        }
      ],
      "stateMutability": "view",
      "type": "function"
    },
    {
      "inputs": [],
      "name": "chiLockingContract",
      "outputs": [
        {
          "internalType": "contract IChiLocking",
          "name": "",
          "type": "address"
        }
      ],
      "stateMutability": "view",
      "type": "function"
    },
    {
      "inputs": [
        {
          "internalType": "address",
          "name": "account",
          "type": "address"
        }
      ],
      "name": "claimStETH",
      "outputs": [
        {
          "internalType": "uint256",
          "name": "",
          "type": "uint256"
        }
      ],
      "stateMutability": "nonpayable",
      "type": "function"
    },
    {
      "inputs": [],
      "name": "claimUSCRewards",
      "outputs": [],
      "stateMutability": "nonpayable",
      "type": "function"
    },
    {
      "inputs": [],
      "name": "currentEpoch",
      "outputs": [
        {
          "internalType": "uint256",
          "name": "",
          "type": "uint256"
        }
      ],
      "stateMutability": "view",
      "type": "function"
    },
    {
      "inputs": [],
      "name": "decimals",
      "outputs": [
        {
          "internalType": "uint8",
          "name": "",
          "type": "uint8"
        }
      ],
      "stateMutability": "view",
      "type": "function"
    },
    {
      "inputs": [
        {
          "internalType": "address",
          "name": "spender",
          "type": "address"
        },
        {
          "internalType": "uint256",
          "name": "subtractedValue",
          "type": "uint256"
        }
      ],
      "name": "decreaseAllowance",
      "outputs": [
        {
          "internalType": "bool",
          "name": "",
          "type": "bool"
        }
      ],
      "stateMutability": "nonpayable",
      "type": "function"
    },
    {
      "inputs": [
        {
          "internalType": "uint256",
          "name": "",
          "type": "uint256"
        }
      ],
      "name": "epochs",
      "outputs": [
        {
          "internalType": "uint256",
          "name": "shares",
          "type": "uint256"
        }
      ],
      "stateMutability": "view",
      "type": "function"
    },
    {
      "inputs": [
        {
          "internalType": "uint256",
          "name": "epoch",
          "type": "uint256"
        },
        {
          "internalType": "enum IStakingWithEpochs.RewardToken",
          "name": "token",
          "type": "uint8"
        }
      ],
      "name": "getCumulativeRewardsPerShare",
      "outputs": [
        {
          "internalType": "uint256",
          "name": "",
          "type": "uint256"
        }
      ],
      "stateMutability": "view",
      "type": "function"
    },
    {
      "inputs": [],
      "name": "getStakedChi",
      "outputs": [
        {
          "internalType": "uint256",
          "name": "",
          "type": "uint256"
        }
      ],
      "stateMutability": "view",
      "type": "function"
    },
    {
      "inputs": [
        {
          "internalType": "address",
          "name": "account",
          "type": "address"
        },
        {
          "internalType": "enum IStakingWithEpochs.RewardToken",
          "name": "token",
          "type": "uint8"
        }
      ],
      "name": "getUnclaimedRewards",
      "outputs": [
        {
          "internalType": "uint256",
          "name": "",
          "type": "uint256"
        }
      ],
      "stateMutability": "view",
      "type": "function"
    },
    {
      "inputs": [
        {
          "internalType": "address",
          "name": "spender",
          "type": "address"
        },
        {
          "internalType": "uint256",
          "name": "addedValue",
          "type": "uint256"
        }
      ],
      "name": "increaseAllowance",
      "outputs": [
        {
          "internalType": "bool",
          "name": "",
          "type": "bool"
        }
      ],
      "stateMutability": "nonpayable",
      "type": "function"
    },
    {
      "inputs": [
        {
          "internalType": "contract IERC20",
          "name": "_usc",
          "type": "address"
        },
        {
          "internalType": "contract IERC20",
          "name": "_chi",
          "type": "address"
        },
        {
          "internalType": "contract IChiLocking",
          "name": "_chiLockingContract",
          "type": "address"
        }
      ],
      "name": "initialize",
      "outputs": [],
      "stateMutability": "nonpayable",
      "type": "function"
    },
    {
      "inputs": [
        {
          "internalType": "uint256",
          "name": "duration",
          "type": "uint256"
        }
      ],
      "name": "lockChi",
      "outputs": [],
      "stateMutability": "nonpayable",
      "type": "function"
    },
    {
      "inputs": [],
      "name": "name",
      "outputs": [
        {
          "internalType": "string",
          "name": "",
          "type": "string"
        }
      ],
      "stateMutability": "view",
      "type": "function"
    },
    {
      "inputs": [],
      "name": "owner",
      "outputs": [
        {
          "internalType": "address",
          "name": "",
          "type": "address"
        }
      ],
      "stateMutability": "view",
      "type": "function"
    },
    {
      "inputs": [],
      "name": "renounceOwnership",
      "outputs": [],
      "stateMutability": "nonpayable",
      "type": "function"
    },
    {
      "inputs": [],
      "name": "rewardController",
      "outputs": [
        {
          "internalType": "address",
          "name": "",
          "type": "address"
        }
      ],
      "stateMutability": "view",
      "type": "function"
    },
    {
      "inputs": [
        {
          "internalType": "address",
          "name": "_rewardController",
          "type": "address"
        }
      ],
      "name": "setRewardController",
      "outputs": [],
      "stateMutability": "nonpayable",
      "type": "function"
    },
    {
      "inputs": [
        {
          "internalType": "uint256",
          "name": "amount",
          "type": "uint256"
        }
      ],
      "name": "stake",
      "outputs": [],
      "stateMutability": "nonpayable",
      "type": "function"
    },
    {
      "inputs": [],
      "name": "stakeToken",
      "outputs": [
        {
          "internalType": "contract IERC20",
          "name": "",
          "type": "address"
        }
      ],
      "stateMutability": "view",
      "type": "function"
    },
    {
      "inputs": [
        {
          "internalType": "address",
          "name": "",
          "type": "address"
        }
      ],
      "name": "stakes",
      "outputs": [
        {
          "internalType": "uint256",
          "name": "lastUpdatedEpoch",
          "type": "uint256"
        },
        {
          "internalType": "uint256",
          "name": "shares",
          "type": "uint256"
        },
        {
          "internalType": "uint256",
          "name": "addSharesNextEpoch",
          "type": "uint256"
        }
      ],
      "stateMutability": "view",
      "type": "function"
    },
    {
      "inputs": [],
      "name": "symbol",
      "outputs": [
        {
          "internalType": "string",
          "name": "",
          "type": "string"
        }
      ],
      "stateMutability": "view",
      "type": "function"
    },
    {
      "inputs": [],
      "name": "totalSupply",
      "outputs": [
        {
          "internalType": "uint256",
          "name": "",
          "type": "uint256"
        }
      ],
      "stateMutability": "view",
      "type": "function"
    },
    {
      "inputs": [
        {
          "internalType": "address",
          "name": "to",
          "type": "address"
        },
        {
          "internalType": "uint256",
          "name": "amount",
          "type": "uint256"
        }
      ],
      "name": "transfer",
      "outputs": [
        {
          "internalType": "bool",
          "name": "",
          "type": "bool"
        }
      ],
      "stateMutability": "nonpayable",
      "type": "function"
    },
    {
      "inputs": [
        {
          "internalType": "address",
          "name": "from",
          "type": "address"
        },
        {
          "internalType": "address",
          "name": "to",
          "type": "address"
        },
        {
          "internalType": "uint256",
          "name": "amount",
          "type": "uint256"
        }
      ],
      "name": "transferFrom",
      "outputs": [
        {
          "internalType": "bool",
          "name": "",
          "type": "bool"
        }
      ],
      "stateMutability": "nonpayable",
      "type": "function"
    },
    {
      "inputs": [
        {
          "internalType": "address",
          "name": "newOwner",
          "type": "address"
        }
      ],
      "name": "transferOwnership",
      "outputs": [],
      "stateMutability": "nonpayable",
      "type": "function"
    },
    {
      "inputs": [
        {
          "internalType": "address",
          "name": "account",
          "type": "address"
        }
      ],
      "name": "unclaimedStETHAmount",
      "outputs": [
        {
          "internalType": "uint256",
          "name": "",
          "type": "uint256"
        }
      ],
      "stateMutability": "view",
      "type": "function"
    },
    {
      "inputs": [
        {
          "internalType": "uint256",
          "name": "amount",
          "type": "uint256"
        }
      ],
      "name": "unstake",
      "outputs": [],
      "stateMutability": "nonpayable",
      "type": "function"
    },
    {
      "inputs": [
        {
          "internalType": "uint256",
          "name": "chiEmissions",
          "type": "uint256"
        },
        {
          "internalType": "uint256",
          "name": "uscRewards",
          "type": "uint256"
        },
        {
          "internalType": "uint256",
          "name": "stETHrewards",
          "type": "uint256"
        }
      ],
      "name": "updateEpoch",
      "outputs": [],
      "stateMutability": "nonpayable",
      "type": "function"
    }
  ],
  "bytecode": "0x6080806040523461001657612668908161001c8239f35b600080fdfe608080604052600436101561001357600080fd5b600090813560e01c90816306fdde031461177557508063095ea7b31461174e57806316934fc4146116f457806318160ddd146116d657806323b872dd1461161c5780632e17de78146113615780632f8ed06b14611328578063313ce5671461130c57806339509351146112bb5780633a586112146111805780633f9ffb7d14610ff05780634f1bfc9e14610fd457806351ed6a3014610fad57806370a0823114610f75578063715018a614610f0c5780637667180814610eee57806378b4330f14610ed25780637c99396114610e865780638cc5ce9914610e5f5780638da5cb5b14610e385780638f0cbf8a14610dff57806395d89b4114610d1e578063a457c2d714610c61578063a694fc3a14610a71578063a9059cbb14610a3f578063be596d3a1461096d578063c0c53b8b14610429578063c6b61e4c146103ff578063c89785a3146102ce578063c92aecc4146103d8578063dd3c0b951461033c578063dd62ed3e146102ec578063df9f28c5146102ce578063e8c3a808146102aa578063f2fde38b14610203578063f9ab4f90146101dc5763fb5cdc2a146101b857600080fd5b346101d95760206101d16101cb36611891565b906123cf565b604051908152f35b80fd5b50346101d957806003193601126101d95760206001600160a01b03609d5416604051908152f35b50346101d95760203660031901126101d95761021d611860565b6102256118c0565b6001600160a01b038116156102405761023d90611918565b80f35b608460405162461bcd60e51b815260206004820152602660248201527f4f776e61626c653a206e6577206f776e657220697320746865207a65726f206160448201527f64647265737300000000000000000000000000000000000000000000000000006064820152fd5b50346101d95760203660031901126101d95760206101d16102c9611860565b61228a565b50346101d957806003193601126101d9576020609e54604051908152f35b50346101d95760403660031901126101d957610306611860565b604061031061187b565b926001600160a01b03809316815260666020522091166000526020526020604060002054604051908152f35b50346101d957806003193601126101d95761035633611f81565b33600052609a60205260036040600020016000805260205260406000205433600052609a602052600360406000200160008052602052600060408120556103a981336001600160a01b0360975416611f19565b6040519081527f0cea85328492488ac28180e0a1db746b3a2ec9e18a44db26a9f868ada6c93ce660203392a280f35b50346101d957806003193601126101d95760206001600160a01b03609c5416604051908152f35b50346101d95760203660031901126101d95760406020916004358152609b83522054604051908152f35b50346101d95760603660031901126101d957610443611860565b61044b61187b565b906044356001600160a01b03811681036109695783549260ff8460081c16159384809561095c575b8015610945575b156108db5760ff1981166001178655846108ca575b506104a960ff865460081c166104a4816124e5565b6124e5565b6104b233611918565b6040516104be816119a7565b600a81527f5374616b656420555343000000000000000000000000000000000000000000006020820152604051906104f5826119a7565b600582527f7374555343000000000000000000000000000000000000000000000000000000602083015261053c60ff885460081c16610533816124e5565b6104a4816124e5565b80519067ffffffffffffffff82116108b657819061055b60685461196d565b601f811161080e575b50602090601f831160011461078657899261077b575b50508160011b916000199060031b1c1916176068555b80519067ffffffffffffffff8211610767576105ad60695461196d565b601f8111610704575b50602090601f83116001146106755791806001600160a01b0395949286948a9261066a575b50508160011b916000199060031b1c1916176069555b8173ffffffffffffffffffffffffffffffffffffffff19951685609754161760975560016099551683609c541617609c551690609d541617609d556106335780f35b61ff001981541681557f7f26b83ff96e1f2b6a682f133852f6798a09c465da95921460cefb3847402498602060405160018152a180f35b0151905038806105db565b606988527f7fb4302e8e91f9110a6554c2c0a24601252c2a42c2220ca988efcfe3999143089190601f198416895b8181106106ec57509260019285926001600160a01b03989795968997106106d3575b505050811b016069556105f1565b015160001960f88460031b161c191690553880806106c5565b929360206001819287860151815501950193016106a3565b606988527f7fb4302e8e91f9110a6554c2c0a24601252c2a42c2220ca988efcfe399914308601f840160051c8101916020851061075d575b601f0160051c01905b81811061075257506105b6565b888155600101610745565b909150819061073c565b602487634e487b7160e01b81526041600452fd5b01519050388061057a565b9250606889527fa2153420d844928b4421650203c77babc8b33d7f2e7b450e2966db0c220977539089935b601f19841685106107f3576001945083601f198116106107da575b505050811b01606855610590565b015160001960f88460031b161c191690553880806107cc565b818101518355602094850194600190930192909101906107b1565b90915060688952601f830160051c7fa2153420d844928b4421650203c77babc8b33d7f2e7b450e2966db0c22097753016020841061088f575b908392915b601f820160051c7fa2153420d844928b4421650203c77babc8b33d7f2e7b450e2966db0c220977530181106108815750610564565b8a815584935060010161084c565b507fa2153420d844928b4421650203c77babc8b33d7f2e7b450e2966db0c22097753610847565b602488634e487b7160e01b81526041600452fd5b61ffff19166101011785553861048f565b608460405162461bcd60e51b815260206004820152602e60248201527f496e697469616c697a61626c653a20636f6e747261637420697320616c72656160448201527f647920696e697469616c697a65640000000000000000000000000000000000006064820152fd5b50303b15801561047a5750600160ff82161461047a565b50600160ff821610610473565b8380fd5b50346101d957602090816003193601126101d9575061098a611860565b6001600160a01b039081609854163303610a15576109a781611f81565b1680600052609a82526003604060002001600260005282526040600020549080600052609a8352600360406000200160026000528352600060408120557fec968375d87c8bc8b1fb440238b4e7bc0babfbbdba5dc249a1e08cb5e2a19f2283604051848152a2604051908152f35b60046040517f8a7d9d14000000000000000000000000000000000000000000000000000000008152fd5b50346101d95760403660031901126101d957610a66610a5c611860565b6024359033611a08565b602060405160018152f35b50346101d957602080600319360112610c5d57600435908115610c33576001600160a01b03609754166040517f23b872dd00000000000000000000000000000000000000000000000000000000838201523360248201523060448201528360648201526064815260a081019181831067ffffffffffffffff841117610c1d57610afc92604052611d20565b610b0533611f81565b338352609a815260026040842001610b1e8382546119e5565b905560995460018101809111610c09578352609b815260408320610b438382546119e5565b90553315610bc5577febedb8b3c678666e7f36970bc8f57abf6d8fa2e828c0da91ea5b75bf68ed101a90610b79836067546119e5565b6067553384526065815260408420838154019055604051838152847fddf252ad1be2c89b69c2b068fc378daa952ba7f163c4a11628f55a4df523b3ef833393a36040519283523392a280f35b6064906040519062461bcd60e51b82526004820152601f60248201527f45524332303a206d696e7420746f20746865207a65726f2061646472657373006044820152fd5b602484634e487b7160e01b81526011600452fd5b634e487b7160e01b600052604160045260246000fd5b60046040517f1f2a2005000000000000000000000000000000000000000000000000000000008152fd5b5080fd5b50346101d95760403660031901126101d957610c7b611860565b6040602435923381526066602052206001600160a01b03821660005260205260406000205491808310610cb457610a6692039033611bbe565b608460405162461bcd60e51b815260206004820152602560248201527f45524332303a2064656372656173656420616c6c6f77616e63652062656c6f7760448201527f207a65726f0000000000000000000000000000000000000000000000000000006064820152fd5b50346101d957806003193601126101d9576040519080606954610d408161196d565b80855291600191808316908115610dd55750600114610d7a575b610d7685610d6a818703826119c3565b60405191829182611817565b0390f35b9250606983527f7fb4302e8e91f9110a6554c2c0a24601252c2a42c2220ca988efcfe3999143085b828410610dbd575050508101602001610d6a82610d76610d5a565b80546020858701810191909152909301928101610da2565b869550610d7696935060209250610d6a94915060ff191682840152151560051b8201019293610d5a565b50346101d957610e2f6001600160a01b0360036040602094610e2036611891565b94168152609a86522001611cf2565b54604051908152f35b50346101d957806003193601126101d95760206001600160a01b0360335416604051908152f35b50346101d957806003193601126101d95760206001600160a01b0360985416604051908152f35b50346101d95760203660031901126101d9576001600160a01b03610ea8611860565b610eb06118c0565b1673ffffffffffffffffffffffffffffffffffffffff19609854161760985580f35b50346101d957806003193601126101d957602060405160048152f35b50346101d957806003193601126101d9576020609954604051908152f35b50346101d957806003193601126101d957610f256118c0565b60006001600160a01b0360335473ffffffffffffffffffffffffffffffffffffffff198116603355167f8be0079c531659141344cd1fd0a4f28419497f9722a3daafe3b4186f6b6457e08280a380f35b50346101d95760203660031901126101d95760406020916001600160a01b03610f9c611860565b168152606583522054604051908152f35b50346101d957806003193601126101d95760206001600160a01b0360975416604051908152f35b50346101d957806003193601126101d957602060405160d08152f35b50346101d957602080600319360112610c5d57600435600481108015611176575b6111455761101e33611f81565b338352609a825260036040842001600184528252604083205491338452609a8152600360408520016001855281528360408120556001600160a01b038481609d5416803b15610c5d5781906064604051809481937fa63190900000000000000000000000000000000000000000000000000000000083523360048401528a60248401528960448401525af1801561113a5761110a575b50836110d8916110c682609e54611f0c565b609e55609c54609d5482169116611f19565b6040519283528201527fd9e58d556b4c848b2f5027fb86c540ddbad746710eadbed608bde4d994d9a21e60403392a280f35b67ffffffffffffffff81969296116111265760405293836110b4565b602482634e487b7160e01b81526041600452fd5b6040513d88823e3d90fd5b602490604051907f4ede0ebc0000000000000000000000000000000000000000000000000000000082526004820152fd5b5060d08111611011565b50346101d95760603660031901126101d957600435602435604435916001600160a01b03609854163303610a1557609954808552609b6020526040852060001994918581019081116112a7576111f99183918852609b60205260408820906111e9868383612556565b6111f4878383612590565b6125c8565b609954808652609b602052604086205490600181018091116112a7578652609b60205261122b604087209182546119e5565b905560995493841461129357600184018060995561124b83609e546119e5565b609e55841161129357604080519283526020830193909352918101919091527f8054e31accd385c74219eac9c238e4261c2a460523deb5aab574bdaf8a5c225b90606090a280f35b602485634e487b7160e01b81526011600452fd5b602487634e487b7160e01b81526011600452fd5b50346101d95760403660031901126101d957610a66906113056112dc611860565b913381526066602052604081206001600160a01b038416825260205260406024359120546119e5565b9033611bbe565b50346101d957806003193601126101d957602060405160128152f35b50346101d95760403660031901126101d9576024356003811015610c5d57610e2f90600160406020946004358152609b86522001611cf2565b50346101d957602080600319360112610c5d57600435908115610c3357338352609a8152604083206001810160028154920191825490856113a283836119e5565b106115db5750506113b233611f81565b8154848111156115655750506113c9838254611f0c565b905560995460018101809111610c09578352609b8152604083206113ee838254611f0c565b90555b61140782336001600160a01b0360975416611f19565b33156114fb573383526065815260408320548281106114915790827f85082129d87b2fe11527cb1b3b7a520aeb5aa6913f88a3d8757fe40d1db02fdd92338652606583520360408520558260675403606755836040518481527fddf252ad1be2c89b69c2b068fc378daa952ba7f163c4a11628f55a4df523b3ef833392a36040519283523392a280f35b6084826040519062461bcd60e51b82526004820152602260248201527f45524332303a206275726e20616d6f756e7420657863656564732062616c616e60448201527f63650000000000000000000000000000000000000000000000000000000000006064820152fd5b6084906040519062461bcd60e51b82526004820152602160248201527f45524332303a206275726e2066726f6d20746865207a65726f2061646472657360448201527f73000000000000000000000000000000000000000000000000000000000000006064820152fd5b61156f9085611f0c565b9061157b828254611f0c565b90556099548552609b835261159560408620918254611f0c565b90558054609954600181018091116115c7578552609b83526040852080548693926115bf91611f0c565b9055556113f1565b602486634e487b7160e01b81526011600452fd5b6115e860449287926119e5565b90604051917f52b9352d00000000000000000000000000000000000000000000000000000000835260048301526024820152fd5b50346101d95760603660031901126101d957611636611860565b9061163f61187b565b6040604435926001600160a01b038516815260666020528181203382526020522054926000198403611676575b610a669350611a08565b8284106116925761168d83610a6695033383611bbe565b61166c565b606460405162461bcd60e51b815260206004820152601d60248201527f45524332303a20696e73756666696369656e7420616c6c6f77616e63650000006044820152fd5b50346101d957806003193601126101d9576020606754604051908152f35b50346101d95760203660031901126101d9576040906001600160a01b03611719611860565b168152609a602052208054610d7660026001840154930154604051938493846040919493926060820195825260208201520152565b50346101d95760403660031901126101d957610a6661176b611860565b6024359033611bbe565b82346101d957806003193601126101d957806068546117938161196d565b80855291600191808316908115610dd557506001146117bc57610d7685610d6a818703826119c3565b9250606883527fa2153420d844928b4421650203c77babc8b33d7f2e7b450e2966db0c220977535b8284106117ff575050508101602001610d6a82610d76610d5a565b805460208587018101919091529093019281016117e4565b6020808252825181830181905290939260005b82811061184c57505060409293506000838284010152601f8019910116010190565b81810186015184820160400152850161182a565b600435906001600160a01b038216820361187657565b600080fd5b602435906001600160a01b038216820361187657565b6040906003190112611876576004356001600160a01b0381168103611876579060243560038110156118765790565b6001600160a01b036033541633036118d457565b606460405162461bcd60e51b815260206004820152602060248201527f4f776e61626c653a2063616c6c6572206973206e6f7420746865206f776e65726044820152fd5b603354906001600160a01b03809116918273ffffffffffffffffffffffffffffffffffffffff19821617603355167f8be0079c531659141344cd1fd0a4f28419497f9722a3daafe3b4186f6b6457e0600080a3565b90600182811c9216801561199d575b602083101461198757565b634e487b7160e01b600052602260045260246000fd5b91607f169161197c565b6040810190811067ffffffffffffffff821117610c1d57604052565b90601f8019910116810190811067ffffffffffffffff821117610c1d57604052565b919082018092116119f257565b634e487b7160e01b600052601160045260246000fd5b6001600160a01b03809116918215611b545716918215611aea5760008281526065602052604081205491808310611a8057604082827fddf252ad1be2c89b69c2b068fc378daa952ba7f163c4a11628f55a4df523b3ef95876020965260658652038282205586815220818154019055604051908152a3565b608460405162461bcd60e51b815260206004820152602660248201527f45524332303a207472616e7366657220616d6f756e742065786365656473206260448201527f616c616e636500000000000000000000000000000000000000000000000000006064820152fd5b608460405162461bcd60e51b815260206004820152602360248201527f45524332303a207472616e7366657220746f20746865207a65726f206164647260448201527f65737300000000000000000000000000000000000000000000000000000000006064820152fd5b608460405162461bcd60e51b815260206004820152602560248201527f45524332303a207472616e736665722066726f6d20746865207a65726f20616460448201527f64726573730000000000000000000000000000000000000000000000000000006064820152fd5b6001600160a01b03809116918215611c895716918215611c1f5760207f8c5be1e5ebec7d5bd14f71427d1e84f3dd0314c0f7b2291e5b200ac8c7c3b925918360005260668252604060002085600052825280604060002055604051908152a3565b608460405162461bcd60e51b815260206004820152602260248201527f45524332303a20617070726f766520746f20746865207a65726f20616464726560448201527f73730000000000000000000000000000000000000000000000000000000000006064820152fd5b608460405162461bcd60e51b8152602060048201526024808201527f45524332303a20617070726f76652066726f6d20746865207a65726f2061646460448201527f72657373000000000000000000000000000000000000000000000000000000006064820152fd5b906003811015611d0a57600052602052604060002090565b634e487b7160e01b600052602160045260246000fd5b6001600160a01b031690604051611d36816119a7565b6020928382527f5361666545524332303a206c6f772d6c6576656c2063616c6c206661696c6564848301526000808486829651910182855af13d15611e6e573d9167ffffffffffffffff8311611e5a5790611db193929160405192611da488601f19601f84011601856119c3565b83523d868885013e611e78565b805191821591848315611e36575b505050905015611dcc5750565b6084906040519062461bcd60e51b82526004820152602a60248201527f5361666545524332303a204552433230206f7065726174696f6e20646964206e60448201527f6f742073756363656564000000000000000000000000000000000000000000006064820152fd5b919381809450010312610c5d578201519081151582036101d9575080388084611dbf565b602485634e487b7160e01b81526041600452fd5b90611db192916060915b91929015611ed95750815115611e8c575090565b3b15611e955790565b606460405162461bcd60e51b815260206004820152601d60248201527f416464726573733a2063616c6c20746f206e6f6e2d636f6e74726163740000006044820152fd5b825190915015611eec5750805190602001fd5b611f089060405191829162461bcd60e51b835260048301611817565b0390fd5b919082039182116119f257565b916001600160a01b03604051927fa9059cbb000000000000000000000000000000000000000000000000000000006020850152166024830152604482015260448152608081019181831067ffffffffffffffff841117610c1d57611f7f92604052611d20565b565b6001600160a01b03600091168152609a6020526040812090609954825480821461208157801561207a576000198101908111612066575b8252609b6020526040822060001991808301908111610c09578352609b602052611fee6040842091600186019283549187612087565b60028401918254908115158061205a575b612010575b50505050506099549055565b85548552609b60205260408520906099549081019081116115c7578552609b60205260408520612041929187612087565b61204d825482546119e5565b9055553880808080612004565b50609954865410611fff565b602483634e487b7160e01b81526011600452fd5b5081611fb8565b50505050565b91929092600093845b600360ff821681811015612111576120a781612604565b6120c2575b505060ff8091169081146115c757600101612090565b612100816120f8886120f3896120ec856120e3612108996001809501611cf2565b54928c01611cf2565b5490611f0c565b61211b565b938901611cf2565b9182546119e5565b905538806120ac565b5050505050505050565b90600019818309818302918280831092039180830392146121c257670de0b6b3a7640000908282111561217e577faccb18165bd6fe31ae1cf318dc5b51eee0e1ba569b88cd74c1773b91fac10669940990828211900360ee1b910360121c170290565b606460405162461bcd60e51b815260206004820152601560248201527f4d6174683a206d756c446976206f766572666c6f7700000000000000000000006044820152fd5b5050670de0b6b3a764000091500490565b90670de0b6b3a7640000906000198284099282810292838086109503948086039514612253578483111561217e578291096001821901821680920460028082600302188083028203028083028203028083028203028083028203028083028203028092029003029360018380600003040190848311900302920304170290565b505080925015612261570490565b634e487b7160e01b600052601260045260246000fd5b818102929181159184041417156119f257565b6001600160a01b036000911681526020609a8152604091828120926002918281526003850184528181205492609954948654948587146123c45760001990878201908882116115c757818652609b845260019283888820018688528552878720549089018981116123b057916123298c8661232061232f958c8c8f8590609b8f849d86525283200191528b528d8d205490611f0c565b91015490612277565b906119e5565b99015497881515908161239d575b5061234e575b505050505050505090565b92612390989795928592612329989561238b9752609b82528085852001838552825284842054958452609b82528484200191835252205490611f0c565b612277565b3880808080808080612343565b88840191508189116112a757113861233d565b602488634e487b7160e01b81526011600452fd5b965050505050505090565b906001600160a01b03600092168252609a60205260408220916123f58260038501611cf2565b5491609954928454928385146124dc57600019918583019086821161206657818352609b60205260019361242e86866040872001611cf2565b54908701878111611293579161232961245d612467936002958852609b6020526120ec8a8a60408b2001611cf2565b878c015490612277565b9701549586151590816124c9575b50612484575b50505050505090565b6124be96959361238b936040846120ec94612329999652609b6020526124ae848484842001611cf2565b54958152609b6020522001611cf2565b38808080808061247b565b8685019150818711610c09571138612475565b50935050505090565b156124ec57565b608460405162461bcd60e51b815260206004820152602b60248201527f496e697469616c697a61626c653a20636f6e7472616374206973206e6f74206960448201527f6e697469616c697a696e670000000000000000000000000000000000000000006064820152fd5b9182549081156120815761232961257f92600180958160005201602052604060002054926121d3565b918160005201602052604060002055565b91908254918215612081576125bc600191612329604095846000968780520160205286862054926121d3565b93828052016020522055565b918254908115612081576123296125f29260018095600260005201602052604060002054926121d3565b91600260005201602052604060002055565b6003811015611d0a57801561262c576001811461262c5760021461262757600090565b600190565b5060019056fea2646970667358221220425df18970e28f129ecd33fb891a16e34a82e2fc262d93c3b2b540fa5343fac664736f6c63430008120033",
  "linkReferences": {},
  "deployedLinkReferences": {}
}