{
  "_format": "hh-sol-artifact-1",
  "contractName": "veCHI",
  "sourceName": "contracts/tokens/veCHI.sol",
  "abi": [
    {
      "inputs": [
        {
          "internalType": "contract IChiLocking",
          "name": "_chiLocking",
          "type": "address"
        },
        {
          "internalType": "contract IChiVesting",
          "name": "_chiVesting",
          "type": "address"
        }
      ],
      "stateMutability": "nonpayable",
      "type": "constructor"
    },
    {
      "inputs": [],
      "name": "NonTransferable",
      "type": "error"
    },
    {
      "anonymous": false,
      "inputs": [
        {
          "indexed": true,
          "internalType": "address",
          "name": "owner",
          "type": "address"
        },
        {
          "indexed": true,
          "internalType": "address",
          "name": "spender",
          "type": "address"
        },
        {
          "indexed": false,
          "internalType": "uint256",
          "name": "value",
          "type": "uint256"
        }
      ],
      "name": "Approval",
      "type": "event"
    },
    {
      "anonymous": false,
      "inputs": [
        {
          "indexed": true,
          "internalType": "address",
          "name": "from",
          "type": "address"
        },
        {
          "indexed": true,
          "internalType": "address",
          "name": "to",
          "type": "address"
        },
        {
          "indexed": false,
          "internalType": "uint256",
          "name": "value",
          "type": "uint256"
        }
      ],
      "name": "Transfer",
      "type": "event"
    },
    {
      "inputs": [
        {
          "internalType": "address",
          "name": "owner",
          "type": "address"
        },
        {
          "internalType": "address",
          "name": "spender",
          "type": "address"
        }
      ],
      "name": "allowance",
      "outputs": [
        {
          "internalType": "uint256",
          "name": "",
          "type": "uint256"
        }
      ],
      "stateMutability": "view",
      "type": "function"
    },
    {
      "inputs": [
        {
          "internalType": "address",
          "name": "spender",
          "type": "address"
        },
        {
          "internalType": "uint256",
          "name": "amount",
          "type": "uint256"
        }
      ],
      "name": "approve",
      "outputs": [
        {
          "internalType": "bool",
          "name": "",
          "type": "bool"
        }
      ],
      "stateMutability": "nonpayable",
      "type": "function"
    },
    {
      "inputs": [
        {
          "internalType": "address",
          "name": "account",
          "type": "address"
        }
      ],
      "name": "balanceOf",
      "outputs": [
        {
          "internalType": "uint256",
          "name": "",
          "type": "uint256"
        }
      ],
      "stateMutability": "view",
      "type": "function"
    },
    {
      "inputs": [],
      "name": "chiLocking",
      "outputs": [
        {
          "internalType": "contract IChiLocking",
          "name": "",
          "type": "address"
        }
      ],
      "stateMutability": "view",
      "type": "function"
    },
    {
      "inputs": [],
      "name": "chiVesting",
      "outputs": [
        {
          "internalType": "contract IChiVesting",
          "name": "",
          "type": "address"
        }
      ],
      "stateMutability": "view",
      "type": "function"
    },
    {
      "inputs": [],
      "name": "decimals",
      "outputs": [
        {
          "internalType": "uint8",
          "name": "",
          "type": "uint8"
        }
      ],
      "stateMutability": "view",
      "type": "function"
    },
    {
      "inputs": [
        {
          "internalType": "address",
          "name": "spender",
          "type": "address"
        },
        {
          "internalType": "uint256",
          "name": "subtractedValue",
          "type": "uint256"
        }
      ],
      "name": "decreaseAllowance",
      "outputs": [
        {
          "internalType": "bool",
          "name": "",
          "type": "bool"
        }
      ],
      "stateMutability": "nonpayable",
      "type": "function"
    },
    {
      "inputs": [
        {
          "internalType": "address",
          "name": "spender",
          "type": "address"
        },
        {
          "internalType": "uint256",
          "name": "addedValue",
          "type": "uint256"
        }
      ],
      "name": "increaseAllowance",
      "outputs": [
        {
          "internalType": "bool",
          "name": "",
          "type": "bool"
        }
      ],
      "stateMutability": "nonpayable",
      "type": "function"
    },
    {
      "inputs": [],
      "name": "name",
      "outputs": [
        {
          "internalType": "string",
          "name": "",
          "type": "string"
        }
      ],
      "stateMutability": "view",
      "type": "function"
    },
    {
      "inputs": [],
      "name": "symbol",
      "outputs": [
        {
          "internalType": "string",
          "name": "",
          "type": "string"
        }
      ],
      "stateMutability": "view",
      "type": "function"
    },
    {
      "inputs": [],
      "name": "totalSupply",
      "outputs": [
        {
          "internalType": "uint256",
          "name": "",
          "type": "uint256"
        }
      ],
      "stateMutability": "view",
      "type": "function"
    },
    {
      "inputs": [
        {
          "internalType": "address",
          "name": "to",
          "type": "address"
        },
        {
          "internalType": "uint256",
          "name": "amount",
          "type": "uint256"
        }
      ],
      "name": "transfer",
      "outputs": [
        {
          "internalType": "bool",
          "name": "",
          "type": "bool"
        }
      ],
      "stateMutability": "nonpayable",
      "type": "function"
    },
    {
      "inputs": [
        {
          "internalType": "address",
          "name": "from",
          "type": "address"
        },
        {
          "internalType": "address",
          "name": "to",
          "type": "address"
        },
        {
          "internalType": "uint256",
          "name": "amount",
          "type": "uint256"
        }
      ],
      "name": "transferFrom",
      "outputs": [
        {
          "internalType": "bool",
          "name": "",
          "type": "bool"
        }
      ],
      "stateMutability": "nonpayable",
      "type": "function"
    }
  ],
  "bytecode": "0x6080346200035c576001600160401b0390601f1990601f9062000e9a38819003838101851683019190868311848410176200026c5780849260409485528339810103126200035c5780516001600160a01b039485821694918590036200035c576020809301519586168096036200035c576200007a62000360565b6011815270566f74696e6720457363726f772043484960781b84820152620000a162000360565b9060059586835264766543484960d81b868401528151928484116200026c5760039384546001948582811c9216801562000351575b8a8310146200033d578185849311620002eb575b5089908583116001146200028c575f9262000280575b50505f1982871b1c191690841b1784555b80519485116200026c5760049687548481811c9116801562000261575b828210146200024e5783811162000208575b5080928611600114620001a05750849550908492915f9562000194575b50501b925f19911b1c19161790555b60018060a01b031991828254161790556006541617600655604051610b199081620003818239f35b015193505f806200015d565b93929585908116885f52855f20955f905b89838310620001ed5750505010620001d3575b50505050811b0190556200016c565b01519060f8845f19921b161c191690555f808080620001c4565b858701518955909701969485019488935090810190620001b1565b885f52815f20848089018c1c820192848a1062000244575b018b1c019085905b8281106200023857505062000140565b5f815501859062000228565b9250819262000220565b602289634e487b7160e01b5f525260245ffd5b90607f16906200012e565b634e487b7160e01b5f52604160045260245ffd5b015190505f8062000100565b908987941691885f528b5f20925f5b8d828210620002d45750508411620002bc575b505050811b01845562000111565b01515f1983891b60f8161c191690555f8080620002ae565b8385015186558a979095019493840193016200029b565b909150865f52895f20858085018d1c8201928c861062000333575b918d89928796959401901c01915b82811062000324575050620000ea565b5f815585945088910162000314565b9250819262000306565b634e487b7160e01b5f52602260045260245ffd5b91607f1691620000d6565b5f80fd5b60408051919082016001600160401b038111838210176200026c5760405256fe6080604081815260049182361015610015575f80fd5b5f92833560e01c91826306fdde03146107f457508163095ea7b3146107ca57816318160ddd146106c957816323b872dd146105a9578163313ce5671461058d578163395093511461053e57816370a082311461040c5781637bae6f86146103e457816395d89b41146102e1578163a457c2d71461021c578163a9059cbb1461012357508063dd62ed3e146100db5763faa6edb4146100b1575f80fd5b346100d757816003193601126100d7576020906001600160a01b03600554169051908152f35b5080fd5b50346100d757806003193601126100d757806020926100f861092c565b610100610946565b6001600160a01b0391821683526001865283832091168252845220549051908152f35b8284346102195781600319360112610219575061013e61092c565b33156101c8576001600160a01b03161561015f5751639cbe235760e01b8152fd5b906020608492519162461bcd60e51b8352820152602360248201527f45524332303a207472616e7366657220746f20746865207a65726f206164647260448201527f65737300000000000000000000000000000000000000000000000000000000006064820152fd5b608483602084519162461bcd60e51b8352820152602560248201527f45524332303a207472616e736665722066726f6d20746865207a65726f206164604482015264647265737360d81b6064820152fd5b80fd5b9050823461021957826003193601126102195761023761092c565b91836024359233815260016020528181206001600160a01b03861682526020522054908282106102785760208561027185850387336109b3565b5160018152f35b608490602086519162461bcd60e51b8352820152602560248201527f45524332303a2064656372656173656420616c6c6f77616e63652062656c6f7760448201527f207a65726f0000000000000000000000000000000000000000000000000000006064820152fd5b8383346100d757816003193601126100d757805191809380549160019083821c928285169485156103da575b60209586861081146103c7578589529081156103a3575060011461034b575b610347878761033d828c038361095c565b51918291826108e5565b0390f35b81529295507f8a35acfbc15ff81a39ae7d344fd709f28e8600b4aa8c65c6b64bfe7fe36bd19b5b82841061039057505050826103479461033d9282010194868061032c565b8054868501880152928601928101610372565b60ff19168887015250505050151560051b830101925061033d82610347868061032c565b602484602285634e487b7160e01b835252fd5b93607f169361030d565b5050346100d757816003193601126100d7576020906001600160a01b03600654169051908152f35b90503461053a57602092836003193601126102195761042961092c565b6001600160a01b03928360055416918551948786602481847fbb4d44360000000000000000000000000000000000000000000000000000000096878352169788888301525afa95861561053057908893929186976104f6575b5090602491600654168851958694859384528301525afa9182156104eb5780926104b9575b50506104b291610992565b9051908152f35b9091508482813d83116104e4575b6104d1818361095c565b810103126102195750516104b25f6104a7565b503d6104c7565b8451903d90823e3d90fd5b84819394959298503d8311610529575b610510818361095c565b81010312610525575194879291906024610482565b8480fd5b503d610506565b87513d87823e3d90fd5b8280fd5b5050346100d757806003193601126100d75761027160209261058661056161092c565b91338152600186528481206001600160a01b0384168252865284602435912054610992565b90336109b3565b5050346100d757816003193601126100d7576020905160128152f35b828434610219576060366003190112610219576105c461092c565b906105cd610946565b90604435926001600160a01b03938585831693848152600160205281812033825260205220545f198103610668575b5050501561061757161561015f5751639cbe235760e01b8152fd5b608484602085519162461bcd60e51b8352820152602560248201527f45524332303a207472616e736665722066726f6d20746865207a65726f206164604482015264647265737360d81b6064820152fd5b818110610686579061067e9291039033906109b3565b8580806105fc565b606488602089519162461bcd60e51b8352820152601d60248201527f45524332303a20696e73756666696369656e7420616c6c6f77616e63650000006044820152fd5b8284346102195780600319360112610219576001600160a01b039081600554169383519485937f11acc1a7000000000000000000000000000000000000000000000000000000009182865285846020998a935afa9485156107c057908792918596610789575b50600654169286518094819382525afa9182156104eb5780926107575750506104b291610992565b9091508482813d8311610782575b61076f818361095c565b810103126102195750516104b2856104a7565b503d610765565b838193949297503d83116107b9575b6107a2818361095c565b810103126107b55790869151948861072f565b8380fd5b503d610798565b86513d86823e3d90fd5b5050346100d757806003193601126100d7576020906102716107ea61092c565b60243590336109b3565b929150346107b557836003193601126107b557600354600181811c91869082811680156108db575b60209586861082146108c857508488529081156108a6575060011461084d575b610347868661033d828b038361095c565b929550600383527fc2575a0e9e593c00f959f8c92f12db2869c3395a3b0502d05e2516446f71f85b5b82841061089357505050826103479461033d92820101945f61083c565b8054868501880152928601928101610876565b60ff191687860152505050151560051b830101925061033d826103475f61083c565b836022602492634e487b7160e01b835252fd5b93607f169361081c565b602080825282518183018190529093925f5b82811061091857505060409293505f838284010152601f8019910116010190565b8181018601518482016040015285016108f7565b600435906001600160a01b038216820361094257565b5f80fd5b602435906001600160a01b038216820361094257565b90601f8019910116810190811067ffffffffffffffff82111761097e57604052565b634e487b7160e01b5f52604160045260245ffd5b9190820180921161099f57565b634e487b7160e01b5f52601160045260245ffd5b6001600160a01b03809116918215610a7a5716918215610a105760207f8c5be1e5ebec7d5bd14f71427d1e84f3dd0314c0f7b2291e5b200ac8c7c3b92591835f526001825260405f20855f5282528060405f2055604051908152a3565b608460405162461bcd60e51b815260206004820152602260248201527f45524332303a20617070726f766520746f20746865207a65726f20616464726560448201527f73730000000000000000000000000000000000000000000000000000000000006064820152fd5b608460405162461bcd60e51b8152602060048201526024808201527f45524332303a20617070726f76652066726f6d20746865207a65726f2061646460448201527f72657373000000000000000000000000000000000000000000000000000000006064820152fdfea26469706673582212202c3c5c7a39058145ebe083248894b00a113cd881ce6b3ca5e937d1540ad1d5d064736f6c63430008140033",
  "linkReferences": {},
  "deployedLinkReferences": {}
}