{
  "abi": [
    {
      "inputs": [
        {
          "internalType": "address",
          "name": "asset",
          "type": "address"
        }
      ],
      "name": "getLatestPrice",
      "outputs": [
        {
          "internalType": "uint256",
          "name": "",
          "type": "uint256"
        }
      ],
      "stateMutability": "view",
      "type": "function"
    },
    {
      "inputs": [
        {
          "internalType": "address",
          "name": "",
          "type": "address"
        }
      ],
      "name": "prices",
      "outputs": [
        {
          "internalType": "uint256",
          "name": "",
          "type": "uint256"
        }
      ],
      "stateMutability": "view",
      "type": "function"
    },
    {
      "inputs": [
        {
          "internalType": "address",
          "name": "asset",
          "type": "address"
        },
        {
          "internalType": "uint256",
          "name": "price",
          "type": "uint256"
        }
      ],
      "name": "setPrice",
      "outputs": [],
      "stateMutability": "nonpayable",
      "type": "function"
    }
  ],
  "bytecode": {
    "object": "0x608060405234801561001057600080fd5b5061016a806100206000396000f3fe608060405234801561001057600080fd5b50600436106100405760003560e01c8062e4768b1461004557806316345f1814610071578063cfed246b146100ac575b600080fd5b61006f6100533660046100e8565b6001600160a01b03909116600090815260208190526040902055565b005b61009a61007f366004610112565b6001600160a01b031660009081526020819052604090205490565b60405190815260200160405180910390f35b61009a6100ba366004610112565b60006020819052908152604090205481565b80356001600160a01b03811681146100e357600080fd5b919050565b600080604083850312156100fb57600080fd5b610104836100cc565b946020939093013593505050565b60006020828403121561012457600080fd5b61012d826100cc565b939250505056fea2646970667358221220e2a3955f22fc73722e39ca9b8e3afda6f20fc76c46bf99fe31b0a8cb96acde5664736f6c63430008150033",
    "linkReferences": {}
  },
  "methodIdentifiers": {
    "getLatestPrice(address)": "16345f18",
    "prices(address)": "cfed246b",
    "setPrice(address,uint256)": "00e4768b"
  },
  "id": 42
}